S01000004265616D42616C6C2E7372656324
S214400000103F002015144000111440001114400009
S214400010111440001114400011144000000000006C
S2144000200000000000000000000000001114400026
S214400030111440000000000011144000111440004C
S21440004011144000111440001114400011144000D7
S21440005011144000111440001114400011144000C7
S214400060111440001114400000000000AD0F400085
S214400070C10F4000D50F400011144000111440003D
S2144000800000000000000000111440001114400061
S214400090111440001114400011144000CD1C4000C3
S2144000A01114400011144000111440001114400077
S2144000B01114400011144000111440001114400067
S2144000C011144000111440001114400010B5054CA6
S2144000D0237833B9044B13B10448AFF300800123AF
S2144000E0237010BDEC09002000000000D4794000C9
S2144000F00C4B43B10C480D4910B5AFF300800C488B
S214400100036823B910BD0A48036833B97047094BE2
S214400110002BF7D0BDE810401847064B002BF5D013
S214400120184700BF00000000D4794000F0090020C6
S214400130D47940000000000010B50E480E4B98479A
S2144001403E2100200D4B98470D4CA0470028FCD080
S2144001500C4B98470C4A0D4B9A620D4CA047002812
S214400160FCD010200B4B98470B4B98470148024B4E
S214400170984710BD000E2707D11540004D1040008F
S214400180A1104000B1104000013F132000040E4073
S214400190C1104000E90F4000C11440002DE9F04175
S2144001A080B90C469046002A0FDD8F18084E094D40
S2144001B0306821462B6898470134BC42F8D1404607
S2144001C0BDE8F0814FF0FF38F9E78046F7E700BF1B
S2144001D0940E00208C0E00200138022815D82DE9F8
S2144001E0F0410E4614469AB10D46DFF838800C4F63
S2144001F0D8F8000015F8011B3B68984700280ADB32
S214400200A81B013CF4D1BDE8F0814FF0FF307047A9
S2144002101046BDE8F0814FF0FF30BDE8F08100BFEA
S214400220900E0020940E002038B54FF40042284B24
S2144002305A600B20274CA0470C20A0470D20A04713
S2144002404FF060511320244CA0474FF060511420CB
S214400250A04722492320A04721494C20A0474FF0E1
S21440026000624FF4C0611F481F4B98474FF08051C3
S2144002701320A0474FF080511420A0471B4D29461D
S2144002804020A04729464120A04729464220A04773
S21440029029464320A04729464420A04729464520D2
S2144002A0A04729464620A04729464720A04729463A
S2144002B04B20A04729464820A04729464F20A04724
S2144002C029465320A0474FF040514D20A04738BD07
S2144002D050140E40D1104000DD0C4000790000283C
S2144002E059000028000E0E40FD0D40000100000899
S2144002F0F0B482B0C0F11100102828BF10200028AA
S21440030008BF01200021104D4FF4005637461824F0
S2144003106F630194019B5A1E0192002BFAD12E6303
S2144003200194019B5A1E0192002BFAD10131814261
S214400330EED34FF400330193019B5A1E0192002BDB
S214400340FAD102B0F0BC704700120E4082B04FF4B3
S2144003500052064B5A634FF400330193019B5A1EDA
S2144003600192002BFAD102B0704700BF00120E4037
S2144003700B4B1B78012B02D0022B07D070474FF057
S214400380C24300221A7022221A7070474FF0C243AE
S2144003902C221A7000221A703C221A70EEE700BF18
S2144003A0080A0020C0F30742034B1A70C0F3072226
S2144003B01A70C0B218707047020000612DE9F84309
S2144003C00746884631F0070923D004460026124DDA
S2144003D02068A8476068A847A068A847E068A8477C
S2144003E02069A8476069A847A069A847E069A84768
S2144003F0083620344E45EBD3464508D207EB8607F1
S214400400054D57F8040BA8470136B045F9D1BDE86D
S214400410F8834E46F0E700BFA50340004FF0C243C6
S21440042000221A7018700A0A02331A70C9B219707C
S2144004307047000010B44FF0C24300241C70187080
S2144004404AB14B1E501E51FA80F1044813F8012F52
S21440045002708B42FAD110BC704700BF02000061A8
S21440046082B000230193019B984211D90021094A8A
S2144004700191019B934205D8019B01330193019B57
S2144004809342F9D9019B01330193019B8342EFD3F9
S21440049002B070479F86010030B4154C246805684A
S2144004A0A54224BF04F1FF3505601568AC429CBFE9
S2144004B004F1FF3414600F4C24680D68A54224BF35
S2144004C004F1FF350D601D68AC429CBF04F1FF345B
S2144004D01C6004681568AC4284BF056014600A68F6
S2144004E01868824284BF08601A6030BC704700BFFC
S2144004F00C0000201000002082B04FF0C2430022C3
S2144005001A70D3221A701A490B788DF800300B787F
S2144005108DF801300B78DAB28DF802200B78DBB21A
S2144005208DF8033003EB02239BB249F241329342EB
S21440053014D04FF0C24300221A701A700C490B7840
S214400540DAB28DF800200B7803EB02239BB249F217
S2144005502532934207D0012002B070470222054B55
S2144005601A700020F8E70122024B1A700020F3E7C9
S21440057002000061080A002008B5094B1B78012BD1
S21440058002D0022B06D008BD40F233110720054B9F
S214400590984708BD002211462920034B9847F2E7AA
S2144005A0080A00201D04400035044000044A131F7A
S2144005B002F56F7243F8040F9342FBD1704700BFB9
S2144005C00C0A00202DE9F04182B00C4617461E4624
S2144005D0234B1B78012B04D0022B17D002B0BDE86A
S2144005E0F08185B229465020DFF87C80C047781ECF
S2144005F0284481B25120C047A4B221465220C04769
S214400600013E3444A1B25320C047E7E7030A8DF8C1
S2144006100430C2B28DF805207B1E1844000A8DF8BF
S21440062006001F4617448DF8077004220DEB0201A2
S2144006302A200C4DA847230A8DF80430E2B28DF8E4
S2144006400520731E1C44240A8DF806401E46164498
S2144006508DF8076004220DEB02012B20A847BDE76A
S214400660080A0020350440001D04400038B5074BFA
S2144006701B78012B00D038BD0C4601462020044D87
S214400680A84721462120A847F5E700BF080A0020D2
S2144006901D0440002DE9F04383B00646AC4B984716
S2144006A0002840F05281F022AA4B1A604FF4A07204
S2144006B0A94B1A60A94B1B78012B06D0022B00F0E1
S2144006C0B580012003B0BDE8F08333210720A44C59
S2144006D0A04700211020A04701210020A0474FF44A
S2144006E080710120A0474FF4E0610220A04700211E
S2144006F00420A04740F207210820A04700210920F7
S214400700A04700210A20A04700210C20A047002136
S2144007100D20A04700210F20A04700211020A04711
S21440072000211120A04700211220A04700211320BD
S214400730A047C8208B4DA84741F290211020A047E3
S21440074040F227211120A0473220A8471B21122023
S214400750A0473220A8474FF488511320A0471921BC
S2144007602920A0470D212B20A0473220A847002152
S2144007703020A0474FF401713120A0474FF400715C
S2144007803220A04707213520A04741F204413620B9
S214400790A04740F205713720A04740F20531382087
S2144007A0A04740F207713920A04740F201713C2033
S2144007B0A0470E213D20A0474DF210010320A04740
S2144007C04FF427416020A04701216120A047002127
S2144007D06A20A04700218020A04700218120A04712
S2144007E000218220A04700218320A04700218420AA
S2144007F0A04700218520A04710219020A0474FF415
S214400800C0619220A0474FF488719520A047736836
S214400810326800210846544CA047B068534B98476E
S21440082000210846524B984700204BE739238DF865
S21440083000302C238DF8013000248DF802403423FC
S2144008408DF8033002278DF8047005226946CB20C8
S214400850484DA8478DF80040AA238DF80130B023B4
S2144008608DF8023003226946CF20A84730238DF802
S214400870003001226946F720A84725238DF800302E
S21440088001226946C020A8474FF011098DF8009014
S21440089001226946C120A8475C238DF800304C23CE
S2144008A08DF801303A466946C520A84794238DF80E
S2144008B0003001226946C720A84785238DF80030BE
S2144008C04FF001088DF8018078238DF8023003221E
S2144008D06946E820A8478DF800408DF801403A4622
S2144008E06946EA20A84748238DF8003042466946C4
S2144008F03620A84706238DF80030424669463A20FF
S214400900A8478DF8007082238DF8013027238DF894
S21440091002308DF8034004226946B620A847736823
S214400920326821462046104FB847B0680F4B98476C
S214400930224669464846A8470A200A4B9847224618
S21440094069462920A8472046BCE60120BAE600BFF3
S214400950F90440000C00002010000020080A002087
S2144009601D04400061044000C5054000AD05400040
S2144009706D06400035044000164B1B68834224D960
S214400980154B1B688B4222D910B5144B1B78012B94
S21440099003D0022B0DD0002010BD89B280B2104B80
S2144009A09847104B9847104B1868104B98470020B4
S2144009B010BD00231A460E4CA0470A4B98470A4BD8
S2144009C018680A4B9847002010BD01207047012048
S2144009D0704700BF0C00002010000020080A0020CE
S2144009E06D064000710340000C0A0020A50340003D
S2144009F0C50540002DE9F04184B003900291019274
S214400A0004AA42F8103D134601AA02A903A8224CA4
S214400A10A04703980299009B0133019A01325B1A62
S214400A20121A1E4CA047BDF80810BDF80C001C4B0F
S214400A3098471C4B9847039A019B9A1A009B03F1D0
S214400A400108029BA8EB030802FB0888164BA3FB91
S214400A500823DB0953B15C1E144FF026144D314673
S214400A603846A847013CB4F1FF3FF8D10E49A1FBF8
S214400A700831C909C1EB0111A8EB01110B480C4B19
S214400A8098470C4B1B680C4A126800210846034CDA
S214400A90A04704B0BDE8F08199044000C505400079
S214400AA06D06400071034000898888880C0A002043
S214400AB0BD034000100000200C0000202DE9F04F40
S214400AC085B0039002921378002B48D08B46019055
S214400AD0DFF8948033E00BF1100B039B019329E081
S214400AE0013CB4F1FF3F09D02B78234113F0010FAE
S214400AF0F6D0AAEB04013046C047F1E707240BF1D5
S214400B000F0902E0013C012C09D07B78234113F009
S214400B10010FF7D0A9EB04013046C047F2E7023593
S214400B200136009BB34202D007242F46DCE7019BE8
S214400B300C330193029A12F8013F02927BB10A2BC2
S214400B40C9D003EB8303074D05EB8303A3F520755C
S214400B50019E33460A3300930BF1070AE4E705B0DB
S214400B60BDE8F08F146F40007909400009014250FB
S214400B70704700EB01114A60704700EB01118A6034
S214400B80704700EB0111CA607047016370474163CC
S214400B90704721F00061B1F1405F0CBF836BC36BBF
S214400BA0134214BF0120002070474264B1F1C05F79
S214400BB039D013D8B1F1006F25D0B1F1805F0AD19A
S214400BC0036F13430367436F416F0B4023EA0203EF
S214400BD04367426070470029FBD17047B1F1205F00
S214400BE020D009D8B1F1005FF3D1036F13430367F8
S214400BF0436F13434367ECE7B1F1405F12D0B1F166
S214400C00605F0FD0E5E710B4016F046FD343214017
S214400C101C4619400167436F416F0B4023404367B2
S214400C20426010BC7047036F016F0B4023EA02031B
S214400C300367436F13434367CBE7416412F0010FEA
S214400C4014BF4166016612F00A0F14BF016241628A
S214400C5012F0020F07D112F0080F18BFC0F8841028
S214400C60416101607047C0F88010F9E710B4019CFC
S214400C70416444B9016643B1016542B941630161CB
S214400C80016010BC70474166F5E74165F5E70163D2
S214400C90F5E712B9C0F890107047C0F89410704746
S214400CA012F0100F10D0C0F8B01012F0200F14BF82
S214400CB0C0F8D410C0F8D01012F0400F14BFC0F8DF
S214400CC0C010C0F8C4107047C0F8B4107047016434
S214400CD07047C06C7047806C7047000070B582B03B
S214400CE00D46430903F5001303F207735C0201F057
S214400CF0F043B3F1005F53D00AD8B3F1805F2DD0F4
S214400D00B3F1C05F3BD0B3F1006F15D0002023E0B5
S214400D10B3F1405F55D0B3F1605F52D0B3F1205F7E
S214400D20F4D100F01F0101262A4606FA01F12046BA
S214400D302F4B984730460FE000F01F0001268640B4
S214400D4032464FF0006120462A4B984715F0010F77
S214400D5014BF66662666012002B070BD00F01F0014
S214400D600126864032464FF080512046214B984718
S214400D7015F0010F14BF666626660120ECE700F00A
S214400D801F000126864032464FF0C0512046194B80
S214400D90984715F0010F14BF666626660120DBE70C
S214400DA000F01F000126864032464FF00051204694
S214400DB0104B984715F0010F14BF66662666012053
S214400DC0CAE705F0605200F01F01012605EA060357
S214400DD00093C5F38003B2F1605F14BF0022012286
S214400DE006FA01F12046044CA0473046B4E700BF5F
S214400DF03B0C4000AB0B40006D0C400070B582B021
S214400E0005460E46144602F0F043B3F1005F3DD06F
S214400E100AD8B3F1805F21D0B3F1C05F2AD0B3F1D6
S214400E20006F0ED0002017E0B3F1405F3AD0B3F128
S214400E30605F37D0B3F1205FF4D1234B9847012051
S214400E400AE00A464FF00061204B984714F0010F25
S214400E5014BF6E662E66012002B070BD0A464FF083
S214400E6080511A4B984714F0010F14BF6E662E66D9
S214400E700120F1E70A464FF0C051144B984714F052
S214400E80010F14BF6E662E660120E5E70A464FF056
S214400E9000510E4B984714F0010F14BF6E662E6635
S214400EA00120D9E704F0605204F001030093C4F334
S214400EB08003B2F1605F14BF00220122314628460B
S214400EC0034CA0470120C7E73B0C4000AB0B40005B
S214400ED06D0C40002DE9F84381460F46124B98476B
S214400EE005464846114B9847054013D0104C04F130
S214400EF0600603E0B4420DD010345DB12068B842BD
S214400F00F8D161682942F5D0E3689847636825EAD6
S214400F100305EFE7074B1B6823B1074B1B680BB174
S214400F2048469847BDE8F883D30C4000D70C4000AD
S214400F30CC0D0020980E0020400E0020F8B5184C2E
S214400F402668062E29D84FF0000C6446154F04E05C
S214400F500134E4B2A446A64209D3A64625017D59EB
S214400F608D42F5D107EB04156D689542F0D10D4DD5
S214400F704FEA0E1E05EB0E0445F80E106260A360A5
S214400F800699E1600136664504BF05490E60114684
S214400F901A46054B98470020F8BD0120F8BD00BF13
S214400FA03C0E0020CC0D0020A10C400008B50B21C3
S214400FB00148024B984708BD000E0E40D50E400033
S214400FC008B50C210148024B984708BD00100E405A
S214400FD0D50E400008B50D210148024B984708BD84
S214400FE000120E40D50E4000174A136B23F07003D4
S214400FF018431063936E13F0080F0AD14FF4006342
S21440100011498A6E12F0080F03D1013BF9D1012035
S21440101070470D4A136B23F0030343F00203136338
S214401020936E13F0080F0AD14FF4006306498A6E98
S21440103012F0080F05D1013BF9D10120704700207E
S21440104070470020704700BF00040E40C8B9114AE0
S214401050136A090289B223F45C1323F0030343F4B2
S2144010605C1343F001030B431362936E13F0010FBE
S214401070FBD0084A136A43F09B7343F480331362F1
S214401080704704490B6A044A1A40044B13430B62E8
S214401090704700BF00040E40FCFFC8FE0200370148
S2144010A0024B986E00F48030704700BF00040E403C
S2144010B04FF00052014B9A62704700BF00040E404A
S2144010C0024B986E00F00200704700BF00040E40CE
S2144010D022281ED81F280CD8114B9A69012383401A
S2144010E0934318D0012303FA00F00D4B18610020FB
S2144010F0704720380A4BD3F8082101238340934396
S2144011000BD0012303FA00F0054BC3F80001002082
S214401110704701207047002070470020704700BF8E
S21440112000040E40F0B48CB007460E4601AC114D9C
S2144011300FCD0FC40FCD0FC495E8070084E8070015
S21440114001AA002352F8040BB6FBF0F0B0FBF7F010
S214401150B0F5807F07D901330B2BF3D14FF6FF70E4
S2144011600CB0F0BC70470A2B94BF40EA03204FF601
S214401170FF70F5E79476400070B506460D460C685D
S21440118044B1896820460C4B984704464FF6FF7397
S21440119098420CD0686840B1A968074B98474FF60C
S2144011A0FF73984205D044EA004434600024204649
S2144011B070BD0446FBE700BF2511400070B40A68C6
S2144011C04B6803F00F038C8A23430C8923438C7AA5
S2144011D043EA44238C7D43EA0443CC7D43EA4443BC
S2144011E00C7E43EA844300EB4214C4F80032CB68DA
S2144011F0C4F804320B69C4F80C328B7D3BB18C8B3F
S2144012004B8B43EA044300EB4214C4F81832856C17
S2144012104FF001139340DB431D40CC7F04FA02F6A7
S2144012208C7F944044EA06442C438464446C2340B8
S21440123091F8214004FA02F591F82040944044EA9F
S2144012400544234343640123934091F822401CB352
S214401250046A1C43046291F82440012C846E0CBF3F
S2144012601C439C43846691F82540012C846E0CBF39
S21440127044EA034324EA03438366D200C46EFF2352
S214401280934024EA030491F8233003FA02F22243FF
S214401290C266002070BC7047046A24EA03040462F5
S2144012A0D9E70B69934202D24FF6FF7070470B683E
S2144012B0CA6000EB4310C0F80822002070470123A4
S2144012C003FA01F141607047012303FA01F181609E
S2144012D070471032012303FA02F203FA01F10A437F
S2144012E04261704710B489014318022444504FF0BD
S2144012F0FF319962196A5A6010BC7047890105230C
S2144013004350704700EB8111CA61704700EB811172
S2144013104A62704700EB8111086A7047F0B486B0A5
S21440132002240194082402942024039480240494E4
S2144013300A9CE40B0594B0EB510F14D84C0CA04219
S21440134017D2012501AF57F82540B1FBF4F4260C1F
S21440135084420AD386420DD90135052DF3D10020AB
S21440136006B0F0BC70470020FAE70020F8E70120FE
S214401370F6E700252AB106A901EB850151F8141CB1
S2144013801160002BF3D01D600120E9E710B4AC23B8
S21440139003600B684A68B3FBF2F31B095C1E4FF60A
S2144013A0FE7294420BD803628B68436040F202237D
S2144013B0C0F8203150230360002010BC7047012045
S2144013C0FBE7436913F0020F1ABFC16100200120FA
S2144013D07047436913F0010F1DBF83690B700020EF
S2144013E001207047436913F0020F1DBFC1F3080187
S2144013F0C161002001207047436913F0010F05D0FA
S2144014008369C3F308030B600020704701207047D0
S214401410FEE7000008B5214B214A9A4228D9214BC5
S2144014201E4A9A420CD2013B9B1A23F00303043314
S21440143013441B4951F8040B42F8040B9A42F9D165
S21440144000BF194B194A9A420AD2013B9B1A23F015
S214401450030304331344002142F8041B9A42FBD191
S214401460134B144A9A60144B9847144B9847FEE720
S2144014700A4B0B4A9A42E3D20A4B0848181A1146BE
S214401480043A02440028DBD0C1F1040152F80409B2
S21440149043F8040DCA42F9D1D2E700BF000000204D
S2144014A0D4794000EC090020100F0020EC09002001
S2144014B000ED00E000004000E5274000B51F40007A
S2144014C03C4B1B6B03F00303032B0ED8DFE803F003
S2144014D0021C3838384B5B6913F0800F14BF4FF44A
S2144014E000424FF4FA42354B1A60324B1B6B03F006
S2144014F07003702B55D02F4B1A6B3049C2F3021233
S2144015000B68D3400B6070472A4B1B6A13F0807FF2
S21440151003D02B4A294B1A60E7E72A4A274B1A6022
S214401520244B1B6A03F07003102B05D0202BDCD114
S214401530234A224B1A60D8E7234A204B1A60D4E746
S2144015401C4B1B6A13F0807F18D01D4A1B4B1A6039
S214401550184B1B6B03F00303022B164A07BF916A16
S214401560926AD16AD26A1548C1F30A41036801FB00
S2144015700333D2B2B3FBF2F30360B6E7114A0F4B24
S2144015801A600C4B1B6A03F07003102B05D0202BFF
S214401590DED10B4A094B1A60DAE70B4A074B1A6052
S2144015A0D6E7064A13680949A1FB03135B08136094
S2144015B0704700BF00040E4010140E401400002078
S2144015C0001BB70000093D0000127A00ABAAAAAA89
S2144015D01A4B984214D91A4B984219D9194B98422B
S2144015E01DD9194B984221D9184B984294BF4FF0B9
S2144015F00423174B174A136002F5007213607047B6
S2144016004FF08063134A136002F500721360704710
S214401610114B104A136002F50072136070470F4B6F
S2144016200C4A136002F50072136070470C4B094A6F
S214401630136002F500721360704700BFFF2C310143
S214401640FF596202FF869303FFB3C404FFE0F5052B
S21440165000050004000A0E400001000400020004D9
S214401660000300040A4B1B6853B1094B1B681A1849
S2144016700849914208DB1046054A106018467047F4
S214401680054A034B1A60F0E74FF0FF30704700BF43
S214401690440E0020FC7F0220103F00204FF0FF3019
S2144016A070474FF400534B6000207047002070474F
S2144016B070B50A4C4FF400212046094DA847122029
S2144016C0084EB0474FF400212046074B9847562017
S2144016D0B0474FF400212046A84770BD000E0E408C
S2144016E08F0B4000010000208B0B40002DE9F04F8F
S2144016F095B0324EB04704460246314907A8314BB2
S214401700984707AA64218C202F4B9847C4F10A04B7
S2144017102E4D2046A84781468A46DFF8C880D8F82E
S2144017200000A8472A4F4A465346B847B047C8F82D
S2144017300000DFF8B4B0DBF80000A84702460B46CE
S214401740CDE9009A48465146DFF8A090C847CDE913
S2144017500201204B9847DFF898A002460B46DDE989
S2144017600001D047CDE904011B4B9847CDE9000165
S214401770D8F80000A847DDE90023D047DDE9042378
S214401780B84780468946154B9847CBF800400246F6
S2144017900B46DDE90201D04742464B46B847B047C4
S2144017A0C0F10D001228A8BF12200A28B8BF0A2090
S2144017B00B4B984715B0BDE8F08F00BF952740000B
S2144017C0C07640002D2A4000891C4000A5224000DB
S2144017D00D204000AD1A4000C51A4000B91A40001E
S2144017E05D1E4000480E00204C0E002009204000A0
S2144017F071234000F0B583B005460C4600230193A4
S214401800184B98420AD0184B98420FD0174B984224
S21440181014D0174B9D421BD003B0F0BD1F46154E4B
S21440182021463846B0470028FAD1F2E71E46114D09
S21440183021463046A8470028FAD1EDE71E460E4D11
S21440184001A93046A8470028FAD1019B2370E3E758
S2144018501E46094D01A93046A8470028FAD1019BEB
S2144018602370D9E700060E4000080E4000400240B4
S21440187000800240D3134000F913400070B50C4678
S214401880184B98420AD0184B984210D0174B9842A3
S21440189016D0174B98421CD0002070BD1E46154DE2
S2144018A021463046A8470028FAD1012070BD1E4682
S2144018B0104D21463046A8470028FAD1012070BD79
S2144018C01E460D4D21463046A8470028FAD1012035
S2144018D070BD1E46084D21463046A8470028FAD11E
S2144018E0012070BD00060E4000080E400040024039
S2144018F000800240C3134000E513400070B500224C
S214401900154B1A60154E164D1C4602E023680133EF
S21440191023604FF400424FF020513046A84701283C
S214401920F4D00D4B18680F4B98470F4C00220F4BC6
S214401930A04700220E4BA04700220E4B0E4CA0475D
S21440194004460D460D4B9847204629460C4B984773
S2144019500C4B186070BD00BFD40E0020000E0E4029
S214401960930B400085224000C525400000005E40A5
S21440197000004D400000404071234000ED164000FE
S21440198095274000500E00202DE9F04184B0DFF846
S2144019908C80CDF80480164C23680293A36803938A
S2144019A00820144FB847144D01A92846134EB04797
S2144019B0134B1D60134A144B1A60144A144B1A609A
S2144019C0CDF8048023680293A36803930820B847A1
S2144019D001A92846B0470F4D2B68002198680E4C49
S2144019E0A0472B6800215868A04704B0BDE8F081A6
S2144019F030000020D110400000060E408D134000FD
S214401A00940E00207D184000900E0020F5174000F0
S214401A108C0E002040000020D1284000000E2707F2
S214401A2030B585B01720174B9847174C009403AB3A
S214401A3002AA21460A20154DA847154D039A42F49E
S214401A40804200212846134B9847029AB4FBF2F492
S214401A50114AA2FB0432D208002128460F4B984771
S214401A601022002128460E4B98470E4B302283F812
S214401A7017234FF400021A60002128460A4B984765
S214401A8005B030BDD1104000000E27071D134000A2
S214401A9000000140E5124000CDCCCCCC0513400000
S214401AA00D13400000E100E0FD124000014BD3E979
S214401AB00001704728000020014BD3E90001704721
S214401AC018000020014BD3E9000170472000002099
S214401AD009A1D1E900010E4BC3E9000108A1D1E9F3
S214401AE000010C4BC3E9000107A1D1E900010A4BF4
S214401AF0C3E90001704700BF333333333333D33F3A
S214401B009A9999999999B93F333333333333E33FAD
S214401B102800002020000020180000202DE9F04F6B
S214401B2083B02D4D08224FF400412846DFF8CCA064
S214401B30D04701224FF400412846284B9847284B6F
S214401B40009370234FF400420B212846DFF8B090F4
S214401B50C8474FF400412846224FB847224C10232E
S214401B6084F80B334FF400632360204E092208218B
S214401B703046D0471E4B0093702308220C21304637
S214401B80C84708213046B8474FF0200B84F80CB3BE
S214401B904FF480562660DFF86C8009223146404676
S214401BA0D047144B0093702332460D214046C84719
S214401BB031464046B84784F80DB34FF4005323608F
S214401BC00023009301224FF4002128460A4CA047E8
S214401BD003B0BDE8F08F00BF000E0E40930C4000EF
S214401BE0FD184000CF0C400000E100E000100E4021
S214401BF0A11D4000011E40006D0C40003B0C400003
S214401C003D0F400000120E4070B584B01F20154BAB
S214401C109847154C01212046144B984742F21073C2
S214401C20019300250295124B039301A92046114BC0
S214401C30984711490D818D720B234B60C8230B6169
S214401C400D23CB6001260E6020460C4B98472A4653
S214401C50314620460A4B984731462046094B98471E
S214401C6004B070BDD110400000000240C9124000D0
S214401C70000E270779114000AC0E0020BD11400031
S214401C80D3124000BF1240002DE9F04104460D46F5
S214401C9017466FF07F400A4EB04705F10F0304F138
S214401CA06402691FA4F10A00DFF81C80C0470020C8
S214401CB0B0473A4629462046024B9847BDE8F08151
S214401CC0AD054000BD0A4000F509400000B58FB0A4
S214401CD000210A480A4B98470A4B98470A4B1A680D
S214401CE001321A60094901A8094B984701AA3C21CC
S214401CF08C20084B98470FB05DF804FB000001406D
S214401D0015134000B1164000540E0020C476400023
S214401D102D2A4000891C4000F8B5174AA0210A2009
S214401D20164CA047164F174D174BD3E9002339469C
S214401D302846164EB0472A46A0216420A047144A9B
S214401D40B4210A20A047134BD3E90023394628463E
S214401D50B0472A46B4216420A0470F4AC8210A202B
S214401D60A0470E4BD3E9002339462846B0472A46BB
S214401D70C8216420A047F8BDC8764000891C4000B2
S214401D80CC764000D80E0020280000202D2A4000A7
S214401D90D476400020000020D8764000180000206E
S214401DA070B50F4C0CA3D3E90023D4E900010D4DC8
S214401DB0A847C4E900010C4AC8210A200B4DA84791
S214401DC00B4ED4E900230B4930460B4CA047324615
S214401DD0C8216420A84770BD9A9999999999B93FA6
S214401DE0180000200D204000D8764000891C400096
S214401DF0D80E0020CC7640002D2A4000000000007F
S214401E0070B50F4C0CA3D3E90023D4E900010D4D67
S214401E10A847C4E900010C4A96210A200B4DA84762
S214401E200B4ED4E900230B4930460B4CA0473246B4
S214401E3096216420A84770BD9A9999999999B93F77
S214401E40280000200D204000C8764000891C400035
S214401E50D80E0020CC7640002D2A400038B50546E6
S214401E60094901230B6002460848094B9847094C2C
S214401E702A4609492046094B9847224650218C203D
S214401E80074B984738BD00BFAC0E0020000002400C
S214401E90A3124000D80E00201C7740002D2A400098
S214401EA0891C400010B56FF07F40134B98474FF4A5
S214401EB0A073F02200210846104CA047104B9847CC
S214401EC0002108460F4B98470F4A14210A200F4C12
S214401ED0A0470F4A50210A20A0470E4A64210A20F4
S214401EE0A0470D4A3C210A20A0470C4A4FF4827175
S214401EF0A020A04710BD00BFAD054000F50940003A
S214401F00790540006D064000DC764000891C4000A4
S214401F10E8764000F47640000077400008774000BE
S214401F2010B50A20164B9847164C4FF00232012146
S214401F302046154B9847154A01212046144B984792
S214401F40144A01212046144B98470322012120467B
S214401F50124B9847124CF02323604FF4A0736360F3
S214401F600023A3606FF07F43E3600E4B9847204604
S214401F700D4B984708200D4B98470D4B984710BD82
S214401F80D110400000000E406D0B400004040A0AC9
S214401F90730B40000A0016007B0B4000830B40008A
S214401FA09C0E00204D03400095064000F102400084
S214401FB0A51E400008B5094B9847094B9847094B62
S214401FC09847094B9847094B9847094B9847094B00
S214401FD09847094B9847094B9847FEE73901400018
S214401FE02902400089194000091C40001D1B400082
S214401FF0211A4000211F4000D11A4000191D400000
S21440200081F0004102E000BF83F0004330B54FEA64
S21440201041044FEA430594EA050F08BF90EA020FD1
S2144020201FBF54EA000C55EA020C7FEA645C7FEA64
S214402030655C00F0E2804FEA5454D4EB5555B8BF87
S2144020406D420CDD2C4480EA020281EA030382EAF8
S214402050000083EA010180EA020281EA0303362D8A
S21440206088BF30BD11F0004F4FEA01314FF4801C5D
S2144020704CEA113102D0404261EB410113F0004F6F
S2144020804FEA03334CEA133302D0524263EB430326
S21440209094EA050F00F0A780A4F10104D5F1200EC4
S2144020A00DDB02FA0EFC22FA05F2801841F100011F
S2144020B003FA0EF2801843FA05F359410EE0A5F1F3
S2144020C020050EF1200E012A03FA0EFC28BF4CF024
S2144020D0020C43FA05F3C01851EBE37101F00045DA
S2144020E007D54FF0000EDCF1000C7EEB00006EEBE7
S2144020F00101B1F5801F1BD3B1F5001F0CD3490871
S2144021005FEA30004FEA3C0C04F101044FEA4452C7
S21440211012F5800F80F09A80BCF1004F08BF5FEA4E
S214402120500C50F1000041EB045141EA050130BD2E
S2144021305FEA4C0C404141EB010111F4801FA4F1D1
S2144021400104E9D191F0000F04BF01460020B1FA26
S21440215081F308BF2033A3F10B03B3F120020CDA5E
S2144021600C3208DD02F1140CC2F10C0201FA0CF03C
S21440217021FA02F10CE002F11402D8BFC2F1200CA1
S21440218001FA02F120FA0CFCDCBF41EA0C01904057
S214402190E41AA2BF01EB0451294330BD6FEA0404A0
S2144021A01F3C1CDA0C340EDC04F11404C4F120028B
S2144021B020FA04F001FA02F340EA030021FA04F39D
S2144021C045EA030130BDC4F10C04C4F1200220FAF4
S2144021D002F001FA04F340EA0300294630BD21FA32
S2144021E004F0294630BD94F0000F83F4801306BFF8
S2144021F081F480110134013D4EE77FEA645C18BFEC
S2144022007FEA655C29D094EA050F08BF90EA020F82
S21440221005D054EA000C04BF1946104630BD91EA7A
S214402220030F1EBF0021002030BD5FEA545C05D17D
S2144022304000494128BF41F0004130BD14F58004BC
S2144022403CBF01F5801130BD01F0004545F0FE4130
S21440225041F470014FF0000030BD7FEA645C1ABF65
S214402260194610467FEA655C1CBF0B46024650EA9C
S214402270013406BF52EA033591EA030F41F40021C8
S21440228030BD00BF90F0000F04BF0021704730B54E
S2144022904FF4806404F132044FF000054FF0000123
S2144022A050E700BF90F0000F04BF0021704730B5E4
S2144022B04FF4806404F1320410F0004548BF4042B9
S2144022C04FF000013EE700BF42004FEAE2014FEA0E
S2144022D031014FEA02701FBF12F07F4393F07F4FE9
S2144022E081F06051704792F0000F14BF93F07F4F1B
S2144022F0704730B54FF4607401F0004521F000415E
S21440230020E700BF50EA010208BF704730B54FF0E3
S21440231000050AE050EA010208BF704730B511F0E8
S214402320004502D5404261EB41014FF4806404F120
S21440233032045FEA915C3FF4DCAE4FF003025FEAA2
S214402340DC0C18BF03325FEADC0C18BF033202EB2A
S214402350DC02C2F1200300FA03FC20FA02F001FA84
S21440236003FE40EA0E0021FA02F11444C1E600BF23
S21440237070B54FF0FF0C4CF4E06C1CEA11541DBFD6
S2144023801CEA135594EA0C0F95EA0C0F00F0DEF8A1
S2144023902C4481EA030621EA4C5123EA4C5350EA86
S2144023A0013518BF52EA033541F4801143F48013D7
S2144023B038D0A0FB02CE4FF00005E1FB02E506F068
S2144023C00042E0FB03E54FF00006E1FB03569CF0BD
S2144023D0000F18BF4EF0010EA4F1FF04B6F5007FC3
S2144023E064F5407404D25FEA4E0E6D4146EB060635
S2144023F042EAC62141EA55514FEAC52040EA5E50BE
S2144024004FEACE2EB4F1FD0C88BFBCF5E06F1ED867
S214402410BEF1004F08BF5FEA500E50F1000041EB9E
S214402420045170BD06F0004646EA010140EA02004B
S21440243081EA0301B4EB5C04C2BFD4EB0C0541EA6D
S214402440045170BD41F480114FF0000E013C00F382
S214402450AB8014F1360FDEBF002001F0004170BDA6
S214402460C4F10004203C35DA0C341BDC04F11404BF
S214402470C4F1200500FA05F320FA04F001FA05F24B
S21440248040EA020001F0004221F0004110EBD37018
S21440249021FA04F642EB06015EEA430E08BF20EA44
S2144024A0D37070BDC4F10C04C4F1200500FA04F3E7
S2144024B020FA05F001FA04F240EA020001F0004179
S2144024C010EBD37041F100015EEA430E08BF20EAEC
S2144024D0D37070BDC4F1200500FA05F24EEA020E34
S2144024E020FA04F301FA05F243EA020321FA04F063
S2144024F001F0004121FA04F220EA020000EBD3701A
S2144025005EEA430E08BF20EAD37070BD94F0000F19
S2144025100FD101F00046400041EB010111F4801F4D
S21440252008BF013CF7D041EA060195F0000F18BFFE
S214402530704703F00046520043EB030313F4801F3A
S21440254008BF013DF7D043EA0603704794EA0C0FF4
S2144025500CEA135518BF95EA0C0F0CD050EA41060A
S21440256018BF52EA4306D1D181EA030101F0004187
S2144025704FF0000070BD50EA410606BF10461946AF
S21440258052EA430619D094EA0C0F02D150EA0136BB
S21440259013D195EA0C0F05D152EA03361CBF1046FC
S2144025A019460AD181EA030101F0004141F0FE419B
S2144025B041F470014FF0000070BD41F0FE4141F41F
S2144025C0780170BD70B54FF0FF0C4CF4E06C1CEA1F
S2144025D011541DBF1CEA135594EA0C0F95EA0C0FD4
S2144025E000F0A7F8A4EB050481EA030E52EA03358F
S2144025F04FEA013100F088804FEA03334FF08055B0
S21440260045EA131343EA12634FEA022245EA1115DC
S21440261045EA10654FEA00260EF000419D4208BF8D
S214402620964244F1FD0404F5407402D25B084FEA3A
S2144026303202B61A65EB03055B084FEA32024FF4E6
S21440264080104FF4002CB6EB020E75EB030E22BF43
S214402650B61A754640EA0C005B084FEA3202B6EB03
S214402660020E75EB030E22BFB61A754640EA5C00B2
S2144026705B084FEA3202B6EB020E75EB030E22BF42
S214402680B61A754640EA9C005B084FEA3202B6EB43
S214402690020E75EB030E22BFB61A754640EADC0002
S2144026A055EA060E18D04FEA051545EA16754FEA64
S2144026B006164FEAC30343EA52734FEAC2025FEA82
S2144026C01C1CC0D111F4801F0BD141EA00014FF011
S2144026D000004FF0004CB6E711F4801F04BF0143E2
S2144026E00020B4F1FD0C88BFBCF5E06F3FF6AFAEFE
S2144026F0B5EB030C04BFB6EB020C5FEA500C50F18E
S214402700000041EB045170BD0EF0004E4EEA113110
S21440271014EB5C04C2BFD4EB0C0541EA045170BD17
S21440272041F480114FF0000E013C90E645EA060E5B
S2144027308DE60CEA135594EA0C0F08BF95EA0C0F89
S2144027403FF43BAF94EA0C0F0AD150EA01347FF4D1
S21440275034AF95EA0C0F7FF425AF104619462CE7A8
S21440276095EA0C0F06D152EA03353FF4FDAE10460B
S214402770194622E750EA410618BF52EA43067FF45C
S214402780C5AE50EA41047FF40DAF52EA43057FF4EC
S214402790EBAE12E74FEA410212F5001215D211D500
S2144027A06FF47873B3EB625212D94FEAC12343F009
S2144027B0004343EA505311F0004F23FA02F018BF8B
S2144027C0404270474FF00000704750EA013005D154
S2144027D011F0004008BF6FF0004070474FF0000017
S2144027E0704700BF70B50F4E0F4D761BB61018BF22
S2144027F0002405D0013455F8043B9847A642F9D149
S2144028000A4E0B4D761B05F0CFF8B61018BF0024C5
S21440281006D0013455F8043B9847A642F9D170BD1E
S21440282070BD00BFB4794000B4794000BC79400028
S214402830B479400070B4860746D0541E002A41D072
S214402840CAB2034602E014F1FF343BD303F8012B2F
S2144028509D07F8D1032C2ED9CDB245EA05250F2C7D
S21440286045EA054519D903F110022646103E0F2EBB
S21440287042F8105C42F80C5C42F8085C42F8045C93
S21440288002F11002F2D8A4F1100222F00F0204F076
S2144028900F041032032C13440DD91E462246043A28
S2144028A0032A46F8045BFAD8221F22F003020432B9
S2144028B0134404F003042CB1C9B21C4403F8011BB2
S2144028C09C42FBD170BC704714460346C2E700BF2B
S2144028D000290CBF022200224FF4806300F000B8AB
S2144028E02DE9F043504C256883B004460F46904689
S2144028F01E4615B1AB6B002B77D0B8F1020F04D053
S214402900B8F1010F7DD8002E7BDB2146284602F029
S21440291049FB216B41B104F14003994202D028465D
S21440292002F048FC00232363B4F90C300022A26175
S21440293062601A0652D423F44A6323F00303B8F1C4
S214402940020FA38137D001AB6A462146284602F0E3
S2144029504FFDA3891843A08116B317B3AB6B002B6A
S2144029604BD0009B27609E42B4F90C3027611CBFB9
S21440297043F40063A381B8F1010F04BF43F00103A1
S214402980A3819BB213F00800666123D013F00100C8
S2144029902FD000207642A661A06003B0BDE8F08349
S2144029A0009E304602F052FD074668B3A38943F0C6
S2144029B08003A381D2E7002004F1430243F00203E0
S2144029C000250121A381A56022602261616103B0D8
S2144029D0BDE8F083A06003B0BDE8F08321692846D7
S2144029E002F0E8FBB4F90C30A5E7284602F06EFB8F
S2144029F083E7A66003B0BDE8F083284602F066FB96
S214402A00AFE74FF0FF30E2E7DDF80090B14506D083
S214402A10484602F01BFD074608B14E46C6E7B4F9E5
S214402A200C304FF0FF30C7E7400000200EB4F0B542
S214402A309CB021AB0F4953F8042B019305466FF029
S214402A400044086802954FF402774FF6FF7602A9D5
S214402A500695ADF8147004940794ADF8166000F02F
S214402A600BF8029B00221A701CB0BDE8F04003B081
S214402A70704700BF400000202DE9F04FC3B00C4621
S214402A800B9192460F930C9002F0A4FC03681A93A5
S214402A90184603F0D5FBA3891990190603D5236978
S214402AA0002B01F0018000230DF1C8091393149305
S214402AB015932793269318931B930993CDF89490D8
S214402AC0C846169317939AF800305446E3B1252B20
S214402AD002D119E0252B03D014F8013F002BF9D181
S214402AE0A4EB0A0585B1269B279AC8F800A00133B7
S214402AF02A44072BC8F80450279226937FDC08F117
S214402B000808099B2B4409932378002B7FD0002389
S214402B101A468DF8773019460D939B464FF0FF3096
S214402B2063780A9004F1010A0AF1010AA3F1200031
S214402B30582800F2C083DFE810F03802BE03BE0318
S214402B404002BE03BE03BE03BE03BE03BE03450231
S214402B500302BE035D006B02BE0386029C039C0319
S214402B609C039C039C039C039C039C039C03BE0306
S214402B70BE03BE03BE03BE03BE03BE03BE03BE0308
S214402B80BE0337035703BE035703BE03BE03BE034D
S214402B90BE039703BE03BE03AC03BE03BE03BE0321
S214402BA0BE03BE035902BE03BE031E03BE03BE03DE
S214402BB0BE03BE03BE03BE03BE03BE03BE03BE03C8
S214402BC0C602DB025703570357038B02DB02BE03E2
S214402BD0BE039002BE039D02CC01B4020802BE03AF
S214402BE0E101BE037E00BE03BE030D020D980F93A7
S214402BF040420D904BF0040B9AF8003094E725AA1B
S214402C000B990C9803F08AFB40B9C84679E7279B96
S214402C1023B10C980B9925AA03F080FB0B9B9B894C
S214402C2013F0400F099B18BF4FF0FF3309930998E4
S214402C3043B0BDE8F08F1BF0200F119340F0DD81CC
S214402C400F9A1BF0100F134640F06C851BF0400F98
S214402C5000F0688514880432002501230F9200276F
S214402C608DF877700A994A1C00F065822BF0800236
S214402C70079254EA050240F06482002940F0398405
S214402C80002B40F0D4841BF001030E9300F0028624
S214402C9042AE302306F8413D0A9B0E9A9342B8BF97
S214402CA0134608930023129317B1089B01330893E9
S214402CB0079B13F00203109302D0089B023308933D
S214402CC0079B13F0840540F00D830D9B089AA3EBF9
S214402CD0020BBBF1000F40F30583BBF1100F279C9E
S214402CE0269A29DD43462146A84610270C9C0B9D74
S214402CF006E0ABF1100BBBF1100F03F1080318DD33
S214402D000132B74826921031072A279183E881007E
S214402D10EFDD25AA2946204603F000FB00287FF475
S214402D207DAFABF1100BBBF1100F2799269A4B469F
S214402D30E6DC45460C4698460132A94B26925C4452
S214402D40072A279488E8080800F395849DF877704A
S214402D5008F1080877B1269B013301340DF177015D
S214402D600122072B2794269388E8060000F3D88391
S214402D7008F10808109B6BB1269B013302341EA94C
S214402D800222072B2794269388E8060000F3D38375
S214402D9008F10808802D00F013830A9B0E9A9F1AAC
S214402DA0002F36DD102F269B8E4D27DD42462146CE
S214402DB0B0464FF0100B2E460C9C0B9D04E0103F87
S214402DC0102F02F1080215DD01331031072B279131
S214402DD0269382E84008F2DD25AA2946204603F0DD
S214402DE09DFA00287FF41AAF103F102F2799269B94
S214402DF04A46E9DC35460C464646904601333C4456
S214402E00072B2794269388E8A00000F37E8308F1DA
S214402E100808079BDF0500F16782269B0E99C8F8D5
S214402E20006001330C44072B2794C8F804102693FF
S214402E3000F34A8308F10808079B5B073AD50D9BC9
S214402E40089A9D1A002D35DD102D269B20DD102674
S214402E500C9FDDF82CB004E0103D102D08F108085A
S214402E6016DD01335E4A26931034072B279488E8F4
S214402E704400F1DD25AA5946384603F04FFA0028AB
S214402E807FF4CCAE103D102D279C269BC846E8DC30
S214402E900133534A26932C44072B279488E8240072
S214402EA008DD25AA0B990C9803F038FA00287FF421
S214402EB0B5AE279C099B0D9A08998A42ACBF9B18D1
S214402EC05B180993002C40F00A8300232693C846DB
S214402ED0F9E511931BF0200340F0E2811BF010024D
S214402EE040F02C841BF0400300F028840F991346D2
S214402EF00A4604320C880F920025B0E60F9A1193CA
S214402F00166800248DF87740151D002E00F0A58623
S214402F100A9A531C00F007862146304602F050FDC0
S214402F20002800F0DF86831B0E930A940F95CDF899
S214402F301CB023EAE373089312949DF87770B3E6C7
S214402F409AF8003001222B21EEE54BF0200B9AF840
S214402F500030E9E51193002A40F08D87224B189304
S214402F601BF0200F40F011810F9A1BF0100F1346F4
S214402F7040F0DF831BF0400F00F0DB8304331488FF
S214402F800F9300251BF0010F00F00C8154EA050357
S214402F9000F0088130239DF844208DF878308DF875
S214402FA079204BF0020B022359E69AF800300029AC
S214402FB07FF4BAAD01222021B6E54BF0010B9AF81A
S214402FC00030B1E50F9C23680D9318460028234631
S214402FD003F10403FFF60AAE0F939AF80030A3E518
S214402FE06877400078774000487740004BF0100BF9
S214402FF01BF0200F11933FF423AE0F9D073525F0AD
S214403000070303F10802D3E900450F92012326E6A1
S2144030109AF800302A2B0AF1010400F01F87A3F12A
S21440302030000928A24600F2AB8600231C461AF858
S214403030013B04EB840400EB4404A3F13000092870
S214403040F5D90A9472E54BF0800B9AF800306BE5A0
S2144030504BF0400B9AF8003066E59AF800306C2B3F
S21440306003BF9AF801304BF0200B0AF1010A4BF0EF
S214403070100B59E5002A40F009871BF0200F40F05E
S214403080F7841BF0100F40F0AA841BF0400F00F0AE
S214403090A6840F9A136804320F92BDF824201A8033
S2144030A011E50F99B24B0C681893302278230431FF
S2144030B08DF8793011934BF0020B0F9100258DF867
S2144030C078200223CBE50F9911930A688DF8A0204B
S2144030D000230A461F468DF87730043201230893B2
S2144030E0CDF81CB00A9712970F920E9328AEDFE5E4
S2144030F01193002A40F0E2861BF0200F5DD11BF0B2
S214403100100F40F006831BF0400F00F002830F992B
S214403110B1F900400431E51722462B460F91002AAC
S21440312073F1000358DB0A999DF877704A1C4FF0FC
S21440313001037FF49BAD54EA050200F0DC81CDF834
S2144031401CB0012B00F07882022B40F003821898C6
S2144031504E46230904F00F0143EA05732A091C462C
S2144031601546435C06F8013D54EA0503F1D1A9EB48
S21440317006030E9390E51193002A40F09B867D4B04
S21440318018931BF0200F3FF4EFAE0F9D073525F048
S214403190070303F108021BF0010F0F92D3E9004525
S2144031A07FF4F4AE02235AE51193002A40F07E865F
S2144031B04BF0100B1BF0200FA1D00F9D073525F0CC
S2144031C00705D5E90023002A05F108011D4673F1DD
S2144031D000030F911446A6DA2D27644265EB450599
S2144031E08DF8777001233DE51193002A40F05A860A
S2144031F00F9D073525F0070303F108020F921A6862
S21440320014925B681593159B149D23F00044284642
S21440321021464FF0FF32584B03F0DEFC002840F0CA
S2144032204883284621464FF0FF32534B03F0B6FC06
S214403230002840F03E8314A80FC803F0A5FC0028E1
S21440324040F02F859DF877704C4E4D4B2BF080000C
S214403250079011980322002108920A914728D8BF68
S2144032601E460E9212911FE54BF0080B9AF800305E
S2144032705AE4A3F1300000231C461AF8013B04EB45
S214403280840400EB4404A3F130000928F5D90D94DA
S2144032904CE44BF0100B11931BF020033FF41EAE92
S2144032A00F9D073525F0070303F10802D3E90045D3
S2144032B00F920023D3E41193002A40F0E085119A40
S2144032C0002A3FF4A4AC002301211F4608918DF844
S2144032D0A020CDF81CB08DF877300A9312930E914B
S2144032E028AEE5E4279C35E5119B652B40F3A68088
S2144032F014A80FC803F03EFC002800F04F81269B20
S214403300204AC8F80020013301340122072B2794B5
S2144033102693C8F8042000F36A8308F108081F9B28
S214403320139A279C934203DB079BDD077FF584AD0A
S214403330269B19991A9AC8F8002001330C44072B8B
S214403340C8F804102794269300F39E8308F10808D3
S214403350139B5E1E002E7FF76FAD102E269B0A4DE8
S21440336040F3F58122461027DDF830B00B9C13E081
S2144033704877400034774000FFFFEF7F28774000D3
S21440338024774000647740007877400008F10808CA
S214403390103E102E40F3DA8101331032072B27926D
S2144033A0269388E8A000F1DD25AA2146584602F07B
S2144033B0B5FF00287FF432AC279A269BC846E7E73D
S2144033C00D9B089A9F1A002F7FF7E7AC102F269B7D
S2144033D0B64D27DD42462146B0464FF0100B2E46EE
S2144033E00C9C0B9D04E0103F102F02F1080215DDE7
S2144033F001331031072B2791269382E84008F2DDEF
S21440340025AA2946204602F089FF00287FF406AC0C
S214403410103F102F2799269B4A46E9DC35460C4636
S2144034204646904601333C44072B2794269388E82B
S214403430A00000F3328208F10808AEE4139B269FF2
S214403440012B40F3FE81013701340123072F2794D7
S2144034502697C8F80060C8F8043000F3038208F1E5
S2144034600808199A1A9BC8F8003001371444072FE9
S21440347027942697C8F8042000F3008208F108082D
S21440348014A80FC803F076FB139B002840F0018178
S214403490013B013701361C44072F26972794C8F86E
S2144034A00060C8F8043000F3288108F108081B9A29
S2144034B0C8F804200137144421AB072F27942697D9
S2144034C0C8F800307FF7B6AC25AA0B990C9802F0E6
S2144034D025FF00287FF4A2AB279CC846ACE425AA6B
S2144034E00B990C9802F01AFF00283FF4EEACFFF759
S2144034F095BBDDF81CB0012B00F03581022B25D1A1
S214403500CDF81CB00024002521E625AA0B990C987E
S21440351002F004FF00287FF481AB279CC84678E47D
S21440352025AA0B990C9802F0F9FE00287FF476AB9A
S214403530279CC8461EE425AA0B990C9802F0EEFE7E
S21440354000287FF46BAB279CC84623E4CDF81CB01C
S21440355000240025494600E03146E20842EA45722A
S214403560E80804F0070305461446303354EA0502DB
S21440357001F8013C01F1FF36EED1079AD2077FF5FC
S214403580F6AD302B3FF4F3AD0239302306F8013C5C
S214403590A9EB01030E930E46FFF77EBB1F99002949
S2144035A040F32F82129B139A9342A8BF1346002BD8
S2144035B01F460DDD269BC8F8006001333C44072BB0
S2144035C02794C8F80470269300F3208308F108086F
S2144035D0129B002FA8BFDB1B002B1F4640F3D78053
S2144035E0102F269B314D40F3EE8142462146B04691
S2144035F04FF0100B2E460C9C0B9D04E00832103FFB
S214403600102F40F3DC8101331031072B279126938E
S21440361082E84008F2DD25AA2946204602F07EFED2
S21440362000287FF4FBAA2799269B4A46E7E70A9B91
S2144036300E934E46FFF730BB002D08BF0A2CC0F055
S21440364090804E46204629460A22002303F0DAFAA6
S214403650303206F8012D2046294600230A2203F080
S214403660D1FA04460D4654EA0503EBD1A9EB06030E
S2144036700E93FFF711BB25AA0B990C9802F04EFE4D
S21440368000287FF4CBAA9DF87770279CC846FFF7A2
S21440369061BB5E1E002E7FF70AAF102E034D23DD62
S2144036A022464FF0100B0C9C07E000BF7877400096
S2144036B0103E102E08F1080815DD01371032072F8E
S2144036C02792269788E82008F2DD25AA0B992046FF
S2144036D002F024FE00287FF4A1AA103E102E279A5E
S2144036E0269FC846E9DC144601373444072F279402
S2144036F0269788E860007FF7D8AE25AA0B990C98E5
S21440370002F00CFE00287FF489AA279C269FC84614
S214403710CDE60F9A146813460433E5170F932246F6
S2144037202B46FCE404321C680F9201230025FFF769
S21440373096BA1C6804330F93002523E40F990A4673
S21440374004320C680F920025FFF789BA14460133FD
S2144037503444072B2794269388E860007FF76AABAB
S214403760B2E6DDF81CB0CDF81CB042AE30340123D2
S21440377006F8414D0E93FFF78FBA25AA0B990C9881
S21440378002F0CCFD00287FF449AA279CC8461F9A21
S214403790139B9A4244DB079BD90741D4139B12984C
S2144037A09A1A1D1A9542A8BF1546002D0EDD269979
S2144037B0C8F80450013106442C440729C8F8006074
S2144037C02794269100F33B8208F10808002DACBFF1
S2144037D0561B1646002E7FF72FAB102E269BB04D5D
S2144037E0B5DD22461027DDF830B00B9C04E008F12A
S2144037F00808103E102EA9DD01331032072B279201
S214403800269388E8A000F2DD25AA2146584602F015
S21440381085FD00287FF402AA279A269BC846E8E73B
S214403820269B19981A99C8F8001001330444072BB0
S2144038302794C8F80400269300F3F58108F1080899
S214403840ACE7079BDA073FF5FEAD013701340123AD
S214403850072F27942697C8F80060C8F804307FF7EB
S21440386024AE4AE725AA0B990C9802F057FD00288B
S2144038707FF4D4A9279C269FC846F2E525AA0B9933
S2144038800C9802F04BFD00287FF4C8A9279C269F81
S214403890C846F5E54E46FFF7FFB925AA0B990C98A2
S2144038A002F03CFD00287FF4B9A9279CC846FFF7E4
S2144038B074BA149C22462046159C2346214603F0A3
S2144038C08BF9002840F086820A9B0133119B23F037
S2144038D020030E9300F0E281472B00F01E814BF44C
S2144038E080730793159B1F1E149B0893BBBF3B46D4
S2144038F003F1004700232D231093119B662B00F005
S214403900BB81462B00F0DF800E9B089A452B0CBFF0
S2144039100A9B0A9D23A820A908BF5D1C049003911A
S2144039201FA802213B460290019500910C9800F09A
S2144039306FFB119B672B064640F0E0811BF0010FA2
S21440394000F046827419169A0898179B394603F079
S21440395011F9002840F06581239BA34206D230210E
S2144039605A1C23921970239B9C42F9D89B1B139395
S2144039700E9B472B00F0E980119B652B40F3CD81D1
S214403980119B662B1F9B129300F09E81139B129AED
S2144039901946914200F38A811BF0010F40F01382D2
S2144039A022EAE273089367230E921193109B002B32
S2144039B040F0C4800A939DF87770FFF775B9354696
S2144039C00C464646904601333C44072B27942693A4
S2144039D088E8A0003FF7D1AE08F10808D7E60F9A6E
S2144039E0136804320F92099A1A60FFF76CB825AA3A
S2144039F00B990C9802F092FC00287FF40FA9C84659
S214403A008DE4269B274AC8F8002001330134012262
S214403A10072B27942693C8F8042072DC08F1080880
S214403A2029B9139B1BB9079BD8077FF505AA269B88
S214403A3019981A9AC8F80020013302462244072BE8
S214403A402792C8F80400269300F38D8108F10808F1
S214403A500029C0F265811399C8F8006001338C18BC
S214403A60072B27942693C8F804107FF7E3A92BE585
S214403A700F9A09991368CD170846043229460F92C3
S214403A80C3E90001FFF71FB825AA0B990C9802F06E
S214403A9045FC00287FF4C2A8279CC84658E400BFCF
S214403AA0787740006477400040210C9801F0D6FCBF
S214403AB00B9A10601061002800F0EC810B9A4023AE
S214403AC05361FEF7F0BF23A820A90A9C04900391F7
S214403AD01FA803210290089A01943B4600910C9837
S214403AE000F096FA25460646119B462B06EB050443
S214403AF07FF429AF3378302B00F072811F9D2C4421
S214403B0021E725AA0B990C9802F008FC00287FF4C0
S214403B1085A81F99279CC84682E70A9B002B08BFAA
S214403B2001230A93DBE630460A9402F089FB0F95A0
S214403B300E90CDF81CB00346FFF7FBB92D270023A7
S214403B408DF877700A93FFF7B0B81F9B12931A460A
S214403B50033304DB0A9B19469142BFF617AF119B0D
S214403B60023B11939DF844308DF88430129B013B04
S214403B70002B1F93BDBF129BC3F101032D222B22A6
S214403B80092B8DF8852040F316810DF193042046CD
S214403B90AD4D00E0104685FB0312D917C1EBA201DC
S214403BA001EB8102A3EB42023032092900F8012CD6
S214403BB00B4600F1FF32EDDC30330238D9B2844296
S214403BC002F8011C40F25F810DF18600134601E0C9
S214403BD013F8011B00F8011BA342F9D101339B1ACD
S214403BE00DF18602134421AA9B1A139A1B93012AAD
S214403BF013440E9340F313810E9B199A13440E936D
S214403C0023EAE373089300231293CFE625AA0B9981
S214403C100C9802F083FB00287FF400A8279CC84637
S214403C20D6E42346A2E625AA0B990C9802F076FB2A
S214403C3000287EF4F3AF1F9A279CC846AEE525AA17
S214403C400B990C9802F06AFB00287EF4E7AF1F9AA7
S214403C50139B279C9A1AC846B8E50A9B1296062BD1
S214403C6028BF06230A96374608930F95CDF81CB012
S214403C700E93764EFFF718B823A820A90A9D049005
S214403C8003911FA803210290089A01953B46009194
S214403C900C9800F0BDF9064644192BE706230A9314
S214403CA01DE62D278DF87770FFF7CEBA199A139B2D
S214403CB01344129A0E93002A40F3AA8023EAE37331
S214403CC008936723119371E6002B40F3B2800A9A5B
S214403CD0002A40F093801BF0010F40F08F8008933D
S214403CE00E9363E60A9B08930E930A900F95CDF8C1
S214403CF01CB012909DF87770FEF7D6BF119B472BED
S214403D007FF420AE1BF0010F7FF4EEAE239B9B1B8F
S214403D1013930E9B472B3FF418AF1F9B129321E73C
S214403D204F4210314A4D2FDA1024DDF830B004E00F
S214403D3008F10808103F102F26DD01331032072BFC
S214403D4027922693C8F80050C8F80440F0DD25AA0C
S214403D500B99584602F0E2FA00287EF45FAF279AA5
S214403D60269BC846E6E725AA0B990C9802F0D6FA99
S214403D7000287EF453AF1F99279A269BC84667E6CD
S214403D8000200A90FEF7D2BE01333A44072B88E85B
S214403D90A0002792269308F108087FF75CAE25AA74
S214403DA00B990C9802F0BAFA00287EF437AF279A9F
S214403DB0269BC8464FE6303330228DF887308DF844
S214403DC0862022AB0FE7129B199A13440E9375E791
S214403DD0239BCBE51F4E204B9DF87770FFF736BAF6
S214403DE0169A0898179B394602F0C4FE00287FF4BE
S214403DF085AEC5F101051F952C44A4E5129B199A82
S214403E0013440A9A1A4422EAE2730E920893CDE5C6
S214403E10129B0E9AC3F101031A441346D6E71BF0D1
S214403E20010312937FF4E8AE0E9B23EAE3730893F4
S214403E30BCE50A9B13B91BF0010F02D0199B013356
S214403E40DFE701234BE700BF676666665C774000A6
S214403E5078774000307740002C7740000F9D9AF8E6
S214403E600130286840EAE0700A9028460430A246AE
S214403E700F90FEF759BE8DF87710FFF76FB88DF8A4
S214403E807710FFF71CBA0DF18603ACE68DF8771075
S214403E90FFF7F3B80C9A0C2313604FF0FF330993E7
S214403EA0FEF7C5BE8DF87710FFF7A2B98DF87710EC
S214403EB0FFF77EB98DF87710FFF761B98DF8771068
S214403EC0FFF71AB9024B13B1024800F005B8704725
S214403ED000000000E1504000002301461A46184604
S214403EE002F0B0BA02690B69934200F38D802DE967
S214403EF0F04F03F1FF3801F1140700F1140B57F8A7
S214403F0028205BF828304FEA880483B00132B3FBA0
S214403F10F2F90BEB0403009407EB040A0193B9F1A2
S214403F20000F39D000252E46BC46DE465CF8044BD2
S214403F30DEF80030A2B209FB0255220C2C0C09FB1D
S214403F400242ADB2751B96B2C6EB134615FA83F322
S214403F5006EB23469BB243EA0643E2454FEA124548
S214403F604EF8043B4FEA2646E0D2009B5BF803300F
S214403F7093B9019C231F9B450CD254F8043C4BB983
S214403F80A4F1080302E01A68043B1AB99B4508F1FD
S214403F90FF38F8D3C0F81080044601F0FDFF002833
S214403FA02EDB09F101095D46002357F8041B2868FB
S214403FB08AB29A1A0B0C12FA80F2C3EB104303EB48
S214403FC0224392B242EA0342BA4545F8042B4FEAEE
S214403FD02343EAD25BF828200BEB880382B91A1FEA
S214403FE093450BD253F8042C42B9083B02E01A68BA
S214403FF0043B1AB99B4508F1FF38F8D3C4F8108043
S214404000484603B0BDE8F08F00207047000000002F
S2144040102DE9F04F016C9BB00446279E92469B4686
S21440402041B1426C4A60012393408B6001F0DCFD55
S21440403000232364BBF1000F5D4635DB002333606D
S2144040409D4BAB4315D0504659460022002302F004
S21440405091FD804600282DD0269A01231360289B88
S214404060002B00F0BD809548186001381BB0BDE8B5
S214404070F08F269A42F20F731360BAF1000F0DD1FB
S214404080C5F3130555B9289B8D48002BEED000F19B
S2144040900803289A13601BB0BDE8F08F289B894818
S2144040A0002BE3D0C31CF4E701232BF0004533601C
S2144040B0AB46C5E718AA19AB0192009352465B4639
S2144040C0204602F009F82B0D814671D0CBF313023F
S2144040D042F07F51189FCDF850805046A3F2FF36ED
S2144040E041F440110022784BFDF78EFF6CA3D3E9D4
S2144040F00023FEF73DF96CA3D3E90023FDF786FFC6
S214404100CDE902013046FEF7CDF869A3D3E9002396
S214404110FEF72EF902460B46DDE90201FDF776FF73
S214404120CDE90401FEF736FB002202900023DDE9CC
S214404130040102F029FD002840F07381029D162DEF
S21440414000F25D81614B03EBC503D3E900015246A3
S2144041505B4602F037FD002800F0C5816B1E0293D7
S21440416000230E93BF1B7B1E069300F15481002351
S2144041700893029B002BC0F24581069A0D93114688
S2144041801944002306910C93249B092B2AD8052B0F
S21440419040F35B86043B24930025249B023B032B81
S2144041A000F24286DFE813F0D403C902DF0361045D
S2144041B0189F199E3E4406F23243202B40F38E81D0
S2144041C0C3F1400306F212409D402AFA00F028430D
S2144041D0FEF758F80123013EA1F1F871149381E7E8
S2144041E03B4843E7002161642046259101F0D6FC18
S2144041F04FF0FF330A93259A0F93012304902064CF
S21440420024920B93199B002BC0F2D980029A0E2A57
S21440421000F3D5802D4B03EBC203D3E90023CDE951
S2144042200823259B002BC0F2BA83DDE9085650468A
S2144042302A4633465946FEF7C5F9FEF7ABFA80469E
S214404240FEF730F82A463346FEF792F80B4602460B
S21440425059465046FDF7D8FE049D08F130032B70B2
S2144042600A9B012B06460F4605F1010568D0002241
S214404270184BFEF77DF80022002306460F4602F054
S21440428079FC002840F08880CDF82C904FF0000A4A
S214404290DFF840B00C94DDE9088928E0AFF30080F1
S2144042A061436F63A787D23FB3C8608B288AC63FF7
S2144042B0FB799F501344D33F0000F07F6577400062
S2144042C088774000947740000000F83FC077400071
S2144042D06477400000002440FEF74AF8002200239E
S2144042E006460F4602F046FC002840F0C183424690
S2144042F04B4630463946FEF765F9FEF74BFA04461C
S214404300FDF7D0FF42464B46FEF732F802460B46D4
S21440431030463946FDF778FE04F1300E049E05F827
S21440432001EBA5EB060E0A9EB645CDE906015246C0
S2144043305B46D1D1A046DDF82C900C9C06460F4635
S21440434032463B4630463946FDF760FE06460F4647
S21440435002460B46DDE9080102F016FC48B9324633
S2144043603B46DDE9080102F005FCA8B118F0010F54
S21440437012D015F8018C049A6B1E04E09A4200F0A5
S214404380018413F8018DB8F1390F03F10105F5D01A
S21440439008F1010883F800804946204601F024FCD5
S2144043A00022029B2A70269A01331360289B002B1A
S2144043B000F09E8304981D601BB0BDE8F08F0B9AFA
S2144043C0002A3ED0249A012A40F311830A9B0C9A75
S2144043D05F1EBA42C0F28F83D71B0A9B002BC0F2E7
S2144043E08B84089D0A9B089A1A440892069A0121D3
S2144043F01A442046069201F091FC064624E001232A
S2144044000E93AFE6089A029BD21A5B420C930023A7
S21440441008920D93B8E6C7F101030893002306936C
S214404420A7E6029D2846FDF73DFF02460B46DDE91E
S214404430040102F09FFB00287FF480AE6B1E0293BF
S2144044407CE60C9F089D0B9E002D0CDD06990029EE
S2144044500B4608DDA942089AA8BF2B46D21AED1A89
S214404460CB1A089206930C9BD3B10B9B002B00F003
S214404470B782002F10DD31463A46204601F0EAFC6E
S2144044804A4601460646204601F052FC49468046CA
S214404490204601F0A9FBC1460C9BDA1B40F0A182E6
S2144044A00121204601F03AFC0D9B002B80461CDD86
S2144044B001461A46204601F0CDFC249B012B80463F
S2144044C040F3548200230C93D8F8103008EB830353
S2144044D0186901F0D3FBC0F1200010E0C3F12005BD
S2144044E00AFA05F074E60E903CE6249B012B40F356
S2144044F0878200230C930D9B0120002BE4D1069A63
S214404500104410F01F0000F0A180C0F12003042BDF
S21440451040F39E84089BC0F11C0003440893134656
S214404520034405440693089B002B05DD49461A467E
S214404530204601F0DFFC8146069B002B05DD414608
S2144045401A46204601F0D6FC80460E9B002B40F0D3
S21440455086800A9B002B40F366820B9B002B00F064
S2144045609880002D05DD31462A46204601F0C2FCE3
S21440457006460C9B002B40F0378306960A9B049A0F
S214404580DDF818B0013BD3180B930AF001030C93E7
S2144045901746C24651464846FFF7A4FC31460546F4
S2144045A0484601F0F9FC5A460A905146204601F02A
S2144045B00FFDC268804605F13003002A40F02B828A
S2144045C001464846089301F0E7FC414606902046DF
S2144045D001F00AFB069A089B32B9249921B90C9A35
S2144045E0002A00F0EF83249A0A990029C0F29F829D
S2144045F005D1249919B90C99002900F09882002A0F
S21440460000F306830B9A3B7007F101089742454634
S21440461000F00C83494600230A22204601F0EEFAB9
S2144046205E45814631464FF000034FF00A02204671
S21440463000F0EB8101F0E2FA5946064600230A22D2
S214404640204601F0DBFA47468346A3E71C20089B3A
S21440465003440893069B03440544069363E7414698
S214404660484601F099FC0028BFF673AF029F4946C2
S21440467000230A222046013F029701F0BFFA0B9B17
S2144046808146002B40F0B6830F9B002B40F3BF8340
S2144046900A93DDF810B00A9F5D4602E001F0AEFADC
S2144046A0814641464846FFF71DFC00F1300A05F8B2
S2144046B001ABA5EB0B03BB424FF00A024FF00003E1
S2144046C049462046EADB049B0A9A012AACBF9B185F
S2144046D001331D464FF0000B49460122204601F0AB
S2144046E009FC4146814601F057FC002840F33D82D4
S2144046F015F8012C04996B1E04E08B4200F0AE8145
S21440470013F8012D392A03F10105F6D001321A704B
S2144047104146204601F068FA002E3FF43DAEBBF11C
S214404720000F05D0B34503D05946204601F05CFA49
S2144047303146204601F058FA2EE600230B93029BA2
S214404740259A13440F930133012B1F461E460A93A6
S214404750B8BF01270021172F61640AD9012204231C
S2144047605B0003F114008742114602F10102F7D2C2
S2144047706164204601F012FA0E2E049020643FF643
S21440478041AD002D3FF43EAD02990029CDE910AB76
S21440479040F30282B84B01F00F020D1103EBC20347
S2144047A0E906D3E9006740F1AE81B44B504659461E
S2144047B0D3E90823FDF706FFCDE9120105F00F0502
S2144047C04FF0030A8DB1DFF8B482EA0709D53046C8
S2144047D03946D8E90023FDF7CBFD0AF1010A064623
S2144047E00F466D1008F10808EFD13B463246DDE92A
S2144047F01201FDF7E7FE074688460E9B43B10022AE
S2144048009F4B3846414602F0BFF9002840F086826A
S2144048105046FDF747FD3A464346FDF7A9FD994BFE
S2144048200022FDF7F3FB0A9B0546A1F15076002BCC
S21440483000F03E81029B15930A9B12930B9B002B24
S21440484000F0FA81129A8C4B8F4903EBC20353E96E
S21440485002230020FDF7B6FE2A463346FDF7D4FB7A
S21440486082468B4638464146FDF794FF0546FDF79F
S21440487019FD02460B4638464146FDF7C5FB303526
S2144048805FFA85F8049D06460F4685F80080024686
S2144048900B4650465946013502F094F9002854D14B
S2144048A032463B4600207649FDF7AEFB02460B46B5
S2144048B05046594602F086F9002840F07082129A17
S2144048C0012A00F01181129B049ACDF848901344B7
S2144048D099460DE000206A49FDF796FB52465B4636
S2144048E002F052F9002840F058824D4500F0FA8018
S2144048F0504659460022654BFDF73AFD0022634B71
S21440490082468B4630463946FDF732FD0F46064610
S214404910FDF740FF8046FDF7C5FC02460B46304695
S2144049203946FDF771FB08F130085FFA88F85246C1
S2144049305B4605F8018B06460F4602F025F93246DF
S2144049403B460028C6D0DDF84890159B029323E5E9
S21440495000230B93259B002B40F3DC801F461E460E
S2144049600F930A93F6E601230B93F3E7BAF1000F91
S2144049707FF4A8ADCBF31303002B7FF4BAAD2BF036
S21440498000473F0D3F05002F00F00D82089B013386
S2144049900893069B0133069301230C93ABE50A9BD1
S2144049A0002B3FF742AC40F021820022384BDDE935
S2144049B00801FDF7DDFC52465B4602F0F9F8DDF8EB
S2144049C028804646002841D0259B049DDB43029321
S2144049D04146204601F008F9002E3FF4DDACA7E63C
S2144049E00C9A4946204601F035FA814658E5149A15
S2144049F0002A00F0878103F233430C9F089DF2E4BF
S214404A00BAF1000F7FF475ADB4E701F0F7F847460A
S214404A1006468346BEE501462046069301F0E4F886
S214404A200122069BE0E5249B022B7FF796AD0A9B6E
S214404A30002BC9D141460522204601F0DFF8014649
S214404A408046484601F0A8FA0028BDDD029A04993F
S214404A503123013202920B704D1CB9E7029A0132A3
S214404A600292049A3123137052E601230B9366E6B2
S214404A70DDF82C900C9C8FE4C0774000987740007F
S214404A800000F03F00001C400000E03F00002440D3
S214404A90000014405046FDF705FC3A464346FDF7F5
S214404AA067FC0022C14BFDF7B1FA0546A1F15076EE
S214404AB041460022BE4B3846FDF7A6FA2A46334604
S214404AC082468B4602F07EF88046002840F01081F1
S214404AD02A4606F100435046594602F055F818B1AA
S214404AE0464671E7DDF84890DDE910ABFFF78ABB34
S214404AF00498FFF7BBBA0C9B0D9A0C97FB1A1A4406
S214404B000D92002769E4DDE910234FF0020ACDE953
S214404B10122357E60021012361642046259301F0C5
S214404B203DF8259B049020640A930F9329E6002ABB
S214404B30D046CDF818B09A4611DD494601222046A7
S214404B4001F0D8F94146814601F026FA002840F3A4
S214404B504681BAF1390F00F0068105F1310AB346B5
S214404B6087F800A07D1C069ED2E504D11AF0010FFE
S214404B7001D0BDE5154615F8013C302B05F1FF3256
S214404B80F8D0C5E5049930220A70029A15F8018CCF
S214404B9001320292FFF7FCBB00F0BB80029B5D42F5
S214404BA0844B05F00F0203EBC203D3E90023DDE993
S214404BB01001FDF7DDFB2D110746884600F02C81DD
S214404BC07D4E4FF0020AEB0709D538464146D6E9F6
S214404BD00023FDF7CDFB0AF1010A074688466D1013
S214404BE006F10806EFD108E67168204600F0D6FFC9
S214404BF0336902339A00054606F10C010C3000F08A
S214404C002FFF29460122204601F074F90690B5E4AC
S214404C10392BCDF818B0D04600F0A58003F1010A34
S214404C20B34687F800A07D1C069E71E55A46D046DE
S214404C30B3469A4616464FE5129B5E4901EBC301C2
S214404C402A46334651E90201FDF792FBCDE91601AB
S214404C5038464146FDF79EFD0546FDF723FB0B46CD
S214404C60024641463846FDF7CFF9129B0F46049957
S214404C703035012B0D70064601F1010526D0129BFA
S214404C80049ADFF83CB1CDF8489013444FF0000A40
S214404C90994652465B4630463946FDF769FB0F4615
S214404CA00646FDF777FD8046FDF7FCFA08F130082A
S214404CB002460B4630463946FDF7A6F905F8018B05
S214404CC04D4506460F46E4D1DDF848903B4B002262
S214404CD0DDE91601FDF79AF932463B4601F054FFEE
S214404CE0002846D0159B029315F8018CFFF743BB6E
S214404CF04FF000084646A9E6089B0A9A9D1A0023EC
S214404D00FFF771BB189B0C9F089DC3F13603FFF756
S214404D106ABBDDE910784FF0020A6EE50A9B002B6D
S214404D203FF4B8AE0F9B002B7FF7DEAE0022244B3D
S214404D3038464146FDF71CFB074688460AF1010007
S214404D40FDF7B0FA3A464346FDF712FB0022174BF2
S214404D50FDF75CF9029A0F9B1293013A0546A1F1C2
S214404D60507615926AE53922B3463A70069E7D1C07
S214404D70C0E4DDE9162300201049FDF745F9324628
S214404D803B4601F01FFF08B9AEE6154615F8013C54
S214404D90302B05F1FF32F8D0D7E5DDF84890159B6B
S214404DA00293FFF7E8BA0C97FFF7A5BB00001C403C
S214404DB000001440C0774000987740000000E03F75
S214404DC000002440392BCDF818B0D046DDF828B086
S214404DD09A46C8D0BBF1000F3FF7BFAEBFE67FF4A0
S214404DE0BEAE1AF0010F3FF4BAAEB2E64FF000087E
S214404DF04646E9E5314600230A22204600F0FEFEFC
S214404E000F9B002B06460ADD0A93FFF7AABB249B9E
S214404E10022B23DC0F9B3BE44FF0020AEDE4249B7D
S214404E20022B1BDC0F9BEFE70025656429462046D6
S214404E3000F0B4FE4FF0FF330A930F930123049023
S214404E40259520640B93FFF7DDB90125FFF7A5B93B
S214404E503FF469ABC0F13C00FFF7F9BB0F9B0A93E8
S214404E60E5E500BFB1F90C309AB22DE9F0410D46A8
S214404E70110780463AD46A6843F40063002AAB813F
S214404E806FDDAC6A002C49D000229BB2D8F8006097
S214404E90C8F8002013F4805267D02A6D5F0705D506
S214404EA069682B6B521A0BB1EB6BD21A0023E96977
S214404EB04046A047441C3CD0B5F90C302A692A60CD
S214404EC023F400630022AB81DB046A6047D4296B7D
S214404ED0C8F8006011B305F14003994202D040463D
S214404EE000F068F900202863BDE8F0812E69AEB175
S214404EF02C682E6091070CBF6B690023A41BAB6027
S214404F000AE0234632466F6AE9694046B8470028B9
S214404F10A4EB0004064404DD002CF2DC0020BDE8CF
S214404F20F081AB8943F04003AB814FF0FF30BDE8E2
S214404F30F081D8F800401D2CF3D8194BE340DB43F2
S214404F4013F00103EDD1B5F90C206B6022F4006339
S214404F502969AB81DA042960B9D5002CB7D1286518
S214404F60B5E7EA6B002A8CDCD8E70123E9694046BE
S214404F70A047431C024602D0AB89AC6A8EE7D8F8FD
S214404F800030002BF8D01D2B01D0162B02D1C8F8CC
S214404F900060C3E7AB8943F04003AB81BDE8F081D6
S214404FA00100402010B5044682B008B1836B53B16F
S214404FB0B1F90C0008B902B010BD204602B0BDE8F9
S214404FC01040FFF74FBF019100F080F80199EFE7DE
S214404FD0014900F0D5B900BF6D6540002DE9F04F9E
S214404FE0354B4568C3630024074600F53B720423EF
S214404FF00321C0F8E412C0F8E822C0F8E04283B0CB
S2144050002C606C60AC606C66EC812C616C61AC6151
S214405010AB81214605F15C000822FDF70BFCBE681B
S214405020DFF898B0DFF898A0DFF89890DFF898801F
S214405030C5F820B001230922C5F824A0C5F8289059
S214405040C5F82C80ED612146F381B28106F15C0003
S21440505034607460B460746634617461B46108220C
S2144050600193FDF7E7FBFD68F66112200222C6F8C1
S21440507020B0C6F824A0C6F82890C6F82C80214652
S214405080A881EA812C606C60AC606C662C616C61B7
S214405090AC6105F15C000822FDF7CCFB019BED619D
S2144050A0C5F820B0C5F824A0C5F82890C5F82C80CF
S2144050B0BB6303B0BDE8F08FD14F4000B561400000
S2144050C0D96140001562400035624000836B03B1F1
S2144050D07047FFF783BF00BF704700BF704700BFF1
S2144050E038B50A4C0A4D641BA4100AD004F180431C
S2144050F0013B05EB8305013C55F804399847002CE5
S214405100F9D1BDE8384002F059BC00BFCC79400028
S214405110C8794000F8B5244F0C46064600F03AFDE4
S214405120BB685D68C4F57E610F3125F003052944F0
S21440513021F47F6121F00F01A1F58054B4F5805F22
S21440514007DB0021304601F023F8BB682B44984229
S21440515004D0304600F020FD0020F8BD61423046C5
S21440516001F016F801300DD0104BBA6819682D1BA7
S21440517045F001053046091B5560196000F00CFDEE
S2144051800120F8BD0021304601F002F8BA68831AC3
S2144051900F2BDEDD064C0549246843F00103001B57
S2144051A053600860D5E700BF70040020580E00200A
S2144051B078080020002944D02DE9F0410D4680466D
S2144051C000F0E8FC55F8047C694927F00103A5F196
S2144051D00804E2188E685068B24220F003005ED0A1
S2144051E0FE0750600BD455F8087CE41B01F1080E0E
S2144051F0A56875453B446DD0E768EF60BD601518FF
S2144052006D68ED073ED543F001026260E350B3F5AA
S214405210007F17D2DB08581C9A104D6851F8307042
S214405220A7600123934001EBC0022B43083AE2609B
S2144052304B6041F83040FC604046BDE8F04100F02D
S214405240ABBC70475A0A042A52D89A0902F1390769
S214405250FF0002F13805C819CA59083890424FD0A5
S214405260516821F003018B4232D292689042F7D1C6
S214405270C368A060E3609C60C4604046BDE8F041FF
S21440528000F08ABC95683B4FBD42034440D0D0688E
S214405290E86043F0010285606260E350B7E7FF07CD
S2144052A0034407D455F8082CA41A1344A068E268AF
S2144052B0C2609060304A126843F0010093426060DA
S2144052C08C60B9D32D4B40461968FFF723FFB3E7F0
S2144052D01046CDE711184968C90744D49168D2688A
S2144052E0CA60034443F0010091606060E350A3E766
S2144052F0142A16D802F15C07FF0002F15B05AAE704
S214405300AA1001234D6893402B434B600346B0E7F9
S21440531043F001024C610C61E560A5606260E350B9
S2144053208AE7542A06D81A0B02F16F07FF0002F1EB
S2144053306E0590E7B2F5AA7F06D8DA0B02F1780739
S214405340FF0002F1770586E740F25450824206D8C5
S2144053509A0C02F17D07FF0002F17C057BE74FF4D3
S2144053607E777E2577E743F001016160136063E74F
S21440537070040020780400207C080020880E00205E
S2144053802DE9F84310F538771FD0884606464FF08B
S21440539000097D68BC68013D11D4A389012B05F145
S2144053A0FF3508D9B4F90E3001332146304602D0D5
S2144053B0C04749EA00096B1C04F16804EDD13F6818
S2144053C0002FE6D14846BDE8F883B9464846BDE8D2
S2144053D0F88300BF044A054B1268506B002808BF8C
S2144053E01846F030704700BF40000020800800207C
S2144053F070B50C46B1F90E10002990B015461E4601
S21440540014DB01AA01F0F2F800280FDB029A02F43E
S2144054107042A2F50052B2FA82F252094FF480630B
S2144054204FF4006032602B6010B070BDA28900233C
S21440543012F08000336004D0402218462A6010B034
S21440544070BD4FF480632B6010B070BD024B0146B8
S214405450186800F003B800BF400000202DE9F04F68
S21440546001F10B06162E83B0054640F29E8036F0BC
S214405470070600F1BD80B14200F2BA8000F08AFB18
S214405480B6F5FC7FC0F09382730A00F0B880042B18
S21440549000F27981B30903F1390003F1380EC300F5
S2144054A0BF4F3B44A3F108015C68A14206D10CE023
S2144054B0002A80F2AA80E468A14206D0636823F0FE
S2144054C003039A1B0F2AF3DD70463C69DFF8E4E2DB
S2144054D0744500F0AB81636823F003039A1B0F2AE0
S2144054E000F39081002AC7F814E0C7F810E080F275
S2144054F09D80B3F5007F80F06181DB0803F1010CED
S21440550099107A6857F83C80C4F8088001238B408D
S21440551007EBCC0113430839E1607B6047F83C4019
S214405520C8F80C408210012494409C4200F28B80C4
S2144055301C4206D120F0030064001C4200F1040027
S214405540FAD007EBC009CC468046DCF80C309C45C8
S21440555007D16DE1002A80F27B81DB689C4500F034
S2144055606781596821F003018A1B0F2AF2DDD3F8C0
S2144055700CC0D3F8088000939C19284646F00106D4
S21440558042F001055E60C8F80CC0CCF808807C612B
S2144055903C61C4F80CE0C4F808E065605A5000F07E
S2144055A0FBFA009B03F108041EE0102920D800F007
S2144055B0F1FA102618230220794F3B44A3F1080243
S2144055C05C68944200F03D816368E168A66823F019
S2144055D00303234428465A68F16042F001028E6075
S2144055E05A6000F0D9FA0834204603B0BDE8F08F80
S2144055F000240C2320462B6003B0BDE8F08F4020EB
S2144056004FF400734FF03F0E4AE72344E1685A6870
S214405610A66842F00102F16028468E605A6000F0AB
S214405620BBFA0834204603B0BDE8F08F2344284632
S2144056305A6842F001025A6000F0AEFA083420463A
S21440564003B0BDE8F08FBC68636823F00308B0453C
S21440565004D3A8EB06030F2B00F38580DFF85891A0
S214405660504BD9F800201B680132334404EB080A3B
S21440567000F0558103F580530F3323F47F6B2BF0F6
S2144056800F0B5946284600F083FD411C024600F0A9
S214405690FC80824500F2F780434B196859441960F4
S2144056A000F04D81D9F8000001301BBFA2EB0A0A7A
S2144056B05144C9F80020196012F0070100F0158126
S2144056C0C1F10800C1F580510244083102EB0B09D4
S2144056D0C9F30B09A1EB09094946284601930092F4
S2144056E000F056FD431C9DE80C0000F04381801AF4
S2144056F0484440F001001968BA604944BC425060D2
S214405700196017D0B8F10F0F40F2FB806068A8F11F
S2144057100C0222F0070204EB020E00F001004FF0EC
S214405720050C10430F2A6060CEF804C0CEF808C0BF
S21440573000F217811D4BBC681A68914288BF1960F9
S2144057401B4B1A689142626888BF196022F00302B8
S2144057509642A2EB060301D80F2B04DC284600F045
S2144057601BFA002440E7A21943F0010346F0010665
S21440577066602846BA60536000F00EFA0834204649
S21440578003B0BDE8F08F142B71D9542B00F2A380E0
S214405790330B03F16F0003F16E0EC30080E600BFCB
S2144057A070040020880E0020580E0020800E002036
S2144057B0840E002078040020780800205A0A042A24
S2144057C05BD9142A00F2AE8002F15C01C9005B325C
S2144057D007EB010C7958ACF1080C8C4500F088803A
S2144057E04A6822F00302934273D289688C45F7D107
S2144057F0DCF80C207B68E260C4F808C09460CCF803
S2144058000C408FE6A11946F0010C42F00106C4F8A0
S21440581004C0284679613961C1F80CE0C1F808E057
S2144058204E60E25000F0B8F90834DDE67B6879E671
S21440583008F1010818F0030F0CF1080C7FF485AE50
S2144058402DE0DC68A34208BF02303FF43EAEBBE624
S21440585019441C464A68DB6854F8086F42F0010257
S2144058604A602846F3609E6000F096F9BCE603F175
S2144058705C0003F15B0EC30012E69A0902F139019F
S214405880C9003832A4E7BC4254D0BC68626822F0F3
S21440589003025DE759F80839994540F0868010F0D4
S2144058A0030F00F1FF30F5D17B6823EA04037B60E9
S2144058B064009C423FF6C7AE002C3FF4C4AE1C4288
S2144058C040467FF43EAE64001C4200F10400FAD02D
