:020000040040BA
:10000000B01300208D194000891940008919400063
:10001000891940008919400089194000000000003A
:1000200000000000000000000000000089194000EE
:10003000891940000000000089194000891940001A
:100040008919400089194000891940008919400028
:100050008919400089194000891940008919400018
:100060008919400089194000891940003918400059
:100070004D1840006118400089194000891940005E
:1000800089194000891940008919400089194000E8
:1000900089194000010F400089194000BD0F400040
:1000A000E90F400089194000891940008919400072
:1000B00089194000891940008919400089194000B8
:1000C0008919400010B5054C237833B9044B13B19E
:1000D0000448AFF300800123237010BD48090020BD
:1000E000000000006C4340000C4B43B10C4810B5BD
:1000F0000C49AFF300800C48036823B910BD0A48CF
:10010000036833B97047094B002BF7D0BDE81040A6
:100110001847064B002BF5D0184700BF0000000021
:100120006C4340004C0900206C434000000000007C
:1001300010B50446104B984780232360636843F052
:1001400001036360636843F010036360636823F036
:100150008003636000212046084B9847636823F0C2
:1001600002036360636823F0040363600021204698
:10017000034B984710BD00BF710240008102400050
:10018000970240002DE9F04104460D4616461549F8
:100190001846154B9847074600231A4629682046FB
:1001A000DFF85C80C0470822296820460F4B98473B
:1001B000FAB2296820460E4B984708222968204643
:1001C0000C4B98477208296820460B4B984786F0DD
:1001D000010202F0010229682046084B9847BDE859
:1001E000F08100BF006CDC02730340005F0340003D
:1001F0008903400019034000DD024000FB0240007B
:10020000AF03400008B5436813F0040F06D0096837
:100210000F2900D908BD064B984708BD0968032976
:10022000F8D8012303FA01F1C943014B9847F1E7DC
:10023000810240002DE9F04180B90C469046002A29
:100240000FDD8F18084E094D306821462B689847FE
:100250000134BC42F8D14046BDE8F0814FF0FF3890
:10026000F9E78046F7E700BF800B0020780B0020FD
:1002700008B51520014B984708BD00BF5D19400027
:10028000436823F4702343604368090401F4702138
:10029000194341607047436823F07F4343604368DC
:1002A00043EA01614160704730B443F6992405691F
:1002B00015F0020F03D1013CF9D101200CE0446894
:1002C00014F0020F06D0120402F4702211430BB195
:1002D00041F08071C160002030BC704732B900EB42
:1002E0008100036B23F001030363704700EB81007F
:1002F000036B43F001030363704732B900EB8100E5
:10030000036B23F002030363704700EB8100036B70
:1003100043F0020303637047042A03D06AB1082A3A
:1003200016D0704700EB8100036B23F008030363D2
:10033000036B43F004030363704700EB8100036B1E
:1003400023F008030363036B23F004030363704784
:1003500000EB8100036B43F008030363E1E700EB6C
:1003600081010B6B23F0F0030B630B6B1A430A63E1
:100370007047431E1944B1FBF0F0431EFE2B94BF9F
:1003800000B24FF0FF30704772B110B4144600EB6A
:1003900081010B6B23F47F430B630A6B42EA042257
:1003A0000A63002010BC70474FF0FF30704710B454
:1003B00000EB8101086B80B208630C6B44EA0363B5
:1003C00043EA02430B6310BC7047436913F0020F0A
:1003D0001DBFC1F30801C1610020012070474369BE
:1003E00013F0010F05D08369C3F308030B600020ED
:1003F00070470120704700000138022815D82DE908
:10040000F0410E4614469AB10D46DFF838800C4F85
:10041000D8F8000015F8011B3B68984700280ADB54
:10042000A81B013CF4D1BDE8F0814FF0FF307047CC
:100430001046BDE8F0814FF0FF30BDE8F08100BF0D
:100440007C0B0020800B0020F0B482B0C0F11100C2
:10045000102828BF1020002808BF01200021104DBF
:100460004FF40056374618246F630194019B5A1EBF
:100470000192002BFAD12E630194019B5A1E019226
:10048000002BFAD101318142EED34FF400330193B6
:10049000019B5A1E0192002BFAD102B0F0BC7047AA
:1004A00000120E4082B04FF40052064B5A634FF4D4
:1004B00000330193019B5A1E0192002BFAD102B026
:1004C000704700BF00120E4082B000230193019BD1
:1004D000984211D90021094A0191019B934205D804
:1004E000019B01330193019B9342F9D9019B013395
:1004F0000193019B8342EFD302B070479F860100B6
:1005000030B40468AF2C84BFAF2404601468AF2CEF
:1005100084BFAF2414600C68DB2C84BFDB240C6028
:100520001C68DB2C84BFDB241C6004681568AC42AB
:1005300084BF056014600A681868824284BF08603E
:100540001A6030BC7047000070B506460B4C0022A4
:10055000022120460A4DA847012323601C20094B95
:1005600098470023022231462046074EB047022119
:10057000216080222046A84770BD00BF0080004057
:100580005F03400065154000A902400038B50546EC
:10059000074C012323601C20064B984700230222AE
:1005A00029462046044DA8470223236038BD00BFDA
:1005B000008000404B154000A902400010B50C46D9
:1005C000024B98472046024B984710BD4905400012
:1005D0008D05400001B970472DE9F04182B00C460D
:1005E00005460122104B1A601C20104B984700232F
:1005F0000193019B9C4210D9DFF82C8000270C4E00
:1006000001993B46022235F811104046B047019B44
:1006100001330193019B9C42F2D80222024B1A60E3
:1006200002B0BDE8F08100BF008000404B154000E3
:10063000A9024000034BDA699A610122024B1A7049
:10064000704700BF008000406409002008B541F2F7
:1006500017010720014B984708BD00BFBD054000AA
:1006600008B500210720014B984708BDBD05400093
:10067000020A22F4FF6222F00702430903F4FC633A
:100680001A43C0F3C400024392B204498B1E01F521
:10069000AF7123F8022F8B42FBD17047680900200D
:1006A000F8B50E461C4687B2013AB918C9B23620D1
:1006B000074DA847F9B23720A847B6B2013C311917
:1006C000C9B23820A847F1B23920A847F8BD00BF09
:1006D000BD05400038B50D46C1B22020024CA047F0
:1006E000E9B22120A04738BDBD0540002DE9F04703
:1006F00084B081464FF0020804AF47F8048D1D20F6
:100700005E4CA04740465E4EB0471D205D4B98476B
:100710001420B0471D20A0473220B0475A4CC4F8DF
:100720000080802323604FF080732360574B4FF489
:100730000012C3F88020C3F88021002583F81553E8
:100740001A602046524B98470095524B2A4639462C
:100750002046DFF85CA1D047394620464E4B9847EB
:100760000127276067614D4B98474FF48E713846DB
:100770004B4CA0474FF480714046A04741F23001F6
:100780000320A04740F608010820A04739460C2066
:10079000A04740F601210F20A047B0212020A0470C
:1007A000DC212120A0474FF420611020A04741F216
:1007B00038011120A0473220B04741F22111122008
:1007C000A0474E211320A04746F26F711420A04786
:1007D00029463020A047DB213120A047294632207E
:1007E000A04729463320A047DB213420A0472946D3
:1007F0003520A047B0213620A04729463720A04702
:10080000DC213820A04729463920A047294650201E
:10081000A04740F20A615120A04740F60A515220F9
:10082000A04740F203315320A04740F60D21542049
:10083000A04740F606215520A04729465620A0474C
:1008400040F203315720A04729465820A0472946A7
:100850005920A047D9F80430D9F800202946284665
:10086000104CA047D9F808000F4B98472946284656
:100870000E4B9847284604B0BDE8F0874B15400062
:10088000C9044000651540000080004000E100E020
:100890003101400020BCBE0005024000610640005E
:1008A000BD054000A106400071064000D50640008D
:1008B00085014000AF2811D8DB2901D901207047FC
:1008C00008B589B280B2064B98472220054B98475D
:1008D000054B1888054B9847002008BD012070473C
:1008E000D506400049054000680900208D054000FC
:1008F0002DE9F04184B003900291019204AA42F8DC
:10090000103D134601AA02A903A8214CA047039851
:100910000299009B0133019A01325B1A121A1D4C95
:10092000A047BDF80810BDF80C001B4B98472220CB
:100930001A4B9847039A019B9A1A009B03F10108EE
:10094000029BA8EB030802FB0888154BA3FB0823B6
:10095000DB0953B15C1E134FB026134D31463846A8
:10096000A847013CB4F1FF3FF8D10D49A1FB083184
:10097000C909B02404FB11810A480B4B9847DC23BA
:10098000224600210846034CA04704B0BDE8F08190
:1009900001054000A1064000D50640004905400081
:1009A000A38B2EBA68090020D5054000002A49D043
:1009B0002DE9F04F83B08046894616465700C7F1AF
:1009C00003070025204C05E0063707EB85070135B6
:1009D000AE4233D308EB050309EB060B59460193EE
:1009E0001846A047A9EB060A51460198A047A8EB74
:1009F000050359469B461846A04751465846A0470E
:100A000008EB060309EB050B594601931846A0476E
:100A1000A9EB050A51460198A047A8EB06035946E1
:100A20009B461846A04751465846A047002FCBDBAF
:100A3000AB1B0A3707EB8307013EC8E7002003B072
:100A4000BDE8F08F01207047B50840002DE9F04F58
:100A500085B0039002921378002B48D08B4601900A
:100A6000DFF8948033E00BF1100B039B019329E036
:100A7000013CB4F1FF3F09D02B78234113F0010F63
:100A8000F6D0AAEB04013046C047F1E707240BF18A
:100A90000F0902E0013C012C09D07B78234113F0BF
:100AA000010FF7D0A9EB04013046C047F2E7023549
:100AB0000136009BB34202D007242F46DCE7019B9E
:100AC0000C330193029A12F8013F02927BB10A2B78
:100AD000C9D003EB8303074D05EB8303A3F5207512
:100AE000019E33460A3300930BF1070AE4E705B091
:100AF000BDE8F08F8C3A4000B5084000F0B48CB0EF
:100B000007460E4601AC114D0FCD0FC40FCD0FC4DB
:100B100095E8070084E8070001AA002352F8040BB7
:100B2000B6FBF0F0B0FBF7F0B0F5807F07D90133EA
:100B30000B2BF3D14FF6FF700CB0F0BC70470A2BB3
:100B400094BF40EA03204FF6FF70F5E70C424000E7
:100B500070B506460D460C6844B1896820460C4BBA
:100B6000984704464FF6FF7398420CD0686840B12E
:100B7000A968074B98474FF6FF73984205D044EA9F
:100B8000004434600024204670BD0446FBE700BFEB
:100B9000FD0A400010B40A684B6803F00F030C898B
:100BA00023438C7A43EA442300EB4210C0F800321E
:100BB000CB68C0F804320B69C0F80832002010BCC2
:100BC00070470B69934202D24FF6FF7070470B6873
:100BD000CA6000EB4310D0F8003223F48063C0F801
:100BE0000032C0F8102200207047012303FA01F1FF
:100BF00041607047012303FA01F18160704710B42E
:100C000089014318022444504FF0FF319962196A58
:100C10005A6010BC7047890105234350704700EBB0
:100C20008111CA61704700EB81114A62704700EB85
:100C30008111086A7047F0B486B002240194082438
:100C4000029420240394802404940A9CE40B0594C9
:100C5000B0EB510F14D84C0CA04217D2012501AFB4
:100C600057F82540B1FBF4F4260C84420AD386429F
:100C70000DD90135052DF3D1002006B0F0BC704729
:100C80000020FAE70020F8E70120F6E700252AB166
:100C900006A901EB850151F8141C1160002BF3D05B
:100CA0001D600120E9E710B4AC2303600B684A68BB
:100CB000B3FBF2F31B095C1E4FF6FE7294420BD895
:100CC00003628B68436040F20223C0F82031502356
:100CD0000360002010BC70470120FBE7436913F05C
:100CE000020F1ABFC161002001207047436913F051
:100CF000010F1DBF83690B700020012070470000A9
:100D000010B50948094B984701210948094B9847F4
:100D1000094B98471720094CA0472320084B9847B8
:100D20001720A04710BD00BF38424000CD20400032
:100D3000004001402F0C40004D0E40002F15400098
:100D400001000020F0B583B005460C460023019356
:100D5000184B98420AD0184B98420FD0174B984224
:100D600014D0174B9D421BD003B0F0BD1F46154E4B
:100D700021463846B0470028FAD1F2E71E46114D09
:100D800021463046A8470028FAD1EDE71E460E4D11
:100D900001A93046A8470028FAD1019B2370E3E758
:100DA0001E46094D01A93046A8470028FAD1019BEB
:100DB0002370D9E700060E4000080E4000400240B4
:100DC00000800240ED0C4000DF03400070B50C468F
:100DD000184B98420AD0184B984210D0174B9842A3
:100DE00016D0174B98421CD0002070BD1E46154DE2
:100DF00021463046A8470028FAD1012070BD1E4682
:100E0000104D21463046A8470028FAD1012070BD78
:100E10001E460D4D21463046A8470028FAD1012034
:100E200070BD1E46084D21463046A8470028FAD11D
:100E3000012070BD00060E4000080E400040024038
:100E400000800240DD0C4000CB0340000022014B3B
:100E50001A607047C80A0020024A13680133136001
:100E6000704700BFC80A00202DE9F04184B0DFF8C8
:100E70008C80CDF80480164C23680293A3680393FA
:100E80000820144FB847144D01A92846134EB04707
:100E9000134B1D60134A144B1A60144A144B1A600A
:100EA000CDF8048023680293A36803930820B84711
:100EB00001A92846B0470F4D2B68002198680E4CB9
:100EC000A0472B6800215868A04704B0BDE8F08116
:100ED000F40000205D19400000060E40A70C400001
:100EE000800B0020CD0D40007C0B0020450D400004
:100EF000780B002008010020DD204000006CDC029F
:100F000008B5014B984708BD3506400010B5094C9F
:100F1000B0232360DC2363600023A3606FF07F4372
:100F2000E360054B98472046044B98470820044B44
:100F3000984710BD980B0020A5044000ED06400026
:100F40004904400038B56FF07F40154CA047DC23C2
:100F5000B02200210846134DA847134B98470021A3
:100F60000846124B9847FF20A047114A0A2108461D
:100F7000104B98474FF47F00A0471E2250213C2081
:100F80000D4DA8474FF47F40A0471E2278213C20FA
:100F9000A847FF20A0471E22A0213C20A84738BD1B
:100FA00071064000F10840004D064000D5064000A3
:100FB000744240004D0A4000AD09400008B50021D0
:100FC0000448054B98470548054B9847054B9847FB
:100FD00008BD00BF000001402F0C400058424000F7
:100FE000CD204000010D400008B501210448054B0B
:100FF0009847054B98470548054B984708BD00BFE3
:10100000004001402F0C4000590E40006842400053
:10101000CD2040002DE9F04F85B01720DFF8F0B06B
:10102000D847304C009403AB02AA21464FF47A70A3
:10103000DFF8E0A0D0472C4E039A42F48042002112
:101040003046DFF8D490C847029AB4FBF2F2274B3F
:10105000A3FB0232920900213046DFF8C080C0476E
:10106000102200213046224FB847224D202385F818
:1010700018334FF400032B60002130461E4EB0475A
:101080001E481F4B98471820D847009403AB02AA6C
:1010900021461C48D047DFF888A0039A42F48042DA
:1010A00001215046C847029AB4FBF2F25209164C8D
:1010B000A4FB0232D20901215046C047102201216F
:1010C0005046B847502385F818334FF080732B6093
:1010D00001215046B0470D48094B984705B0BDE87F
:1010E000F08F00BF006CDC0200000140D34D6210A5
:1010F000270C400000E100E0170C4000E8424000EF
:10110000CD204000A0860100C55A7C0A084340005B
:101110005D194000370C4000FF0B40001F0C4000E1
:10112000004001402DE9F04F83B01E481E4EB047ED
:101130001E4C09224FF400412046DFF884B0D84706
:101140001B4B009370234FF400420B212046DFF825
:1011500074A0D0474FF400412046DFF86C90C84798
:10116000144D4FF0600885F80B834FF400672F6033
:1011700009224FF480312046D8470F4B009370234B
:101180004FF480320B212046D0474FF48031204667
:10119000C84785F80B832F600848B04703B0BDE807
:1011A000F08F00BFB0424000CD204000000E0E4046
:1011B0006512400000E100E09D124000CC4240007A
:1011C0009D144000C91740002315400030B585B07C
:1011D0001F20124B9847124C00212046114B984774
:1011E00041F288330193002502950F4B039301A927
:1011F00020460E4B98470E490D8101238B720B221E
:101200004A6064220A61CB600D602046094B984712
:1012100029462046084B984705B030BD5D1940006F
:1012200000000240F50B4000006CDC02510B400056
:10123000840B0020950B4000EB0B400010B5054CD3
:1012400000232360044B9847024621460348044B81
:10125000984710BD840B0020391F40000000024059
:10126000C30B400008B5084B1B68082B02D801339C
:10127000054A1360044B1868044B9847044B984781
:101280000448054B984708BDF00000204D1E400063
:101290003D12400080424000CD20400008B5084B80
:1012A0001B68012B02D9013B054A1360044B1868E7
:1012B000044B9847044B98470448054B984708BD92
:1012C000F00000204D1E40003D12400098424000BA
:1012D000CD20400010B50E480E4B98473E2100200F
:1012E0000D4B98470D4CA0470028FCD00C4B98475D
:1012F0000C4A0D4B9A620D4CA0470028FCD01020E0
:101300000B4B98470B4B98470148024B984710BD31
:10131000006CDC02AD000020D91840002D194000FF
:101320003D194000013F072000040E404D194000C8
:1013300075184000251A400010B54FF400422C4BA0
:101340005A600B202B4CA0470C20A0470D20A04733
:101350004FF060511720284CA0474FF060512E20CD
:10136000A04726490F20A04725491020A0474FF04D
:1013700000624FF4C0612348234B98474FF08051DF
:101380000020A0474FF080510820A0474FF0006197
:101390000C20A0474FF000610D20A0474FF00061E6
:1013A0000E20A0474FF000611F20A0474FF0805152
:1013B0001E20A0474FF000610C20A0474FF00061B5
:1013C0000D20A0474FF000610E20A0474FF0805144
:1013D0001E20A0474FF060511C20A0474FF06051E5
:1013E0001D20A0474FF060514D20A04710BD00BF09
:1013F00050140E405D19400081154000790000280E
:1014000059000028000E0E40A11640004264B1F1C0
:10141000C05F39D013D8B1F1006F25D0B1F1805F32
:101420000AD1036F13430367436F416F0B4023EAF5
:1014300002034367426070470029FBD17047B1F156
:10144000205F20D009D8B1F1005FF3D1036F1343BF
:101450000367436F13434367ECE7B1F1405F12D07A
:10146000B1F1605F0FD0E5E710B4016F046FD343B3
:1014700021401C4619400167436F416F0B402340D8
:101480004367426010BC7047036F016F0B4023EA53
:1014900002030367436F13434367CBE7416412F0D2
:1014A000010F14BF4166016612F00A0F14BF0162FA
:1014B000416212F0020F07D112F0080F18BFC0F8F6
:1014C0008410416101607047C0F88010F9E710B4E2
:1014D000019C416444B9016643B1016542B941636D
:1014E0000161016010BC70474166F5E74165F5E7B1
:1014F0000163F5E712F0100F10D0C0F8B01012F031
:10150000200F14BFC0F8D410C0F8D01012F0400F54
:1015100014BFC0F8C010C0F8C4107047C0F8B410B1
:10152000704701647047C06C7047806C7047430916
:1015300003F5001303F207735B02DB6B00F01F007F
:1015400023FA00F000F001007047430903F500138F
:1015500003F207735B0200F01F00012202FA00F0A1
:1015600018637047430903F5001303F207735B0226
:1015700000F01F00012202FA00F0586370470000DB
:1015800070B582B00D46430903F5001303F20773EB
:101590005C0201F0F043B3F1005F53D00AD8B3F11D
:1015A000805F2DD0B3F1C05F3BD0B3F1006F15D099
:1015B000002023E0B3F1405F55D0B3F1605F52D01B
:1015C000B3F1205FF4D100F01F0101262A4606FA8C
:1015D00001F120462F4B984730460FE000F01F00E6
:1015E0000126864032464FF0006120462A4B98473C
:1015F00015F0010F14BF66662666012002B070BDAB
:1016000000F01F000126864032464FF080512046F0
:10161000214B984715F0010F14BF6666266601201E
:10162000ECE700F01F000126864032464FF0C05123
:101630002046194B984715F0010F14BF66662666C1
:101640000120DBE700F01F000126864032464FF004
:1016500000512046104B984715F0010F14BF6666E5
:1016600026660120CAE705F0605200F01F0101263E
:1016700005EA06030093C5F38003B2F1605F14BF6F
:101680000022012206FA01F12046044CA047304610
:10169000B4E700BF9D1440000D144000CF1440007B
:1016A00070B582B005460E46144602F0F043B3F121
:1016B000005F3DD00AD8B3F1805F21D0B3F1C05FA5
:1016C0002AD0B3F1006F0ED0002017E0B3F1405FD5
:1016D0003AD0B3F1605F37D0B3F1205FF4D1234B40
:1016E000984701200AE00A464FF00061204B9847D6
:1016F00014F0010F14BF6E662E66012002B070BD9B
:101700000A464FF080511A4B984714F0010F14BF4E
:101710006E662E660120F1E70A464FF0C051144B69
:10172000984714F0010F14BF6E662E660120E5E79E
:101730000A464FF000510E4B984714F0010F14BFAA
:101740006E662E660120D9E704F0605204F00103B2
:101750000093C4F38003B2F1605F14BF0022012242
:1017600031462846034CA0470120C7E79D1440009E
:101770000D144000CF1440002DE9F0410446884686
:101780000E4B9847054620460D4B9847054013D011
:101790000C4C04F1600603E0B4420DD010345DB18E
:1017A00020684045F8D161682942F5D0E368984740
:1017B000636825EA0305EFE7BDE8F08127154000DF
:1017C0002B154000CC0A0020F8B5184C2668062ED0
:1017D00029D84FF0000C6446154F04E00134E4B200
:1017E000A446A64209D3A64625017D598D42F5D1CE
:1017F00007EB04156D689542F0D10D4D4FEA0E1EB2
:1018000005EB0E0445F80E106260A3600699E160D6
:101810000136664504BF05490E6011461A46054B60
:1018200098470020F8BD0120F8BD00BF3C0B002008
:10183000CC0A0020F514400008B50B210148024BEA
:10184000984708BD000E0E407917400008B50C21DE
:101850000148024B984708BD00100E407917400020
:1018600008B50D210148024B984708BD00120E40F3
:1018700079174000174A136B23F070031843106365
:10188000936E13F0080F0AD14FF4006311498A6E6A
:1018900012F0080F03D1013BF9D1012070470D4A26
:1018A000136B23F0030343F002031363936E13F0EF
:1018B000080F0AD14FF4006306498A6E12F0080F30
:1018C00005D1013BF9D1012070470020704700206D
:1018D000704700BF00040E40C8B9114A136A0902DC
:1018E00089B223F45C1323F0030343F45C1343F045
:1018F00001030B431362936E13F0010FFBD0084AF0
:10190000136A43F09B7343F48033136270470449B6
:101910000B6A044A1A40044B13430B62704700BF22
:1019200000040E40FCFFC8FE02003701024B986E17
:1019300000F48030704700BF00040E404FF00052AA
:10194000014B9A62704700BF00040E40024B986E34
:1019500000F00200704700BF00040E401F280CD8A2
:10196000084B9A6901238340934308D0012303FA6B
:1019700000F0044B186100207047012070470020E0
:10198000704700BF00040E40FEE7000008B51C4B86
:101990001C4A9A4210D01C4B194A9A420CD2013B65
:1019A0009B1A23F0030304331344164951F8040B24
:1019B00042F8040B9A42F9D1144B154A9A420AD2C2
:1019C000013B9B1A23F0030304331344002142F824
:1019D000041B9342FBD10F4B23F0604222F07F02A5
:1019E0000D498A6003F16043B3F5C04F03D28B68A1
:1019F00043F000538B60094B9847094B9847FEE72B
:101A0000000000206C43400048090020AC0B00207F
:101A1000480900200000400000ED00E0791F400070
:101A2000751B4000384B1B6B03F00303012B1DD0CB
:101A300083B1022B36D0344B1B6B03F07003702B39
:101A400059D0314B1A6B3149C2F302120B68D340A3
:101A50000B6070472E4B5B6913F0800F14BF4FF47F
:101A600000424FF4FA42294B1A60E4E7264B1B6A06
:101A700013F0807F03D0274A244B1A60DBE7264A05
:101A8000224B1A60204B1B6A03F07003102B05D009
:101A9000202BD0D11F4A1D4B1A60CCE71F4A1B4B8D
:101AA0001A60C8E7184B1B6A13F0807F10D0194AE0
:101AB000164B1A60144A916A926A1448C1F30A419B
:101AC000036801FB0333D2B2B3FBF2F30360B2E766
:101AD000114A0E4B1A600C4B1B6A03F07003102B5B
:101AE00005D0202BE6D10B4A084B1A60E2E70B4ADF
:101AF000064B1A60DEE7054A13680949A1FB031388
:101B00005B081360704700BF00040E400401002012
:101B100010140E40001BB70000093D0000127A00AF
:101B2000ABAAAAAA0A4B1B6853B1094B1B681A1827
:101B30000849914208DB1046054A10601846704774
:101B4000054A034B1A60F0E74FF0FF30704700BFC3
:101B5000400B0020FC5F0020B01300204FF0FF304E
:101B600070474FF400534B600020704701207047CE
:101B70000020704708B50A4B98470A4B98470A4B14
:101B800098470A480A4B98470A4B98470A4B984788
:101B90000A4B98470A4B98470A4B9847FEE700BF05
:101BA000D512400039134000690E40002843400020
:101BB000CD204000CD1140002511400015104000FF
:101BC0000D0F4000450F400081F0004102E000BFD2
:101BD00083F0004330B54FEA41044FEA430594EAED
:101BE000050F08BF90EA020F1FBF54EA000C55EA28
:101BF000020C7FEA645C7FEA655C00F0E2804FEAF9
:101C00005454D4EB5555B8BF6D420CDD2C4480EADA
:101C1000020281EA030382EA000083EA010180EA0A
:101C2000020281EA0303362D88BF30BD11F0004F58
:101C30004FEA01314FF4801C4CEA113102D040428E
:101C400061EB410113F0004F4FEA03334CEA1333C9
:101C500002D0524263EB430394EA050F00F0A780E1
:101C6000A4F10104D5F1200E0DDB02FA0EFC22FADC
:101C700005F2801841F1000103FA0EF2801843FAD0
:101C800005F359410EE0A5F120050EF1200E012AC1
:101C900003FA0EFC28BF4CF0020C43FA05F3C018FF
:101CA00051EBE37101F0004507D54FF0000EDCF178
:101CB000000C7EEB00006EEB0101B1F5801F1BD321
:101CC000B1F5001F0CD349085FEA30004FEA3C0C25
:101CD00004F101044FEA445212F5800F80F09A801B
:101CE000BCF1004F08BF5FEA500C50F1000041EB1F
:101CF000045141EA050130BD5FEA4C0C404141EB23
:101D0000010111F4801FA4F10104E9D191F0000F49
:101D100004BF01460020B1FA81F308BF2033A3F1CC
:101D20000B03B3F120020CDA0C3208DD02F1140CC3
:101D3000C2F10C0201FA0CF021FA02F10CE002F1FE
:101D40001402D8BFC2F1200C01FA02F120FA0CFCF7
:101D5000DCBF41EA0C019040E41AA2BF01EB045140
:101D6000294330BD6FEA04041F3C1CDA0C340EDC3E
:101D700004F11404C4F1200220FA04F001FA02F381
:101D800040EA030021FA04F345EA030130BDC4F13F
:101D90000C04C4F1200220FA02F001FA04F340EA34
:101DA0000300294630BD21FA04F0294630BD94F0E5
:101DB000000F83F4801306BF81F480110134013DCC
:101DC0004EE77FEA645C18BF7FEA655C29D094EA3D
:101DD000050F08BF90EA020F05D054EA000C04BFBB
:101DE0001946104630BD91EA030F1EBF00210020A6
:101DF00030BD5FEA545C05D14000494128BF41F045
:101E0000004130BD14F580043CBF01F5801130BDA8
:101E100001F0004545F0FE4141F470014FF0000033
:101E200030BD7FEA645C1ABF194610467FEA655CE4
:101E30001CBF0B46024650EA013406BF52EA033586
:101E400091EA030F41F4002130BD00BF90F0000F74
:101E500004BF0021704730B54FF4806404F13204B0
:101E60004FF000054FF0000150E700BF90F0000F69
:101E700004BF0021704730B54FF4806404F1320490
:101E800010F0004548BF40424FF000013EE700BF60
:101E900042004FEAE2014FEA31014FEA02701FBFF0
:101EA00012F07F4393F07F4F81F06051704792F0C2
:101EB000000F14BF93F07F4F704730B54FF460743C
:101EC00001F0004521F0004120E700BF50EA010287
:101ED00008BF704730B54FF000050AE050EA010234
:101EE00008BF704730B511F0004502D5404261EBA4
:101EF00041014FF4806404F132045FEA915C3FF4E5
:101F0000DCAE4FF003025FEADC0C18BF03325FEA7D
:101F1000DC0C18BF033202EBDC02C2F1200300FA32
:101F200003FC20FA02F001FA03FE40EA0E0021FA57
:101F300002F11444C1E600BF4A0011D212F50012AA
:101F400011D20DD56FF47873B3EB62520ED44FEA11
:101F5000C12343F0004343EA505323FA02F0704791
:101F60004FF00000704750EA013002D14FF0FF30CF
:101F700070474FF00000704770B50F4E0F4D761B45
:101F8000B61018BF002405D0013455F8043B98471B
:101F9000A642F9D10A4E0B4D02F0D6F9761BB610C7
:101FA00018BF002406D0013455F8043B9847A642D8
:101FB000F9D170BD70BD00BF544340005443400090
:101FC0005C4340005443400070B4860746D0541E22
:101FD000002A41D0CAB2034602E014F1FF343BD3D9
:101FE00003F8012B9D07F8D1032C2ED9CDB245EA79
:101FF00005250F2C45EA054519D9264603F110029F
:10200000103E0F2E42F8105C42F80C5C42F8085C5F
:1020100042F8045C02F11002F2D8A4F1100222F09E
:102020000F0204F00F041032032C13440DD91E4686
:102030002246043A032A46F8045BFAD8221F22F00B
:1020400003020432134404F003042CB1C9B21C444B
:1020500003F8011B9C42FBD170BC70471446034639
:10206000C2E700BFF0B5054689B008460C46012717
:1020700000F0E2F80226C31913490393AB6B04AADC
:1020800004940590AC680797029606910192B3B14B
:10209000B4F90C309A0406D4626E43F4005322F46F
:1020A0000052A38162662146284601AA00F08CFBFB
:1020B000002814BF4FF0FF300A2009B0F0BD2846B9
:1020C00000F028FAE4E700BF54424000024B01460A
:1020D0001868FFF7C7BF00BF0801002000290CBF28
:1020E000022200224FF4806300F000B82DE9F04393
:1020F000504D83B02D6804460F4690461E4615B1DC
:10210000AB6B002B77D0B8F1020F04D0B8F1010F00
:102110007DD8002E7BDB2146284600F067F9216B35
:1021200041B104F14003994202D0284600F066FA1A
:10213000002323630022B4F90C30A26162601A0606
:1021400052D423F44A6323F00303B8F1020FA381AE
:1021500037D001AB6A462146284600F0D7FCA38958
:102160001843A08116B317B3AB6B002B4BD0009B69
:1021700027609E42B4F90C3027611CBF43F4006312
:10218000A381B8F1010F04BF43F00103A3819BB207
:1021900013F00800666123D013F001002FD0002057
:1021A0007642A661A06003B0BDE8F083009E304691
:1021B00000F01EFD074668B3A38943F08003A381A6
:1021C000D2E700200025012104F1430243F002037D
:1021D000A381A56061612260226103B0BDE8F08344
:1021E000A06003B0BDE8F0832169284600F006FA3C
:1021F000B4F90C30A5E7284600F08CF983E7A66017
:1022000003B0BDE8F083284600F084F9AFE74FF053
:10221000FF30E2E7DDF80090B14506D0484600F017
:10222000E7FC074608B14E46C6E7B4F90C304FF05C
:10223000FF30C7E70801002020F0030110F0030081
:10224000C0F1000051F8043B00F1040C4FEACC0C43
:102250006FF000021CBF22FA0CF213434FF0010C86
:102260004CEA0C2C4CEA0C4CA3EB0C0222EA0302C5
:1022700012EACC1204BF51F8043B0430F4D0C2F18E
:10228000000102EA0102B2FA82F2C2F11F0200EB7F
:10229000D2007047024B13B1024800F005B87047F6
:1022A0000000000029254000002301461A46184678
:1022B00001F0F2BAB1F90C302DE9F0419AB20D46B5
:1022C000110780463AD46A6843F40063002AAB8160
:1022D00070DDAC6A002C4AD000229BB2D8F80060B6
:1022E000C8F8002013F4805268D02A6D5F0705D526
:1022F00069682B6B521A0BB1EB6BD21A0023E96998
:102300004046A047441C3DD00021B5F90C302A6955
:1023100023F40063AB81DB0469602A6048D4296B35
:10232000C8F8006019B305F14003994202D0404655
:1023300000F064F900202863BDE8F0812E69B6B191
:10234000910718BF00232C6808BF6B692E60A41B7F
:10235000AB600AE0234632466F6AE9694046B847F7
:102360000028A4EB0004064404DD002CF2DC00206D
:10237000BDE8F081AB894FF0FF3043F04003AB8103
:10238000BDE8F081D8F800401D2CF3D8164BE3408F
:10239000DB4313F00103EDD1B5F90C20296922F4D8
:1023A0000062AA81D2046B602960B8D5002CB6D136
:1023B0002865B4E7EA6B002A8BDCD8E70123E969DA
:1023C0004046A047431C024602D0AB89AC6A8DE769
:1023D000D8F80030002BF8D01D2B01D0162BC9D116
:1023E000C8F80060C3E700BF0100402010B50446F4
:1023F00082B008B1836B53B1B1F90C0008B902B0D7
:1024000010BD204602B0BDE81040FFF753BF019158
:1024100000F080F80199EFE7014900F04FBB00BFE1
:10242000693940002DE9F04F0746002404230321B9
:102430007D68334807F53B72F863C7F8E412C7F8C4
:10244000E822C7F8E04283B02C606C60AC606C6638
:10245000EC812C616C61AC61AB81214605F15C00C3
:102460000822FFF7B1FD01230922BE68DFF894B00E
:10247000DFF894A0DFF89490DFF89480C5F820B0DE
:10248000C5F824A0C5F82890C5F82C80ED61214638
:10249000F381B28106F15C0034607460B4607466EC
:1024A00034617461B46108220193FFF78DFD12203D
:1024B0000222FD682146F661C6F820B0C6F824A0C5
:1024C000C6F82890C6F82C80A881EA812C606C6040
:1024D000AC606C662C616C61AC6105F15C0008223B
:1024E000FFF772FD019BED61C5F820B0C5F824A08F
:1024F000C5F82890C5F82C80BB6303B0BDE8F08F09
:10250000192440001D374000413740007D3740000E
:102510009D374000836B03B17047FFF783BF00BF57
:10252000704700BF704700BF38B50A4C0A4D641BA6
:10253000A4100AD004F18043013B05EB8305013C64
:1025400055F804399847002CF9D1BDE8384001F01E
:1025500005BF00BF6C43400068434000F8B50C461F
:10256000234F064600F00EFFBB68C4F57E615D6830
:102570000F3125F00305294421F47F6121F00F017B
:10258000A1F58054B4F5805F07DB0021304601F0EF
:10259000B3F8BB682B44984204D0304600F0F4FEF8
:1025A0000020F8BD6142304601F0A6F801300DD0A0
:1025B000104BBA6819682D1B45F001053046091B00
:1025C0005560196000F0E0FE0120F8BD00213046A2
:1025D00001F092F8BA68831A0F2BDEDD064C05492C
:1025E000246843F00103001B53600860D5E700BF77
:1025F00038050020440B002040090020002944D069
:102600002DE9F0410D46804600F0BCFE55F8047CF3
:102610006949A5F1080427F00103E2188E685068A3
:10262000B24220F003005ED0FE0750600BD455F894
:10263000087C01F1080EE41BA5683B4475456DD08C
:10264000E768EF60BD6015186D68ED073ED543F093
:1026500001026260E350B3F5007F17D20122DB086C
:1026600098104D68134451F83370824001EBC30059
:102670002A430838E060A7604A6041F83340FC60B4
:102680004046BDE8F04100F07FBE70475A0A042A78
:1026900052D89A0902F13907FF0002F13805C8192A
:1026A000CA59083890424FD0516821F003018B423B
:1026B00032D292689042F7D1C368A060E3609C6018
:1026C000C4604046BDE8F04100F05EBE95683B4FF7
:1026D0000344BD4240D0D06843F00102E860856009
:1026E0006260E350B7E7FF07034407D455F8085C7E
:1026F000641BE268A0682B44C2609060304A43F0DB
:1027000001001268606093428C60B9D32D4B404643
:102710001968FFF723FFB3E71046CDE711184968A2
:10272000C90744D491680344D26843F00100CA60E9
:1027300091606060E350A3E7142A16D802F15C07A9
:10274000FF0002F15B05AAE70123AA104D68934040
:102750002B434B600346B0E743F001024C610C6130
:10276000E560A5606260E3508AE7542A06D81A0B38
:1027700002F16F07FF0002F16E0590E7B2F5AA7F44
:1027800006D8DA0B02F17807FF0002F1770586E739
:1027900040F25450824206D89A0C02F17D07FF00A5
:1027A00002F17C057BE74FF47E777E2577E743F0E7
:1027B00001016160136063E73805002040050020D7
:1027C00044090020740B00209368002B71D02DE980
:1027D000F04F8B8983B00C4619070090164625D51B
:1027E00022691AB313F0020035682BD04FF00009AC
:1027F000B0464F46DFF8C0A2002F55D057453B46A4
:102800004A4628BF5346E1690098666AB0470028E7
:1028100056DDD8F8083081441B1A3F1AC8F8083032
:10282000002BE9D1002003B0BDE8F08F21460098CD
:1028300000F0CEFF002840F03581A389356813F001
:102840000200D3D113F0010944D14F46019637B3AA
:102850009A05D4F8088040F185804745C346C0F00A
:10286000AD8013F4906F40F0AE80BA4620685A46AF
:10287000494600F023FDA2682368A2EB08025B44EE
:10288000A2602360019AD1449368A7EB0A07A3EBE7
:102890000A039360002BC5D0A389002FD8D1D5F8A7
:1028A00000906F680835D2E7D5F800906F6808355A
:1028B000A2E70020704721460098FFF797FD78B304
:1028C000B4F90C304FF0FF3043F04003A38103B064
:1028D000BDE8F08F814633464E46A8469A464D469F
:1028E00056B3002832D0B145CB4628BFB346206846
:1028F00023695F469842626904D9A36813449B45E3
:1029000000F3A88093454DDB1346676A2A46E169C8
:102910000098B847071ED3DDB9EB0709CBD00120DB
:10292000DAF808303D44DB1BF61BCAF80830002BF0
:102930003FF478AF002ED4D108F1080353F8046CAB
:10294000984653F8085C0833002EF7D032460A2127
:10295000284600F0F7FB002800F0A1800130A0EB32
:102960000509C0E720682369984202D863699F423D
:102970005DD2B84528BFB8464946424600F09EFCA5
:10298000A3682268A3EB08034244A36022600BB152
:10299000C24677E721460098FFF728FD00288FD12F
:1029A000C2466FE75A46294600F088FCA2682368B1
:1029B000A2EB0B025B44A2602360ADE7B846BA46C7
:1029C000BB46206853E762692068216902EB420830
:1029D000A0EB010A08EBD8780AF101004FEA680879
:1029E00038444045424684BF804642465B0544D554
:1029F0001146009800F004F98346002855D052464D
:102A0000216900F0E5FBA38923F4906343F0800380
:102A1000A3810BEB0A00A8EB0A03C4F810B0C4F8BA
:102A200014802060A360B846BA46BB461FE76FF02B
:102A30000042BA4228BF3A4692FBF3F2E16903FB37
:102A400002F300984A46666AB047B0F1000A3FF7C1
:102A500019AF35E71A462946019300F02FFC22688A
:102A6000019B21461A4422600098FFF7BFFC019B9E
:102A700000287FF425AF1F464EE7009800F086FC43
:102A800083460028C5D1009D21692846FFF7B6FD81
:102A90000C22B4F90C302A6023F0800312E706F10F
:102AA000010920E74FF0FF30BDE60C220099B4F990
:102AB0000C300A6006E700BF00FCFF7F2DE9F843F9
:102AC00010F538761ED0884607464FF00009756825
:102AD000B468013D10D4A389013D012B08D9B4F994
:102AE0000E30013304D021463846C04749EA000978
:102AF0006B1C04F16804EED13668002EE7D148461D
:102B0000BDE8F883B1464846BDE8F88370B50C4689
:102B1000B1F90E1090B0002915461E4614DB01AA2B
:102B200000F062FF00280FDB029A4FF4806302F48A
:102B30007042A2F50052B2FA82F24FF400605209DC
:102B400032602B6010B070BD0023A289336012F098
:102B5000800004D0402218462A6010B070BD4FF4A7
:102B600080632B6010B070BD8A890B46920706D532
:102B7000012103F1430259611A601A617047F0B5EF
:102B800083B001AB6A460C460546FFF7BFFF0099CC
:102B90000646284600F034F8B4F90C30D0B19DE870
:102BA0000600124F43F08003EF63A3812060206191
:102BB00061611AB93343A38103B0F0BD2846B4F96B
:102BC0000E1000F025FFB4F90C300028F2D043F0CD
:102BD0000103EFE79A05EFD4012104F1430243F02A
:102BE0000203A381616122602261E5E719244000AC
:102BF000024B0146186800F003B800BF080100202E
:102C00002DE9F04F01F10B06162E83B0054640F278
:102C10009E8036F0070600F1BD80B14200F2BA8016
:102C200000F0B0FBB6F5FC7FC0F08582730A00F0BF
:102C3000B880042B00F26C81B30903F1390003F171
:102C4000380EC100B84F39444C680839A14206D14A
:102C50000CE0002A80F2AB80E468A14206D06368F1
:102C600023F003039A1B0F2AF3DD70463C69DFF85B
:102C7000CCE2744500F09E81636823F003039A1B45
:102C80000F2A00F38381002AC7F814E0C7F810E088
:102C900080F29180B3F5007F80F054810122DB083F
:102CA00079684FEAA30C134457F8338002FA0CF208
:102CB00007EBC30C0A43ACF10801E160C4F80880DB
:102CC0007A6047F83340C8F80C40012483109C40D8
:102CD00094427DD8144206D120F0030064001442CF
:102CE00000F10400FAD007EBC009CC468046DCF8BE
:102CF0000C309C4507D15FE1002A80F26D81DB68D2
:102D00009C4500F05981596821F003018A1B0F2A64
:102D1000F2DDDC68D3F808C046F0010828461E44FE
:102D200042F00105C3F80480CCF80C40C4F808C098
:102D30007E613E61C6F80CE0C6F808E075605A5046
:102D4000009300F021FB009B03F108041EE0102912
:102D500020D800F017FB102618230220724F3B44A6
:102D60005C68A3F10802944200F02F816368E16877
:102D700023F0030323445A68A66842F00102F1607D
:102D800028468E605A6000F0FFFA0834204603B0EF
:102D9000BDE8F08F00240C2320462B6003B0BDE873
:102DA000F08F40204FF400714FF03F0E4AE723446C
:102DB0005A68E168E0E723445A68284642F0010275
:102DC0005A60083400F0E0FA204603B0BDE8F08F06
:102DD000BC68636823F00308B04504D3A8EB06037E
:102DE0000F2B00F38580DFF85891504BD9F8002065
:102DF0001B680132334404EB080A00F0548103F5E8
:102E000080530F3323F47F6B2BF00F0B594628466A
:102E100000F072FC411C024600F0FB80824500F28B
:102E2000F680434B19685944196000F04C81D9F879
:102E3000000001301BBFA2EB0A0A5144C9F8002070
:102E4000196012F0070100F01481C1F10800C1F50A
:102E500080510244083102EB0B09C9F30B09A1EBC5
:102E60000909494628460193009200F045FC431C9D
:102E70009DE80C0000F04281801A484440F00100B7
:102E80001968BC424944BA601960506017D0B8F163
:102E90000F0F40F2FA804FF0050C6268A8F10C00A9
:102EA00020F0070002F0010204EB000E02430F289D
:102EB0006260CEF804C0CEF808C000F216811D4B47
:102EC000BC681A68914288BF19601B4B1A6891420E
:102ED000626888BF196022F003029642A2EB0603E3
:102EE00001D80F2B04DC284600F04EFA00244DE7F1
:102EF00046F0010243F00103264462602846BE60AA
:102F00000834736000F040FA204603B0BDE8F08F4B
:102F1000142B70D9542B00F2A280330B03F16F00F5
:102F200003F16E0EC1008DE638050020740B002001
:102F3000440B00206C0B0020700B0020400500208B
:102F4000400900205A0A042A5BD9142A00F2AE80F4
:102F500002F15C01C9005B3207EB010C7958ACF15E
:102F6000080C8C4500F088804A6822F003029342E6
:102F700073D289688C45F7D1DCF80C307A68E3604D
:102F8000C4F808C09C60CCF80C409EE646F0010CEA
:102F900042F001012644C4F804C028467E613E6127
:102FA000C6F80CE0C6F808E07160E25000F0ECF9F9
:102FB0000834EBE67A6888E608F1010818F0030F98
:102FC0000CF1080C7FF493AE2DE0DC68A34208BF3F
:102FD00002303FF44BAEC9E61C4619444A68DB6830
:102FE00054F8086F42F001024A602846F3609E6080
:102FF00000F0CAF9CAE603F15C0003F15B0EC10000
:1030000020E69A0902F13901C9003832A4E7BC422E
:1030100054D0BC68626822F003025EE759F80839B0
:10302000994540F0868010F0030F00F1FF30F5D194
:103030007B6823EA04037B6064009C423FF6C8AED1
:10304000002C3FF4C5AE1C4240467FF44CAE6400F9
:103050001C4200F10400FAD045E68C468CE7B3F53B
:10306000AA7F15D8F30B03F1780003F1770EC100A6
:10307000E8E54FF48051EEE601217B68921001FAF9
:1030800002F21A437A60634679E7012353602AE724
:1030900040F25452934222D8B30C03F17D0003F165
:1030A0007C0EC100CEE503F1100BAFE6542A29D8FF
:1030B0001A0B02F16F01C9006E324DE7204B1968FF
:1030C00059441960B3E6CAF30B0000287FF4AFAE91
:1030D00008EB0B03BA6843F001035360EFE67F206F
:1030E0004FF47E714FF07E0EACE504F108012846E6
:1030F0000093FFF783FA009B1968E0E601204FF088
:103100000009BDE6B2F5AA7F05D8DA0B02F1780115
:10311000C900773220E740F254518A4205D89A0C10
:1031200002F17D01C9007C3216E74FF47E717E22E8
:1031300012E77B6880E7F00806F108030EE600BF9F
:10314000440B0020830770B4CDB23DD0541E0AB3A7
:103150000378AB421FD0431C05E014F1FF3419D3B0
:103160000278AA4217D013F0030F184603F10103A7
:10317000F3D1032C11D84CB30378AB420BD00444E9
:10318000431C02E00278AA4205D09C42184603F193
:103190000103F7D1002070BC7047090289B22943AE
:1031A00041EA0141036806464B40A3F1013222EA9D
:1031B000030313F0803F00F1040003D1043C032C0F
:1031C000F0D8D8E73046D7E71446D2E72046E2E702
:1031D000844641EA000313F0030349D1403A23D364
:1031E0000B6803604B6843608B688360CB68C36087
:1031F0000B6903614B6943618B698361CB69C3616F
:103200000B6A03624B6A43628B6A8362CB6AC36256
:103210000B6B03634B6B43638B6B8363CB6BC3633E
:1032200040304031403ADBD230320BD30B68036080
:103230004B6843608B688360CB68C360103010318B
:10324000103AF3D20C3205D351F8043B40F8043B5A
:10325000043AF9D2043208D0D2071CBF11F8013B5E
:1032600000F8013B01D30B8803806046704700BF24
:10327000082A13D38B07B1D010F00303AED0C3F1EB
:103280000403D21ADB071CBF11F8013B00F8013B15
:10329000A4D331F8023B20F8023B9FE7043AD9D38C
:1032A000013A11F8013B00F8013BF9D20B780370A9
:1032B0004B7843708B788370604670478842F0B5D6
:1032C0000DD98B1898420AD28418002A51D0224670
:1032D00013F8014D994202F8014DF9D1F0BD0F2AC2
:1032E00048D941EA00039B0746D1154600F1100476
:1032F00001F1100353F8106C103D44F8106C53F8B2
:103300000C6C0F2D44F80C6C53F8086C04F110048D
:1033100044F8186C53F8046C03F1100344F8146C6F
:10332000E8D8A2F1100323F00F0302F00F0E1033C0
:10333000BEF1030F1944034421D90E4674461D1FE4
:1033400056F8047B043C032C45F8047FF8D8AEF112
:10335000040424F0030404342144234402F003024F
:1033600062B1013B0A4411F8014B8A4203F8014F54
:10337000F9D1F0BD0346F3E70346F2E7F0BD72462C
:10338000EEE700BF704700BF704700BF002900F0A4
:1033900094802DE9F04F0C46154683B0804605F128
:1033A0000B06FFF7EFFF54F804EC162E2EF0030780
:1033B000A4F108093CD810221646B5423DD89742E0
:1033C00043DAC64B09EB07009968884200F0C380D6
:1033D000436823F0010101444968C9074DD51EF037
:1033E000010F00F09B8029464046FFF709FC054687
:1033F00000283BD054F8043CA0F1080223F001035C
:103400004B449A4200F02B813A1F242A00F2188183
:10341000132A00F2EB8003462246116819605168B6
:10342000596092689A6021464046FFF7E7F81DE030
:1034300026F00706002E3246BFDA00250C23284668
:10344000C8F8003003B0BDE8F08F2546BB1B0F2B3A
:10345000D9F804201DD802F001023A4309EB070114
:10346000C9F804204B6843F001034B604046FFF766
:103470008BFF284603B0BDE8F08F23F00303F91853
:1034800091421DDBC36882682546D3600F469A606F
:10349000DCE702F0010209EB060143F001033243CD
:1034A000C9F804204F444B607B68083143F00103A6
:1034B0007B604046FFF7A2F8D8E71146FFF7A0BBB4
:1034C0001EF0010F8FD154F8081CA9EB010ADAF89D
:1034D000041021F003010B443B44934226DB554684
:1034E000C16880683A1FC160886055F8080FDAF833
:1034F0000C10242AC160886026D8132A40F28180EB
:1035000021681B2ACAF808106168CAF80C1000F27A
:10351000AD8004F108000AF1100274E054F8083C90
:10352000A9EB030ADAF8041021F003017B18934297
:10353000FFF659AF5546DAF80C1055F8080F3A1F48
:10354000242AC1608860D8D9214628461F46D14622
:10355000FFF7B4FE7AE7416806F1100021F0030B93
:10356000BB44834558DA1EF0010F7FF43CAF54F89A
:10357000081CA9EB010ADAF8041021F003018B44BE
:103580005845D3DC5546DAF80C1055F8080F3A1FA9
:10359000242AC160886000F28D80132A40F287805F
:1035A00021681B2ACAF808106168CAF80C1000F2DA
:1035B000888004F108010AF1100208681060486868
:1035C000506089689160ABEB06020AEB060142F09D
:1035D000010299604A60DAF80430404603F00103C2
:1035E0001E43CAF80460FFF7CFFE42E723681B2A98
:1035F00003606368436027D800F1080304F1080200
:103600000BE720462A4601681F4611604168D146F3
:1036100051608368936019E7ABEB060B09EB060179
:103620004BF0010299604A6054F8043C404603F0B4
:1036300001031E4344F8046CFFF7A6FE254618E775
:103640002146FFF73BFEEEE6A368242A8360E36889
:10365000C36018D000F1100304F11002DDE650F849
:10366000043C254623F003031F44EFE6A168242A07
:10367000CAF81010E168CAF814100DD004F1100057
:103680000AF11802BFE7226900F1180302616169BB
:1036900004F118024161C0E6226904F11800CAF879
:1036A000182061690AF12002CAF81C10ABE7214614
:1036B0002A4682E7214628460193FFF7FFFD019B3A
:1036C00081E7A168242ACAF81010E168CAF814102A
:1036D00006D004F110010AF118026EE73805002047
:1036E000226904F11801CAF8182060690AF1200261
:1036F000CAF81C0061E700BF38B50023064C054638
:1037000008462360FEF70EFA431C00D038BD23683C
:10371000002BFBD02B6038BDA80B002010B50C4649
:10372000B1F90E1000F09CF9002803DB236D03446F
:10373000236510BDA38923F48053A38110BD00BF6E
:103740002DE9F0410C46B1F90C101F46CB05164689
:10375000054607D5B4F90E100223002200F06AF9DD
:10376000B4F90C1021F48051A1813B463246B4F9E2
:103770000E102846BDE8F04100F014B810B50C4614
:10378000B1F90E1000F056F9A389421C0EBF23F4C4
:10379000805343F480532065A38110BDB1F90E100E
:1037A00000F0D0B8F8B50E460025084C1146074683
:1037B0001A4630462560FCF71FFE431C00D0F8BDBA
:1037C0002368002BFBD03B60F8BD00BFA80B002096
:1037D00038B5304B054618680C4610B1836B002B8A
:1037E00038D0B4F90C2093B218070CD52069A8B1D1
:1037F00013F001021ED000226369A2605B42A36144
:10380000F0B1002038BDD9063BD5580725D4206932
:1038100042F00803A3819BB20028E9D103F420728F
:10382000B2F5007FE4D028462146FFF79DF9A38931
:103830002069DDE7990758BF6269A2600028E0D1DE
:10384000B4F90C301A06DDD543F04003A3814FF0E4
:10385000FF3038BDFEF75EFEC3E7216B51B104F1C6
:103860004003994204D02846FEF7C8FEB4F90C2064
:10387000002323630023206922F0240284E8090046
:10388000C6E7092342F040022B604FF0FF30A281CF
:1038900038BD00BF080100202DE9F047274C07463E
:1038A00026688846D6F8484192469946002C3CD076
:1038B00065681F2D1ADC05F1010E7FB1012004EBB4
:1038C0008503C3F888A0D4F8881100FA05F21143E3
:1038D000022FC4F88811C3F8089120D00235C4F82B
:1038E00004E0002044F82580BDE8F087144B0BB3BA
:1038F0004FF4C870FFF77CF90446D8B10020D6F821
:1039000048314FF0010E606023600546C6F848411B
:10391000C4F88801C4F88C01002FDFD0CEE7D4F8BA
:103920008C311A43C4F88C21D8E706F5A674C6F882
:103930004841BDE74FF0FF30BDE8F0874443400009
:10394000F12B400038B50023064C0546084623609D
:10395000FEF704F9431C00D038BD2368002BFBD0D0
:103960002B6038BDA80B002070B539B105460C4658
:1039700008B1836B83B3B4F90C3013B90026304619
:1039800070BD21462846FEF795FCE36A064633B132
:10399000E169284698470028B8BF4FF0FF36A38951
:1039A0001B061CD4216B41B104F14003994202D0A3
:1039B0002846FEF723FE00232363616C21B12846CD
:1039C000FEF71CFE00236364FEF7AAFD0023A3811B
:1039D000FEF7A8FD304670BDFEF79CFDCBE72169E0
:1039E0002846FEF70BFEDDE770B50D460023074CB9
:1039F0000646114628462360FEF7B3F8431C00D064
:103A000070BD2368002BFBD0336070BDA80B002075
:103A100038B50023064C054608462360FEF7A6F895
:103A2000431C00D038BD2368002BFBD02B6038BD71
:103A3000A80B0020F8B50E460025084C1146074695
:103A40001A4630462560FEF793F8431C00D0F8BDB7
:103A50002368002BFBD03B60F8BD00BFA80B002003
:103A6000F8B50E460025084C114607461A46304662
:103A70002560FCF7DFFB431C00D0F8BD2368002B5A
:103A8000FBD03B60F8BD00BFA80B00200000000089
:103A90000000000000000000000000000000000026
:103AA0000000000000000000FFCCFFCC0000000080
:103AB0000000000000000000F000F0000000000026
:103AC000F000F000000000000CC00CC0FFFCFFFC88
:103AD0000CC00CC0FFFCFFFC0CC00CC00C601E70C6
:103AE0003F303330FFFCFFFC333033F039E018C097
:103AF0006000F00CF03C60F003C00F003C18F03C9C
:103B0000C03C00183CF07FF8C31CC78CCFCCDCEC69
:103B10007878303000FC00CC000000000000440049
:103B2000EC00F80070000000000000000000000041
:103B30000FC03FF078786018C00CC00C0000000087
:103B400000000000C00CC00C601878783FF00FC077
:103B5000000000000C600EE007C003803FF83FF853
:103B6000038007C00EE00C600300030003000300A5
:103B70003FF03FF00300030003000300004400ECAB
:103B800000F80070000000000000000000000000CD
:103B9000030003000300030003000300030003000D
:103BA000030003000018003C003C00180000000067
:103BB00000000000000000000000000C003C00F0CD
:103BC00003C00F003C00F000C00000003FF07FF891
:103BD000E0FCC1CCC38CC70CCE0CFC1C7FF83FF0C2
:103BE00000000000300C700CFFFCFFFC000C000C0F
:103BF00000000000300C701CE03CC07CC0ECC1CC6C
:103C0000C38CE70C7E0C3C0C30307038E01CC00CD0
:103C1000C00CC30CC30CE31C7FF83CF003C007C00E
:103C20000EC01CC038C070C0FFFCFFFC00C000C04C
:103C3000FC30FC38CC1CCC0CCC0CCC0CCC0CCE1CF2
:103C4000C7F8C3F03FF07FF8E31CC30CC30CC30CF0
:103C5000C30CE39C71F830F0C000C000C000C0008D
:103C6000C3FCC7FCCE00DC00F800F0003CF07FF89D
:103C7000E79CC30CC30CC30CC30CE79C7FF83CF05F
:103C80003C007E00E70CC30CC31CC338C370E7E0E4
:103C90007FC03F8000000000000018603CF03CF056
:103CA0001860000000000000000000000000184440
:103CB0003CEC3CF81870000000000000000003001D
:103CC00007800FC01CE038707038E01CC00C00008A
:103CD0000CC00CC00CC00CC00CC00CC00CC00CC084
:103CE0000CC00CC00000C00CE01C703838701CE028
:103CF0000FC007800300000030007000E000C0002B
:103D0000C1ECC3ECC300E6007E003C0030F071F86B
:103D1000E39CC30CC3FCC3FCC00CE01C7FF83FF069
:103D20003FFC7FFCE0C0C0C0C0C0C0C0C0C0E0C09D
:103D30007FFC3FFCFFFCFFFCC30CC30CC30CC30C9B
:103D4000C30CE79C7FF83CF03FF07FF8E01CC00C10
:103D5000C00CC00CC00CE01C70383030FFFCFFFC05
:103D6000C00CC00CC00CC00CC00CE01C7FF83FF0B5
:103D7000FFFCFFFCC30CC30CC30CC30CC30CC30C73
:103D8000C00CC00CFFFCFFFCC300C300C300C30099
:103D9000C300C300C000C0003FF07FF8E01CC00CAF
:103DA000C00CC30CC30CE31C73F833F0FFFCFFFC26
:103DB000030003000300030003000300FFFCFFFCFB
:103DC00000000000C00CC00CFFFCFFFCC00CC00CCD
:103DD0000000000000300038C01CC00CC00CC01C2B
:103DE000FFF8FFF0C000C000FFFCFFFC0780078069
:103DF0000FC01CE038707038E01CC00CFFFCFFFCEA
:103E0000000C000C000C000C000C000C000C000C52
:103E1000FFFCFFFC700038001F001F00380070001E
:103E2000FFFCFFFCFFFCFFFC1C000E0007000380F2
:103E300001C000E0FFFCFFFC3FF07FF8E01CC00C7D
:103E4000C00CC00CC00CE01C7FF83FF0FFFCFFFC76
:103E5000C300C300C300C300C300E7007E003C00F2
:103E60003FF07FF8E01CC00CC0CCC0ECC07CE03858
:103E70007FFC3FECFFFCFFFCC300C380C380C3C0DA
:103E8000C3C0E7707E3C3C1C3C187E1CE70CC30C96
:103E9000C30CC30CC30CC39CE1F860F0C000C000AD
:103EA000C000C000FFFCFFFCC000C000C000C0009C
:103EB000FFF0FFF8001C000C000C000C000C001CB4
:103EC000FFF8FFF0FFC0FFE000700038001C001C8E
:103ED00000380070FFE0FFC0FFF0FFF8001C003C5E
:103EE00000F800F8003C001CFFF8FFF0F03CF87C04
:103EF0001CE00FC0078007800FC01CE0F87CF03C7E
:103F0000FC00FE000700038001FC01FC03800700A9
:103F1000FE00FC00C03CC07CC0ECC1CCC38CC70C14
:103F2000CE0CDC0CF80CF00C00000000FFFCFFFCD9
:103F3000C00CC00CC00C00000000000030003000BD
:103F40000C000C000300030000C000C00030003073
:103F500000000000C00CC00CC00CFFFCFFFC000007
:103F6000000000000C001C0038007000E000E000C1
:103F7000700038001C000C00000C000C000C000C41
:103F8000000C000C000C000C000C000C00000000E9
:103F9000C000E000700038001800000000000000C1
:103FA000003006780EFC0CCC0CCC0CCC0CCC0ECC1F
:103FB00007FC03F8FFFCFFFC030C030C030C030CD1
:103FC000030C039C01F800F003F007F80E1C0C0C26
:103FD0000C0C0C0C0C0C0E1C0738033000F001F814
:103FE000039C030C030C030C030C030CFFFCFFFCF1
:103FF00003F007F80EDC0CCC0CCC0CCC0CCC0EDC9B
:1040000007D80390000003003FFC7FFCE300E300BF
:1040100070003000000000000318079C0FCC0CCC8F
:104020000CCC0CCC0CCC0CDC0FF807F0FFFCFFFC2C
:104030000300030003000300038001FC00FC0000F8
:1040400000000000000000001BFC1BFC0000000042
:1040500000000000000000300038001C000C000CC4
:10406000001CCFF8CFF000000000FFFCFFFC00E0D8
:1040700001E003F007380E1C0C0C000000000000EB
:10408000C00CC00CFFFCFFFC000C000C000000008A
:104090000FFC0FFC0E00070003C003C007000E005A
:1040A0000FFC0FFC0FFC0FFC030007000E000C00C0
:1040B0000C000E0007FC03FC03F007F80E1C0C0CB0
:1040C0000C0C0C0C0C0C0E1C07F803F00FFC0FFC76
:1040D0000CC00CC00CC00CC00CC00FC0078003008B
:1040E000030007800FC00CC00CC00CC00CC00CC07B
:1040F0000FFC0FFC0FFC0FFC038007000E000C00F0
:104100000C000E00070003000318079C0FCC0CCC1A
:104110000CCC0CCC0CCC0CFC0E78063000000C0047
:104120000C00FFF0FFF80C1C0C1C0C380C300000CD
:104130000FF00FF8001C000C000C000C000C001C11
:104140000FF80FF00FC00FE000700038001C001CCB
:10415000003800700FE00FC00FF00FF8001C001CBB
:1041600000F800F8001C001C0FF80FF00C0C0E1CDF
:10417000073803F001E001E003F007380E1C0C0CD7
:104180000C000E00070C039C01F801F003800700EF
:104190000E000C000C0C0C1C0C3C0C7C0CEC0DCC24
:1041A0000F8C0F0C0E0C0C0C0000030007803FF06E
:1041B0007CF8E01CC00CC00CC00C0000030C030C0D
:1041C0003FFC7FFCE30CC30CC00CE00C700C300C0B
:1041D0000000C00CC00CC00CE01C7CF83FF0078055
:1041E00003000000C000C000C000C000C000C0004C
:1041F000C000C000C000C000FFFCFFFCFFFCFFFCD3
:10420000FFFCFFFCFFFCFFFCFFFCFFFC01000000CB
:104210000200000004000000080000001000000080
:1042200020000000400000008000000000010000AD
:104230000002000000040000496E696369616E6459
:104240006F204C65697475726120646F2053656ED0
:10425000736F720D0A0000004E6F7661204C656925
:10426000747572610D0A0000436F6E74616E646F45
:104270000D0A00004265616D2042616C6C00000017
:1042800046696D20427574746F6E204C65667420AB
:10429000495352200D0A000046696D20427574741E
:1042A0006F6E20526967687420495352200D0A00CE
:1042B000436F6E66696775726163616F2053656EE7
:1042C000736F7220495352200D0A000046696D2019
:1042D000436F6E6669672053656E736F7220495332
:1042E00052200D0A0000000054696D657220436F72
:1042F0006E666967757261646F20706172612031EA
:1043000030306D730D0A000054696D657220436F83
:104310006E666967757261646F20706172612031C9
:104320003075730D0A000000496E696369616C693C
:104330007A696E67204265616D2042616C6C0D0A7E
:104340000000000010010020F8B500BFF8BC08BC58
:104350009E46704795224000E9004000F8B500BF36
:0C436000F8BC08BC9E467047C500400039
:10436C00BFF35F8F0138FBD1704700004FF44072F0
:10437C001F4B1A60A3F5C0631B6A13F0807F07D133
:10438C001C4A1D4B1A621A46936E13F0010FFBD098
:10439C001A4A194B1A621A46936E13F4803FFBD0DB
:1043AC00154A136B23F0030343F001031363936E5D
:1043BC0013F0080FFBD0124A0F4B9A621A46936EF9
:1043CC0013F0020FFBD011220B4B1A631A46936E9B
:1043DC0013F0080FFBD01222074B1A631A46936E88
:1043EC0013F0080FFBD0074A074B1A60704700BF49
:1043FC00000A0E400908370000040E400908370176
:10440C00013F0720006CDC02040100200C4B984299
:10441C000CD90C4B98420DD90B4B984294BF4FF4CE
:10442C0000724FF44072094B1A6070470022074B20
:10443C001A6070474FF48072044B1A60704700BFCB
:10444C003F6F4001FF47E801FF6BDC02000A0E40A2
:10445C000100000000C20100C000000000080000C4
:10446C000000000000093D001001002000000000C9
:10447C0000000000FC03002064040020CC04002099
:10448C000000000000000000000000000000000020
:10449C000000000000000000000000000000000010
:1044AC000000000000000000000000000000000000
:1044BC0000000000000000000000000000000000F0
:1044CC0000000000000000000000000000000000E0
:1044DC0000000000000000000000000000000000D0
:1044EC0000000000000000000000000000000000C0
:1044FC0000000000000000000000000000000000B0
:10450C00000000000000000000000000000000009F
:10451C00000000000000000001000000000000008E
:10452C000E33CDAB34126DE6ECDE05000B00000053
:10453C00000000000000000000000000000000006F
:10454C00000000000000000000000000000000005F
:10455C00000000000000000000000000000000004F
:10456C00000000000000000000000000000000003F
:1048AC003805002038050020400500204005002078
:1048BC004805002048050020500500205005002028
:1048CC0058050020580500206005002060050020D8
:1048DC006805002068050020700500207005002088
:1048EC007805002078050020800500208005002038
:1048FC0088050020880500209005002090050020E8
:10490C009805002098050020A0050020A005002097
:10491C00A8050020A8050020B0050020B005002047
:10492C00B8050020B8050020C0050020C0050020F7
:10493C00C8050020C8050020D0050020D0050020A7
:10494C00D8050020D8050020E0050020E005002057
:10495C00E8050020E8050020F0050020F005002007
:10496C00F8050020F80500200006002000060020B5
:10497C000806002008060020100600201006002063
:10498C001806002018060020200600202006002013
:10499C0028060020280600203006002030060020C3
:1049AC003806002038060020400600204006002073
:1049BC004806002048060020500600205006002023
:1049CC0058060020580600206006002060060020D3
:1049DC006806002068060020700600207006002083
:1049EC007806002078060020800600208006002033
:1049FC0088060020880600209006002090060020E3
:104A0C009806002098060020A0060020A006002092
:104A1C00A8060020A8060020B0060020B006002042
:104A2C00B8060020B8060020C0060020C0060020F2
:104A3C00C8060020C8060020D0060020D0060020A2
:104A4C00D8060020D8060020E0060020E006002052
:104A5C00E8060020E8060020F0060020F006002002
:104A6C00F8060020F80600200007002000070020B0
:104A7C00080700200807002010070020100700205E
:104A8C00180700201807002020070020200700200E
:104A9C0028070020280700203007002030070020BE
:104AAC00380700203807002040070020400700206E
:104ABC00480700204807002050070020500700201E
:104ACC0058070020580700206007002060070020CE
:104ADC00680700206807002070070020700700207E
:104AEC00780700207807002080070020800700202E
:104AFC0088070020880700209007002090070020DE
:104B0C009807002098070020A0070020A00700208D
:104B1C00A8070020A8070020B0070020B00700203D
:104B2C00B8070020B8070020C0070020C0070020ED
:104B3C00C8070020C8070020D0070020D00700209D
:104B4C00D8070020D8070020E0070020E00700204D
:104B5C00E8070020E8070020F0070020F0070020FD
:104B6C00F8070020F80700200008002000080020AB
:104B7C000808002008080020100800201008002059
:104B8C001808002018080020200800202008002009
:104B9C0028080020280800203008002030080020B9
:104BAC003808002038080020400800204008002069
:104BBC004808002048080020500800205008002019
:104BCC0058080020580800206008002060080020C9
:104BDC006808002068080020700800207008002079
:104BEC007808002078080020800800208008002029
:104BFC0088080020880800209008002090080020D9
:104C0C009808002098080020A0080020A008002088
:104C1C00A8080020A8080020B0080020B008002038
:104C2C00B8080020B8080020C0080020C0080020E8
:104C3C00C8080020C8080020D0080020D008002098
:104C4C00D8080020D8080020E0080020E008002048
:104C5C00E8080020E8080020F0080020F0080020F8
:104C6C00F8080020F80800200009002000090020A6
:104C7C000809002008090020100900201009002054
:104C8C001809002018090020200900202009002004
:104C9C0028090020280900203009002030090020B4
:084CAC00FFFFFFFF0000020002
:040000050040198D11
:00000001FF
