:020000040040BA
:1000000090130020290D4000250D4000250D4000D3
:10001000250D4000250D4000250D4000000000008A
:10002000000000000000000000000000250D40005E
:10003000250D400000000000250D4000250D40006A
:10004000250D4000250D4000250D4000250D4000E8
:10005000250D4000250D4000250D4000250D4000D8
:10006000250D4000250D4000250D4000D50B40001A
:10007000E90B4000FD0B4000250D4000250D400020
:10008000250D4000250D4000250D4000250D4000A8
:10009000250D4000250D4000250D40004D04400079
:1000A00079044000250D4000250D4000250D40003D
:1000B000250D4000250D4000250D4000B1054000F4
:1000C000250D400010B5054C237833B9044B13B10E
:1000D0000448AFF300800123237010BDB40A002050
:1000E00000000000A84440000C4B43B10C4810B580
:1000F0000C49AFF300800C48036823B910BD0A48CF
:10010000036833B97047094B002BF7D0BDE81040A6
:100110001847064B002BF5D0184700BF0000000021
:10012000A8444000B80A0020A84440000000000095
:100130002DE9F04180B90C469046002A0FDD8F185A
:10014000084E094D306821462B6898470134BC425F
:10015000F8D14046BDE8F0814FF0FF38F9E780461E
:10016000F7E700BF880B0020800B0020436913F0E5
:10017000020F1DBFC1F30801C161002001207047BB
:10018000436913F0010F05D08369C3F308030B60C3
:1001900000207047012070470138022815D82DE94A
:1001A000F0410E4614469AB10D46DFF838800C4FE8
:1001B000D8F8000015F8011B3B68984700280ADBB7
:1001C000A81B013CF4D1BDE8F0814FF0FF3070472F
:1001D0001046BDE8F0814FF0FF30BDE8F08100BF70
:1001E000840B0020880B0020C069704700EB811150
:1001F000086A704710B4AC2303600B684A68B3FB0D
:10020000F2F31B095C1E4FF6FE7294420BD8036298
:100210008B68436040F20223C0F820315023036012
:10022000002010BC70470120FBE7436913F0020F68
:100230001ABFC161002001207047436913F0010F0C
:100240001DBF83690B7000200120704710B509485D
:10025000094B984701210948094B9847094B984792
:100260001720094CA0472320084B98471720A04788
:1002700010BD00BF2C4240005D1640000040014010
:10028000ED01400099034000DF084000010000201C
:10029000F0B583B005460C4600230193184B9842F5
:1002A0000AD0184B98420FD0174B984214D0174BD6
:1002B0009D421BD003B0F0BD1F46154E2146384667
:1002C000B0470028FAD1F2E71E46114D21463046CC
:1002D000A8470028FAD1EDE71E460E4D01A9304689
:1002E000A8470028FAD1019B2370E3E71E46094D79
:1002F00001A93046A8470028FAD1019B2370D9E70D
:1003000000060E4000080E400040024000800240FF
:100310003B0240008101400070B50C46184B9842EA
:100320000AD0184B984210D0174B984216D0174B52
:1003300098421CD0002070BD1E46154D2146304607
:10034000A8470028FAD1012070BD1E46104D214655
:100350003046A8470028FAD1012070BD1E460D4D39
:1003600021463046A8470028FAD1012070BD1E461C
:10037000084D21463046A8470028FAD1012070BD1B
:1003800000060E4000080E4000400240008002407F
:100390002B0240006D0140000022014B1A607047A3
:1003A000D00A0020024A136801331360704700BF6F
:1003B000D00A00202DE9F04184B0DFF88C80CDF820
:1003C0000480164C23680293A36803930820144FFB
:1003D000B847144D01A92846134EB047134B1D6072
:1003E000134A144B1A60144A144B1A60CDF8048057
:1003F00023680293A36803930820B84701A92846FD
:10040000B0470F4D2B68002198680E4CA0472B6811
:1004100000215868A04704B0BDE8F081F400002036
:10042000F90C400000060E40F5014000880B00204A
:1004300019034000840B002091024000800B002033
:10044000080100206D164000006CDC0208B5002198
:100450000448054B98470548054B9847054B984776
:1004600008BD00BF00000140ED01400060424000B7
:100470005D1640004D02400008B501210248034BC3
:100480009847034B984708BD00400140ED014000EC
:10049000A50340004FF40042114B5A60A3F5CA6314
:1004A0004FF400025A601A6F42F400021A675A6F42
:1004B00022F400025A674FF00042A3F520631A614C
:1004C000084B0022C3F800224BF68032C3F8082202
:1004D00044F62062C3F8042201225A60704700BF2C
:1004E00050140E400000024070B504464FF44873AB
:1004F00003FB00F34BF68035E91A0C4AC2F80412EC
:10050000024629460A480B4EB0470B48A0FB043070
:10051000400905FB00F0094B9847094B98470246F4
:100520000B4621460748B04770BD00BF000002409F
:100530009C424000311540001F85EB5131144000B2
:100540001D124000C442400010B5084B1B68082B28
:1005500002D80133054A1360044C2068044B9847C5
:1005600021680448044B984710BD00BFF0000020EC
:10057000E9044000704240003115400010B5084BBE
:100580001B68012B02D9013B054A1360044C20680B
:10059000044B984721680448044B984710BD00BF9E
:1005A000F0000020E9044000704240003115400096
:1005B00010B50748074B98472E20074B9847074C24
:1005C0002068074B984721680648074B984710BD9D
:1005D00000000240E9014000FB084000F00000205C
:1005E000E90440004C424000311540002DE9F04341
:1005F00083B01B4C09224FF400412046DFF87C9069
:10060000C847184B009370234FF400420B2120463B
:10061000DFF86C80C0474FF400412046124FB847C6
:10062000124D602685F80B6309224FF48031204675
:10063000C8470F4B009370234FF480320B212046A4
:10064000C0474FF480312046B84785F80B634FF41C
:1006500000632B600748084B984703B0BDE8F08360
:10066000000E0E4049054000D308400000E100E0C4
:100670007D054000844240005D1640004D0840006A
:10068000650B400010B50E480E4B98473E210020E8
:100690000D4B98470D4CA0470028FCD00C4B9847B9
:1006A0000C4A0D4B9A620D4CA0470028FCD010203C
:1006B0000B4B98470B4B98470148024B984710BD8E
:1006C000006CDC02AD000020750C4000C90C40003D
:1006D000D90C4000013F072000040E40E90C400007
:1006E000110C4000C10D400010B54FF400422C4BDE
:1006F0005A600B202B4CA0470C20A0470D20A04790
:100700004FF060511720284CA0474FF060512E2029
:10071000A04726490F20A04725491020A0474FF0A9
:1007200000624FF4C0612348234B98474FF080513B
:100730000020A0474FF080510820A0474FF00061F3
:100740000C20A0474FF000610D20A0474FF0006142
:100750000E20A0474FF000611F20A0474FF08051AE
:100760001E20A0474FF000610C20A0474FF0006111
:100770000D20A0474FF000610E20A0474FF08051A0
:100780001E20A0474FF060511C20A0474FF0605141
:100790001D20A0474FF060514D20A04710BD00BF65
:1007A00050140E40F90C40001D094000790000284B
:1007B00059000028000E0E403D0A40004264B1F18D
:1007C000C05F39D013D8B1F1006F25D0B1F1805F8F
:1007D0000AD1036F13430367436F416F0B4023EA52
:1007E00002034367426070470029FBD17047B1F1B3
:1007F000205F20D009D8B1F1005FF3D1036F13431C
:100800000367436F13434367ECE7B1F1405F12D0D6
:10081000B1F1605F0FD0E5E710B4016F046FD3430F
:1008200021401C4619400167436F416F0B40234034
:100830004367426010BC7047036F016F0B4023EAAF
:1008400002030367436F13434367CBE7416412F02E
:10085000010F14BF4166016612F00A0F14BF016256
:10086000416212F0020F07D112F0080F18BFC0F852
:100870008410416101607047C0F88010F9E710B43E
:10088000019C416444B9016643B1016542B94163C9
:100890000161016010BC70474166F5E74165F5E70D
:1008A0000163F5E712F0100F10D0C0F8B01012F08D
:1008B000200F14BFC0F8D410C0F8D01012F0400FB1
:1008C00014BFC0F8C010C0F8C4107047C0F8B4100E
:1008D000704701647047C06C7047806C7047430973
:1008E00003F5001303F207735B02DB6B00F01F00DC
:1008F00023FA00F000F001007047430903F50013EC
:1009000003F207735B02996B00F01F020120904015
:10091000014214BF586318637047000070B582B07D
:100920000D46430903F5001303F207735C0201F05F
:10093000F043B3F1005F53D00AD8B3F1805F2DD0FC
:10094000B3F1C05F3BD0B3F1006F15D0002023E0BE
:10095000B3F1405F55D0B3F1605F52D0B3F1205F87
:10096000F4D100F01F0101262A4606FA01F12046C3
:100970002F4B984730460FE000F01F0001268640BD
:1009800032464FF0006120462A4B984715F0010F80
:1009900014BF66662666012002B070BD00F01F001D
:1009A0000126864032464FF080512046214B984721
:1009B00015F0010F14BF666626660120ECE700F013
:1009C0001F000126864032464FF0C0512046194B89
:1009D000984715F0010F14BF666626660120DBE715
:1009E00000F01F000126864032464FF0005120469D
:1009F000104B984715F0010F14BF6666266601205C
:100A0000CAE705F0605200F01F01012605EA06035F
:100A10000093C5F38003B2F1605F14BF002201228E
:100A200006FA01F12046044CA0473046B4E700BF67
:100A30004D084000BD0740007F08400070B582B0FF
:100A400005460E46144602F0F043B3F1005F3DD078
:100A50000AD8B3F1805F21D0B3F1C05F2AD0B3F1DF
:100A6000006F0ED0002017E0B3F1405F3AD0B3F131
:100A7000605F37D0B3F1205FF4D1234B984701205A
:100A80000AE00A464FF00061204B984714F0010F2E
:100A900014BF6E662E66012002B070BD0A464FF08C
:100AA00080511A4B984714F0010F14BF6E662E66E2
:100AB0000120F1E70A464FF0C051144B984714F05B
:100AC000010F14BF6E662E660120E5E70A464FF05F
:100AD00000510E4B984714F0010F14BF6E662E663E
:100AE0000120D9E704F0605204F001030093C4F33D
:100AF0008003B2F1605F14BF002201223146284614
:100B0000034CA0470120C7E74D084000BD07400047
:100B10007F0840002DE9F041044688460E4B984777
:100B2000054620460D4B9847054013D00C4C04F168
:100B3000600603E0B4420DD010345DB1206840453A
:100B4000F8D161682942F5D0E3689847636825EADF
:100B50000305EFE7BDE8F081D7084000DB0840005F
:100B6000D40A0020F8B5184C2668062E29D84FF074
:100B7000000C6446154F04E00134E4B2A446A642DA
:100B800009D3A64625017D598D42F5D107EB041501
:100B90006D689542F0D10D4D4FEA0E1E05EB0E0427
:100BA00045F80E106260A3600699E1600136664563
:100BB00004BF05490E6011461A46054B98470020B0
:100BC000F8BD0120F8BD00BF440B0020D40A00206E
:100BD000A508400008B50B210148024B984708BD05
:100BE000000E0E40150B400008B50C210148024BC9
:100BF000984708BD00100E40150B400008B50D21A8
:100C00000148024B984708BD00120E40150B4000EA
:100C1000174A136B23F0700318431063936E13F09D
:100C2000080F0AD14FF4006311498A6E12F0080FC1
:100C300003D1013BF9D1012070470D4A136B23F01A
:100C4000030343F002031363936E13F0080F0AD1FA
:100C50004FF4006306498A6E12F0080F05D1013B7C
:100C6000F9D101207047002070470020704700BF75
:100C700000040E40C8B9114A136A090289B223F46C
:100C80005C1323F0030343F45C1343F001030B43B1
:100C90001362936E13F0010FFBD0084A136A43F0FE
:100CA0009B7343F480331362704704490B6A044A10
:100CB0001A40044B13430B62704700BF00040E4000
:100CC000FCFFC8FE02003701024B986E00F4803032
:100CD000704700BF00040E404FF00052014B9A6273
:100CE000704700BF00040E40024B986E00F00200F7
:100CF000704700BF00040E401F280CD8084B9A69AB
:100D000001238340934308D0012303FA00F0044BEE
:100D1000186100207047012070470020704700BF15
:100D200000040E40FEE7000008B51C4B1C4A9A4226
:100D300010D01C4B194A9A420CD2013B9B1A23F04B
:100D4000030304331344164951F8040B42F8040B0F
:100D50009A42F9D1144B154A9A420AD2013B9B1A86
:100D600023F0030304331344002142F8041B93428D
:100D7000FBD10F4B23F0604222F07F020D498A60C5
:100D800003F16043B3F5C04F03D28B6843F00053C7
:100D90008B60094B9847094B9847FEE700000020FD
:100DA000A8444000B40A0020900B0020B40A0020A0
:100DB0000000400000ED00E0E1144000110F400091
:100DC000384B1B6B03F00303012B1DD083B1022BA7
:100DD00036D0344B1B6B03F07003702B59D0314B62
:100DE0001A6B3149C2F302120B68D3400B60704793
:100DF0002E4B5B6913F0800F14BF4FF400424FF489
:100E0000FA42294B1A60E4E7264B1B6A13F0807FF5
:100E100003D0274A244B1A60DBE7264A224B1A608C
:100E2000204B1B6A03F07003102B05D0202BD0D170
:100E30001F4A1D4B1A60CCE71F4A1B4B1A60C8E7BC
:100E4000184B1B6A13F0807F10D0194A164B1A609A
:100E5000144A916A926A1448C1F30A41036801FB7B
:100E60000333D2B2B3FBF2F30360B2E7114A0E4B85
:100E70001A600C4B1B6A03F07003102B05D0202B5B
:100E8000E6D10B4A084B1A60E2E70B4A064B1A60A0
:100E9000DEE7054A13680949A1FB03135B081360E9
:100EA000704700BF00040E400401002010140E40E3
:100EB000001BB70000093D0000127A00ABAAAAAAE5
:100EC0000A4B1B6853B1094B1B681A180849914219
:100ED00008DB1046054A106018467047054A034B68
:100EE0001A60F0E74FF0FF30704700BF480B00205A
:100EF000FC5F0020901300204FF0FF3070474FF44C
:100F000000534B600020704701207047002070475D
:100F100008B5084B9847084B9847084B984708482E
:100F2000084CA047084B9847084B98470848A047EB
:100F3000FEE700BF85064000E9064000B50340001B
:100F4000DC4240005D164000ED0540009504400085
:100F5000F842400081F0004102E000BF83F000430E
:100F600030B54FEA41044FEA430594EA050F08BF44
:100F700090EA020F1FBF54EA000C55EA020C7FEA08
:100F8000645C7FEA655C00F0E2804FEA5454D4EB85
:100F90005555B8BF6D420CDD2C4480EA020281EA4F
:100FA000030382EA000083EA010180EA020281EA87
:100FB0000303362D88BF30BD11F0004F4FEA0131D9
:100FC0004FF4801C4CEA113102D0404261EB4101E8
:100FD00013F0004F4FEA03334CEA133302D052426E
:100FE00063EB430394EA050F00F0A780A4F101042A
:100FF000D5F1200E0DDB02FA0EFC22FA05F2801864
:1010000041F1000103FA0EF2801843FA05F3594149
:101010000EE0A5F120050EF1200E012A03FA0EFCC8
:1010200028BF4CF0020C43FA05F3C01851EBE371F2
:1010300001F0004507D54FF0000EDCF1000C7EEB0F
:1010400000006EEB0101B1F5801F1BD3B1F5001F4D
:101050000CD349085FEA30004FEA3C0C04F101046C
:101060004FEA445212F5800F80F09A80BCF1004F95
:1010700008BF5FEA500C50F1000041EB045141EA17
:10108000050130BD5FEA4C0C404141EB010111F418
:10109000801FA4F10104E9D191F0000F04BF0146C3
:1010A0000020B1FA81F308BF2033A3F10B03B3F1A1
:1010B00020020CDA0C3208DD02F1140CC2F10C0231
:1010C00001FA0CF021FA02F10CE002F11402D8BF8F
:1010D000C2F1200C01FA02F120FA0CFCDCBF41EA5B
:1010E0000C019040E41AA2BF01EB0451294330BD2A
:1010F0006FEA04041F3C1CDA0C340EDC04F1140407
:10110000C4F1200220FA04F001FA02F340EA0300DD
:1011100021FA04F345EA030130BDC4F10C04C4F123
:10112000200220FA02F001FA04F340EA0300294603
:1011300030BD21FA04F0294630BD94F0000F83F44D
:10114000801306BF81F480110134013D4EE77FEA30
:10115000645C18BF7FEA655C29D094EA050F08BF7C
:1011600090EA020F05D054EA000C04BF194610465D
:1011700030BD91EA030F1EBF0021002030BD5FEAA1
:10118000545C05D14000494128BF41F0004130BDC9
:1011900014F580043CBF01F5801130BD01F000451D
:1011A00045F0FE4141F470014FF0000030BD7FEA90
:1011B000645C1ABF194610467FEA655C1CBF0B468B
:1011C000024650EA013406BF52EA033591EA030FA2
:1011D00041F4002130BD00BF90F0000F04BF00219A
:1011E000704730B54FF4806404F132044FF00005CD
:1011F0004FF0000150E700BF90F0000F04BF002146
:10120000704730B54FF4806404F1320410F00045AB
:1012100048BF40424FF000013EE700BF42004FEAA6
:10122000E2014FEA31014FEA02701FBF12F07F4323
:1012300093F07F4F81F06051704792F0000F14BF20
:1012400093F07F4F704730B54FF4607401F0004564
:1012500021F0004120E700BF50EA010208BF7047BB
:1012600030B54FF000050AE050EA010208BF7047B0
:1012700030B511F0004502D5404261EB41014FF419
:10128000806404F132045FEA915C3FF4DCAE4FF01D
:1012900003025FEADC0C18BF03325FEADC0C18BF04
:1012A000033202EBDC02C2F1200300FA03FC20FA55
:1012B00002F001FA03FE40EA0E0021FA02F11444A2
:1012C000C1E600BF80F0004002E000BF81F00041B5
:1012D00042001FBF5FEA410392EA030F7FEA226CDC
:1012E0007FEA236C6AD04FEA1262D2EB1363C1BF6C
:1012F000D218414048404140B8BF5B42192B88BFDB
:10130000704710F0004F40F4000020F07F4018BFFD
:10131000404211F0004F41F4000121F07F4118BF1D
:10132000494292EA030F3FD0A2F1010241FA03FCC5
:1013300010EB0C00C3F1200301FA03F100F00043AD
:1013400002D5494260EB4000B0F5000F13D3B0F175
:10135000807F06D340084FEA310102F10102FE2AE4
:1013600051D2B1F1004F40EBC25008BF20F0010054
:1013700040EA03007047490040EB000010F4000F02
:10138000A2F10102EDD1B0FA80FCACF1080CB2EB95
:101390000C0200FA0CF0AABF00EBC25052421843F4
:1013A000BCBFD0401843704792F0000F81F4000199
:1013B00006BF80F400000132013BB5E74FEA41036C
:1013C0007FEA226C18BF7FEA236C21D092EA030FD8
:1013D00004D092F0000F08BF0846704790EA010F52
:1013E0001CBF0020704712F07F4F04D1400028BF7F
:1013F00040F00040704712F100723CBF00F5000061
:10140000704700F0004343F0FE4040F40000704796
:101410007FEA226216BF08467FEA23630146420242
:1014200006BF5FEA412390EA010F40F48000704755
:101430004FF0000304E000BF10F0004348BF4042FB
:101440005FEA000C08BF704743F0964301464FF037
:1014500000001CE050EA010208BF70474FF0000393
:101460000AE000BF50EA010208BF704711F00043D4
:1014700002D5404261EB41015FEA010C02BF8446A4
:101480000146002043F0B64308BFA3F18053A3F503
:101490000003BCFA8CF2083AA3EBC25310DB01FA4A
:1014A00002FC634400FA02FCC2F12002BCF1004FCE
:1014B00020FA02F243EB020008BF20F0010070475F
:1014C00002F1200201FA02FCC2F1200250EA4C00B3
:1014D00021FA02F243EB020008BF20EADC707047F9
:1014E00070B50F4E0F4D761BB61018BF002405D0F7
:1014F000013455F8043B9847A642F9D10A4E0B4DEA
:1015000002F0BCFF761BB61018BF002406D00134D1
:1015100055F8043B9847A642F9D170BD70BD00BF95
:101520008844400088444000904440008844400083
:101530000FB410B5074B82B004AC54F8042B1868F4
:1015400023468168019400F0ADF902B0BDE8104077
:1015500004B070470801002070B4860746D0541EBE
:10156000002A41D0CAB2034602E014F1FF343BD353
:1015700003F8012B9D07F8D1032C2ED9CDB245EAF3
:1015800005250F2C45EA054519D9264603F1100219
:10159000103E0F2E42F8105C42F80C5C42F8085CDA
:1015A00042F8045C02F11002F2D8A4F1100222F019
:1015B0000F0204F00F041032032C13440DD91E4601
:1015C0002246043A032A46F8045BFAD8221F22F086
:1015D00003020432134404F003042CB1C9B21C44C6
:1015E00003F8011B9C42FBD170BC704714460346B4
:1015F000C2E700BFF0B5054689B008460C46012792
:1016000000F0E2F80226C31913490393AB6B04AA56
:1016100004940590AC680797029606910192B3B1C5
:10162000B4F90C309A0406D4626E43F4005322F4E9
:101630000052A38162662146284601AA01F0BEFA43
:10164000002814BF4FF0FF300A2009B0F0BD284633
:1016500001F0FCF8E4E700BF10434000024B0146F4
:101660001868FFF7C7BF00BF0801002000290CBFA2
:10167000022200224FF4806300F000B82DE9F0430D
:10168000504D83B02D6804460F4690461E4615B156
:10169000AB6B002B77D0B8F1020F04D0B8F1010F7B
:1016A0007DD8002E7BDB2146284601F03BF8216BDC
:1016B00041B104F14003994202D0284601F098F963
:1016C000002323630022B4F90C30A26162601A0681
:1016D00052D423F44A6323F00303B8F1020FA38129
:1016E00037D001AB6A462146284601F017FCA38992
:1016F0001843A08116B317B3AB6B002B4BD0009BE4
:1017000027609E42B4F90C3027611CBF43F400638C
:10171000A381B8F1010F04BF43F00103A3819BB281
:1017200013F00800666123D013F001002FD00020D1
:101730007642A661A06003B0BDE8F083009E30460B
:1017400001F05EFC074668B3A38943F08003A381E0
:10175000D2E700200025012104F1430243F00203F7
:10176000A381A56061612260226103B0BDE8F083BE
:10177000A06003B0BDE8F0832169284601F038F984
:10178000B4F90C30A5E7284601F060F883E7A660BD
:1017900003B0BDE8F083284601F058F8AFE74FF0FA
:1017A000FF30E2E7DDF80090B14506D0484601F091
:1017B00027FC074608B14E46C6E7B4F90C304FF097
:1017C000FF30C7E70801002020F0030110F00300FC
:1017D000C0F1000051F8043B00F1040C4FEACC0CBE
:1017E0006FF000021CBF22FA0CF213434FF0010C01
:1017F0004CEA0C2C4CEA0C4CA3EB0C0222EA030240
:1018000012EACC1204BF51F8043B0430F4D0C2F108
:10181000000102EA0102B2FA82F2C2F11F0200EBF9
:10182000D20070472DE9F84F4B6E93469C042FD59C
:101830009368126853B30E46074602F1080919E986
:1018400020045FEA9A0817D00024043D01E0A04577
:1018500010D0324655F8041F384601F067F8431C93
:1018600004F10104F3D10023CBF80830CBF80430A5
:10187000BDE8F88FDBF808302AF0030AA3EB0A036F
:10188000CBF8083009F10809002BD8D10020EAE78D
:1018900001F094F90023CBF80830CBF80430BDE810
:1018A000F88F00BF2DE9F04FADB01D460191914674
:1018B0000893069018B1836B002B00F0E080019C28
:1018C000B4F90C0081B28B0407D4636E40F400516C
:1018D00023F40053A181636689B20F0740F1B18000
:1018E000019B1B69002B00F0AC8001F01A010A2952
:1018F00000F0B58000230DF1700AD3460B930493DA
:1019000011931093CDF83CA099F800304C46FBB1F0
:10191000252B02D11CE0252B03D014F8013F002B0E
:10192000F9D1A4EB09059DB1109B119A01332A440A
:10193000072BCBF80090CBF80450119210937ADD6E
:10194000002A40F09384D346049B10922B440493C6
:101950002378002B00F0B68300204FF0000304F141
:1019600001098DF8373062780646054603464FF088
:10197000FF3409F10109A2F12001582900F20A837C
:10198000DFE811F03F0208030803E7020803080339
:1019900008030803080308038000EC02080388001A
:1019A0007F020803D601DB01DB01DB01DB01DB0188
:1019B000DB01DB01DB01DB0108030803080308038B
:1019C0000803080308030803080308034702080381
:1019D00008030803080308030803080308030803AF
:1019E00008034E0208030803080308030803520211
:1019F000080308035A02080308030803080308033E
:101A000008030803080308030803E901FE010803AB
:101A1000080308030303FE010803080399020803EF
:101A2000F1028D00AD02BF020803C4020803C40125
:101A300008030803A6020BF1080B049B2B44049334
:101A400086E7019C0698214600F05CFD002840F0E6
:101A50004583A18901F01A010A297FF44BAF01994E
:101A6000B1F90E30002BFFF645AF2B464A460698DB
:101A700000F012FD049004982DB0BDE8F08F00F046
:101A8000E5FE1CE708990A460D680432002D08920D
:101A900002DA6D4243F0040399F8002069E70795E4
:101AA00013F0200240F03D8413F0100140F0E98370
:101AB00013F0400200F0E58308980A46014600272B
:101AC0000431068808914FF0000100258DF8371089
:101AD000611C00F0778123F08001039156EA070131
:101AE00040F07581002C40F05483002A40F093832D
:101AF00013F00103059300F0428430230DF1B00888
:101B000008F8413D059BA342B8BF234602930DB19F
:101B100001330293039B13F00203099302D0029B4B
:101B200002330293039B13F084030A9340F0618213
:101B3000079B029A9D1A002D40F35B82102D40F303
:101B40006884109BDE461027A346119AB84E1946AA
:101B5000069C07E001F1020C01460EF1080E103D53
:101B6000102D11DD481C1032072811928EE8C0009C
:101B70001090EFDD002A40F02782103D102D114615
:101B80004FF0010CD646EDDC5C466146F3462A4434
:101B900007291192CBF80060CBF80450109100F3A4
:101BA000E4829DF837500BF1080B481C002D40F0E3
:101BB0002882099B002B00F0428202210EAB0A44CE
:101BC000072811921090CBF80410CBF8003040F3A6
:101BD0003282002A40F078830A9B0120802B114634
:101BE000D34640F03082079B029D5E1B002E40F3DF
:101BF0002A82102E40F32884DC461027A3468D4D00
:101C0000069C07E001F1020E01460CF1080C103EA3
:101C1000102E11DD481C1032072811928CE8A0000C
:101C20001090EFDD002A40F09382103E102E4FF00E
:101C3000010E1146D446EDDC5C46E3463244BEF16B
:101C4000070F11928BE86000CDF840E000F3568357
:101C5000059B0BF1080BE41A002C0EF101007146F4
:101C600000F3F681059907280A441192CBF8008009
:101C7000CBF80410109040F35282002A40F0EB821F
:101C8000039B1092580738D5079B02995C1A002CC9
:101C900040F3B782D346102C40F3CA831025109925
:101CA000634E069FDDF8048006E0881C19460BF1A0
:101CB000080B103C102C13DD4B1C1032072B11921B
:101CC000CBF80060CBF804501093EEDD002A40F012
:101CD0000982103C102C4FF001001146D346EBDC7A
:101CE000224407281192CBF80060CBF804401090F2
:101CF00040F32082002A40F05483049B079A029903
:101D00008A42ACBF9B185B1804931CE207959E06A1
:101D100000F113830899DD060A4600F1C5825806D2
:101D200040F1C2820E880431002701220891CAE6E0
:101D300043F0800399F800201BE60025A2F1300152
:101D400019F8012B05EB850501EB4505A2F13001E2
:101D50000929F5D90FE60122089811460292026876
:101D60004FF000048DF848200246043207958DF8A4
:101D70003740059108920DF1480803930024C9E605
:101D80000795002840F07E839E0600F1EC820899BA
:101D9000DD060A4600F18182580640F17E82B1F9E3
:101DA00000600432F717304639460892002871F176
:101DB0000002C0F2E782611C9DF837504FF001022B
:101DC0007FF489AE56EA070100F0E4810393012A0B
:101DD00000F02482022A40F0F181D0460B983309AA
:101DE00043EA0773390906F00F020F461E46835C6B
:101DF00008F8013D56EA0703F1D1AAEB0803059361
:101E000080E699F80020002E7FF4B3AD0120202653
:101E1000AFE50795002840F0328343F01003B3E7A5
:101E2000079543F010033BE6079543F010036EE778
:101E300048434000584340000795002840F016836F
:101E4000AE490B919F0600F184820898DE06014698
:101E500000F11E825D0640F11B82002704310688D6
:101E60000891D80740F1D58156EA070100F0D181E9
:101E700030218DF8392043F002038DF8381002220A
:101E800021E699F8002009F101072A2A00F0E082F2
:101E9000A2F130010929B9464FF000043FF66BADBD
:101EA00019F8012B04EB840401EB4404A2F1300186
:101EB0000929F5D95FE599F800206C2A03BF99F844
:101EC000012043F0200309F1010943F0100350E51C
:101ED0000795002840F0D08289490B91B2E778221B
:101EE00030210795089D8DF839202A1D0892844AD3
:101EF0002E680B9243F002038DF83810002702225F
:101F0000E1E543F0200399F8002032E54FF00002AC
:101F100008990795D1F800808DF837200D1DB8F18C
:101F2000000F00F07C82671C00F05B8222460021DB
:101F30004046029301F024FB029B002800F07C82C3
:101F4000A0EB08020895059203939DF837500024F2
:101F5000D8E543F0010399F800200AE599F800203C
:101F600001202B2605E5002840F08382990600F128
:101F70002B82DA0621D45B061FD5089A1368043237
:101F80000892BDF810201A80BEE443F0400399F88F
:101F90000020EEE40795002840F06582002A00F05A
:101FA000918001218DF848204FF0000202918DF8B8
:101FB000372005910DF14808DFE6089A13680432CE
:101FC0000892049A1A609FE40FAA01992046FFF72D
:101FD00029FC00287DD11099D646119A01F1010CF7
:101FE000BDE50FAA01990698FFF71CFC002870D1E7
:101FF000D34610999DF83750119A481C002D3FF494
:10200000D8AD01210DF137050A440728119210902F
:10201000CBF80410CBF8005040F3B680002A40F013
:102020006081099B002B3FF4D7AD02220846D346BE
:102030000EAB1D921C9301460BF1080B01300A9B5D
:10204000802B3FF4D0AD059BE41A002C7FF70AAE3D
:10205000102C40F3B781DE4610262A4D069FDDF88E
:1020600004B006E0881C19460EF1080E103C102C36
:102070000FDD4B1C1032072B11928EE8600010937D
:10208000F0DDA2B9103C102C4FF001001146D646ED
:10209000EFDCF346224407281192CBF80050CBF82E
:1020A0000440109030DC0BF1080B0130DAE50FAA88
:1020B00059463846FFF7B6FB58B91099D646119ADB
:1020C000481CD3E7119B23B106980FAA0199FFF78B
:1020D000A9FB019B9B895B067FF5CDAC4FF0FF33DD
:1020E0000493C8E40FAA41463846FFF79BFB00283B
:1020F000EFD11099D346119A481CDAE518434000F5
:102100002C43400058434000002A40F0FD8001234A
:10211000D346059ACDF870801D92119210930BF161
:10212000080B039B590705D5079B02995C1A002CE5
:102130003FF7B1AD049B079902988142ACBF5B1891
:102140001B1804937ABB0023D3461093FFF7DCBB24
:102150000FAA01992046FFF765FB0028B9D1109915
:10216000D446119A01F1010E51E5002A7FF439AFEE
:102170009DF83710002900F00E810122D346104649
:102180000DF137011D921C9101460BF1080B013036
:102190000FE5039B012A00F08E80022A0BD10393E6
:1021A0000026002719E60FAA01990698FFF73AFBC7
:1021B0000028C8D08DE7002600270393514600E091
:1021C0004146F20842EA4772F80806F0070307465C
:1021D0001646303356EA070201F8013C01F1FF3898
:1021E000EED1039AD6077FF508AE302B3FF405AE4B
:1021F0003023023908F8013CAAEB01030593884615
:1022000080E4049B079A8A42ACBF9B185B18049336
:1022100099E7022257E40594D04673E4002F08BFE3
:102220000A2E47D3D046304639460A22002301F011
:1022300075FE303208F8012D3046394600230A2257
:1022400001F06CFE06460F4656EA0703EBD1AAEBF7
:102250000803059356E40FAA01990698FFF7E2FADE
:1022600000287FF436AFD346119A5AE70FAA019996
:102270000698FFF7D7FA00287FF42BAFD346FFF775
:10228000DCBB0898002701460431066808911AE46F
:102290000E68043108910027E3E516680432F71749
:1022A00008923046394681E504311668002701223C
:1022B000089108E4039B039301230DF1B008303625
:1022C00008F8416D05931DE40FAA01990698FFF7E0
:1022D000A9FA00287FF4FDAE1099D346119A481C44
:1022E000ADE60FAA01990698FFF79CFA00287FF443
:1022F000F0AE1099D346119A481C5AE4002A7BD1BB
:1023000001201146D3469EE60FAA01990698FFF7D1
:1023100089FA00287FF4DDAE1098D346119A013077
:10232000A0E4089D073525F0070202F10801D2E973
:10233000006708910022FFF7C6BB089D073525F00E
:10234000070202F10801D2E9006708910122FFF7B4
:10235000BABB089D073525F0070101F10800089078
:10236000D1E900677DE5089D073525F0070505F1F2
:102370000802D5E90001089206460F4616E5D04648
:10238000FFF7C0BB2D25764267EB47078DF8375026
:102390000122FFF79DBB099B6BB911460120D34673
:1023A00051E60FAA01990698FFF73CFA00287FF43E
:1023B00090AE119ABEE602220EAB1D921C93012034
:1023C000D34638E6314D65E6089A13460433089340
:1023D000049B1168DD171A462B46C1E90023FFF75D
:1023E00093BA404608950393FFF7EEF90024059051
:1023F0009DF83750FFF786BB0FAA01990698FFF7A3
:1024000011FA00287FF465AE1099D346119A481C42
:1024100019E61099119A01311D4EFFF7B8BB062C31
:1024200028BF0624089505940294DFF86880A4E488
:102430001098174E013053E4059408950393044611
:102440009DF83750FFF75EBB8646104DFFF7F6BB91
:10245000089999F801200C68043144EAE474B946FB
:102460000891FFF786BA8DF8376097E58DF83760E9
:10247000E6E48DF8376079E58DF837602CE58DF866
:102480003760CAE48DF837607EE400BF58434000EF
:10249000484340004043400070B50C4600264FF4CE
:1024A00080658989ADF58D6D21F00201ADF80C10C4
:1024B0000696616EE6891991ADF80E60E169666A6B
:1024C0000791099669461AAE0096049602950595FD
:1024D0000646FFF7E7F9051E07DB3046694600F0C0
:1024E00021F9002818BF4FF0FF35BDF80C305B060E
:1024F00003D5A38943F04003A38128460DF58D6DD4
:1025000070BD00BF38B5304B054618680C4610B199
:10251000836B002B38D0B4F90C2093B218070CD57C
:102520002069A8B113F001021ED000226369A260E5
:102530005B42A361F0B1002038BDD9063BD55807F6
:1025400025D4206942F00803A3819BB20028E9D179
:1025500003F42072B2F5007FE4D02846214600F053
:102560000BFDA3892069DDE7990758BF6269A26066
:102570000028E0D1B4F90C301A06DDD543F0400351
:10258000A3814FF0FF3038BD00F060F9C3E7216B45
:1025900051B104F14003994204D0284600F028FAD2
:1025A000B4F90C20002323630023206922F02402C5
:1025B00084E80900C6E7092342F040022B604FF08F
:1025C000FF30A28138BD00BF08010020024B13B1CB
:1025D000024800F005B87047000000006128400084
:1025E000002301461A46184601F09EBBB1F90C3093
:1025F0002DE9F0419AB20D46110780463AD46A6837
:1026000043F40063002AAB8170DDAC6A002C4AD031
:1026100000229BB2D8F80060C8F8002013F4805262
:1026200068D02A6D5F0705D569682B6B521A0BB10C
:10263000EB6BD21A0023E9694046A047441C3DD009
:102640000021B5F90C302A6923F40063AB81DB0467
:1026500069602A6048D4296BC8F8006019B305F195
:102660004003994202D0404600F0C2F9002028639E
:10267000BDE8F0812E69B6B1910718BF00232C6820
:1026800008BF6B692E60A41BAB600AE0234632468C
:102690006F6AE9694046B8470028A4EB0004064485
:1026A00004DD002CF2DC0020BDE8F081AB894FF0A6
:1026B000FF3043F04003AB81BDE8F081D8F8004023
:1026C0001D2CF3D8164BE340DB4313F00103EDD18F
:1026D000B5F90C20296922F40062AA81D2046B604A
:1026E0002960B8D5002CB6D12865B4E7EA6B002A7A
:1026F0008BDCD8E70123E9694046A047431C02462A
:1027000002D0AB89AC6A8DE7D8F80030002BF8D046
:102710001D2B01D0162BC9D1C8F80060C3E700BF3C
:102720000100402010B5044682B008B1836B53B15C
:10273000B1F90C0008B902B010BD204602B0BDE8E6
:102740001040FFF753BF019100F080F80199EFE7C7
:10275000014900F0ADBB00BFF93D40002DE9F04F4D
:1027600007460024042303217D68334807F53B72A4
:10277000F863C7F8E412C7F8E822C7F8E04283B06C
:102780002C606C60AC606C66EC812C616C61AC613F
:10279000AB81214605F15C000822FEF7DDFE012336
:1027A0000922BE68DFF894B0DFF894A0DFF89490B7
:1027B000DFF89480C5F820B0C5F824A0C5F82890AB
:1027C000C5F82C80ED612146F381B28106F15C00F1
:1027D00034607460B460746634617461B4610822FA
:1027E0000193FEF7B9FE12200222FD682146F66130
:1027F000C6F820B0C6F824A0C6F82890C6F82C80E9
:10280000A881EA812C606C60AC606C662C616C61A4
:10281000AC6105F15C000822FEF79EFE019BED61B4
:10282000C5F820B0C5F824A0C5F82890C5F82C80BC
:10283000BB6303B0BDE8F08F51274000593B400017
:102840007D3B4000B93B4000D93B4000836B03B166
:102850007047FFF783BF00BF704700BF704700BFDE
:1028600038B50A4C0A4D641BA4100AD004F1804309
:10287000013B05EB8305013C55F804399847002CD2
:10288000F9D1BDE8384001F003BE00BFA0444000CC
:102890009C4440002DE9F04383B007468846144627
:1028A00000F02EFB012833D0424604F15C0301A95D
:1028B000384601F0EDF9421C064622D090B39DF84F
:1028C000041000250DF1040908E023685A1C226059
:1028D00019700135B54225D215F80910A368013BDE
:1028E000002BA360F1DAA269934201DB0A29ECD143
:1028F0002246384601F074F9431CEAD103B0BDE822
:10290000F083A38943F04003A38103B0BDE8F083C3
:1029100008F1FF33FE2BC7D85FFA88F106468DF821
:102920000410CEE7404603B0BDE8F083B2F90C30A6
:1029300013F4005F0AD110B4546E43F4005344F40E
:1029400000545466938110BCFFF7A4BFFFF7A2BFE9
:10295000F8B50C46234F064600F032FFBB68C4F5BD
:102960007E615D680F3125F00305294421F47F6104
:1029700021F00F01A1F58054B4F5805F07DB002141
:10298000304601F0D7F8BB682B44984204D030465B
:1029900000F018FF0020F8BD6142304601F0CAF88F
:1029A00001300DD0104BBA6819682D1B45F0010598
:1029B0003046091B5560196000F004FF0120F8BD86
:1029C0000021304601F0B6F8BA68831A0F2BDEDD1D
:1029D000064C0549246843F00103001B536008605E
:1029E000D5E700BFA40600204C0B0020AC0A002055
:1029F000002944D02DE9F0410D46804600F0E0FE6C
:102A000055F8047C6949A5F1080427F00103E21890
:102A10008E685068B24220F003005ED0FE0750601E
:102A20000BD455F8087C01F1080EE41BA5683B4463
:102A300075456DD0E768EF60BD6015186D68ED07EE
:102A40003ED543F001026260E350B3F5007F17D238
:102A50000122DB0898104D68134451F8337082400E
:102A600001EBC3002A430838E060A7604A6041F8E0
:102A70003340FC604046BDE8F04100F0A3BE704723
:102A80005A0A042A52D89A0902F13907FF0002F1C2
:102A90003805C819CA59083890424FD0516821F0FA
:102AA00003018B4232D292689042F7D1C368A06092
:102AB000E3609C60C4604046BDE8F04100F082BE27
:102AC00095683B4F0344BD4240D0D06843F00102BB
:102AD000E86085606260E350B7E7FF07034407D40E
:102AE00055F8085C641BE268A0682B44C2609060E3
:102AF000304A43F001001268606093428C60B9D3A1
:102B00002D4B40461968FFF723FFB3E71046CDE78A
:102B100011184968C90744D491680344D26843F046
:102B20000100CA6091606060E350A3E7142A16D8E0
:102B300002F15C07FF0002F15B05AAE70123AA107E
:102B40004D6893402B434B600346B0E743F00102CE
:102B50004C610C61E560A5606260E3508AE7542A2D
:102B600006D81A0B02F16F07FF0002F16E0590E71D
:102B7000B2F5AA7F06D8DA0B02F17807FF0002F15E
:102B8000770586E740F25450824206D89A0C02F14B
:102B90007D07FF0002F17C057BE74FF47E777E2501
:102BA00077E743F001016160136063E7A40600204A
:102BB000AC060020B00A00207C0B00209368002B9C
:102BC00071D02DE9F04F8B8983B00C461907009026
:102BD000164625D522691AB313F0020035682BD0AA
:102BE0004FF00009B0464F46DFF8C0A2002F55D085
:102BF00057453B464A4628BF5346E1690098666AF6
:102C0000B047002856DDD8F8083081441B1A3F1A17
:102C1000C8F80830002BE9D1002003B0BDE8F08FE0
:102C200021460098FFF76EFC002840F03581A3890B
:102C3000356813F00200D3D113F0010944D14F4697
:102C4000019637B39A05D4F8088040F1858047454E
:102C5000C346C0F0AD8013F4906F40F0AE80BA462A
:102C600020685A46494600F047FDA2682368A2EB57
:102C700008025B44A2602360019AD1449368A7EBE9
:102C80000A07A3EB0A039360002BC5D0A389002F8A
:102C9000D8D1D5F800906F680835D2E7D5F8009004
:102CA0006F680835A2E70020704721460098FFF7BB
:102CB00039FD78B3B4F90C304FF0FF3043F04003E6
:102CC000A38103B0BDE8F08F814633464E46A84647
:102CD0009A464D4656B3002832D0B145CB4628BF60
:102CE000B346206823695F469842626904D9A368A5
:102CF00013449B4500F3A88093454DDB1346676A58
:102D00002A46E1690098B847071ED3DDB9EB0709E9
:102D1000CBD00120DAF808303D44DB1BF61BCAF8A3
:102D20000830002B3FF478AF002ED4D108F108030F
:102D300053F8046C984653F8085C0833002EF7D01B
:102D400032460A21284600F01BFC002800F0A18032
:102D50000130A0EB0509C0E720682369984202D83A
:102D600063699F425DD2B84528BFB846494642468E
:102D700000F0C2FCA3682268A3EB08034244A360EE
:102D800022600BB1C24677E721460098FFF7CAFCE4
:102D900000288FD1C2466FE75A46294600F0ACFCA6
:102DA000A2682368A2EB0B025B44A2602360ADE73C
:102DB000B846BA46BB46206853E762692068216975
:102DC00002EB4208A0EB010A08EBD8780AF10100F7
:102DD0004FEA680838444045424684BF8046424630
:102DE0005B0544D51146009800F012F9834600288F
:102DF00055D05246216900F009FCA38923F4906361
:102E000043F08003A3810BEB0A00A8EB0A03C4F88C
:102E100010B0C4F814802060A360B846BA46BB4620
:102E20001FE76FF00042BA4228BF3A4692FBF3F226
:102E3000E16903FB02F300984A46666AB047B0F1C5
:102E4000000A3FF719AF35E71A462946019300F00B
:102E500053FC2268019B21461A4422600098FFF728
:102E600061FC019B00287FF425AF1F464EE70098C8
:102E700000F0AAFC83460028C5D1009D21692846A0
:102E8000FFF7B6FD0C22B4F90C302A6023F0800362
:102E900012E706F1010920E74FF0FF30BDE60C22F2
:102EA0000099B4F90C300A6006E700BF00FCFF7F10
:102EB0002DE9F84310F538761ED0884607464FF0C6
:102EC00000097568B468013D10D4A389013D012B48
:102ED00008D9B4F90E30013304D021463846C04732
:102EE00049EA00096B1C04F16804EED13668002E33
:102EF000E7D14846BDE8F883B1464846BDE8F883C7
:102F0000044B054A1B685B6B002B08BF134693F804
:102F100028017047080100203805002070B50C46D4
:102F2000B1F90E1090B0002915461E4614DB01AA17
:102F300000F0A2FF00280FDB029A4FF4806302F436
:102F40007042A2F50052B2FA82F24FF400605209C8
:102F500032602B6010B070BD0023A289336012F084
:102F6000800004D0402218462A6010B070BD4FF493
:102F700080632B6010B070BD8A890B46920706D51E
:102F8000012103F1430259611A601A617047F0B5DB
:102F900083B001AB6A460C460546FFF7BFFF0099B8
:102FA0000646284600F034F8B4F90C30D0B19DE85C
:102FB0000600124F43F08003EF63A381206020617D
:102FC00061611AB93343A38103B0F0BD2846B4F957
:102FD0000E1000F065FFB4F90C300028F2D043F079
:102FE0000103EFE79A05EFD4012104F1430243F016
:102FF0000203A381616122602261E5E7512740005D
:10300000024B0146186800F003B800BF0801002019
:103010002DE9F04F01F10B06162E83B0054640F264
:103020009E8036F0070600F1BD80B14200F2BA8002
:1030300000F0C6FBB6F5FC7FC0F08582730A00F095
:10304000B880042B00F26C81B30903F1390003F15D
:10305000380EC100B84F39444C680839A14206D136
:103060000CE0002A80F2AB80E468A14206D06368DD
:1030700023F003039A1B0F2AF3DD70463C69DFF847
:10308000CCE2744500F09E81636823F003039A1B31
:103090000F2A00F38381002AC7F814E0C7F810E074
:1030A00080F29180B3F5007F80F054810122DB082B
:1030B00079684FEAA30C134457F8338002FA0CF2F4
:1030C00007EBC30C0A43ACF10801E160C4F80880C7
:1030D0007A6047F83340C8F80C40012483109C40C4
:1030E00094427DD8144206D120F0030064001442BB
:1030F00000F10400FAD007EBC009CC468046DCF8AA
:103100000C309C4507D15FE1002A80F26D81DB68BD
:103110009C4500F05981596821F003018A1B0F2A50
:10312000F2DDDC68D3F808C046F0010828461E44EA
:1031300042F00105C3F80480CCF80C40C4F808C084
:103140007E613E61C6F80CE0C6F808E075605A5032
:10315000009300F037FB009B03F108041EE01029E8
:1031600020D800F02DFB102618230220724F3B447C
:103170005C68A3F10802944200F02F816368E16863
:1031800023F0030323445A68A66842F00102F16069
:1031900028468E605A6000F015FB0834204603B0C4
:1031A000BDE8F08F00240C2320462B6003B0BDE85F
:1031B000F08F40204FF400714FF03F0E4AE7234458
:1031C0005A68E168E0E723445A68284642F0010261
:1031D0005A60083400F0F6FA204603B0BDE8F08FDC
:1031E000BC68636823F00308B04504D3A8EB06036A
:1031F0000F2B00F38580DFF85891504BD9F8002051
:103200001B680132334404EB080A00F0548103F5D3
:1032100080530F3323F47F6B2BF00F0B5946284656
:1032200000F088FC411C024600F0FB80824500F261
:10323000F680434B19685944196000F04C81D9F865
:10324000000001301BBFA2EB0A0A5144C9F800205C
:10325000196012F0070100F01481C1F10800C1F5F6
:1032600080510244083102EB0B09C9F30B09A1EBB1
:103270000909494628460193009200F05BFC431C73
:103280009DE80C0000F04281801A484440F00100A3
:103290001968BC424944BA601960506017D0B8F14F
:1032A0000F0F40F2FA804FF0050C6268A8F10C0095
:1032B00020F0070002F0010204EB000E02430F2889
:1032C0006260CEF804C0CEF808C000F216811D4B33
:1032D000BC681A68914288BF19601B4B1A689142FA
:1032E000626888BF196022F003029642A2EB0603CF
:1032F00001D80F2B04DC284600F064FA00244DE7C7
:1033000046F0010243F00103264462602846BE6095
:103310000834736000F056FA204603B0BDE8F08F21
:10332000142B70D9542B00F2A280330B03F16F00E1
:1033300003F16E0EC1008DE6A40600207C0B002078
:103340004C0B0020740B0020780B0020AC060020F2
:10335000AC0A00205A0A042A5BD9142A00F2AE8073
:1033600002F15C01C9005B3207EB010C7958ACF14A
:10337000080C8C4500F088804A6822F003029342D2
:1033800073D289688C45F7D1DCF80C307A68E36039
:10339000C4F808C09C60CCF80C409EE646F0010CD6
:1033A00042F001012644C4F804C028467E613E6113
:1033B000C6F80CE0C6F808E07160E25000F002FACE
:1033C0000834EBE67A6888E608F1010818F0030F84
:1033D0000CF1080C7FF493AE2DE0DC68A34208BF2B
:1033E00002303FF44BAEC9E61C4619444A68DB681C
:1033F00054F8086F42F001024A602846F3609E606C
:1034000000F0E0F9CAE603F15C0003F15B0EC100D5
:1034100020E69A0902F13901C9003832A4E7BC421A
:1034200054D0BC68626822F003025EE759F808399C
:10343000994540F0868010F0030F00F1FF30F5D180
:103440007B6823EA04037B6064009C423FF6C8AEBD
:10345000002C3FF4C5AE1C4240467FF44CAE6400E5
:103460001C4200F10400FAD045E68C468CE7B3F527
:10347000AA7F15D8F30B03F1780003F1770EC10092
:10348000E8E54FF48051EEE601217B68921001FAE5
:1034900002F21A437A60634679E7012353602AE710
:1034A00040F25452934222D8B30C03F17D0003F151
:1034B0007C0EC100CEE503F1100BAFE6542A29D8EB
:1034C0001A0B02F16F01C9006E324DE7204B1968EB
:1034D00059441960B3E6CAF30B0000287FF4AFAE7D
:1034E00008EB0B03BA6843F001035360EFE67F205B
:1034F0004FF47E714FF07E0EACE504F108012846D2
:103500000093FFF775FA009B1968E0E601204FF081
:103510000009BDE6B2F5AA7F05D8DA0B02F1780101
:10352000C900773220E740F254518A4205D89A0CFC
:1035300002F17D01C9007C3216E74FF47E717E22D4
:1035400012E77B6880E7F00806F108030EE600BF8B
:103550004C0B002082B049B15AB16BB113780B60AB
:103560001278101C18BF012002B0704701A9002A70
:10357000F3D1104602B070476FF00100F4E700BFCE
:10358000830770B4CDB23DD0541E0AB30378AB426A
:103590001FD0431C05E014F1FF3419D30278AA426E
:1035A00017D013F0030F184603F10103F3D1032CD6
:1035B00011D84CB30378AB420BD00444431C02E057
:1035C0000278AA4205D09C42184603F10103F7D1C4
:1035D000002070BC7047090289B2294341EA0141C9
:1035E000036806464B40A3F1013222EA030313F0BD
:1035F000803F00F1040003D1043C032CF0D8D8E74D
:103600003046D7E71446D2E72046E2E7844641EA4F
:10361000000313F0030349D1403A23D30B6803603E
:103620004B6843608B688360CB68C3600B69036140
:103630004B6943618B698361CB69C3610B6A036228
:103640004B6A43628B6A8362CB6AC3620B6B036310
:103650004B6B43638B6B8363CB6BC36340304031F5
:10366000403ADBD230320BD30B6803604B684360C7
:103670008B688360CB68C36010301031103AF3D28E
:103680000C3205D351F8043B40F8043B043AF9D21C
:10369000043208D0D2071CBF11F8013B00F8013BEF
:1036A00001D30B8803806046704700BF082A13D3FC
:1036B0008B07B1D010F00303AED0C3F10403D21ACC
:1036C000DB071CBF11F8013B00F8013BA4D331F824
:1036D000023B20F8023B9FE7043AD9D3013A11F8A4
:1036E000013B00F8013BF9D20B7803704B78437033
:1036F0008B788370604670478842F0B50DD98B187F
:1037000098420AD28418002A51D0224613F8014D5B
:10371000994202F8014DF9D1F0BD0F2A48D941EA8A
:1037200000039B0746D1154600F1100401F1100378
:1037300053F8106C103D44F8106C53F80C6C0F2DBE
:1037400044F80C6C53F8086C04F1100444F8186C3D
:1037500053F8046C03F1100344F8146CE8D8A2F198
:10376000100323F00F0302F00F0E1033BEF1030F0E
:103770001944034421D90E4674461D1F56F8047B94
:10378000043C032C45F8047FF8D8AEF1040424F07F
:10379000030404342144234402F0030262B1013BD8
:1037A0000A4411F8014B8A4203F8014FF9D1F0BDE8
:1037B0000346F3E70346F2E7F0BD7246EEE700BFCB
:1037C000704700BF704700BF002900F094802DE9CA
:1037D000F04F0C46154683B0804605F10B06FFF707
:1037E000EFFF54F804EC162E2EF00307A4F108099D
:1037F0003CD810221646B5423DD8974243DAC64B14
:1038000009EB07009968884200F0C380436823F001
:10381000010101444968C9074DD51EF0010F00F0B0
:103820009B8029464046FFF7F3FB054600283BD026
:1038300054F8043CA0F1080223F001034B449A42DF
:1038400000F02B813A1F242A00F21881132A00F27B
:10385000EB800346224611681960516859609268EE
:103860009A6021464046FFF7C3F81DE026F00706A0
:10387000002E3246BFDA00250C232846C8F8003057
:1038800003B0BDE8F08F2546BB1B0F2BD9F80420F1
:103890001DD802F001023A4309EB0701C9F80420E0
:1038A0004B6843F001034B604046FFF78BFF28460F
:1038B00003B0BDE8F08F23F00303F91891421DDB3C
:1038C000C36882682546D3600F469A60DCE702F041
:1038D000010209EB060143F001033243C9F8042059
:1038E0004F444B607B68083143F001037B604046E6
:1038F000FFF77EF8D8E71146FFF78ABB1EF0010FED
:103900008FD154F8081CA9EB010ADAF8041021F051
:1039100003010B443B44934226DB5546C168806853
:103920003A1FC160886055F8080FDAF80C10242A95
:10393000C160886026D8132A40F2818021681B2A42
:10394000CAF808106168CAF80C1000F2AD8004F1E2
:1039500008000AF1100274E054F8083CA9EB030ACD
:10396000DAF8041021F003017B189342FFF659AFF7
:103970005546DAF80C1055F8080F3A1F242AC16092
:103980008860D8D9214628461F46D146FFF7B4FEA5
:103990007AE7416806F1100021F0030BBB44834530
:1039A00058DA1EF0010F7FF43CAF54F8081CA9EB65
:1039B000010ADAF8041021F003018B445845D3DCE6
:1039C0005546DAF80C1055F8080F3A1F242AC16042
:1039D000886000F28D80132A40F2878021681B2ABC
:1039E000CAF808106168CAF80C1000F2888004F167
:1039F00008010AF110020868106048685060896880
:103A00009160ABEB06020AEB060142F001029960FD
:103A10004A60DAF80430404603F001031E43CAF856
:103A20000460FFF7CFFE42E723681B2A0360636848
:103A3000436027D800F1080304F108020BE7204691
:103A40002A4601681F4611604168D146516083686B
:103A5000936019E7ABEB060B09EB06014BF0010293
:103A600099604A6054F8043C404603F001031E4349
:103A700044F8046CFFF7A6FE254618E72146FFF739
:103A80003BFEEEE6A368242A8360E368C36018D097
:103A900000F1100304F11002DDE650F8043C254665
:103AA00023F003031F44EFE6A168242ACAF810108C
:103AB000E168CAF814100DD004F110000AF11802E0
:103AC000BFE7226900F118030261616904F118027D
:103AD0004161C0E6226904F11800CAF81820616942
:103AE0000AF12002CAF81C10ABE721462A4682E7F9
:103AF000214628460193FFF7FFFD019B81E7A1685E
:103B0000242ACAF81010E168CAF8141006D004F18B
:103B100010010AF118026EE7A4060020226904F1E0
:103B20001801CAF8182060690AF12002CAF81C00BE
:103B300061E700BF38B50023064C05460846236000
:103B4000FDF7BEF9431C00D038BD2368002BFBD025
:103B50002B6038BD8C0B002010B50C46B1F90E104F
:103B600000F0C6F9002803DB236D0344236510BD74
:103B7000A38923F48053A38110BD00BF2DE9F04138
:103B80000C46B1F90C101F46CB051646054607D565
:103B9000B4F90E100223002200F094F9B4F90C10CD
:103BA00021F48051A1813B463246B4F90E102846DB
:103BB000BDE8F04100F0A2B810B50C46B1F90E1006
:103BC00000F080F9A389421C0EBF23F4805343F414
:103BD00080532065A38110BDB1F90E1000F0FAB832
:103BE000F8B50D461446064610B1836B002B4BD03A
:103BF000B4F90C20A36991B20807A36039D52369F1
:103C0000002B36D0EDB289042F4615D522686169A4
:103C1000D31A8B421CDA0133A168501C0139A16010
:103C20002060157062699A421AD0A389DB0701D51A
:103C30000A2D15D03846F8BD616E42F4005221F4C9
:103C40000051A281226861666169D31A8B42E2DB6E
:103C500021463046FEF766FD40B901232268DBE7C6
:103C600021463046FEF75EFD0028E3D04FF0FF37D7
:103C7000E0E721463046FEF745FC0028F6D1B4F9CE
:103C80000C20236991B2BDE7FEF7E0FDB0E700BF6D
:103C9000F0B5064685B01F4689B1104C104D24681A
:103CA000646B002C08BF2C46D4F8E040A047431CAE
:103CB00003D100228A233A60336005B0F0BD0C4680
:103CC000064A074D116822464C6B01A9002C08BF1B
:103CD0002C46D4F8E040A047E9E700BF08010020E7
:103CE0003805002019B1FF2A03D80A7001210846BF
:103CF00070478A234FF0FF310360F8E7F8B50E46AE
:103D00000025084C114607461A4630462560FCF748
:103D100043FA431C00D0F8BD2368002BFBD03B6066
:103D2000F8BD00BF8C0B00202DE9F047274C07465B
:103D300026688846D6F8484192469946002C3CD0E1
:103D400065681F2D1ADC05F1010E7FB1012004EB1F
:103D50008503C3F888A0D4F8881100FA05F211434E
:103D6000022FC4F88811C3F8089120D00235C4F896
:103D700004E0002044F82580BDE8F087144B0BB325
:103D80004FF4C870FFF73CF90446D8B10020D6F8CC
:103D900048314FF0010E606023600546C6F8484187
:103DA000C4F88801C4F88C01002FDFD0CEE7D4F826
:103DB0008C311A43C4F88C21D8E706F5A674C6F8EE
:103DC0004841BDE74FF0FF30BDE8F08714434000A5
:103DD0000130400038B50023064C054608462360F4
:103DE000FDF78AF8431C00D038BD2368002BFBD0B8
:103DF0002B6038BD8C0B002070B539B105460C46E0
:103E000008B1836B83B3B4F90C3013B90026304684
:103E100070BD21462846FEF7E9FBE36A064633B14A
:103E2000E169284698470028B8BF4FF0FF36A389BC
:103E30001B061CD4216B41B104F14003994202D00E
:103E40002846FEF7D5FD00232363616C21B1284687
:103E5000FEF7CEFD00236364FEF7FEFC0023A38182
:103E6000FEF7FCFC304670BDFEF7F0FCCBE72169A5
:103E70002846FEF7BDFDDDE770B50D460023074C73
:103E80000646114628462360FDF739F8431C00D04A
:103E900070BD2368002BFBD0336070BD8C0B0020FD
:103EA00038B50023064C054608462360FDF72CF87C
:103EB000431C00D038BD2368002BFBD02B6038BDDD
:103EC0008C0B0020F8B50E460025084C114607461D
:103ED0001A4630462560FDF719F8431C00D0F8BD9E
:103EE0002368002BFBD03B60F8BD00BF8C0B00208B
:103EF000F8B50E460025084C114607461A463046CE
:103F00002560FCF715F9431C00D0F8BD2368002B91
:103F1000FBD03B60F8BD00BF8C0B002053B94AB901
:103F2000002908BF00281CBF4FF0FF314FF0FF30C1
:103F300000F07AB9ADF1080C6DE904CE00F006F896
:103F4000DDF804E0DDE9022304B070472DE9F04715
:103F50008C460E460446089D002B50D18A421746D7
:103F60006CD9B2FA82FEBEF1000F0BD0CEF1200C5C
:103F700001FA0EF620FA0CFC02FA0EF74CEA060CD7
:103F800000FA0EF43A0CBCFBF2F9BBB202FB19CCFE
:103F900009FB03FA4FEA144848EA0C46B2450AD92D
:103FA000F61909F1FF3180F02581B24540F22281F6
:103FB000A9F102093E44A6EB0A06B6FBF2F002FBA9
:103FC000106600FB03F3A4B244EA0644A34209D9F5
:103FD000E41900F1FF3280F00B81A34240F2088126
:103FE00002383C440021E41A40EA0940002D62D026
:103FF000002324FA0EF42C606B60BDE8F0878B423E
:1040000007D9002D55D0002185E841000846BDE8BC
:10401000F087B3FA83F1002940F08F80B34202D3D6
:10402000824200F2FC80841A66EB03060120B4464B
:10403000002D40D085E81010BDE8F08712B90127A7
:10404000B7FBF2F7B7FA87FEBEF1000F35D10121B9
:10405000F61B4FEA174C1FFA87F8B6FBFCF20CFB75
:10406000126608FB02F0230C43EA0646B04207D969
:10407000F61902F1FF3302D2B04200F2D2801A46A2
:10408000361AB6FBFCF00CFB106608FB00F8A3B276
:1040900043EA0644A04507D9E41900F1FF3302D2F0
:1040A000A04500F2B9801846A4EB080440EA02409B
:1040B0009CE729462846BDE8F08707FA0EF7CEF1BF
:1040C000200326FA03F24FEA174CB2FBFCF11FFA69
:1040D00087F80CFB112206FA0EF620FA03F301FB17
:1040E00008F933431E0C46EA0246B14500FA0EF4C5
:1040F00009D9F61901F1FF3280F08C80B14540F208
:10410000898002393E44A6EB0906B6FBFCF00CFBA5
:10411000106200FB08F99EB246EA0246B14507D993
:10412000F61900F1FF3371D2B1456FD902383E4420
:10413000A6EB090640EA01418FE7C1F1200722FA08
:1041400007F88B4048EA030326FA07F44FEA134EB8
:10415000B4FBFEF91FFA83FC0EFB19448E4020FAD3
:1041600007F809FB0CFA48EA06084FEA184646EA3F
:104170000444A24502FA01F200FA01F608D9E41853
:1041800009F1FF3044D2A24542D9A9F102091C44E9
:10419000A4EB0A04B4FBFEF00EFB104400FB0CFC85
:1041A0001FFA88F848EA0444A44507D9E41800F146
:1041B000FF3E29D2A44527D902381C4440EA0940D1
:1041C000A0FB0289A4EB0C0CCC45C246CE4615D30D
:1041D00012D055B1B6EB0A036CEB0E0606FA07F7E0
:1041E000CB401F43CE402F606E600021BDE8F087BA
:1041F0001046F7E68946DEE64645EAD2B8EB020A03
:1042000069EB030E0138E4E77046D7E718468FE7FD
:104210008146BDE7114676E702383C4444E708464C
:1042200006E7023A3E442BE7704700BF496E6963D8
:1042300069616E646F204C65697475726120646F8A
:104240002053656E736F720D0A00000050574D20A9
:1042500048616E646C65723A2025750D0A00000095
:104260004E6F7661204C6569747572610D0A0000AD
:104270004475747920617475616C3A202575070A5C
:104280000D000000626F746F657320636F6E666966
:1042900067757261646F730A0D0000005065726982
:1042A0006F643A202575202F2F20647574793A2089
:1042B0002575202F2F2076616C75653A2025750DA8
:1042C0000A00000050574D205570646174653A2013
:1042D0002575202F2F2025660D0A0000496E696381
:1042E00069616C697A696E67204265616D2042611F
:1042F0006C6C0D0A0000000050574D20636F6E6615
:1043000069677572656420636F6D706C6574650DA7
:104310000A000000100100203031323334353637C6
:1043200038394142434445460000000030313233C1
:1043300034353637383961626364656600000000E1
:10434000286E756C6C290000202020202020202061
:1043500020202020202020203030303030303030DD
:10436000303030303030303043000000504F53494F
:10437000580000002E0000000020202020202020D7
:104380002020282828282820202020202020202005
:104390002020202020202020208810101010101015
:1043A0001010101010101010100404040404040461
:1043B00004040410101010101010414141414141FB
:1043C00001010101010101010101010101010101DD
:1043D00001010101101010101010424242424242ED
:1043E00002020202020202020202020202020202AD
:1043F0000202020210101010200000000000000055
:1044000000000000000000000000000000000000AC
:10441000000000000000000000000000000000009C
:10442000000000000000000000000000000000008C
:10443000000000000000000000000000000000007C
:10444000000000000000000000000000000000006C
:10445000000000000000000000000000000000005C
:10446000000000000000000000000000000000004C
:10447000000000000000000000000000F8B500BFD0
:10448000F8BC08BC9E467047CD254000E9004000BE
:10449000F8B500BFF8BC08BC9E467047C500400098
:0844A000ACFAFF7F01000000EF
:1044A800BFF35F8F0138FBD1704700004FF44072B3
:1044B8001F4B1A60A3F5C0631B6A13F0807F07D1F6
:1044C8001C4A1D4B1A621A46936E13F0010FFBD05B
:1044D8001A4A194B1A621A46936E13F4803FFBD09E
:1044E800154A136B23F0030343F001031363936E20
:1044F80013F0080FFBD0124A0F4B9A621A46936EBC
:1045080013F0020FFBD011220B4B1A631A46936E5D
:1045180013F0080FFBD01222074B1A631A46936E4A
:1045280013F0080FFBD0074A074B1A60704700BF0B
:10453800000A0E400908370000040E400908370138
:10454800013F0720006CDC02040100200C4B98425C
:104558000CD90C4B98420DD90B4B984294BF4FF491
:1045680000724FF44072094B1A6070470022074BE3
:104578001A6070474FF48072044B1A60704700BF8E
:104588003F6F4001FF47E801FF6BDC02000A0E4065
:104598000100000000C20100C00000000008000087
:1045A8000000000000093D0010010020000000008C
:1045B80000000000FC03002064040020CC0400205C
:1045C80000000000000000000000000000000000E3
:1045D80000000000000000000000000000000000D3
:1045E80000000000000000000000000000000000C3
:1045F80000000000000000000000000000000000B3
:1046080000000000000000000000000000000000A2
:104618000000000000000000000000000000000092
:104628000000000000000000000000000000000082
:104638000000000000000000000000000000000072
:104648000000000000000000000000000000000062
:104658000000000000000000010000000000000051
:104668000E33CDAB34126DE6ECDE05000B00000016
:104678000000000000000000000000000000000032
:104688000000000000000000000000000000000022
:104698000000000000000000000000000000000012
:1046A8000000000000000000000000000000000002
:1049D800000000000000000043000000000000008C
:1049E80000000000000000000000000000000000BF
:1049F800000000000000000043000000000000006C
:104A0800000000000000000000000000000000009E
:104A1800000000000000000043000000000000004B
:104A2800000000000000000000000000000000007E
:104A3800000000000000000043000000000000002B
:104A4800000000000000000000000000000000005E
:104A5800000000000000000043000000000000000B
:104A6800000000000000000000000000000000003E
:104A780000000000000000004300000000000000EB
:104A8800000000000000000000000000000000001E
:104A980000000000000000004300000000000000CB
:104AA80000000000000000000000000000000000FE
:104AB8000000000000000000E53C400055354000C3
:104AC800000000007843400074434000F442400076
:104AD800F4424000F4424000F4424000F4424000F6
:104AE800F4424000F4424000F4424000F4424000E6
:104AF800FFFFFFFFFFFFFFFFFFFFFFFFFFFF0000BC
:104B08000100415343494900000000000000000033
:104B1800000000000000000000000000000000008D
:104B28000000415343494900000000000000000014
:104B3800000000000000000000000000000000006D
:104B4800000000000000000000000000A406002093
:104B5800A4060020AC060020AC060020B406002005
:104B6800B4060020BC060020BC060020C4060020B5
:104B7800C4060020CC060020CC060020D406002065
:104B8800D4060020DC060020DC060020E406002015
:104B9800E4060020EC060020EC060020F4060020C5
:104BA800F4060020FC060020FC0600200407002074
:104BB800040700200C0700200C0700201407002021
:104BC800140700201C0700201C07002024070020D1
:104BD800240700202C0700202C0700203407002081
:104BE800340700203C0700203C0700204407002031
:104BF800440700204C0700204C07002054070020E1
:104C0800540700205C0700205C0700206407002090
:104C1800640700206C0700206C0700207407002040
:104C2800740700207C0700207C07002084070020F0
:104C3800840700208C0700208C07002094070020A0
:104C4800940700209C0700209C070020A407002050
:104C5800A4070020AC070020AC070020B407002000
:104C6800B4070020BC070020BC070020C4070020B0
:104C7800C4070020CC070020CC070020D407002060
:104C8800D4070020DC070020DC070020E407002010
:104C9800E4070020EC070020EC070020F4070020C0
:104CA800F4070020FC070020FC070020040800206F
:104CB800040800200C0800200C080020140800201C
:104CC800140800201C0800201C08002024080020CC
:104CD800240800202C0800202C080020340800207C
:104CE800340800203C0800203C080020440800202C
:104CF800440800204C0800204C08002054080020DC
:104D0800540800205C0800205C080020640800208B
:104D1800640800206C0800206C080020740800203B
:104D2800740800207C0800207C08002084080020EB
:104D3800840800208C0800208C080020940800209B
:104D4800940800209C0800209C080020A40800204B
:104D5800A4080020AC080020AC080020B4080020FB
:104D6800B4080020BC080020BC080020C4080020AB
:104D7800C4080020CC080020CC080020D40800205B
:104D8800D4080020DC080020DC080020E40800200B
:104D9800E4080020EC080020EC080020F4080020BB
:104DA800F4080020FC080020FC080020040900206A
:104DB800040900200C0900200C0900201409002017
:104DC800140900201C0900201C09002024090020C7
:104DD800240900202C0900202C0900203409002077
:104DE800340900203C0900203C0900204409002027
:104DF800440900204C0900204C09002054090020D7
:104E0800540900205C0900205C0900206409002086
:104E1800640900206C0900206C0900207409002036
:104E2800740900207C0900207C09002084090020E6
:104E3800840900208C0900208C0900209409002096
:104E4800940900209C0900209C090020A409002046
:104E5800A4090020AC090020AC090020B4090020F6
:104E6800B4090020BC090020BC090020C4090020A6
:104E7800C4090020CC090020CC090020D409002056
:104E8800D4090020DC090020DC090020E409002006
:104E9800E4090020EC090020EC090020F4090020B6
:104EA800F4090020FC090020FC090020040A002065
:104EB800040A00200C0A00200C0A0020140A002012
:104EC800140A00201C0A00201C0A0020240A0020C2
:104ED800240A00202C0A00202C0A0020340A002072
:104EE800340A00203C0A00203C0A0020440A002022
:104EF800440A00204C0A00204C0A0020540A0020D2
:104F0800540A00205C0A00205C0A0020640A002081
:104F1800640A00206C0A00206C0A0020740A002031
:104F2800740A00207C0A00207C0A0020840A0020E1
:104F3800840A00208C0A00208C0A0020940A002091
:104F4800940A00209C0A00209C0A0020FFFFFFFF13
:044F58000000020053
:0400000500400D2981
:00000001FF
