:020000040040BA
:10000000381600200D12400009124000091240006D
:1000100009124000091240000912400000000000CF
:10002000000000000000000000000000C5144000B7
:10003000091240000000000075154000B52940007D
:100040000912400009124000091240000912400044
:100050000912400009124000091240000912400034
:10006000091240000912400009124000B50E40007C
:10007000C90E4000DD0E4000091240000912400088
:100080000912400009124000091240000912400004
:1000900009124000E523400009124000A12440005D
:1000A00009124000091240000912400009124000E4
:1000B00009124000091240000912400009124000D4
:1000C0000912400010B5054C237833B9044B13B125
:1000D0000448AFF300800123237010BD9C09002069
:1000E0000000000048A24000084B10B51BB10849B1
:1000F0000848AFF300800848036803B910BD074BF8
:10010000002BFBD0BDE81040184700BF00000000E6
:10011000A009002048A2400048A2400000000000C2
:1001200010B50E480E4B98473E2100200D4B9847C6
:100130000D4CA0470028FCD00C4B98470C4A0D4BA7
:100140009A620D4CA0470028FCD000200B4B98472A
:100150000B4B98470148024B984710BD006CDC02DE
:10016000AD000020590F4000AD0F4000BD0F400012
:10017000013F032000040E40CD0F4000F10E40006F
:10018000B912400010B50446104B984780232360F5
:10019000636843F001036360636843F010036360C6
:1001A000636823F08003636000212046084B984772
:1001B000636823F002036360636823F004036360F1
:1001C00000212046034B984710BD00BF0910400096
:1001D00019104000311040002DE9F04104460D4651
:1001E000164615491846154B9847074600231A46E8
:1001F00029682046DFF85C80C0470822296820462D
:100200000F4B9847FAB2296820460E4B98470822B0
:10021000296820460C4B98477208296820460B4BEA
:10022000984786F0010202F0010229682046084B37
:100230009847BDE8F08100BF006CDC02151140005A
:10024000011140002D114000BD1040007D10400004
:100250009D1040005511400008B5436813F0040F8D
:1002600005D009680F290AD8054B984708BD0B68C7
:10027000032B04D801219940C943014B984708BD7D
:100280001910400090B92DE9F0410C469046002A23
:100290000FDD8F18084E094D306821462B689847AE
:1002A0000134A742F8D14046BDE8F0814FF0FF305D
:1002B00070470020BDE8F081080E0020000E0020ED
:1002C0000138022815D82DE9F0410E4614469AB19E
:1002D0000D46DFF838800C4FD8F8000015F8011BE8
:1002E0003B68984700280ADBA81B013CF4D1BDE815
:1002F000F0814FF0FF3070470020BDE8F0814FF0F3
:10030000FF30BDE8F08100BF040E0020080E002081
:1003100010B54FF400421E4B5A600B201D4CA047F5
:100320000C20A0470D20A0474FF0605117201A4C19
:10033000A0474FF060512E20A04718490F20A0473A
:1003400017491020A0474FF000624FF4C0611548D4
:10035000154B98474FF000610C20A0474FF000610B
:100360000D20A0474FF000610E20A0474FF08051B4
:100370001E20A0474FF060511C20A0474FF0605155
:100380001D20A0474FF060514D20A04710BD00BF79
:1003900050140E40DD0F4000F90B4000790000289A
:1003A00059000028000E0E401D0D400070B483B0AF
:1003B000C0F11100102828BF1020002808BF01201C
:1003C0000021104E4FF40055182475630194019BD1
:1003D0005A1E0192002BFAD135630194019B5A1EDB
:1003E0000192002BFAD101318142EED34FF4003358
:1003F0000193019B5A1E0192002BFAD103B070BCED
:10040000704700BF00120E4082B04FF40052064BFE
:100410005A634FF400330193019B5A1E0192002B43
:10042000FAD102B0704700BF00120E4082B0002324
:100430000193019B984211D90021094A0191019B26
:10044000934205D8019B01330193019B9342F9D953
:10045000019B01330193019B8342EFD302B07047AC
:100460009F86010030B40468AF2C84BFAF240460C1
:100470001468AF2C84BFAF2414600C68DB2C84BFDD
:10048000DB240C601C68DB2C84BFDB241C6004684C
:100490001568AC4284BF056014600A68186882421F
:1004A00084BF08601A6030BC704700BF70B5064654
:1004B0000B4C0022022120460A4DA847012323604D
:1004C0001C20094B98470023022231462046074E44
:1004D000B0470221216080222046A84770BD00BF9E
:1004E0000080004001114000B90B40004510400061
:1004F00038B50546074C012323601C20064B98475E
:100500000023022229462046044DA84702232360E7
:1005100038BD00BF008000409D0B400045104000EA
:1005200010B50C46024B98472046024B984710BD29
:10053000AD044000F104400031B32DE9F04182B038
:100540000C4605460122114B1A601C20104B98479F
:1005500000230193019B9C4210D9DFF830800027D3
:100560000C4E01993B46022235F811104046B04727
:10057000019B01330193019B9C42F2D80222034B61
:100580001A6002B0BDE8F081704700BF00800040F3
:100590009D0B400045104000034BDA699A6101222F
:1005A000024B1A70704700BF00800040180B0020FB
:1005B00008B541F217010720014B984708BD00BF5D
:1005C0002105400008B500210720014B984708BDD0
:1005D00021054000020A22F4FF6222F007024309CB
:1005E00003F4FC631A43C0F3C400024392B204490B
:1005F0008B1E01F5AF7123F8022F8B42FBD17047A0
:10060000B8090020F8B50E461C4687B2013AB91861
:10061000C9B23620074DA847F9B23720A847B6B26D
:10062000013C3119C9B23820A847F1B23920A84796
:10063000F8BD00BF2105400038B50D46C1B22020ED
:10064000024CA047E9B22120A04738BD2105400057
:100650002DE9F04784B081464FF0020804AF47F817
:10066000048D1D205E4CA04740465E4EB0471D20C5
:100670005D4B98471420B0471D20A0473220B0475B
:100680005A4CC4F80080802323604FF080732360AD
:10069000574B4FF40012C3F88020C3F88021002587
:1006A00083F815531A602046524B98470095524BD9
:1006B0002A4639462046DFF85CA1D0473946204615
:1006C0004E4B98470127276067614D4B98474FF481
:1006D0008E7138464B4CA0474FF480714046A0477E
:1006E00041F230010320A04740F608010820A0474E
:1006F00039460C20A04740F601210F20A047B02129
:100700002020A047DC212120A0474FF420611020A9
:10071000A04741F238011120A0473220B04741F2F2
:1007200021111220A0474E211320A04746F26F71DD
:100730001420A04729463020A047DB213120A047C4
:1007400029463220A04729463320A047DB21342008
:10075000A04729463520A047B0213620A04729468A
:100760003720A047DC213820A04729463920A04760
:1007700029465020A04740F20A615120A04740F688
:100780000A515220A04740F203315320A04740F6BF
:100790000D215420A04740F606215520A0472946A8
:1007A0005620A04740F203315720A0472946582041
:1007B000A04729465920A047D9F80430D9F800208D
:1007C00029462846104CA047D9F808000F4B9847F7
:1007D000294628460E4B9847284604B0BDE8F087C6
:1007E0009D0B40002D044000B90B400000800040EC
:1007F00000E100E08501400020BCBE00590240003D
:10080000C50540002105400005064000D505400013
:1008100039064000D9014000AF280FD8DB290FD896
:1008200008B589B280B2074B98472220064B9847FB
:10083000064B1888064B9847002008BD01207047DA
:100840000120704739064000AD044000B80900207F
:10085000F10440002DE9F04184B00390029101922F
:1008600004AA42F8103D134601AA02A903A8204C8D
:10087000A04703980299009B0133019A01325B1A49
:10088000121A1C4CA047BDF80810BDF80C001A4BFA
:1008900098472220194B9847039A019B9A1A009B6C
:1008A00003F10108029BC3EB080802FB0888144C03
:1008B000A4FB0834E40907D0124FB026124D31468C
:1008C0003846A847013CFAD10D49A1FB0831C909B6
:1008D000B02404FB11810B480B4B9847DC232246C4
:1008E00000210846034CA04704B0BDE8F08100BFDA
:1008F000650440000506400039064000AD04400094
:10090000A38B2EBAB809002039054000002A46D032
:100910002DE9F04F83B08046894616465700C7F14F
:1009200003070025204C08EB050309EB060B59468D
:1009300001931846A047C6EB090A51460198A04703
:10094000C5EB080359469B461846A04751465846F2
:10095000A04708EB060309EB050B5946019318461F
:10096000A047C5EB090A51460198A047C6EB08030A
:1009700059469B461846A04751465846A047002F67
:1009800003DA07EB8507063704E0AB1B0A3707EBF2
:100990008307013E0135AE42C5D2002001E00120AF
:1009A000704703B0BDE8F08F190840002DE9F04F03
:1009B00085B0039002921378002B45D08A460190AF
:1009C000DFF890800A2B04D10AF1100A039B0193EF
:1009D00034E003EB83031E4E06EB8303A3F27F2672
:1009E000019F3B460A3300930AF107090724B346E7
:1009F0005D4616F8013C234113F0010F03D0C4EB10
:100A000009013846C047013CB4F1FF3FF0D107244B
:100A10000AF10F0B2B78234113F0010F03D0C4EB25
:100A20000B013846C047013C012CF3D10236013797
:100A3000009BBB42DAD1019B0C330193029A12F85E
:100A4000013F0292002BBDD105B0BDE8F08F00BF81
:100A50007C954000190840004264B1F1C05F2FD07E
:100A600007D8B1F1006F14D0B1F1805F1ED039B951
:100A70007047B1F1205F36D004D8B1F1005F29D0C2
:100A800042607047B1F1405F2DD0B1F1605F2AD074
:100A9000F6E710B4046F016FD3432140194001679A
:100AA000446F416F21400B4043671AE0036F1343CB
:100AB0000367416F436F0B4023EA02034367DFE79D
:100AC000016F036F0B4023EA02030367436F134375
:100AD0004367D5E7036F13430367436F13434367CC
:100AE000CEE7426010BC7047416412F0010F14BFA2
:100AF0004166016612F00A0F14BF0162416212F0F2
:100B0000020F02D0C0F8801004E012F0080F18BFE6
:100B1000C0F8841041610160704700BF10B44164A7
:100B2000019C0CB1416600E001660BB1016500E07B
:100B300041650AB1016300E041630161016010BCDD
:100B4000704700BF12F0100F10D0C0F8B01012F0B4
:100B5000200F14BFC0F8D410C0F8D01012F0400F0E
:100B600014BFC0F8C010C0F8C4107047C0F8B4106B
:100B7000704700BF01647047C06C7047806C70475D
:100B8000430903F5001303F207735B02DB6B00F00C
:100B90001F0023FA00F000F001007047430903F53D
:100BA000001303F207735B0200F01F00012202FA38
:100BB00000F01863704700BF430903F5001303F208
:100BC00007735B0200F01F00012202FA00F0586375
:100BD000704700BF430903F5001303F207735B027C
:100BE000996B00F01F00012202FA00F0014214BFCD
:100BF00058631863704700BF70B582B00D46430953
:100C000003F5001303F207735C0201F0F043B3F144
:100C1000005F47D009D8B3F1805F21D0B3F1C05F46
:100C20002FD0B3F1006F6FD109E0B3F1405F55D021
:100C3000B3F1605F52D0B3F1205F44D064E000F0C4
:100C40001F000126864032464FF000612046304B9F
:100C5000984715F0010F14BF66662666012054E020
:100C600000F01F000126864032464FF0805120469A
:100C7000274B984715F0010F14BF666626660120C2
:100C800043E000F01F000126864032464FF0C0517D
:100C900020461F4B984715F0010F14BF6666266665
:100CA000012032E000F01F000126864032464FF05E
:100CB00000512046164B984715F0010F14BF666689
:100CC0002666012021E000F01F0101262A4606FACF
:100CD00001F120460F4B9847304616E005F0605270
:100CE00000F01F01012605EA06030093C5F3800307
:100CF000B2F1605F14BF0022012206FA01F1204622
:100D0000054CA047304600E0002002B070BD00BF97
:100D1000590A4000E90A40001D0B400070B582B03E
:100D200005460E46144602F0F043B3F1005F38D09A
:100D300009D8B3F1805F1CD0B3F1C05F25D0B3F107
:100D4000006F50D109E0B3F1405F3AD0B3F1605F7A
:100D500037D0B3F1205F30D045E00A464FF0006154
:100D6000224B984714F0010F14BF6E662E660120C7
:100D70003AE00A464FF080511C4B984714F0010F9F
:100D800014BF6E662E6601202EE00A464FF0C05159
:100D9000164B984714F0010F14BF6E662E660120A3
:100DA00022E00A464FF00051104B984714F0010F13
:100DB00014BF6E662E66012016E00D4B9847012089
:100DC00012E004F0605204F001030093C4F38003C6
:100DD000B2F1605F14BF0022012231462846054C63
:100DE000A047012000E0002002B070BD590A400079
:100DF000E90A40001D0B40002DE9F04104468846F9
:100E00000E4B9847054620460D4B9847054013D09A
:100E10000C4C04F160062368434508D161682942FF
:100E200005D0E36840469847636825EA0305B44265
:100E300002D01034002DEED1BDE8F081790B4000D6
:100E40007D0B4000200B0020F8B5174C2668062EBD
:100E500028D84FF0000C6446144FA64625017D5952
:100E60008D4204D107EB04156D68954204D001341E
:100E7000E4B2A446A642F0D20C4D4FEA0E1E05EB9A
:100E80000E0445F80E106260A3600699E160013619
:100E9000664504BF04490E6011461A46044B984744
:100EA0000020F8BD0120F8BD1C0B0020200B002005
:100EB000450B400008B50B210148024B984708BD7F
:100EC000000E0E40F90D400008B50C210148024B00
:100ED000984708BD00100E40F90D400008B50D21DF
:100EE0000148024B984708BD00120E40F90D400022
:100EF000184A136B23F0700318431063936E13F0BA
:100F0000080F03D009E0013B03D11EE04FF400635A
:100F100010498A6E12F0080FF5D00E4A136B23F0B9
:100F2000030343F002031363906E10F0080004D033
:100F300000207047013B03D109E04FF400630549ED
:100F40008A6E12F0080FF5D070470120704701201B
:100F5000704700BF00040E4038B111490B6A114AB6
:100F60001A40114B13430B6270470D48026A090285
:100F700089B222F45C1323F0030343F45C1343F0BF
:100F800001030B4303620246936E13F0010FFBD083
:100F9000034A136A43F09B7343F480331362704730
:100FA00000040E40FCFFC8FE02003701024B986EA1
:100FB00000F48030704700BF00040E404FF0005234
:100FC000014B9A62704700BF00040E40024B986EBE
:100FD00000F00200704700BF00040E401F280CD82C
:100FE000084B9A6901238340934308D0012303FAF5
:100FF00000F0044B1861002070470120704700206A
:10100000704700BF00040E4008B51520014B9847FB
:1010100008BD00BFDD0F4000436823F47023436028
:101020004368090401F470210B434360704700BF1B
:10103000436823F07F434360436843EA01614160B2
:10104000704700BF30B443F6992401E0013C11D051
:10105000056915F0020FF9D0446814F0020F06D0AC
:10106000120402F4702211430BB141F08071C1608F
:10107000002000E0012030BC704700BF32B100EB1F
:101080008100036B43F001030363704700EB8100B1
:10109000036B23F001030363704700BF32B100EB21
:1010A0008100036B43F002030363704700EB810090
:1010B000036B23F002030363704700BF042A0AD1C5
:1010C00000EB8100036B23F008030363036B43F021
:1010D00004030363704752B900EB8100036B23F0F4
:1010E00008030363036B23F0040303637047082AB8
:1010F00005D100EB8100036B43F0080303637047E5
:1011000000EB81010B6B23F0F0030B630B6B1A43B5
:101110000A637047431E1944B1FBF0F0431EFE2BD7
:1011200094BF00B24FF0FF30704700BF6AB110B4F7
:10113000144600EB81010B6B23F47F430B630A6BB6
:1011400042EA04220A63002002E04FF0FF307047B9
:1011500010BC704710B400EB8101086B80B20863CB
:101160000C6B44EA036343EA02420A6310BC704713
:1011700000EB81110869704700EB8111086A704724
:1011800010B4AC2303600B684A68B3FBF2F31B098D
:101190005C1E4FF6FE7294420AD803628B6843606D
:1011A00040F20223C0F8203150230360002000E009
:1011B000012010BC704700BF436913F0020F1ABF33
:1011C000C161002001207047436913F0010F1DBF6A
:1011D00083690B7000200120704700BF436913F042
:1011E000020F1DBFC1F30801C1610020012070473B
:1011F000436913F0010F05D08369C3F308030B6043
:101200000020704701207047FEE700BF08B51E4B65
:101210001E4A9A4203D01E4B1B4A9A4204D31D4BCE
:101220001D4A9A420FD31AE017491C4B5B1A23F050
:1012300003030433154A134452F8040B41F8040B1A
:101240009A42F9D1EBE7164B164AD21A22F0030262
:101250001A44043B002143F8041B9342FBD1124B78
:1012600023F0604222F07F0210498A6003F160435C
:10127000B3F5C04F03D28B6843F000538B600C4B27
:1012800098470C4B9847FEE70000002048A240001A
:101290009C090020340E00209C0900209B0900209E
:1012A000A0090020370E00200000400000ED00E003
:1012B00011304000512A4000394B1B6B03F00303EF
:1012C000012B0FD013B1022B29D051E0354B5B69B4
:1012D00013F0800F14BF4FF400424FF4FA42324B28
:1012E0001A6045E02E4B1B6A13F0807F03D02F4A13
:1012F0002D4B1A603CE02E4A2B4B1A60284B1B6A80
:1013000003F07003102B02D0202B04D030E0294AC8
:10131000254B1A602CE0254A234B1A6028E0204B0D
:101320001B6A13F0807F03D0204A1F4B1A6012E023
:101330001F4A1D4B1A601A4B1B6A03F07003102BD7
:1013400002D0202B04D006E01A4A174B1A6002E0A4
:10135000164A154B1A60124A936A926A1248C3F3EE
:101360000A41036801FB0333D2B2B3FBF2F303601B
:101370000B4B1B6B03F07003702B07D10A4A1368E9
:101380000D49A1FB03135B0813607047044B1B6BF3
:101390000549C3F302120B68D3400B60704700BFCE
:1013A00000040E4010140E40F0000020001BB70097
:1013B00000093D0000127A00ABAAAAAA094B1B68DB
:1013C00013B9094A074B1A60064B1B681A180749DC
:1013D000914204DB1046034A1060184670474FF0F4
:1013E000FF307047900B002038160020FC5F002073
:1013F0004FF0FF30704700BF4FF400534B600020A8
:10140000704700BF012070470020704700F10803BB
:1014100043604FF0FF328260C360036100230360CA
:10142000704700BF00230361704700BF43685A68DC
:101430004A6042688A605A689160596041600861F8
:10144000036801330360704710B40C68B4F1FF3FC8
:1014500001D103690AE000F10803C26812689442EE
:1014600004D35B685A6812689442FAD25A684A6098
:1014700091608B605960086103680133036010BCA0
:10148000704700BF436882689A60836842685A6008
:1014900003695A68904204BF82685A600022026160
:1014A0001A68013A1A6070474FF0807340F8043CA4
:1014B00040F8081C002340F80C3C40F8202C403831
:1014C000704700BF064B19680868B0E8F00F80F35A
:1014D00009884FF0000080F311884EF00D0E704720
:1014E000340C002002480068006880F3088800DFA0
:1014F00008ED00E010B50C4B1A6842F470021A6057
:101500001A6842F070421A604BF67F32A3F60C5311
:101510001A600722043B1A600024044B1C60044B31
:101520009847204610BD00BF20ED00E0F4000020E9
:10153000E51440004FF08052014B1A60704700BF25
:1015400004ED00E04FF0500080F31188024A136868
:1015500001331360704700BFF4000020044A136891
:10156000013B13601BB94FF0000080F311887047F6
:10157000F4000020EFF309800C4B1A6820E9F00F0B
:1015800010602DE908404FF0500080F3118800F002
:101590007DFD4FF0000080F31188BDE80840196818
:1015A0000868B0E8F00F80F309887047340C002019
:1015B00008B54FF0500080F31188034B98474FF067
:1015C000000080F3118808BD791D400010B5044665
:1015D000044B98472046044B98470446034B9847D2
:1015E000204610BD5D1D400089304000951E400022
:1015F00048B110B50446044B98472046034B984722
:10160000034B984710BD70475D1D40009930400066
:10161000951E400010B50446036C3BB903681BBB24
:101620004068134B9847002363601DE06AB91A466F
:101630008068104B9847A268236C1344A3606268CB
:10164000934211D32368A3600EE01A46C068094B89
:101650009847236C5B42E2681A44E26021688A4240
:1016600002D262681344E360A36B0133A36310BD2D
:10167000952340006536400038B50346006858B1F0
:101680001A6CDC681444DC605D68AC4228BFD8602A
:101690000846D968014B984738BD00BF6536400001
:1016A000F8B504461D4B9847A36C002B12DD636A06
:1016B0001BB90FE0636A23B90CE004F12406184D4E
:1016C000184F3046A84700B1B847A36C013BA3644C
:1016D000002BEFDC4FF0FF33A364134B98470F4B05
:1016E0009847636C002B12DD23691BB90FE0236957
:1016F00023B90CE004F11006094D0A4F3046A84703
:1017000000B1B847636C013B6364002BEFDC4FF022
:10171000FF336364044B9847F8BD00BF4515400094
:101720000D224000052340005D154000F8B540B390
:1017300007460E464C20144B9847044610B306FB50
:1017400007F5681C104B98472060A8B143196360E7
:101750000023A363A060AD1B0544E560E763266436
:101760004FF0FF336364A36404F11000074DA847F2
:1017700004F12400A84705E02046054B98470024C3
:1017800000E000242046F8BDCD1540000D144000B7
:10179000F11540002DE9F04F85B004468B460192CB
:1017A00000934FF00009324DDFF8ECA0314EA8470E
:1017B000A26BE36B9A4212D2009A594620462E4BF6
:1017C0009847636A3BB104F124002C4B98470128E9
:1017D00001D12B4B9847274B9847012044E0019BB0
:1017E0001BB9244B984700203EE0B9F1000F03D10C
:1017F00002A8D0474FF00109B047224B9847A847AD
:10180000636CB3F1FF3F04BF00236364A36CB3F1C7
:10181000FF3F04BF0023A364B04701A902A81A4BED
:101820009847D8B9A847D4F83880E76BB047B8458F
:101830000ED1019904F11000144B98472046144B27
:101840009847144B98470028B1D10D4B9847AEE705
:1018500020460F4B98470F4B9847A8E720460C4B64
:1018600098470C4B9847002005B0BDE8F08F00BFAB
:10187000451540005D154000151640000D22400042
:10188000351540005D1D400099224000BD214000FB
:10189000A1164000951E40008122400038B5044644
:1018A0004FF0500080F31188A56BE06B854216D293
:1018B00015461A4620460F4B9847A36CB3F1FF3FDD
:1018C00009D1636A6BB104F124000B4B984750B106
:1018D00001232B6008E00133A364012304E000230B
:1018E00002E0012300E001234FF0000080F31188A3
:1018F000184638BD151640000D2240002DE9F04F66
:1019000085B004468A460192994600273D4DDFF88E
:1019100024813D4EA847A36B43B3E568514620465A
:101920003A4B9847B9F1000F12D1A36B013BA36367
:10193000236813B9364B98476060236993B104F16B
:101940001000344B984701280CD1334B984709E0DD
:10195000E560636A33B104F124002E4B984708B167
:101960002D4B9847284B9847012048E0019B1BB915
:10197000254B9847002042E017B902A8C04701272D
:10198000B047264B9847A847636CB3F1FF3F04BFAD
:1019900000236364A36CB3F1FF3F04BF0023A3647F
:1019A000B04701A902A81E4B984710BBA847D4F81E
:1019B00038B0B047BBF1000F15D1236823B9A84751
:1019C0006068184B9847B047019904F12400164B02
:1019D00098472046154B9847154B9847002899D1B2
:1019E0000D4B984796E72046104B9847104B984769
:1019F00090E720460D4B98470D4B9847002005B0C7
:101A0000BDE8F08F451540005D1540007916400097
:101A1000112340000D224000351540005D1D40009F
:101A2000992240001D234000BD214000A116400026
:101A3000951E40008122400010B50F4B1B68586076
:101A40000E4B1B68984207D20D4B18680A4B196859
:101A500004310C4B984710BD04460B4B1868064BDD
:101A600019680431074B9847084B1B689C423CBFE0
:101A7000064B1C6010BD00BF340C0020980B0020EA
:101A8000000C002049144000080C0020FC0000203D
:101A900008B5024D024CA847A047FCE735154000A9
:101AA000D92940002DE9F04F87B005900D469346A7
:101AB0004B685B684B6001F10807BB4204BF5B6881
:101AC0004B604B68D3F80CA0DFF86490164EDFF83B
:101AD00064806B685B686B609F4204BFEB686B60FF
:101AE0006B68DC68226B1378A52B07D100230133C8
:101AF0009BB212F8011FA529F9D000E00023E26A89
:101B0000616C02919B08019300925B4604F13402E0
:101B100049463046C04731460598044B9847A24590
:101B2000D7D107B0BDE8F08F380C0020C539400090
:101B3000FC9C4000793940002DE9F04F83B083468A
:101B40000E4615460193DDF830A0DDF834900E9F67
:101B50004C20564B9847002800F0A2800446002FE6
:101B600040F09B80A800514B9847206318B920464D
:101B70004F4B984794E0AA00A5214E4B984705F19A
:101B80008045013D236B03EB850525F007051022F9
:101B9000314604F13400484B9847002384F8433021
:101BA0005646042E28BF0426E662A664271D384642
:101BB000DFF85081C04704F11800C0472461C6F126
:101BC0000506A6616462019A594628463B4B984730
:101BD0002060B9F1000F01D0C9F80040384B984798
:101BE000384A136801331360374B1B68FBB9364B17
:101BF0001C601368012B24D1344D05F16408344E68
:101C00002846B04714354545FAD1DFF8FC804046F8
:101C10002F4DA8472F4E3046A8472F48A8472F489A
:101C2000A8472F4BC3F800802E4B1E6009E02E4BB7
:101C30001B6833B9244B1B68DB6A9A4524BF224BCF
:101C40001C60E06A294B1B68984284BF274B1860D0
:101C5000274A1368636401331360264B1B6898425C
:101C600084BF244B186000EB80003946174B03EB10
:101C70008000214B9847214B98471B4B1B6843B171
:101C8000114B1B68DB6A9A4505D91D4B984701200B
:101C900008E0012006E0012004E0076338466AE717
:101CA0004FF0FF3003B0BDE8F08F00BFCD1540000E
:101CB000F1154000513740001D3B4000A914400081
:101CC000451540000C0C0020340C00209C0B00201B
:101CD0000D144000940C0020100C00206C0C00200F
:101CE000080C0020000C0020240C0020B80C002060
:101CF0002C0C0020940B00202D1440005D1540009A
:101D00003515400025144000800C002010B584B02B
:101D100000230393029301930093462209490A4842
:101D20000A4CA04701280BD14FF0500080F31188D6
:101D30000122074B1A600022064B1A60064B984797
:101D400004B010BD109D4000911A4000391B4000A6
:101D5000240C0020980B0020F5144000024A136860
:101D600001331360704700BFA80C0020014B1868B6
:101D7000704700BF0C0C00202DE9F041394B1B6867
:101D8000002B61D1384B1A6801321A601B68C3B945
:101D9000364B1968364A10681860116035490A6870
:101DA00001320A601B681B6823B94FF0FF32324BC7
:101DB0001A6006E02D4B1B68DB68DB685A682E4B07
:101DC0001A60294B1A682C4B1B689A4242D3274B46
:101DD0001B681B686BB1254B1B68DB68DC6863689C
:101DE000214A1268934212D8244E254FDFF8A08072
:101DF00010E04FF0FF32204B1A602BE01B4B1B68AA
:101E0000DB68DC686368184A1268934202D91A4A90
:101E100013601FE0251D2846B047A36A13B104F1E3
:101E20001800B047E06A3B68984288BF386000EB12
:101E30008000294608EB8000124B98470B4B1B682B
:101E40001B68002BDAD1D4E70F4A13680133136003
:101E50000E4B98470C4B1B680BB90C4B9847BDE8D1
:101E6000F08100BFA80C0020980B0020080C002077
:101E7000000C0020B40C0020FC0000208514400061
:101E8000940B00202D144000AC0C0020DD294000F4
:101E90009C0B00202DE9F8432C4B98472C4B1A68DB
:101EA000013A1A601B68002B48D12A4B1B6803BB00
:101EB000002446E0FB68DC6804F11800C047251DDB
:101EC0002846C047E06AD9F80030984288BFC9F870
:101ED000000000EB800029461F4B03EB80001F4BE6
:101EE00098471F4B1B68E26ADB6A9A4228BF0126AB
:101EF00005E000261B4FDFF88480DFF884903B6804
:101F0000002BD7D1184B1B685BB1174B1B6843B133
:101F1000164D154CA8472368013B23602368002B0E
:101F2000F8D1012E03D0124B1B68012B08D10022DF
:101F30000F4B1A600F4B9847012402E0002400E089
:101F400000240D4B98472046BDE8F8834515400016
:101F5000A80C00200C0C00209C0B00202D1440002D
:101F6000340C0020100C0020AC0C0020791D400027
:101F7000280C0020351540005D15400085144000F8
:101F8000940B002010B580B10446094B9847094BCB
:101F90001B681C44084B18680430084B98472046BF
:101FA000074B9847074B984708B9074B984710BD10
:101FB0005D1D4000980B0020340C0020851440006B
:101FC000391A4000951E4000351540002DE9F843B0
:101FD0000646244B9847002333703046224B9847DF
:101FE0003218224B19889B7831529370204B1C6811
:101FF000013404EB84051F4B03EB8505143D1F469C
:102000004FF05209DFF87480013C04EB840357F869
:1020100023301BB14A4629463046C047143D002CA8
:10202000F2D1154B1B681B682BB1134B1968422268
:102030003046124B9847124B1B681B682BB1104B54
:102040001968422230460D4B98470E4B1B6823B14E
:1020500053220C493046094B98470B4B9847BDE833
:10206000F88300BF5D1D4000C13A4000D49E40008F
:10207000B80C00209C0B0020080C0020A51A400082
:10208000000C00206C0C0020951E40003E4B1B688D
:102090001BB101223D4B1A60704710B53C4B1A68CA
:1020A0001B6812681B6B9A4205D8394B186819686F
:1020B0003431384B9847364B1B6814223649186B1D
:1020C000364B984728B1324B186819683431314B78
:1020D0009847334B1B6803EB83039B00314AD3586B
:1020E0005BB92F4A2F491368013B1360136803EB58
:1020F000830351F82330002BF5D0294B1B68294A64
:102100009900C81802EB8000446864684460024685
:102110000832944206D1606803EB8302214901EB47
:102120008202506003EB83031E4A02EB83035B6869
:10213000DA68174B1A601C4B1B681BB3144B1B68E7
:102140005A6C1A4B1B689A421CD0194B1B680833F7
:10215000184A12689A4212D90D4B1B68596C134BDE
:102160001960134B1A681448006810601A6804322A
:102170001A601A6811601A6804321A6010BD0022D1
:10218000094B1A6010BD00BFA80C0020280C0020CD
:10219000340C0020C1294000189D40000136400049
:1021A000940B00209C0B0020040C0020F800002061
:1021B000300C0020B00C0020980B002038B50D46E4
:1021C0000B4C216818310B4B9847206804300A4BA0
:1021D0009847B5F1FF3F05D1216804310748084B06
:1021E000984738BD074B18682844074B984738BDB7
:1021F000340C002049144000851440006C0C002071
:102200002D144000980B0020391A400038B5C368DF
:10221000DC6804F118052846124B9847124B1B68DE
:102220009BB9251D28460F4B9847E06A0F4B1B684A
:10223000984284BF0D4B186000EB800029460C4B80
:1022400003EB80000B4B984703E029460A48094BF3
:1022500098470A4B1B68E06ADB6A984234BF00204B
:10226000012038BD85144000A80C0020940B0020EC
:102270009C0B00202D144000100C0020340C00207A
:10228000034B1B680360034B1B684360704700BF30
:10229000B40C0020980B002038B504460D46144BB2
:1022A00098472B68B3F1FF3F19D0124A1268216892
:1022B000914204D0104A12686168914211D90E4AC5
:1022C00012686168521A93420DD90B4A1268511A6A
:1022D0005B1A2B602046094B9847002404E0002439
:1022E00002E0012400E00124054B9847204638BD58
:1022F00045154000B40C0020980B002081224000BE
:102300005D1540000122014B1A607047280C002027
:10231000014B1868704700BF340C002038B5C36A01
:10232000174A1268D26A934229D2154A1268D26AB1
:10233000C2F10502826103EB8303124A02EB8303BD
:1023400042699A4217D10546041D20460E4B984714
:102350000B4B1B68D86AE8620C4B1B68984284BF21
:102360000A4B186000EB80002146064B03EB80000F
:10237000074B984738BD024B1B68DB6AC36238BD08
:10238000340C00209C0B002085144000940B00208E
:102390002D144000E8B138B5C16A826C914217D063
:1023A0000446051D28460B4B9847A06CE062C0F11F
:1023B0000503A361084B1B68984284BF064B186055
:1023C00000EB80002946054B03EB8000044B984747
:1023D00038BD704785144000940B00209C0B0020F2
:1023E0002D14400008B5014B984708BD99054000E1
:1023F00010B5094CB0232360DC2363600023A36085
:102400006FF07F43E360054B98472046044B9847A5
:102410000820044B984710BD200E002009044000FE
:1024200051064000AD03400038B56FF07F40154CB9
:10243000A047DC23B02200210846134DA847134BC8
:10244000984700210846124B9847FF20A047114AA1
:102450000A210846104B98474FF47F00A0471E22E0
:1024600050213C200D4DA8474FF47F40A0471E222D
:1024700078213C20A847FF20A0471E22A0213C2015
:10248000A84738BDD505400055084000B1054000BB
:10249000390640002C9D4000AD0940000D09400068
:1024A00008B500210448054B98472E20044B984757
:1024B0000448054B984708BD0000014079114000D1
:1024C000D50B4000389D40006130400070B58EB0A3
:1024D0001B481C4B984700211B481C4B98471C4C21
:1024E00020606FF07F401B4DA847DC23B0221E21E7
:1024F0000020194EB047FF20A847184A23210A2080
:10250000174DA8472268174901A8174B984701AAF9
:1025100023215F20A8472E20144B984700231A46FA
:10252000214613480068134CA047012802D01248E6
:10253000044B98471148034B98470EB070BD00BF3D
:102540005C9D40006130400000000140711140007E
:10255000C00D0020D5054000550840006C9D40008E
:10256000AD094000709D400079394000D50B400016
:10257000C80D00209D184000749D40009C9D4000A7
:102580002DE9F04190B000220023CDE90E23DFF8C1
:102590007C800025144F2B464FF0FF320EA9D8F84F
:1025A0000000B847012802D01048114B98476FF03F
:1025B0007F40104CA047DC23B0226E2128460E4EEF
:1025C000B047FF20A0470D4A73210A200C4CA047BA
:1025D000DDE90E230B4901A80B4EB04701AA732178
:1025E0005F20A047D7E700BFFD184000AC9D40002A
:1025F00061304000D505400055084000D49D4000A2
:10260000AD094000D89D400079394000BC0C002045
:102610002DE9F04F93B000220023CDE91023CDE93E
:102620000E232D4E2D4F00234FF0FF3210A930689E
:102630002B4CA047012801D02A48B8476FF07F40B3
:10264000294DA847DC23B02246210020DFF8B4A0A2
:10265000D047FF20A847254A4B210A20244CA047F9
:10266000DFF8A490DDE91023494601A8DFF89C803B
:10267000C04701AA4B215F20A047DDE91023104687
:102680001946DFF88CB0D847CDE90E016FF07F40D6
:10269000A847DC23B0225A210020D047FF20A847BA
:1026A000144A5F210A20A04712AD75E90423494668
:1026B00001A8C04701AA5F210846A04700234FF0A8
:1026C000FF3229460C4800680C4CA0470128AAD0CC
:1026D0000B48B847A7E700BFC40D00206130400099
:1026E000FD184000E09D4000D5054000089E4000D8
:1026F000AD094000109E4000BC0C00209517400022
:10270000189E400055084000D89D4000793940008F
:10271000AD2C40002DE9F04792B000231193002228
:102720000023CDE90E2300244FF02308DFF8189191
:1027300021463148314B98471720314DA847404634
:10274000304B98471720A84723464FF0FF3211A976
:102750002D4800682D4DA847012802D02C482D4B4C
:1027600098476FF07F402C4EB047DC23B0221E21EB
:102770002046DFF8D8A0D047FF20B047274A41467F
:102780000A20274DA847119A264901A8264FB84785
:1027900001AA41465F20A8471198A9FB00304009D3
:1027A000224B9847CDE90E016FF07F40B047DC2304
:1027B000B02232212046D047FF20B0471C4A3721A3
:1027C0000A20A84712AE76E904231A4901A8B8479F
:1027D00001AA37215F20A84723464FF0FF32314638
:1027E00015480068154DA847012802D01448094B28
:1027F0009847144B98479BE700000140791140002F
:10280000810B400001000020C80D0020FD18400091
:102810003C9E400061304000D50540006C9D40006A
:10282000AD094000709D400079394000252F4000DF
:10283000689E4000D89D4000C40D002095174000C0
:102840006C9E40003515400009CB3D8D5508400079
:1028500008B51726034D044C3046A8474FF47A704C
:10286000A047F9E7D50B4000851F400080B5094F10
:10287000094E0A4DB84701463046A847084C204645
:10288000084B98472046A8474FF47A70064B984764
:10289000F0E700BF6D1D4000949E40006130400095
:1028A000C00C0020CD1F4000851F4000F0B583B054
:1028B00005460C4600230193184B984207D11F464A
:1028C000174E21463846B0470028FAD117E0154B7D
:1028D000984207D11E46124D21463046A84700288F
:1028E000FAD118E0104B984209D11E460F4D01A9AC
:1028F0003046A8470028FAD1019B23700BE00C4B0F
:102900009D4208D11E46094D01A93046A84700281E
:10291000FAD1019B237003B0F0BD00BF00060E404A
:10292000C911400000080E4000400240F111400073
:102930000080024070B50C46184B984208D11E46E4
:10294000174D21463046A8470028FAD1012070BD16
:10295000144B984208D11E46114D21463046A847D7
:102960000028FAD1012070BD0F4B984208D11E46B5
:102970000E4D21463046A8470028FAD1012070BDEF
:102980000B4B984208D11E46084D21463046A847B9
:102990000028FAD1012070BD002070BD00060E4055
:1029A000B911400000080E4000400240DD11400017
:1029B0000080024008B5014B984708BDB1154000A2
:1029C00008B50A4601460248024B9847FEE700BF99
:1029D000A49E400061304000704700BF704700BFB8
:1029E00070B582B01148124DA847124C09224FF41D
:1029F00000412046104B9847104B009370234FF432
:102A000000420B2120460E4EB0474FF400412046B5
:102A10000C4B98470C4B102283F80B234FF40062A9
:102A20001A600A48A84702B070BD00BFBC9E4000B3
:102A300061304000000E0E40E90A4000CD24400005
:102A4000490E4000750B400000E100E0D89E4000B8
:102A500070B588B0604B9847604B9847604C614BAD
:102A60001C60614A614B1A60614A624B1A60624B9A
:102A700005934FF4E13306934FF400630793082066
:102A80005E4B984705A920465D4B98475D4D2B68E6
:102A9000002198685C4CA0472B6800215868A0472B
:102AA00004210520594CA047594B186008210520E6
:102AB000A047584B186008210520A047564B1860C6
:102AC0005648574CA047574B9847574B9847574B3A
:102AD00098476FF07F40564DA847DC23B0221E2157
:102AE0000020544EB047FF20A847534A23210A2014
:102AF000524B98475248A04752495348A047534A1F
:102B000053495448A0470023039302930193009331
:102B10004FF4007250495148514CA047012802D04F
:102B200050483F4B9847002303930293019300932F
:102B30004FF480724C494D48494CA047012802D0BF
:102B40004B48374B9847002303930293019301228C
:102B500000924FF4407247494748414CA047012832
:102B600002D046482E4B98470023039302930193CB
:102B7000012200924FF4407241494248384CA0472C
:102B8000012802D04048264B984700230393029324
:102B90000193012200924FF440723C493C48304C72
:102BA000A047012802D03B481D4B98476FF07F405B
:102BB0001F4CA047DC23B022462100201D4DA84712
:102BC000FF20A047344A4B210A201C4B9847334B27
:102BD0009847002008B070BD21014000110340005B
:102BE00000060E40080E002035294000040E00208B
:102BF000AD284000000E0020006CDC02DD0F40001C
:102C00008111400028050020193840002D17400090
:102C1000C80D0020C40D0020BC0C0020F89E400010
:102C200061304000E1294000F123400029244000A8
:102C3000D505400055084000089F4000AD09400000
:102C4000189F4000349F4000409F4000489F400034
:102C5000549F4000609F4000789F40006D284000D6
:102C6000391B4000809F4000A09F40005128400039
:102C7000A49F4000C89F400015274000D49F4000FB
:102C8000F89F4000112640000CA0400038A04000F2
:102C90008125400044A0400068A040000D1D400078
:102CA00081F0004102E000BF83F0004330B54FEAFD
:102CB00041044FEA430594EA050F08BF90EA020F6A
:102CC0001FBF54EA000C55EA020C7FEA645C7FEAFD
:102CD000655C00F0E2804FEA5454D4EB5555B8BF20
:102CE0006D420CDD2C4480EA020281EA030382EA91
:102CF000000083EA010180EA020281EA0303362D23
:102D000088BF30BD11F0004F4FEA01314FF4801CF5
:102D10004CEA113102D0404261EB410113F0004F07
:102D20004FEA03334CEA133302D0524263EB4303BE
:102D300094EA050F00F0A780A4F10104D5F1200E5C
:102D40000DDB02FA0EFC22FA05F2801841F10001B7
:102D500003FA0EF2801843FA05F359410EE0A5F18B
:102D600020050EF1200E012A03FA0EFC28BF4CF0BC
:102D7000020C43FA05F3C01851EBE37101F0004572
:102D800007D54FF0000EDCF1000C7EEB00006EEB7F
:102D90000101B1F5801F1BD3B1F5001F0CD3490809
:102DA0005FEA30004FEA3C0C04F101044FEA445260
:102DB00012F5800F80F09A80BCF1004F08BF5FEAE7
:102DC000500C50F1000041EB045141EA050130BDC7
:102DD0005FEA4C0C404141EB010111F4801FA4F16A
:102DE0000104E9D191F0000F04BF01460020B1FABF
:102DF00081F308BF2033A3F10B03B3F120020CDAF7
:102E00000C3208DD02F1140CC2F10C0201FA0CF0D4
:102E100021FA02F10CE002F11402D8BFC2F1200C39
:102E200001FA02F120FA0CFCDCBF41EA0C019040EF
:102E3000E41AA2BF01EB0451294330BD6FEA040438
:102E40001F3C1CDA0C340EDC04F11404C4F1200223
:102E500020FA04F001FA02F340EA030021FA04F335
:102E600045EA030130BDC4F10C04C4F1200220FA8C
:102E700002F001FA04F340EA0300294630BD21FACA
:102E800004F0294630BD94F0000F83F4801306BF90
:102E900081F480110134013D4EE77FEA645C18BF84
:102EA0007FEA655C29D094EA050F08BF90EA020F1B
:102EB00005D054EA000C04BF1946104630BD91EA13
:102EC000030F1EBF0021002030BD5FEA545C05D116
:102ED0004000494128BF41F0004130BD14F5800455
:102EE0003CBF01F5801130BD01F0004545F0FE41C9
:102EF00041F470014FF0000030BD7FEA645C1ABFFE
:102F0000194610467FEA655C1CBF0B46024650EA34
:102F1000013406BF52EA033591EA030F41F4002160
:102F200030BD00BF90F0000F04BF0021704730B5E6
:102F30004FF4806404F132044FF000054FF00001BB
:102F400050E700BF90F0000F04BF0021704730B57C
:102F50004FF4806404F1320410F0004548BF404251
:102F60004FF000013EE700BF42004FEAE2014FEAA6
:102F700031014FEA02701FBF12F07F4393F07F4F81
:102F800081F06051704792F0000F14BF93F07F4FB3
:102F9000704730B54FF4607401F0004521F00041F6
:102FA00020E700BF50EA010208BF704730B54FF07C
:102FB00000050AE050EA010208BF704730B511F081
:102FC000004502D5404261EB41014FF4806404F1B9
:102FD00032045FEA915C3FF4DCAE4FF003025FEA3B
:102FE000DC0C18BF03325FEADC0C18BF033202EBC3
:102FF000DC02C2F1200300FA03FC20FA02F001FA1D
:1030000003FE40EA0E0021FA02F11444C1E600BFBB
:1030100070B50F4E0F4D761BB61018BF002405D0AB
:10302000013455F8043B9847A642F9D10A4E0B4D9E
:1030300007F0F4F8761BB61018BF002406D0013450
:1030400055F8043B9847A642F9D170BD70BD00BF4A
:1030500028A2400028A2400030A2400028A2400040
:103060000FB410B5074B82B004AC54F8042B1868A9
:1030700023468168019402F06FF902B0BDE8104068
:1030800004B0704728050020024B0146186800F084
:103090000BB800BF28050020024B0146186804F059
:1030A000B5BA00BF280500202DE9F04F01F10B054E
:1030B000162D83B0064640F2A08035F0070500F1DA
:1030C000C080A94200F2BD8000F090FBB5F5FC7F06
:1030D000C0F090826B0A00F0BB80042B00F2778175
:1030E000A80900F1390E4FEA4E013830BE4F07EB08
:1030F00081014C680839A14207D1AEE0002A80F274
:10310000AE80E468A14200F0A880636823F0030366
:103110005A1B0F2AF2DDB4493C6901F1080E7445CF
:1031200000F0A881636823F003035A1B0F2A00F301
:103130008E81002AC1F814E0C1F810E080F293807B
:10314000B3F5007F80F05C81DB084A684FEAA30991
:103150004FF0010C013351F833800CFA09F901EBFF
:10316000C30C49EA0202ACF1080CC4F80CC0C4F864
:1031700008804A6041F83340C8F80C4083100124AD
:103180009C4094427CD8144206D120F00300640095
:10319000144200F10400FAD007EBC009CC46804687
:1031A000DCF80C108C4507D166E1002A80F27481AE
:1031B000C9688C4500F060814B6823F003035A1BFB
:1031C0000F2AF2DD0C46CB6854F808CF45F0010811
:1031D000C1F804800D4442F00101CCF80C303046B7
:1031E000C3F808C07D613D61C5F80CE0C5F808E092
:1031F0006960AA5000F0FCFA1FE0102921D800F005
:10320000F5FA102506230220774F07EB83035C684D
:10321000A3F10802944200F038816368E16823F06A
:10322000030323445A68A56842F00102E96030466E
:103230008D605A6000F0DCFA0834204603B0BDE827
:10324000F08F002420460C23336003B0BDE8F08FDC
:1032500080214FF0400E3F2048E770465BE7234453
:103260005A68E168DFE723445A68304642F00102B9
:103270005A60083400F0BCFA204603B0BDE8F08F75
:10328000BC68636823F00308A84504D3C5EB0803B2
:103290000F2B00F38C80554BDFF860911A68D9F83A
:1032A00000302A44013304EB080A00F0608102F583
:1032B00080520F3222F47F6222F00F021146304614
:1032C000019200F097FAB0F1FF3F8346019A00F0B7
:1032D0005881824500F2FC80454BDA45196811445B
:1032E000196000F05381D9F80000DFF810E10130D7
:1032F0001BBFCAEB0B0A5144CEF800B019601BF09B
:10330000070100F01781C1F10800C1F58051834425
:1033100008315A44C2F30B02C2EB01094946304658
:10332000019300F067FA431C019B00F03F81CBEB57
:1033300000024A4442F001021968BC424944C7F8FD
:1033400008B01960CBF80420DFF8A49016D0B8F1CB
:103350000F0F40F2FD806268A8F10C0323F0070311
:1033600002F00102E0184FF0050E1A430F2B6260C5
:10337000C0F804E0C0F808E000F21C811D4BBC68F6
:103380001A68914288BF19601B4B1A6891426268A3
:1033900088BF196022F003029542A2EB050301D811
:1033A0000F2B04DC304600F023FA002445E745F0FB
:1033B000010243F00103254462603046BD600834D9
:1033C0006B6000F015FA204603B0BDE8F08F142BB7
:1033D00071D9542B00F2A480280B00F16F0E4FEA34
:1033E0004E016E3082E600BF2C050020D40D002077
:1033F000D80D0020D00D0020CC0D00203809002071
:103400005A0A042A5ED9142A00F2B38002F15C0140
:1034100049005B3207EB810C57F82110ACF1080C26
:103420008C45DFF8D88100F088804A6822F00302DA
:10343000934202D289688C45F7D1D1F80CC07A68E2
:10344000C4F80CC0A160CCF80840CC6096E645F00A
:10345000010742F001032544676030464D610D616C
:10346000C5F80CE0C5F808E06B60AA50083400F01D
:10347000BFF9E2E64A6881E608F1010818F0030F97
:103480000CF1080C7FF48CAE30E0DC68A34208BF7E
:1034900002303FF440AEC0E60C460B445A68C9689F
:1034A00054F8085F42F001025A603046E9608D60CE
:1034B00000F09EF9C1E603F15C0E03F15B004FEAF8
:1034C0004E0113E69A0902F1390149003832A1E7A9
:1034D000BC424A4B3FF400AF9C68626822F0030292
:1034E0005AE759F80839994540F0828010F0030FE7
:1034F00000F1FF30F5D17B6823EA04037B606400B0
:103500009C423FF6BDAE002C3FF4BAAE1C42404692
:103510007FF442AE64001C4200F10400FAD03BE6A6
:10352000B3F5AA7F18D8E80B00F1780E4FEA4E01E8
:103530007730DBE54FF48051EBE60121D8F8043019
:10354000921001FA02F21A43C8F80420614677E7A4
:103550000123CBF8043025E740F25452934220D89F
:10356000A80C00F17D0E4FEA4E017C30BEE5103212
:10357000A4E6542A26D81A0B02F16F0149006E32D4
:1035800048E7BC68626822F0030205E7CAF30B0053
:1035900000287FF4A8AE4244BB6842F001025A60A2
:1035A000ECE6FE214FF07F0E7E209FE501224FF0DA
:1035B0000009C1E604F10801304604F027F8D9F803
:1035C0000010DBE6B2F5AA7F05D8DA0B02F178012C
:1035D000490077321EE740F254518A4205D89A0CCE
:1035E00002F17D0149007C3214E7FE217E2211E7C1
:1035F0007B6884E7E808431C5B0005E62C05002097
:10360000032A70B426D940EA01039B0711D004783D
:103610000D78AC4222D10244431C05E013F8014B63
:1036200011F8015FAC4219D19342F7D1002070BC70
:1036300070470C4603461E6825681846AE42214670
:1036400003F1040304F10404E1D1043A032A184607
:103650002146F0D8002ADAD11046E8E7601B70BC9A
:10366000704700BF844641EA000313F0030349D1C9
:10367000403A23D30B6803604B6843608B688360D8
:10368000CB68C3600B6903614B6943618B698361DC
:10369000CB69C3610B6A03624B6A43628B6A8362C4
:1036A000CB6AC3620B6B03634B6B43638B6B8363AC
:1036B000CB6BC36340304031403ADBD230320BD366
:1036C0000B6803604B6843608B688360CB68C360A2
:1036D00010301031103AF3D20C3205D351F8043BBC
:1036E00040F8043B043AF9D2043208D0D2071CBF98
:1036F00011F8013B00F8013B01D30B8803806046C1
:10370000704700BF082A13D38B07B1D010F0030312
:10371000AED0C3F10403D21ADB071CBF11F8013B82
:1037200000F8013BA4D331F8023B20F8023B9FE7AD
:10373000043AD9D3013A11F8013B00F8013BF9D220
:103740000B7803704B7843708B78837060467047BA
:1037500070B4840746D0541E002A41D0CDB203462F
:1037600002E0621EE4B3144603F8015B9A07F8D145
:10377000032C2ED9CDB245EA05250F2C45EA054587
:1037800019D9264603F11002103E0F2E42F8105CA4
:1037900042F80C5C42F8085C42F8045C02F110024A
:1037A000F2D8A4F1100222F00F0204F00F0410323C
:1037B000032C13440DD91E462246043A032A46F828
:1037C000045BFAD8221F22F003020432134404F0EF
:1037D00003042CB1C9B21C4403F8011BA342FBD162
:1037E00070BC704714460346C2E700BF704700BF75
:1037F000704700BF38B5074C0023054608462360D4
:10380000FDF7DCFD431C00D038BD2368002BFBD046
:103810002B6038BD300E002000290CBF0222002290
:103820004FF4806300F000B82DE9F043514D83B0B0
:103830002D6804460F4690461E4615B1AB6B002B13
:1038400079D0B8F1020F04D0B8F1010F7FD8002E63
:103850007DDB2146284603F07DFD216B41B104F15B
:103860004003994202D0284603F0D0FE0023236390
:10387000B4F90C300022A26162601A0654D423F419
:103880004A6323F00303B8F1020FA38139D001ABDF
:103890006A462146284604F05BF9A3891843A081B3
:1038A00026B327B3AB6B002B4DD0009BB4F90C00B3
:1038B0009E421CBF40F40060A081B8F1010F08BF18
:1038C00040F0010083B208BFA08103F0080080B27D
:1038D00027602761666118B313F001002FD0002024
:1038E0007642A661A06003B0BDE8F083009E30463A
:1038F000FFF7CAFB074668B3A38943F08003A3819F
:10390000D0E7002004F1430243F002030025012127
:10391000A381A56022602261616103B0BDE8F083EC
:10392000A06003B0BDE8F0832169284603F06EFE75
:10393000B4F90C30A3E7284603F0A0FD81E7A660A8
:1039400003B0BDE8F083284603F098FDADE74FF0E3
:10395000FF30E2E7DDF80090B14506D04846FFF7BA
:1039600093FB074608B14E46C6E7B4F90C304FF05A
:10397000FF30C7E7280500200EB40146F0B54FF62A
:10398000FF779CB021AC54F8042B0D4823466FF010
:103990000045029106914FF4027602A90068019455
:1039A000ADF81670ADF814600495079500F0EAF8CC
:1039B000029B00221A701CB0BDE8F04003B07047B3
:1039C00028050020830710B5044610D10268A2F133
:1039D000013323EA020313F0803F08D150F8042F8B
:1039E000A2F1013323EA020313F0803FF6D00378FB
:1039F0001BB110F8013F002BFBD100F003F820466B
:103A000010BD00BF80EA0102844612F0030F4FD1BF
:103A100011F0030F32D14DF8044D11F0040F51F89D
:103A2000043B0BD0A3F101329A4312F0803F04BF54
:103A30004CF8043B51F8043B16D100BF51F8044B3D
:103A4000A3F101329A4312F0803FA4F101320BD16D
:103A50004CF8043BA24312F0803F04BF51F8043BF2
:103A60004CF8044BEAD023460CF8013B13F0FF0F4F
:103A70004FEA3323F8D15DF8044B704711F0010F82
:103A800006D011F8012B0CF8012B002A08BF704753
:103A900011F0020FBFD031F8022B12F0FF0F16BF4A
:103AA0002CF8022B8CF8002012F47F4FB3D1704712
:103AB00011F8012B0CF8012B002AF9D1704700BF37
:103AC00020F0030110F00300C0F1000051F8043BA6
:103AD00000F1040C4FEACC0C6FF000021CBF22FA7C
:103AE0000CF213434FF0010C4CEA0C2C4CEA0C4C3A
:103AF000A3EB0C0222EA030212EACC1204BF51F833
:103B0000043B0430F4D0C2F1000102EA0102B2FA2F
:103B100082F2C2F11F0200EBD200704740EA0103BB
:103B20009B0770B42BD1032A29D90C4603462146A2
:103B300054F8046BA6F1013525EA060515F0803F1F
:103B400006D1043A032A43F8046B2146EFD8A2B108
:103B50000C78013A1C70013101333CB16AB111F8A3
:103B6000014B013A03F8014B002CF7D12AB11A445A
:103B7000002103F8011B9A42FBD170BC7047034639
:103B8000E5E700BF2DE9F04FC1B00C46099115469D
:103B90000E930A9003F0D8FF036818461793FFF7B7
:103BA0008FFFA38916901E0603D52369002B01F011
:103BB0005D8100231A46A8460DF1C009DFF860A414
:103BC000129319930B9325932493CDF88C90149210
:103BD000159298F800304446EBB1252B02D11AE03B
:103BE000252B03D014F8013F002BF9D1C8EB0405B5
:103BF0008DB1249B259A01332A44072BC9F80080F4
:103C0000C9F804502592249300F3328309F108097E
:103C10000B9B2B440B932378002B00F0EA814FF091
:103C2000FF3B5D4600231A468DF86F3019460C9312
:103C30000793637804F1010808F10108A3F120005B
:103C4000582800F24586DFE810F0F30343064306E8
:103C5000FC03430643064306430643064306590056
:103C6000040443066600D0034306EC03BC05BC0510
:103C7000BC05BC05BC05BC05BC05BC05BC054306B4
:103C800043064306430643064306430643064306EC
:103C90004306E205F7044306F704430643064306DA
:103CA00043064205430643064A05430643064306C8
:103CB00043064306740543064306CD054306430603
:103CC00043064306430643064306430643064306AC
:103CD0001D060E06F704F704F70415060E06430644
:103CE0004306A3044306A805AE046D000A04430678
:103CF0001204430635044306430670040E9C2368F1
:103D000018460C932346002803F104030E9306DAA9
:103D10000C9B5B420C93079B43F00403079398F8BA
:103D2000003089E7AB460E9A0027079830217823A8
:103D3000BB4514688DF8701002F104024FF00005C5
:103D40008DF871308DF86F7040F00201C0F23D8641
:103D500020F0800141F00201079154EA05010E9222
:103D60001193AD4800F0318130AE230943EA057369
:103D7000290904F00F020D461C46835C06F8013D3C
:103D800054EA0503F1D130AB9B1B0D930D9B5B45B2
:103D9000B8BF5B4608930023139317B1089B013308
:103DA0000893079B13F002030F9302D0089B023382
:103DB0000893079B13F08403109340F018810C9B29
:103DC000089A9D1A002D40F31281102D2599249AEE
:103DD000924F27DD189648461024B946099E2F4673
:103DE0000A9D04E0103F102F00F1080016DD01329B
:103DF0008A4B1031072A2591249280E81800F1DDC2
:103E000023AA3146284604F005FD002840F0F8803A
:103E1000103F102F30A82599249AE8DC3D464F46E4
:103E20008146189E01326C18072A25942492C9F8FD
:103E30000070C9F8045000F3D0809DF86F7009F14C
:103E4000080977B1249B013401330DF16F01012280
:103E5000072B2594249389E8060000F3208209F1BA
:103E600008090F9B6BB1249B023401331CA9022269
:103E7000072B2594249389E8060000F31C8209F19E
:103E80000809109B802B00F02C810D9BC3EB0B07C6
:103E9000002F33DD624A102F249B0F9222DD224631
:103EA0004FF0100B0A9D099C04E0103F102F09F100
:103EB000080916DD01331032072B2592249389E877
:103EC000000CF2DD23AA2146284604F0A3FC0028BA
:103ED00040F09680103F102F0DF1C009259A249BC9
:103EE000E8DC144601330F9A3C44072B25942493B5
:103EF00089E8840000F3C78109F10809079BDA0506
:103F000000F19080249B0D9901330C44072B2594DC
:103F1000C9F80060C9F80410249300F3E28109F1A4
:103F20000809079B590736D50C9B089A9D1A002D46
:103F300031DD102D249B394F22DD22461026DDF87D
:103F400028B0099C04E0103D102D09F1080916DD88
:103F5000013332491032072B2592249389E842001D
:103F6000F1DD23AA2146584604F054FC002847D12D
:103F7000103D102D0DF1C009259A249BE8DC144654
:103F800001332C44072B25942493C9F80070C9F8F9
:103F9000045000F392840B9B0C9A08998A42ACBFA0
:103FA0009B185B180B93002C40F05981002324933D
:103FB0000DF1C0090DE60027BB458DF86F70C0F20A
:103FC0000E85079B23F080030793BBF1000F00F0E1
:103FD0006C84002400250027C6E623AA09990A98C4
:103FE00004F018FC60B99DF86F700DF1C009259CB4
:103FF00027E7259B23B10A9823AA099904F00AFC14
:10400000099B9B8913F0400F0B9B18BF4FF0FF33A8
:10401000184641B0BDE8F08FB4A04000D4A04000E5
:1040200080A04000119B652B40F39F801498159948
:104030000022002305F0A2F8002800F06381249BF1
:10404000AE49013301340122072B2594249389E8DA
:10405000060000F3538409F108091D9B129A93424C
:1040600003DB079BDB077FF55CAF249B16990133CD
:10407000179A0C44072B2594C9F80020C9F804109E
:10408000249300F3E68609F10809129B5D1E002DBA
:104090007FF747AF9A4A102D249B0F9240F3178168
:1040A00010260A9FDDF824B005E009F10809103D4B
:1040B000102D40F30C8101331034072B25942493E9
:1040C000C9F800A0C9F80460EFDD23AA59463846B4
:1040D00004F0A0FB002893D10DF1C009259C249B7E
:1040E000E5E70C9B089A9F1A002F7FF7CEAE844A13
:1040F000102F249B0F922BDD4A462146B9461025EE
:1041000037460A9C099E06E0A9F11009B9F1100F83
:1041100002F1080218DD01331031072B2591249399
:10412000C2F800A05560EFDD23AA3146204604F016
:1041300071FB00287FF464AFA9F11009B9F1100FE9
:1041400030AA2599249BE6DC3E460C464F46914614
:1041500001330F9A3C44072B2594249389E884006B
:1041600000F32B8509F108098FE6129B249D012B92
:1041700004F1010405F1010540F3E8840123072D52
:104180002594C9F800602495C9F8043000F3F98437
:1041900009F10809169A0135179B1444072D259437
:1041A0002495C9F80030C9F8042000F3F88409F117
:1041B0000809002314981599002204F0DFFF129BD0
:1041C000002800F0EA805E1E002E40F3F5804C4B84
:1041D000102E0F932CDDCDF834801027B046DDF87B
:1041E00028B0099E06E0A8F11008B8F1100F09F1F7
:1041F00008091ADD01351034072D25942495C9F8D6
:1042000000A0C9F80470EEDD23AA3146584604F038
:1042100001FB00287FF4F4AEA8F11008B8F1100FEC
:104220000DF1C009259C249DE4DC4646DDF8348070
:1042300001350F9B3444072D2594249589E84800C7
:1042400040F3B88023AA09990A9804F0E3FA0028F9
:104250007FF4D6AE259C249D0DF1C009ACE023AAC5
:1042600009990A9804F0D6FA00283FF49FAEC7E6F1
:1042700023AA09990A9804F0CDFA00287FF4C0AE69
:104280000DF1C009C4E423AA09990A9804F0C2FAFE
:1042900000287FF4B5AE0DF1C009259C2EE623AAB7
:1042A00009990A9804F0B6FA00287FF4A9AE0DF136
:1042B000C009259CD5E523AA09990A9804F0AAFA11
:1042C00000287FF49DAE0DF1C009259CD9E501338E
:1042D0000F9A2C44072B2594249389E824007FF718
:1042E0001EAE23AA09990A9804F094FA00287FF4D4
:1042F00087AE259C0DF1C00913E600BFD0A0400099
:1043000080A040001D9D002D40F30E83139B129A48
:104310009342A8BF1346002B1D460DDD249B2C4461
:104320000133072B2594C9F80060C9F80450249381
:1043300000F3158609F10809139B002DA8BF5B1B2C
:10434000002B1D4640F3A083B94A102D249B0F92E9
:1043500040F3458522461027DDF828B0099C05E08A
:1043600009F10809103D102D40F338850133103252
:10437000072B25922493C9F800A0C9F80470EFDD3B
:1043800023AA2146584604F045FA00287FF438AEA7
:104390000DF1C009259A249BE4E7013B0135013664
:1043A0001C44072DC9F8006024952594C9F80430F1
:1043B0003FF748AF09F10809199A013514441FABBA
:1043C000072D25942495C9F80420C9F800307FF7FB
:1043D000A6AD23AA09990A9804F01CFA00287FF4D4
:1043E0000FAE0DF1C009259C9BE598F8003008F14F
:1043F00001042A2B00F02B87A3F13000092898BF75
:10440000002500F2AF8614F8013B05EB850500EBB3
:104410004505A3F130000928F5D945EAE575A04620
:104420000CE4079B43F08003079398F8003003E403
:1044300098F8003000297FF4FFAB01222021FFF71C
:10444000FBBB079B43F00103079398F80030FFF78D
:10445000F3BB98F8003001222B21FFF7EDBB079B3F
:1044600043F02003079398F80030FFF7E5BB0E9A5E
:10447000AB461668002511938DF86F50141D002E61
:1044800000F0E585BBF1000FC0F23F855A46294692
:10449000304603F0D1FB002800F05886AB46831B62
:1044A0000D9323EAE3730E940893CDF84CB09DF876
:1044B0006F7072E41193AB46002A40F0ED86079AC4
:1044C00012F0200300F043810E9C0027073424F0F3
:1044D000070303F10801BB450E91D3E900458DF8B0
:1044E0006F70C0F2C18222F08003079354EA050383
:1044F00000F04881002D08BF0A2CC0F0488130AE82
:10450000204629460A22002304F0A8FE303206F88D
:10451000012D2046294600230A2204F09FFE04466E
:104520000D4654EA0503EBD12DE41193AB46002A66
:1045300040F0CA86079B3F489D0640F15D810E9C76
:10454000073424F0070303F108020E92D3E9004573
:10455000079A12F0010700F0468254EA05033FF47F
:104560002AAD9DF8442000278DF87120079A30234A
:10457000BB458DF870308DF86F7042F00203C0F2C9
:104580008D8522F0800343F002030793FFF7ECBB15
:1045900098F800306C2B00F05284079840F010001F
:1045A0000790FFF749BB1193AB46002A40F0948671
:1045B000079A12F0200300F0A0800E9C0027073419
:1045C00024F0070303F10801BB450E91D3E9004530
:1045D0008DF86F700BDB22F08003079354EA05031C
:1045E00006D1BBF1000F00F0A285002400250027B2
:1045F00030AEE20842EA4572E90804F007030D46CE
:104600001446303354EA050206F8013DF1D1079A09
:10461000D1077FF5B8AB302B3FF4B5AB3022731E1A
:1046200006F8012C30AAD21A0D921E46FFF7AEBB37
:1046300080A04000B4A040001193AB46002A40F097
:104640004786079B0E9C1A0704F1070440F16C8310
:1046500024F0070303F108020E921A685B681492B3
:104660001593159B149D23F00044284621464FF0D6
:10467000FF32A94B04F0B4FD002840F0CD8228465B
:1046800021464FF0FF32A44B04F08CFD002840F08F
:10469000C382149815990022002304F079FD0028A4
:1046A00040F0F6849DF86F7007999C4E21F08001D0
:1046B0009B4B0791119903224FF0000B0892472959
:1046C000D8BF1E460D92CDF84CB0FFF766BB079BD6
:1046D00043F00803079398F80030FFF7ADBA119341
:1046E000AB46002A40F0EC85079B43F0100307938C
:1046F000079A12F020037FF460AF079911F01002BF
:1047000000F068820E98BBF1000F024604688DF835
:104710006F3002F104024FF00005C0F2C28421F0B4
:104720008001079154EA05010E923FF45AAF1F46EB
:104730005EE71193AB46002A40F0BE85079B43F02D
:1047400010030793079A12F020037FF4BDAE079978
:1047500011F0100200F026830E98BBF1000F024604
:1047600004688DF86F3002F104024FF00005C0F2CA
:104770008C8421F08001079154EA05010E921F46B6
:104780007FF4B8AEBBF1000F00F09080002440AE83
:10479000303406F8414DFFF7F6BA002A40F088851C
:1047A000079B9B0640F1CA820E9A134604330E9370
:1047B0000B9B1168DD171A462B46C1E90023FFF752
:1047C00008BAA3F1300000231C4618F8013B04EBA3
:1047D000840400EB4404A3F130000928F5D90C94BB
:1047E000FFF72CBA1193AB46002A40F05D85079B7A
:1047F0004C489D063FF5A3AE079BDC0640F1B58211
:104800000E9A00251346043314680E93A0E6119304
:10481000AB46002A40F04485079B43F01003079302
:10482000079B980640F1F1800E9C073424F00704A2
:10483000D4E9002304F108011D4614460E91002A14
:1048400073F10003C0F2F280BBF1000F9DF86F70AE
:10485000C0F20A81079B23F08003079354EA050303
:104860007FF448AE8EE71193AB46002AD8D08DF87E
:104870006F10D5E7079B43F04003079398F800308B
:10488000FFF7DAB90E9911930A68002301201F4639
:104890008DF86F309B4613930B1D08908DF8982070
:1048A0000E930D9026AEFFF77CBA5F464FF0000BDB
:1048B000CDF834B030AEFFF769BA23AA09990A9847
:1048C00003F0A8FF00287FF49BAB259CFFF763BB98
:1048D0001193002A40F0D384119A002A3FF489AB47
:1048E000002301211F4608918DF898208DF86F3024
:1048F0009B4613930D9126AEFFF753BA23AA09994D
:104900000A9803F087FF00287FF47AAB0DF1C00905
:10491000259CFFF7A2BB00BFFFFFEF7F94A04000E4
:1049200090A04000A0A04000249BB849013301346E
:104930000122072B2594249389E8060000F3C28204
:1049400009F108092DB9129B1BB9079BDF077FF5F9
:10495000E8AA249B16990133179A0C44072B259437
:10496000C9F80020C9F80410249300F3FF8309F16B
:1049700008096D42002D40F3DB82A54A102D0F92ED
:1049800040F34B8322461027DDF828B0099C05E050
:1049900009F10809103D102D40F33E830133103218
:1049A000072B25922493C9F800A0C9F80470EFDD05
:1049B00023AA2146584603F02DFF00287FF420ABA0
:1049C0000DF1C009259A249BE4E7924807911193C1
:1049D00054EA05030E924FF000077FF4C5A90024A6
:1049E0000025FFF7C1B9BBF1000F8DF86F70C0F261
:1049F000038222F08003079354EA05037FF4B4A9ED
:104A0000BBF1000F7FF4E5AA4FE7079BD90640F101
:104A1000BA810E9A13461C680433E51722460E939A
:104A20002B46002A73F10003BFF60EAF64424FF02D
:104A30002D0765EB4505BBF1000F8DF86F70FFF694
:104A400059AD079B23F08003079353E50E9ABBF102
:104A5000000F134614688DF86F7003F104034FF0D4
:104A6000000580F2E2810E9354EA05037FF442AD23
:104A70008DE623AA09990A9803F0CCFE00287FF45A
:104A8000BFAA259C0DF1C009139A1D9B32441746FD
:104A9000129A934249DB079AD50746D412990E44DD
:104AA000F51BCB1A9D42A8BF1D46002D2E460DDDDD
:104AB000249A2C440132072A2594C9F80070C9F8B9
:104AC0000450249200F3D28209F10809002EB4BFE9
:104AD0001D469D1B002D7FF724AA4D4A102D249BB7
:104AE0000F927FF7F4AB10260A9FDDF824B005E0A3
:104AF00009F10809103D102D7FF7E9AB013310349F
:104B0000072B25942493C9F800A0C9F80460EFDDB1
:104B100023AA5946384603F07DFE00287FF470AA88
:104B20000DF1C009259C249BE4E7249A16980132D4
:104B300017990444072A2594C9F80010C9F80400FD
:104B4000249200F3778209F10809A7E7079BD807A9
:104B50003FF514AB0123072D2594C9F80060249577
:104B6000C9F804307FF726AC23AA09990A9803F004
:104B700051FE00287FF444AA0DF1C009259C249D14
:104B80001AE423AA09990A9803F044FE00287FF446
:104B900037AA0DF1C009259C249DFFF7FBBA23AA73
:104BA00009990A9803F036FE00287FF429AA0DF12E
:104BB000C009259C249DFFF7FCBA23AA09990A98ED
:104BC00003F028FE00287FF41BAA0DF1C009259CE4
:104BD000FFF75BB9079911F0400700F00F810E98BD
:104BE000BBF1000F034604888DF86F2003F1040326
:104BF0004FF00005C0F2738121F08001079154EA63
:104C000005010E933FF4EDAC1746F1E4D0A040004F
:104C100080A04000B4A04000149C22462046159C71
:104C20002346214604F0DCFA002840F0C182119BA3
:104C3000BBF1FF3F23F020030D9300F04982472B87
:104C400000F05081079B43F480731093159B1F1E47
:104C5000149B0893B7BF3B46002303F100472D2365
:104C60000F93119B662B00F01F82462B00F00D81E5
:104C70000D9B21A8452B18BF5D461EA908BF0BF14F
:104C80000105049003911DA802213B460290089A59
:104C9000019500910A9801F093FB119B0646672B42
:104CA00040F03482079BDA0740F16F82741908984C
:104CB00039460022002304F061FA002840F04D81BB
:104CC000219B9C4206D930215A1C21921970219BAC
:104CD0009C42F9D89B1B12930D9B472B00F0368109
:104CE000119B652B40F32182119B662B1D9B139317
:104CF00000F0FE81139A12998A42C0F2EC81079B60
:104D0000D90700F1448222EAE2730D9267221192E0
:104D10000F9A002A40F0EF800893109B9346079368
:104D20009DF86F70FFF739B824F0070423681493D7
:104D30006368159304F108030E9392E4079BDF0662
:104D40000BD4079B5E0608D50E9A136804320E92A8
:104D5000BDF82C201A80FEF73CBF0E9A136804326F
:104D60000E920B9A1A60FEF734BF0E9A079B00252D
:104D700013F0400F134603F104030CBF14681488AA
:104D80000E93FFF7E5BB079B0E9A13F0400F1346F7
:104D90003FF441AEB2F900400433E5170E932246CA
:104DA0002B464CE5079911F040073FF44FAE0E98A3
:104DB000BBF1000F034604888DF86F2003F1040354
:104DC0004FF00005C0F2948021F08001079154EA71
:104DD00005010E9317467FF48DABD3E414460133DF
:104DE0000F9A2C44072B2594249389E824003FF73D
:104DF00040AE09F1080947E60E9AE9E50E9ABBF1C3
:104E0000000F134614688DF86F7003F104034FF020
:104E1000000564DB079A0E9322F08002079254EAA1
:104E200005027FF4E5ABFFF7DCBB079A0E9322F097
:104E30008002079254EA05027FF45CABA2E4079B70
:104E400008F1010843F02003079398F80030FEF7BB
:104E5000F3BE23AA09990A9803F0DCFC00287FF42A
:104E6000CFA80DF1C009259CFFF70FB940210A9882
:104E7000FEF71AF9099A10601061002800F0F58118
:104E8000099A40235361FEF794BE21A81EA90490FD
:104E900003911DA803210290089A3B46CDF804B067
:104EA00000910A9801F08CFA5D460646119B741930
:104EB000462B7FF4FCAE3378302B00F097811D9D9C
:104EC0002C44F4E623AA09990A9803F0A3FC0028CD
:104ED0007FF496A80DF1C0091D9D259C32E50E9327
:104EE000FFF785BBBBF1000F08BF4FF0010BA9E630
:104EF0000E931746B8E50893109B2D2707938DF85E
:104F00006F704FF0000BFEF749BF3046FEF7D8FD3B
:104F1000AB460346FFF7C4BA23AA09990A9803F0DF
:104F200079FC00287FF46CA8259C249B0DF1C00916
:104F3000129901330C44072B25942493C9F800607F
:104F4000C9F804107EF7EBAFFFF7CBB91D9BDD1C52
:104F500012DB9B4510DB1393CCE62346BAE623AA6B
:104F600009990A9803F056FC00287FF449A80DF12E
:104F7000C009259CFFF7E0B9119A023A1192013B52
:104F80009DF84420002B1D93B8BF5B428DF87C2018
:104F9000B4BF2D222B22092B8DF87D2040F30081F8
:104FA0000DF18B000446B84A82FB0321DA17C2EBED
:104FB000A10101EB8102A3EB4202303209290B4629
:104FC00004F8012DEFDC21463033DAB201F8012D6F
:104FD000884240F251810DF17E01234601E013F831
:104FE000012B984201F8012BF9D1431C1B1B0DF139
:104FF0007E0213441FAA9B1A129A1993012A134482
:105000000D9340F309810D9B169A134400220D93D2
:10501000139223EAE3737BE6144601330F9A2C4480
:10502000072B2594249389E824003FF775AF09F1F5
:1050300008097DE723AA09990A9803F0EBFB0028E9
:105040007EF4DEAF0DF1C0091D9B259C26E55B4675
:10505000062B28BF06230D9323EAE373B346374696
:1050600013960E940893894EFEF797BE23AA0999CA
:105070000A9803F0CFFB00287EF4C2AF1D9B129A62
:10508000259CD31A0DF1C00920E50E921F46EBE4D2
:105090002D231F468DF86F30FFF706BB0793FEF7F1
:1050A00063BE0E92FFF7A3BA21A81EA90490039134
:1050B0001DA803210290089A3B46CDF804B0009148
:1050C0000A9801F07DF95D46064600EB0B04F2E616
:1050D0004FF0060BB6E5169A129B1344139A0D93E4
:1050E000002A40F39180672223EAE37311920FE6CE
:1050F000002B40F39B80BBF1000F6ED1079AD407C1
:105100006BD41A4623EAE3730D9201E6119B472BF9
:105110007FF4CCAD079BDB073FF5C8AE219B9B1B03
:1051200012930D9B472B3FF411AF1D9B27E7079B65
:105130005F46DB0705D540AE302306F8413DFEF75C
:1051400022BECDF834B030AEFEF720BE2BEAEB73B2
:10515000CDF834B0089383460E9413909DF86F7089
:10516000FEF71BBEA0460025FEF768BD23AA0999DD
:105170000A9803F04FFB00287EF442AF0DF1C009FE
:105180001D9D259C249BFFF7F4BB219BA2E5169A4D
:10519000139B134467220D93119223EAE373B7E53F
:1051A000303330228DF87F308DF87E2020AB21E720
:1051B0000799374E21F08001364B07911199032250
:1051C0004FF0000B08924729D8BF1E460D92CDF82C
:1051D0004CB09DF86F70FEF7E0BD139B169A9D18BA
:1051E00005EB0B030D9323EAE37391E50898394629
:1051F0000022002303F0C2FF00287FF460AEC5F157
:1052000001051D952C4452E5139B0D9AC3F1010332
:105210001A4413460D9266E7079B13F001037FF4CF
:10522000F2AE13930D9B23EAE37371E5BBF1000F1C
:1052300002D1079BD80707D5169B5D1C05EB0B0316
:105240000D9323EAE37363E501230D9360E50E9864
:1052500098F8013005680430002D0E90A046BEF687
:10526000EBAC4FF0FF35FEF7E7BC0A9A0C23136056
:105270004FF0FF30FEF7CDBE0DF17E03BAE68DF89C
:105280006F10FFF729BB00BF67666666C8A04000C5
:105290009CA0400098A040008DF86F10FFF70FB958
:1052A0008DF86F10FFF7B8BA8DF86F10FFF79FBA3F
:1052B0008DF86F10FFF774BA8DF86F10FFF73EBAD4
:1052C0008DF86F10FFF710BA8DF86F10FFF732B935
:1052D0008DF86F10FFF7B5B98DF86F10FFF768B94B
:1052E0004B6E2DE9F0479C0492462CD593681268CA
:1052F0003BB30F46804602F1080919E96000B60881
:1053000017D0043D002401E0A64210D03A4655F8DB
:10531000041F404602F01AF9431C04F10104F3D1C2
:105320000023CAF80830CAF80430BDE8F087DAF87C
:105330000830A3EB8603CAF8083009F10809002BEE
:10534000DBD10020ECE702F049FA0023CAF808306C
:10535000CAF80430BDE8F0872DE9F04FABB01C4629
:10536000009190460493059018B1836B002B00F0D8
:10537000DE800098B0F90C108AB2950407D4436E11
:1053800041F4005223F400538281436692B2110724
:1053900040F1B180009B1B69002B00F0AC8002F053
:1053A0001A020A2A00F0B5800DF1680AD3460023DC
:1053B00002930F930E93CDF834A098F80030444632
:1053C000FBB1252B02D11CE0252B03D014F8013FA3
:1053D000002BF9D1C8EB04059DB10E9B0F9A013348
:1053E0002A44072BCBF80080CBF804500F920E9381
:1053F0007BDD002A40F01F85D346029B0E922B4492
:1054000002932378002B00F03B844FF0000300212F
:105410008DF82F3004F10108637808460E460C46DB
:105420004FF0FF32019208F10108A3F12002582A3F
:1054300000F28B83DFE812F03D0389038903450303
:105440008903890389038903890389037E006B0229
:105450008903860070028903CC015D025D025D0252
:105460005D025D025D025D025D025D0289038903EA
:1054700089038903890389038903890389038903CC
:10548000D101890389038903890389038903890376
:105490008903890389031A0289038903890389031C
:1054A0008903E502890389030803890389038903C2
:1054B00089038903890389038903890389032B03EA
:1054C00082038903890389035E03820389038903B5
:1054D0006303890370038D028B00E002890393024A
:1054E0008903B202890389034A030BF1080B029B6B
:1054F0002B44029385E70099059800F057FE002899
:1055000040F04585009B9A8902F01A020A2A7FF42E
:105510004BAF0099B1F90E30002BFFF645AF234693
:105520004246059800F00CFE2BB0BDE8F08F01F06C
:10553000A5FF1EE7049A134614680433002C049355
:1055400002DA644246F0040698F800306BE74FF048
:10555000000304988DF82F30034630218DF8301069
:1055600001997822002906948DF83120046803F10E
:1055700004034FF0000546F00202C0F20C8526F04D
:10558000800654EA050246F00206049340F0B58412
:10559000B348019B002B40F0628499465746002394
:1055A00001930393019B039A9342B8BF13461D4690
:1055B000B9F1000F00D0013516F00203079318BFB0
:1055C000023516F08403089340F0E882069B5C1BCA
:1055D000002C40F3E382102C40F33C85DFF88492EA
:1055E000DDF838E0DC460F9AC3461023A846704623
:1055F0004D46DDF8149007E000F1020E08460CF16C
:10560000080C103C102C13DD411C103207290F929E
:10561000CCF80050CCF804300E91EDDD002A40F0BB
:10562000A582103C102C10464FF0010ED446EBDC46
:10563000A94670464546D846E346224407280F92BD
:10564000CBF80090CBF804400E9000F36D839DF8EA
:105650002F300BF1080B00F1010E002B40F0A78258
:10566000079B002B00F0BA8202320CA90223BEF184
:10567000070F0F92CDF838E08BE80A0040F37083F3
:10568000002A40F00084089B4FF0010E802B10464A
:10569000D34640F0A782069B5C1B002C40F3A282FD
:1056A000102C40F3F884DFF8C091DE461023C34687
:1056B000A8464D46DDF8149007E000F1020C0846BC
:1056C0000EF1080E103C102C13DD411C103207297E
:1056D0000F92CEF80050CEF804300E91EDDD002A86
:1056E00040F00C83103C102C4FF0010C1046D646B5
:1056F000EBDCA9464546D846F3462244BCF1070FE9
:105700000F92CBF80090CBF80440CDF838C000F3EE
:10571000C883019B03990BF1080B5C1A002C0CF158
:10572000010E604600F364820399BEF1070F0A443C
:105730000F92CBF80070CBF80410CDF838E040F3AE
:10574000C582002A40F0328370070E9238D5069B3E
:105750005C1B002C34DDD346102C40F39684DFF81C
:1057600004910E994F461026DDF8149006E0881C2F
:1057700019460BF1080B103C102C13DD4B1C10329A
:10578000072B0F92CBF80070CBF804600E93EEDD80
:10579000002A40F08582103C102C4FF00100114689
:1057A000D346EBDCB946224407280F92CBF8009091
:1057B000CBF804400E9040F39282002A40F00C8413
:1057C000029B069AAA42ACBF9B185B19029390E217
:1057D00046F0800698F8003025E60694002940F04F
:1057E000858446F01006B30640F10483049907311E
:1057F00021F00701D1E9002314461D460831049128
:10580000002A73F10003C0F27C83019B9DF82F9066
:10581000002BC0F20B8354EA050326F0800600F04B
:10582000DE80002D08BF0A2CC0F0DE8057462046DF
:1058300029460A22002303F011FD303207F8012D1A
:105840002046294600230A2203F008FD04460D469F
:1058500054EA0503EBD1C7EB0A030393A2E600BFAA
:10586000B4A04000F4A04000E4A040000694002949
:1058700040F0388446F0100616F0200300F0A182B4
:105880004FF00002049B8DF82F20073323F007030D
:1058900003F10802D3E90045019B0492002B0ADBC7
:1058A00054EA050326F0800605D1019B002B00F089
:1058B0002784002400254FF000095746E20842EAF9
:1058C0004572E90804F007030D461446303354EAE4
:1058D000050207F8013DF1D1F407BCD5302BBAD051
:1058E00030227B1E07F8012CC3EB0A0203921F46ED
:1058F00058E6A3F13002002418F8013B04EB8404BD
:1059000002EB4404A3F13002092AF5D98DE598F899
:10591000003001212B2086E598F8003008F10105C0
:105920002A2B00F0CC83A3F13002092AA84698BFA5
:10593000002500F2B58318F8013B05EB850502EB65
:105940004505A3F13002092AF5D945EAE57201922D
:105950006BE5069400298FD08DF82F008CE74FF06F
:105960000003049A069417688DF82F30141D019BCC
:10597000002F00F07F83002BC0F253831A460021D2
:10598000384602F059F9002800F08E83C31B0393B8
:10599000002304949DF82F90019303E606940029B8
:1059A00040F09D8316F0200934D116F0100303D186
:1059B00016F0400940F01F83049A0025134614682E
:1059C000019A8DF82F90002A03F10403C0F2278377
:1059D00054EA050226F0800604937FF422AF019B6F
:1059E000002B3FF4DBAD00242AAF303407F8414DE3
:1059F000C7EB0A030393D5E546F0200698F800307C
:105A000011E50694002940F0758346F0100616F063
:105A10002009CAD04FF00002049B8DF82F200733D5
:105A200023F0070303F10802D3E90045019B049228
:105A3000002BC0F2F98154EA050326F080064FF0EE
:105A400000097FF4EEAECAE70694002940F05583C2
:105A5000B206B24841D5049A073222F0070202F199
:105A600008010491D2E9004516F0010900F07E8199
:105A700054EA050240F02B824FF000038DF82F30DE
:105A8000019B002BC0F2F38226F0800681E5049A88
:105A90004FF00001136801258DF8403013460433A0
:105AA00006948DF82F100493039510AF00230193F3
:105AB00082E598F8003000287FF4B5AC0121202061
:105AC000B1E446F0010698F80030ACE406940029F1
:105AD00040F02A83B2069248BDD40499F7060A46DC
