:020000040040BA
:1000000048170020F1114000EF114000EF114000AF
:10001000EF114000EF114000EF1140000000000020
:1000200000000000000000000000000089144000F3
:10003000EF11400000000000391540001529400074
:10004000EF114000EF114000EF114000EF114000B0
:10005000EF114000EF114000EF114000EF114000A0
:10006000EF114000EF114000EF114000C10E4000C1
:10007000D50E4000E90E4000EF114000EF114000A6
:10008000EF114000EF114000EF114000EF11400070
:10009000EF114000E9234000EF114000EF11400054
:1000A000EF114000EF114000EF114000EF11400050
:1000B000EF114000EF114000EF114000EF11400040
:1000C000EF11400010B5054C237833B9044B13B140
:1000D0000448AFF300800123237010BDAC0A002058
:1000E00000000000849D40000C4B43B10C4810B54B
:1000F0000C49AFF300800C48036823B910BD0A48CF
:10010000036833B97047094B002BF7D0BDE81040A6
:100110001847064B002BF5D0184700BF0000000021
:10012000849D4000B00A0020849D40000000000033
:1001300010B50E480E4B98473E2100200D4B9847B6
:100140000D4CA0470028FCD00C4B98470C4A0D4B97
:100150009A620D4CA0470028FCD000200B4B98471A
:100160000B4B98470148024B984710BD006CDC02CE
:10017000AD000020610F4000B50F4000C50F4000EA
:10018000013F032000040E40D50F4000FD0E40004B
:100190008912400010B50446104B98478023236015
:1001A000636843F001036360636843F010036360B6
:1001B000636823F08003636000212046084B984762
:1001C000636823F002036360636823F004036360E1
:1001D00000212046034B984710BD00BF111040007E
:1001E00021104000371040002DE9F04104460D4633
:1001F000164615491846154B9847074600231A46D8
:1002000029682046DFF85C80C0470822296820461C
:100210000F4B9847FAB2296820460E4B98470822A0
:10022000296820460C4B98477208296820460B4BDA
:10023000984786F0010202F0010229682046084B27
:100240009847BDE8F08100BF006CDC02131140004C
:10025000FF10400029114000B91040007D104000FF
:100260009B1040004F11400008B5436813F0040F85
:1002700006D009680F2900D908BD064B984708BD6C
:1002800009680329F8D8012303FA01F1C943014B96
:100290009847F1E7211040002DE9F04180B90C4664
:1002A0009046002A0FDD8F18084E094D3068214610
:1002B0002B6898470134BC42F8D14046BDE8F08134
:1002C0004FF0FF38F9E78046F7E700BF180F00202E
:1002D000100F00200138022815D82DE9F0410E46F4
:1002E00014469AB10D46DFF838800C4FD8F800005C
:1002F00015F8011B3B68984700280ADBA81B013C46
:10030000F4D1BDE8F0814FF0FF3070471046BDE8F2
:10031000F0814FF0FF30BDE8F08100BF140F0020E6
:10032000180F002010B54FF400421E4B5A600B20EE
:100330001D4CA0470C20A0470D20A0474FF0605156
:1003400017201A4CA0474FF060512E20A0471849A3
:100350000F20A04717491020A0474FF000624FF42C
:10036000C0611548154B98474FF000610C20A0471D
:100370004FF000610D20A0474FF000610E20A04714
:100380004FF080511E20A0474FF060511C20A04725
:100390004FF060511D20A0474FF060514D20A04705
:1003A00010BD00BF50140E40E50F4000090C400086
:1003B0007900002859000028000E0E40290D400049
:1003C000F0B482B0C0F11100102828BF102000281E
:1003D00008BF01200021104D4FF400563746182465
:1003E0006F630194019B5A1E0192002BFAD12E6378
:1003F0000194019B5A1E0192002BFAD101318142D6
:10040000EED34FF400330193019B5A1E0192002B4F
:10041000FAD102B0F0BC704700120E4082B04FF427
:100420000052064B5A634FF400330193019B5A1E4E
:100430000192002BFAD102B0704700BF00120E40AB
:1004400082B000230193019B984211D90021094AEF
:100450000191019B934205D8019B01330193019BBC
:100460009342F9D9019B01330193019B8342EFD35E
:1004700002B070479F86010030B40468AF2C84BF7F
:10048000AF2404601468AF2C84BFAF2414600C68E0
:10049000DB2C84BFDB240C601C68DB2C84BFDB24DA
:1004A0001C6004681568AC4284BF056014600A686B
:1004B0001868824284BF08601A6030BC7047000030
:1004C00070B506460B4C0022022120460A4DA84773
:1004D000012323601C20094B984700230222314648
:1004E0002046074EB0470221216080222046A847BF
:1004F00070BD00BF00800040FF104000CD0B4000E9
:100500004910400038B50546074C012323601C20E4
:10051000064B98470023022229462046044DA8474F
:100520000223236038BD00BF00800040B30B4000B1
:100530004910400010B50C46024B98472046024B2C
:10054000984710BDC10440000505400001B970473F
:100550002DE9F04182B00C4605460122104B1A608D
:100560001C20104B984700230193019B9C4210D9FB
:10057000DFF82C8000270C4E01993B46022235F80B
:1005800011104046B047019B01330193019B9C42EF
:10059000F2D80222024B1A6002B0BDE8F08100BF1F
:1005A00000800040B30B400049104000034BDA6963
:1005B0009A610122024B1A70704700BF0080004010
:1005C000C80A002008B541F217010720014B9847DF
:1005D00008BD00BF3505400008B500210720014BCC
:1005E000984708BD35054000020A22F4FF6222F058
:1005F0000702430903F4FC631A43C0F3C400024337
:1006000092B204498B1E01F5AF7123F8022F8B4281
:10061000FBD17047CC0A0020F8B50E461C4687B2C5
:10062000013AB918C9B23620074DA847F9B23720A8
:10063000A847B6B2013C3119C9B23820A847F1B277
:100640003920A847F8BD00BF3505400038B50D4634
:10065000C1B22020024CA047E9B22120A04738BDFA
:10066000350540002DE9F04784B081464FF002087F
:1006700004AF47F8048D1D205E4CA04740465E4EF7
:10068000B0471D205D4B98471420B0471D20A04760
:100690003220B0475A4CC4F80080802323604FF0CA
:1006A00080732360574B4FF40012C3F88020C3F8C7
:1006B0008021002583F815531A602046524B984735
:1006C0000095524B2A4639462046DFF85CA1D047B8
:1006D000394620464E4B98470127276067614D4BAE
:1006E00098474FF48E7138464B4CA0474FF48071B9
:1006F0004046A04741F230010320A04740F60801E0
:100700000820A04739460C20A04740F601210F20C1
:10071000A047B0212020A047DC212120A0474FF492
:1007200020611020A04741F238011120A04732205B
:10073000B04741F221111220A0474E211320A047BB
:1007400046F26F711420A04729463020A047DB21D4
:100750003120A04729463220A04729463320A04710
:10076000DB213420A04729463520A047B021362080
:10077000A04729463720A047DC213820A04729463A
:100780003920A04729465020A04740F20A61512055
:10079000A04740F60A515220A04740F203315320AF
:1007A000A04740F60D215420A04740F606215520D1
:1007B000A04729465620A04740F203315720A047C2
:1007C00029465820A04729465920A047D9F8043087
:1007D000D9F8002029462846104CA047D9F808002F
:1007E0000F4B9847294628460E4B9847284604B099
:1007F000BDE8F087B30B400041044000CD0B400042
:100800000080004000E100E09501400020BCBE00F7
:1008100069024000D9054000350540001906400036
:10082000E90540004D064000E9014000AF2811D81D
:10083000DB2901D90120704708B589B280B2064B87
:1008400098472220054B9847054B1888054B984739
:10085000002008BD012070474D064000C104400043
:10086000CC0A0020050540002DE9F04184B003903A
:100870000291019204AA42F8103D134601AA02A96E
:1008800003A8214CA04703980299009B0133019AC9
:1008900001325B1A121A1D4CA047BDF80810BDF8B2
:1008A0000C001B4B984722201A4B9847039A019B38
:1008B0009A1A009B03F10108029BA8EB030802FBB4
:1008C0000888154BA3FB0823DB0953B15C1E134FAB
:1008D000B026134D31463846A847013CB4F1FF3FDE
:1008E000F8D10D49A1FB0831C909B02404FB1181DD
:1008F0000A480B4B9847DC23224600210846034C4C
:10090000A04704B0BDE8F08179044000190640001A
:100910004D064000C1044000A38B2EBACC0A002033
:100920004D054000002A49D02DE9F04F83B08046A4
:10093000894616465700C7F103070025204C05E0FD
:10094000063707EB85070135AE4233D308EB0503C5
:1009500009EB060B594601931846A047A9EB060A76
:1009600051460198A047A8EB050359469B461846F7
:10097000A04751465846A04708EB060309EB050B74
:10098000594601931846A047A9EB050A514601981C
:10099000A047A8EB060359469B461846A047514678
:1009A0005846A047002FCBDBAB1B0A3707EB83076A
:1009B000013EC8E7002003B0BDE8F08F012070477A
:1009C0002D0840002DE9F04F85B003900292137876
:1009D000002B48D08B460190DFF8948033E00BF178
:1009E000100B039B019329E0013CB4F1FF3F09D0B8
:1009F0002B78234113F0010FF6D0AAEB0401304607
:100A0000C047F1E707240BF10F0902E0013C012C7C
:100A100009D07B78234113F0010FF7D0A9EB040133
:100A20003046C047F2E702350136009BB34202D0A0
:100A300007242F46DCE7019B0C330193029A12F83E
:100A4000013F02927BB10A2BC9D003EB8303074D10
:100A500005EB8303A3F52075019E33460A3300930B
:100A60000BF1070AE4E705B0BDE8F08FE08F400026
:100A70002D0840004264B1F1C05F39D013D8B1F104
:100A8000006F25D0B1F1805F0AD1036F1343036774
:100A9000436F416F0B4023EA020343674260704794
:100AA0000029FBD17047B1F1205F20D009D8B1F106
:100AB000005FF3D1036F13430367436F134343672F
:100AC000ECE7B1F1405F12D0B1F1605F0FD0E5E724
:100AD00010B4016F046FD34321401C4619400167D5
:100AE000436F416F0B4023404367426010BC704727
:100AF000036F016F0B4023EA02030367436F134345
:100B00004367CBE7416412F0010F14BF41660166F1
:100B100012F00A0F14BF0162416212F0020F07D1F6
:100B200012F0080F18BFC0F88410416101607047CF
:100B3000C0F88010F9E710B4019C416444B9016623
:100B400043B1016542B941630161016010BC704766
:100B50004166F5E74165F5E70163F5E712F0100F2F
:100B600010D0C0F8B01012F0200F14BFC0F8D4108D
:100B7000C0F8D01012F0400F14BFC0F8C010C0F879
:100B8000C4107047C0F8B410704701647047C06C5F
:100B90007047806C7047430903F5001303F2077335
:100BA0005B02DB6B00F01F0023FA00F000F0010095
:100BB0007047430903F5001303F207735B0200F06B
:100BC0001F00012202FA00F018637047430903F581
:100BD000001303F207735B0200F01F00012202FA08
:100BE00000F058637047430903F5001303F20773DD
:100BF0005B02996B00F01F0201209040014214BF7C
:100C0000586318637047000070B582B00D46430901
:100C100003F5001303F207735C0201F0F043B3F134
:100C2000005F53D00AD8B3F1805F2DD0B3F1C05F1D
:100C30003BD0B3F1006F15D0002023E0B3F1405F4B
:100C400055D0B3F1605F52D0B3F1205FF4D100F022
:100C50001F0101262A4606FA01F120462F4B98472C
:100C600030460FE000F01F000126864032464FF06C
:100C7000006120462A4B984715F0010F14BF6666A5
:100C80002666012002B070BD00F01F0001268640DC
:100C900032464FF080512046214B984715F0010F06
:100CA00014BF666626660120ECE700F01F000126EF
:100CB000864032464FF0C0512046194B984715F0F8
:100CC000010F14BF666626660120DBE700F01F00F7
:100CD0000126864032464FF000512046104B98477F
:100CE00015F0010F14BF666626660120CAE705F0FD
:100CF000605200F01F01012605EA06030093C5F3C8
:100D00008003B2F1605F14BF0022012206FA01F1F4
:100D10002046044CA0473046B4E700BF050B400016
:100D2000750A4000370B400070B582B005460E468C
:100D3000144602F0F043B3F1005F3DD00AD8B3F19E
:100D4000805F21D0B3F1C05F2AD0B3F1006F0ED025
:100D5000002017E0B3F1405F3AD0B3F1605F37D0C5
:100D6000B3F1205FF4D1234B984701200AE00A46F3
:100D70004FF00061204B984714F0010F14BF6E66CE
:100D80002E66012002B070BD0A464FF080511A4B0A
:100D9000984714F0010F14BF6E662E660120F1E72C
:100DA0000A464FF0C051144B984714F0010F14BF7E
:100DB0006E662E660120E5E70A464FF000510E4BA5
:100DC000984714F0010F14BF6E662E660120D9E714
:100DD00004F0605204F001030093C4F38003B2F105
:100DE000605F14BF0022012231462846034CA04711
:100DF0000120C7E7050B4000750A4000370B400093
:100E00002DE9F041044688460E4B9847054620469A
:100E10000D4B9847054013D00C4C04F1600603E0DD
:100E2000B4420DD010345DB120684045F8D16168FE
:100E30002942F5D0E3689847636825EA0305EFE7A0
:100E4000BDE8F0818F0B4000930B40002C0C00207C
:100E5000F8B5184C2668062E29D84FF0000C6446C9
:100E6000154F04E00134E4B2A446A64209D3A646D5
:100E700025017D598D42F5D107EB04156D6895422A
:100E8000F0D10D4D4FEA0E1E05EB0E0445F80E1085
:100E90006260A3600699E1600136664504BF0549BA
:100EA0000E6011461A46054B98470020F8BD0120F8
:100EB000F8BD00BF9C0C00202C0C00205D0B4000F6
:100EC00008B50B210148024B984708BD000E0E40A3
:100ED000010E400008B50C210148024B984708BD9F
:100EE00000100E40010E400008B50D210148024BD4
:100EF000984708BD00120E40010E4000174A136BC0
:100F000023F0700318431063936E13F0080F0AD197
:100F10004FF4006311498A6E12F0080F03D1013BB0
:100F2000F9D1012070470D4A136B23F0030343F0FE
:100F300002031363936E13F0080F0AD14FF400639A
:100F400006498A6E12F0080F05D1013BF9D1012044
:100F50007047002070470020704700BF00040E401B
:100F6000C8B9114A136A090289B223F45C1323F049
:100F7000030343F45C1343F001030B431362936ECA
:100F800013F0010FFBD0084A136A43F09B7343F43C
:100F900080331362704704490B6A044A1A40044BB9
:100FA00013430B62704700BF00040E40FCFFC8FEF5
:100FB00002003701024B986E00F48030704700BF8A
:100FC00000040E404FF00052014B9A62704700BF80
:100FD00000040E40024B986E00F00200704700BF04
:100FE00000040E401F280CD8084B9A690123834047
:100FF000934308D0012303FA00F0044B186100204A
:101000007047012070470020704700BF00040E4069
:1010100008B51520014B984708BD00BFE50F4000FB
:10102000436823F4702343604368090401F470218A
:10103000194341607047436823F07F43436043682E
:1010400043EA01614160704730B443F69924056971
:1010500015F0020F03D1013CF9D101200CE04468E6
:1010600014F0020F06D0120402F4702211430BB1E7
:1010700041F08071C160002030BC704732B900EB94
:101080008100036B23F001030363704700EB8100D1
:10109000036B43F001030363704732B900EB810037
:1010A000036B23F002030363704700EB8100036BC3
:1010B00043F0020303637047042A03D06AB1082A8D
:1010C00016D0704700EB8100036B23F00803036325
:1010D000036B43F004030363704700EB8100036B71
:1010E00023F008030363036B23F0040303637047D7
:1010F00000EB8100036B43F008030363E1E700EBBF
:1011000081010B6B23F0F0030B630B6B1A430A6333
:101110007047431E1944B1FBF0F0431EFE2B94BFF1
:1011200000B24FF0FF30704772B110B4144600EBBC
:1011300081010B6B23F47F430B630A6B42EA0422A9
:101140000A63002010BC70474FF0FF30704710B4A6
:1011500000EB8101086B80B208630C6B44EA036307
:1011600043EA02430B6310BC704710B4AC23036026
:101170000B684A68B3FBF2F31B095C1E4FF6FE7264
:1011800094420BD803628B68436040F20223C0F89C
:10119000203150230360002010BC70470120FBE782
:1011A000436913F0020F1ABFC1610020012070478C
:1011B000436913F0010F1DBF83690B7000200120EC
:1011C0007047436913F0020F1DBFC1F30801C161ED
:1011D000002001207047436913F0010F05D0836997
:1011E000C3F308030B600020704701207047FEE73F
:1011F00008B51C4B1C4A9A4210D01C4B194A9A4203
:101200000CD2013B9B1A23F0030304331344164909
:1012100051F8040B42F8040B9A42F9D1144B154AC9
:101220009A420AD2013B9B1A23F00303043313446E
:10123000002142F8041B9342FBD10F4B23F0604284
:1012400022F07F020D498A6003F16043B3F5C04F7D
:1012500003D28B6843F000538B60094B9847094BCE
:101260009847FEE700000020849D4000AC0A002063
:10127000440F0020AC0A00200000400000ED00E018
:101280006D2F4000AD294000384B1B6B03F003036A
:10129000012B1DD083B1022B36D0344B1B6B03F0D6
:1012A0007003702B59D0314B1A6B3149C2F30212C3
:1012B0000B68D3400B6070472E4B5B6913F0800FB7
:1012C00014BF4FF400424FF4FA42294B1A60E4E78E
:1012D000264B1B6A13F0807F03D0274A244B1A60E9
:1012E000DBE7264A224B1A60204B1B6A03F070038F
:1012F000102B05D0202BD0D11F4A1D4B1A60CCE7F4
:101300001F4A1B4B1A60C8E7184B1B6A13F0807FFB
:1013100010D0194A164B1A60144A916A926A1448FE
:10132000C1F30A41036801FB0333D2B2B3FBF2F30A
:101330000360B2E7114A0E4B1A600C4B1B6A03F0B4
:101340007003102B05D0202BE6D10B4A084B1A60F6
:10135000E2E70B4A064B1A60DEE7054A13680949C3
:10136000A1FB03135B081360704700BF00040E402D
:10137000F000002010140E40001BB70000093D00D3
:1013800000127A00ABAAAAAA0A4B1B6853B1094BF8
:101390001B681A180849914208DB1046054A10607C
:1013A00018467047054A034B1A60F0E74FF0FF30CC
:1013B000704700BFA00C0020FC5F002048170020F1
:1013C0004FF0FF3070474FF400534B6000207047E0
:1013D000012070470020704700F1080343604FF080
:1013E000FF328260C3600361002303607047002303
:1013F0000361704743685A684A6042688A605A6865
:10140000916059604160086103680133036070476F
:1014100010B40C68B4F1FF3F15D000F10803C268A6
:101420001268944204D35B685A6812689442FAD2F4
:101430005A684A6091608B605960086103680133A3
:10144000036010BC70470369F2E7436882689A60E2
:10145000836842685A6003695A68904204BF826890
:101460005A60002202611A68013A1A6070474FF010
:10147000807340F8043C40F8081C002340F80C3C02
:1014800040F8202C40387047064B19680868B0E8CF
:10149000F00F80F309884FF0000080F311884EF0C0
:1014A0000D0E7047E00C002002480068006880F3D1
:1014B000088800DF08ED00E010B50C4B1A6842F414
:1014C00070021A601A6842F070421A604BF67F325E
:1014D000A3F60C531A600722043B1A600024044B45
:1014E0001C60044B9847204610BD00BF20ED00E073
:1014F000F4000020A91440004FF08052014B1A6004
:10150000704700BF04ED00E04FF0500080F31188F9
:10151000024A136801331360704700BFF4000020D3
:10152000044A1368013B13601BB94FF0000080F3BD
:1015300011887047F4000020EFF309800C4B1A6803
:1015400020E9F00F10602DE908404FF0500080F3C3
:10155000118800F099FD4FF0000080F31188BDE87C
:10156000084019680868B0E8F00F80F309887047F0
:10157000E00C002008B54FF0500080F31188034BB9
:1015800098474FF0000080F3118808BD691D4000A6
:1015900010B50446044B98472046044B9847044630
:1015A000034B9847204610BD4D1D4000E52F4000DD
:1015B000891E400048B110B50446044B98472046A8
:1015C000034B9847034B984710BD70474D1D400093
:1015D000F52F4000891E400010B50446036C5BB92E
:1015E00003681BB1A36B0133A36310BD4068124BAA
:1015F000984700236360F5E76AB91A4680680F4B85
:101600009847A368226C1344A36062689342E9D3AD
:101610002368A360E6E71A46C068084B9847226C27
:101620005242E3681344E36021688B42DAD2636874
:101630001A44E260D6E700BF99234000A935400074
:1016400038B50346006858B11A6CDC681444DC6095
:101650005D68AC4228BFD8600846D968014B9847FE
:1016600038BD00BFA9354000F8B504461E4B984769
:10167000A36C002B13DD636A8BB104F124061B4DB0
:101680001B4F06E0A36C013BA364002B07DD636ADC
:101690002BB13046A8470028F4D0B847F2E74FF006
:1016A000FF33A364134B98470F4B9847636C002B91
:1016B00013DD23698BB104F110060C4D0C4F06E0CD
:1016C000636C013B6364002B07DD23692BB130465B
:1016D000A8470028F4D0B847F2E74FF0FF3363641F
:1016E000044B9847F8BD00BF091540001122400087
:1016F0000923400021154000F8B548B307460D46C0
:101700004C20154B9847044620B305FB07F6701C88
:10171000114B98472060B0B1831963600023A36325
:10172000A060761B3044E060E76325644FF0FF3330
:101730006364A36404F11000084DA84704F1240079
:10174000A8472046F8BD2046054B98470024F8E7F7
:101750000024F6E70024F4E791154000D913400077
:10176000B51540002DE9F04F85B004468946019239
:101770009A460027324DDFF8F080324E22E0524682
:1017800049462046304B9847636A2BB92D4B984702
:10179000012005B0BDE8F08F04F124002B4B9847E1
:1017A0000128F3D12A4B9847F0E7264B98470020B1
:1017B000EFE702A8C0470FE02046264B9847264B8C
:1017C00098470127A847A26BE36B9A42D7D3019BA6
:1017D000002BEAD0002FECD0B047204B9847A84709
:1017E000636CB3F1FF3F04BF00236364A36CB3F1E8
:1017F000FF3F04BF0023A364B04701A902A8184B10
:101800009847A8B9A847D4F838B0E76BB047BB45AC
:10181000D2D1019904F11000124B984720460D4B8C
:1018200098470D4B98470028CBD1094B9847C8E7FC
:101830002046084B9847084B98470020A9E700BF6F
:101840000915400021154000D91540001122400023
:10185000F914400069164000891E40004D1D4000EB
:101860009D224000C12140008522400038B5044639
:101870004FF0500080F31188A56BE06B854206D3D2
:1018800000234FF0000080F31188184638BD15463C
:101890001A4620460B4B9847A36CB3F1FF3F03D089
:1018A0000133A3640123ECE7636A0BB90123E8E782
:1018B00004F12400044B984710B101232B60E0E7AA
:1018C0000123DEE7D9154000112240002DE9F04741
:1018D00084B004468A46019299460027414DDFF8BC
:1018E0003481414E41E0E568514620463F4B9847E0
:1018F000B9F1000F19D1A36B013BA36323683BB17E
:1019000023694BB9384B9847012004B0BDE8F087F4
:10191000374B98476060F3E704F11000354B984768
:101920000128EFD1344B9847ECE7E560636A002B60
:10193000E8D004F124002F4B98470028E2D02E4B2A
:101940009847DFE7284B98470020DEE702A8C0470A
:1019500014E0A8476068294B9847B0472CE0204620
:10196000274B9847274B98470127A847A36B002B85
:10197000B9D1019B002BE5D0002FE7D0B047224B17
:101980009847A847636CB3F1FF3F04BF002363642B
:10199000A36CB3F1FF3F04BF0023A364B04701A9C8
:1019A00002A81A4B9847B0B9A847A76BB047002FB9
:1019B000D5D12368002BCCD0019904F12400144B1D
:1019C000984720460E4B98470E4B98470028CBD19E
:1019D000094B9847C8E72046094B9847094B984759
:1019E000002092E7091540002115400041164000F3
:1019F0001523400011224000F9144000212340002B
:101A000069164000891E40004D1D40009D22400087
:101A1000C12140008522400010B50F4B1B68586063
:101A20000E4B1B6898420ED304460D4B18680A4BA8
:101A3000196804310B4B98470B4B1B689C423CBF09
:101A4000094B1C6010BD094B1868034B1968043121
:101A5000044B984710BD00BFE00C0020C40D0020CF
:101A6000E40C002011144000FC000020E80C0020D1
:101A700008B5024D024CA847A047FCE7F914400006
:101A8000392940002DE9F04F87B005900D46934667
:101A90004B685B684B6001F10807BB4204BFCB6831
:101AA0004B604B68D3F80CA0DFF86490164EDFF85B
:101AB00064806B685B686B609F4204BFEB686B601F
:101AC0006B68DC68226B1378A52B1BD100230133D4
:101AD0009BB212F8011FA529F9D0E26A616C02914C
:101AE0009B08019300925B4604F13402494630465C
:101AF000C04731460598054B9847A245D9D107B054
:101B0000BDE8F08F0023E8E7A40C00200539400071
:101B100060974000B93840002DE9F04F83B083460C
:101B20000E4615460193DDF830A0DDF834900E9F87
:101B30004C20594B984700287CD00446002F6FD08A
:101B40000763AA00A5213846544B984705F1804207
:101B5000013A256B05EB820525F007051022314679
:101B600004F134004E4B9847002384F84330564626
:101B7000042E28BF0426E662A664271D3846DFF837
:101B80007081C04704F11800C0472461C6F1050602
:101B9000A6616462019A59462846424B98472060E4
:101BA000B9F1000F01D0C9F800403F4B98473F4AB8
:101BB0001368013313603E4B1B68002B3DD03D4B37
:101BC0001B6833B93A4B1B68DB6A9A4524BF384B14
:101BD0001C60E06A384B1B68984284BF364B186023
:101BE000364A1368636401331360354B1B689842AF
:101BF00084BF334B186000EB80003946314B03EB58
:101C00008000314B9847314B98472A4B1B68002B7B
:101C10003DD0274B1B68DB6A9A4534D8012037E05A
:101C2000A8001D4B984707462063002889D120460D
:101C3000274B98474FF0FF302AE01D4B1C6013687C
:101C4000012BC6D11F4E3046224DA84706F1140085
:101C5000A84706F12800A84706F13C00A84706F16E
:101C60005000A847DFF88C804046A8471A4E3046FF
:101C7000A8471A48A8471A48A8471A4BC3F8008033
:101C8000194B1E60A5E7194B9847012000E0012081
:101C900003B0BDE8F08F00BF9115400095364000BD
:101CA0005D3A40006F14400009154000500D0020BF
:101CB000E00C0020AC0D0020640D00205C0D002025
:101CC000600D0020EC0C0020F513400021154000B1
:101CD000B5154000D91340007C0D0020980D002060
:101CE000B00D0020E40C0020E80C0020F9144000A6
:101CF000EF134000680D002010B584B0002303935B
:101D000002930193009346220A490B480B4CA047CB
:101D1000012801D004B010BD4FF0500080F31188AD
:101D20000122074B1A600022064B1A60064B9847A7
:101D3000F0E700BF88974000711A4000191B40006F
:101D4000AC0D0020C40D0020B9144000024A1368F5
:101D500001331360704700BF580D0020014B186815
:101D6000704700BF500D00202DE9F0413A4B1B6831
:101D7000002B62D1394B1A6801321A601B6883B993
:101D8000374B1968374A10681860116036490A687D
:101D900001320A601B681B68DBB94FF0FF32334B1E
:101DA0001A602E4B1A68314B1B689A424BD32C4B4E
:101DB0001B681B68ABB12A4B1B68DB68DC68636877
:101DC000264A1268934211D8294E2A4FDFF8B48070
:101DD0002CE0234B1B68DB68DB685A68234B1A60D6
:101DE000DFE74FF0FF32214B1A602CE01F4A1360EF
:101DF00029E004F11800B047E06A3B68984288BFC8
:101E0000386000EB8000294608EB80001A4B9847A9
:101E1000134B1B681B68002BE3D0114B1B68DB685E
:101E2000DC6863680D4A12689342DFD8251D284696
:101E3000B047A36A002BDCD1DEE7104A13680133F8
:101E400013600F4B98470D4B1B680BB1BDE8F08139
:101E50000B4B9847FAE700BF580D0020C40D002037
:101E6000E40C0020E80C0020940D0020FC00002071
:101E70004B144000600D0020F5134000540D00206D
:101E80003B294000EC0C00202DE9F8432B4B9847F0
:101E90002B4B1A68013A1A601B68002B48D1294B5A
:101EA0001B6833B10026284FDFF8C080DFF8C090F0
:101EB0001FE000263DE0FB68DC6804F11800C04725
:101EC000251D2846C047E06AD9F80030984288BFEF
:101ED000C9F8000000EB800029461C4B03EB800092
:101EE0001B4B98471B4B1B68E26ADB6A9A4228BF70
:101EF00001263B68002BDED1174B1B685BB1164BEC
:101F00001B6843B1154D144CA8472368013B23605F
:101F10002368002BF8D1012E03D0114B1B68012B35
:101F200007D100220E4B1A600E4B9847012600E0A5
:101F300000260D4B98473046BDE8F8830915400050
:101F4000580D0020500D0020980D0020EC0C0020B2
:101F5000F5134000E00C0020540D0020691D4000E6
:101F6000900D0020F9144000211540004B14400052
:101F7000600D002010B510B90A4B984710BD0446FB
:101F8000094B9847094B1B681C44094B18680430DF
:101F9000084B98472046084B9847084B984700281D
:101FA000ECD1E9E7F91440004D1D4000C40D0020BC
:101FB000E00C00204B144000191A4000891E40001C
:101FC0002DE9F8430646264B9847002333703046E8
:101FD000244B98473218244B19889B7831529370C0
:101FE000224B1C68013404EB8403214D05EB83056F
:101FF000143D1F4F4FF05209DFF8888001E0143D77
:102000005CB1013C04EB840357F82330002BF6D07D
:102010004A4629463046C047F1E7164B1B681B6805
:1020200053B9154B1B681B686BB9144B1B688BB9F4
:10203000134B9847BDE8F8830E4B1968422230468F
:10204000104B9847EDE70C4B1968422230460D4B78
:102050009847EAE75322094930460A4B9847E7E791
:102060004D1D4000013A40005C994000640D002085
:10207000EC0C0020E40C0020E80C0020B00D002047
:10208000891E4000851A4000404B1B68002B51D12F
:1020900010B53F4B1A681B6812681B6B9A424DD9EA
:1020A0003B4B1B6814223B49186B3B4B984700285D
:1020B0004BD13A4B1B6803EB83039B00384AD35840
:1020C0005BB9364A36491368013B1360136803EB6A
:1020D000830351F82330002BF5D0304B1B68304A76
:1020E0009900C81802EB8000446864684460194491
:1020F0000246083294422FD003EB8303284A02EBB6
:1021000083035B68DA68224B1A60264B1B6883B135
:102110001F4B1B685A6C244B1B689A4209D0234BF7
:102120001B680833224A12689A421CD800221D4BB1
:102130001A6010BD01221F4B1A607047144B1868BB
:10214000196834311C4B9847AAE7114B1868196875
:102150003431194B9847ACE760680A46104901EBE7
:1021600082025060C8E70A4B1B68596C0E4B19601D
:102170000E4B1A681148006810601A6804321A6021
:102180001A6811601A6804321A6010BD580D0020D8
:10219000E00C00207497400049354000600D00209D
:1021A000EC0C0020C80D0020F8000020D80C002006
:1021B000DC0C0020900D002021294000C40D0020DF
:1021C00038B50D460B4C216818310B4B98472068E9
:1021D00004300A4B9847B5F1FF3F05D0084B18680B
:1021E0002844084B984738BD216804310648074BFE
:1021F000984738BDE00C0020111440004B144000FB
:10220000C40D0020191A4000B00D0020F513400045
:1022100038B5C368DC6804F118052846124B9847A6
:10222000124B1B68DBB9251D28460F4B9847E06A07
:102230000F4B1B68984284BF0D4B186000EB800069
:1022400029460C4B03EB80000B4B98470B4B1B684C
:10225000E06ADB6A984234BF0020012038BD29467D
:102260000748054B9847F1E74B144000580D0020F4
:10227000600D0020EC0C0020F5134000E00C002065
:10228000980D0020034B1B680360034B1B684360E1
:10229000704700BF940D0020C40D002038B50446DF
:1022A0000D46144B98472B68B3F1FF3F1ED0124ADE
:1022B00012682168914204D0104A12686168914204
:1022C00016D90E4A12686168521A934204D8012442
:1022D0000B4B9847204638BD084A1268511A5B1AC2
:1022E0002B602046074B98470024F1E70024EFE7D6
:1022F0000124EDE709154000940D0020C40D0020D5
:1023000021154000852240000122014B1A607047D0
:10231000900D0020014B1868704700BFE00C0020B2
:1023200038B5C36A174A1268D26A934211D2154A65
:102330001268D26AC2F10502826103EB8303124A7A
:1023400002EB830342699A4204D00E4B1B68DB6A9E
:10235000C36238BD0546041D20460C4B9847094B07
:102360001B68D86AE8620A4B1B68984284BF084B16
:10237000186000EB80002146034B03EB8000054B07
:10238000984738BDE00C0020EC0C00204B144000B6
:10239000600D0020F5134000E8B138B50446C16A6D
:1023A000826C914216D0051D28460B4B9847A06CB5
:1023B000E062C0F10503A361084B1B68984284BF2B
:1023C000064B186000EB80002946054B03EB8000AC
:1023D000044B984738BD70474B144000600D0020F7
:1023E000EC0C0020F513400008B5014B984708BDE0
:1023F000AD05400010B5094CB0232360DC236360B9
:102400000023A3606FF07F43E360054B98472046AD
:10241000044B98470820044B984710BD300F00200C
:102420001D04400065064000C103400038B56FF050
:102430007F40154CA047DC23B02200210846134DF5
:10244000A847134B984700210846124B9847FF2096
:10245000A047114A0A210846104B98474FF47F00C5
:10246000A0471E2250213C200D4DA8474FF47F402D
:10247000A0471E2278213C20A847FF20A0471E220B
:10248000A0213C20A84738BDE9054000690840006C
:10249000C50540004D06400090974000C50940002A
:1024A0002509400010B50D480D4B98470D4C236889
:1024B0000A3323602E200C4B984700231A462146EE
:1024C0000A4800680A4CA047012802D00948044B7A
:1024D00098470948024B984710BD00BF80994000BB
:1024E000BD2F4000CC0D0020E70B4000D80E00208F
:1024F0006D18400090994000B89940002DE9F041D6
:1025000090B000220023CDE90E23DFF87C80002567
:10251000144F1AE06FF07F40134CA047DC23B02229
:102520006E212846114EB047FF20A047104A732164
:102530000A20104CA047DDE90E230F4901A80F4ED9
:10254000B04701AA73215F20A0472B464FF0FF320E
:102550000EA9D8F80000B8470128DBD00848094B7D
:102560009847D7E7CD184000E905400069084000CA
:10257000A89A4000C5094000AC9A4000B938400014
:10258000809A4000BD2F4000D40E00202DE9F04F6E
:1025900093B00023119300220023CDE90E23DFF82E
:1025A000E4B02C4F53E06FF07F402B4DA847DC2365
:1025B000B02246214046DFF8D0A0D047FF20A847F0
:1025C000264A4B210A20264CA047DFF8C090119ADA
:1025D000494601A8234EB04701AA4B215F20A047DE
:1025E00011984000204B9847CDE90E016FF07F40D5
:1025F000A847DC23B0225A214046D047FF20A847F5
:102600001A4A5F210A20A04712AD75E90423494602
:1026100001A8B04701AA5F210846A04743464FF0F2
:10262000FF32294612480068124CA04701280CD1FD
:1026300043464FF0FF3211A9DBF800000E4CA047D3
:102640000128B0D00D48B847ADE70D48B8474FF066
:102650000008EDE7BD2F4000E9054000F09940007B
:10266000C5094000B9384000A12E4000F89940004B
:10267000D40E002065174000CD184000C8994000D6
:10268000009A4000D00E002069084000AC9A40003B
:102690002DE9F04F91B000230F930E934FF02308D4
:1026A0001E46DFF800B101E02F4B984717202F4C52
:1026B000A04740462E4B98471720A04733464FF07F
:1026C000FF320FA92B4800682B4CA047012802D0ED
:1026D0002A482B4B98476FF07F402A4DA847DC23B0
:1026E000B0221E213046DFF8C0A0D047FF20A84707
:1026F000254A41460A20254CA047DFF8B0900F9AA2
:10270000494601A8224FB84701AA41465F20A04789
:102710000F9BABFB03235B090E936FF07F40A84731
:10272000DC23B02232213046D047FF20A847194A87
:1027300037210A20A04710AD55F8082D494601A8B9
:10274000B84701AA37215F20A04733464FF0FF3238
:10275000294611480068114CA0470128A4D0104810
:10276000074B9847A0E700BFF9144000970B4000C3
:1027700001000020D80E0020CD184000249A40000F
:10278000BD2F4000E9054000509A4000C5094000B7
:10279000B9384000549A4000D00E00206517400020
:1027A000589A400009CB3D8D69084000AC9A400022
:1027B00008B51726034D044C3046A8474FF47A70ED
:1027C000A047F9E7E70B4000751F400080B5094FAF
:1027D000094E0A4DB84701463046A847084C2046E6
:1027E000084B98472046A8474FF47A70064B984705
:1027F000F0E700BF5D1D40001C994000BD2F400068
:10280000D00D0020C11F4000751F4000F0B583B0FF
:1028100005460C4600230193184B98420AD0184BEA
:1028200098420FD0174B984214D0174B9D421BD0A3
:1028300003B0F0BD1F46154E21463846B04700286C
:10284000FAD1F2E71E46114D21463046A84700282E
:10285000FAD1EDE71E460E4D01A93046A8470028E3
:10286000FAD1019B2370E3E71E46094D01A93046CA
:10287000A8470028FAD1019B2370D9E700060E4033
:1028800000080E400040024000800240B1114000AC
:10289000D711400070B50C46184B98420AD0184B1F
:1028A000984210D0174B984216D0174B98421CD024
:1028B000002070BD1E46154D21463046A847002811
:1028C000FAD1012070BD1E46104D21463046A84762
:1028D0000028FAD1012070BD1E460D4D214630461C
:1028E000A8470028FAD1012070BD1E46084D214698
:1028F0003046A8470028FAD1012070BD00060E40DE
:1029000000080E400040024000800240A11140003B
:10291000C311400008B5014B984708BD751540002C
:1029200008B50A4601460248024B9847FEE700BF39
:102930002C994000BD2F40007047704770B582B0A1
:102940001148124DA847124C09224FF4004120466D
:10295000104B9847104B009370234FF400420B210B
:1029600020460E4EB0474FF4004120460C4B98478E
:102970000C4B102283F80B234FF400621A600A48B4
:10298000A84702B070BD00BF44994000BD2F400071
:10299000000E0E40050B4000A5244000510E4000E3
:1029A0008B0B400000E100E06099400070B588B0FA
:1029B000604B9847604B9847604C614B1C60614A84
:1029C000614B1A60614A624B1A60624B05934FF487
:1029D000E13306934FF40063079308205E4B98475A
:1029E00005A920465D4B98475D4D2B6800219868EE
:1029F0005C4CA0472B6800215868A04704210520A3
:102A0000594CA047594B186004210520A047584B4A
:102A1000186008210520A047564B18605648574CAF
:102A2000A047574B9847574B9847574B98476FF0DD
:102A30007F40564DA847DC23B0221E210020544E73
:102A4000B047FF20A847534A23210A20524B9847FA
:102A50005248A04752495348A047534A5349544803
:102A6000A047002303930293019300934FF4007255
:102A700050495148514CA047012802D050483F4B83
:102A80009847002303930293019300934FF48072BD
:102A90004C494D48494CA047012802D04B48374B80
:102AA00098470023039302930193012200924FF46D
:102AB000407247494748414CA047012802D0464848
:102AC0002E4B984700230393029301930122009217
:102AD0004FF4407241494248384CA047012802D087
:102AE0004048264B98470023039302930193012209
:102AF00000924FF440723C493C48304CA0470128BA
:102B000002D03B481D4B98476FF07F401F4CA047B9
:102B1000DC23B022462100201D4DA847FF20A047FE
:102B2000344A4B210A201C4B9847334B98470020CE
:102B300008B070BD310140002503400000060E4082
:102B4000180F002095284000140F00200D28400089
:102B5000100F0020006CDC02E50F40006B114000FC
:102B6000000100205D374000F9164000D80E00201B
:102B7000D00E0020D40E00209C974000BD2F4000B6
:102B80003D294000F52340002D244000E905400088
:102B900069084000AC974000C5094000BC97400060
:102BA000D8974000E4974000EC974000F897400029
:102BB000049840001C984000CD274000191B40009D
:102BC0002498400044984000B127400048984000B5
:102BD0006C98400091264000789840009C984000F6
:102BE0008D254000B0984000DC984000FD24400056
:102BF000E89840000C994000F91C400081F0004129
:102C000002E000BF83F0004330B54FEA41044FEAD1
:102C1000430594EA050F08BF90EA020F1FBF54EA6C
:102C2000000C55EA020C7FEA645C7FEA655C00F008
:102C3000E2804FEA5454D4EB5555B8BF6D420CDDD9
:102C40002C4480EA020281EA030382EA000083EA5C
:102C5000010180EA020281EA0303362D88BF30BDFC
:102C600011F0004F4FEA01314FF4801C4CEA113152
:102C700002D0404261EB410113F0004F4FEA0333B1
:102C80004CEA133302D0524263EB430394EA050F3C
:102C900000F0A780A4F10104D5F1200E0DDB02FAAB
:102CA0000EFC22FA05F2801841F1000103FA0EF23F
:102CB000801843FA05F359410EE0A5F120050EF105
:102CC000200E012A03FA0EFC28BF4CF0020C43FA36
:102CD00005F3C01851EBE37101F0004507D54FF043
:102CE000000EDCF1000C7EEB00006EEB0101B1F593
:102CF000801F1BD3B1F5001F0CD349085FEA3000D9
:102D00004FEA3C0C04F101044FEA445212F5800FE3
:102D100080F09A80BCF1004F08BF5FEA500C50F180
:102D2000000041EB045141EA050130BD5FEA4C0C63
:102D3000404141EB010111F4801FA4F10104E9D1EC
:102D400091F0000F04BF01460020B1FA81F308BFE3
:102D50002033A3F10B03B3F120020CDA0C3208DDAF
:102D600002F1140CC2F10C0201FA0CF021FA02F18A
:102D70000CE002F11402D8BFC2F1200C01FA02F1FA
:102D800020FA0CFCDCBF41EA0C019040E41AA2BF1F
:102D900001EB0451294330BD6FEA04041F3C1CDAE7
:102DA0000C340EDC04F11404C4F1200220FA04F007
:102DB00001FA02F340EA030021FA04F345EA0301B1
:102DC00030BDC4F10C04C4F1200220FA02F001FA73
:102DD00004F340EA0300294630BD21FA04F02946F5
:102DE00030BD94F0000F83F4801306BF81F480118E
:102DF0000134013D4EE77FEA645C18BF7FEA655C01
:102E000029D094EA050F08BF90EA020F05D054EAD2
:102E1000000C04BF1946104630BD91EA030F1EBFD7
:102E20000021002030BD5FEA545C05D140004941DB
:102E300028BF41F0004130BD14F580043CBF01F5CE
:102E4000801130BD01F0004545F0FE4141F47001B4
:102E50004FF0000030BD7FEA645C1ABF194610468F
:102E60007FEA655C1CBF0B46024650EA013406BF90
:102E700052EA033591EA030F41F4002130BD00BF4F
:102E800090F0000F04BF0021704730B54FF480640C
:102E900004F132044FF000054FF0000150E700BF8D
:102EA00090F0000F04BF0021704730B54FF48064EC
:102EB00004F1320410F0004548BF40424FF00001D9
:102EC0003EE700BF42004FEAE2014FEA31014FEA1C
:102ED00002701FBF12F07F4393F07F4F81F060516B
:102EE000704792F0000F14BF93F07F4F704730B5DA
:102EF0004FF4607401F0004521F0004120E700BF6D
:102F000050EA010208BF704730B54FF000050AE0F3
:102F100050EA010208BF704730B511F0004502D5F4
:102F2000404261EB41014FF4806404F132045FEAF6
:102F3000915C3FF4DCAE4FF003025FEADC0C18BF9B
:102F400003325FEADC0C18BF033202EBDC02C2F191
:102F5000200300FA03FC20FA02F001FA03FE40EA23
:102F60000E0021FA02F11444C1E600BF70B50F4E05
:102F70000F4D761BB61018BF002405D0013455F84C
:102F8000043B9847A642F9D10A4E0B4D06F0E4FEE9
:102F9000761BB61018BF002406D0013455F8043B48
:102FA0009847A642F9D170BD70BD00BF649D400036
:102FB000649D40006C9D4000649D40000FB410B5BE
:102FC000074B82B004AC54F8042B18682346816880
:102FD000019402F031F802B0BDE8104004B070472F
:102FE00000010020024B0146186800F00BB800BF3A
:102FF00000010020024B0146186804F079B800BFB8
:10300000000100202DE9F04F01F10B06162E83B0D0
:10301000054640F29E8036F0070600F1BD80B142C1
:1030200000F2BA8000F084FBB6F5FC7FC0F0858228
:10303000730A00F0B880042B00F26C81B30903F12D
:10304000390003F1380EC100B84F39444C680839D3
:10305000A14206D10CE0002A80F2AB80E468A142D4
:1030600006D0636823F003039A1B0F2AF3DD704632
:103070003C69DFF8CCE2744500F09E81636823F080
:1030800003039A1B0F2A00F38381002AC7F814E078
:10309000C7F810E080F29180B3F5007F80F0548192
:1030A0000122DB0879684FEAA30C134457F83380F8
:1030B00002FA0CF207EBC30C0A43ACF10801E16021
:1030C000C4F808807A6047F83340C8F80C400124FF
:1030D00083109C4094427DD8144206D120F0030016
:1030E0006400144200F10400FAD007EBC009CC469A
:1030F0008046DCF80C309C4507D15FE1002A80F265
:103100006D81DB689C4500F05981596821F003010D
:103110008A1B0F2AF2DDDC68D3F808C046F00108EC
:1031200028461E4442F00105C3F80480CCF80C4048
:10313000C4F808C07E613E61C6F80CE0C6F808E03D
:1031400075605A50009300F0F5FA009B03F10804F3
:103150001EE0102920D800F0EBFA102618230220D8
:10316000724F3B445C68A3F10802944200F02F8147
:103170006368E16823F0030323445A68A66842F0B9
:103180000102F16028468E605A6000F0D3FA0834DC
:10319000204603B0BDE8F08F00240C2320462B60AE
:1031A00003B0BDE8F08F40204FF400714FF03F0EA8
:1031B0004AE723445A68E168E0E723445A6828460E
:1031C00042F001025A60083400F0B4FA204603B01D
:1031D000BDE8F08FBC68636823F00308B04504D3F2
:1031E000A8EB06030F2B00F38580DFF85891504BB6
:1031F000D9F800201B680132334404EB080A00F0C0
:10320000548103F580530F3323F47F6B2BF00F0BA6
:103210005946284600F090FA411C024600F0FB8017
:10322000824500F2F680434B19685944196000F05A
:103230004C81D9F8000001301BBFA2EB0A0A5144AF
:10324000C9F80020196012F0070100F01481C1F1E3
:103250000800C1F580510244083102EB0B09C9F3A3
:103260000B09A1EB0909494628460193009200F099
:1032700063FA431C9DE80C0000F04281801A484428
:1032800040F001001968BC424944BA6019605060BE
:1032900017D0B8F10F0F40F2FA804FF0050C6268BA
:1032A000A8F10C0020F0070002F0010204EB000E70
:1032B00002430F286260CEF804C0CEF808C000F2C6
:1032C00016811D4BBC681A68914288BF19601B4B60
:1032D0001A689142626888BF196022F00302964220
:1032E000A2EB060301D80F2B04DC284600F022FADB
:1032F00000244DE746F0010243F0010326446260DA
:103300002846BE600834736000F014FA204603B00B
:10331000BDE8F08F142B70D9542B00F2A280330B30
:1033200003F16F0003F16E0EC1008DE63005002041
:103330000C0F0020DC0E0020040F0020080F0020DE
:1033400038050020380900205A0A042A5BD9142ABB
:1033500000F2AE8002F15C01C9005B3207EB010CA8
:103360007958ACF1080C8C4500F088804A6822F04E
:103370000302934273D289688C45F7D1DCF80C3094
:103380007A68E360C4F808C09C60CCF80C409EE604
:1033900046F0010C42F001012644C4F804C028465E
:1033A0007E613E61C6F80CE0C6F808E07160E2504C
:1033B00000F0C0F90834EBE67A6888E608F1010805
:1033C00018F0030F0CF1080C7FF493AE2DE0DC68CD
:1033D000A34208BF02303FF44BAEC9E61C46194475
:1033E0004A68DB6854F8086F42F001024A602846D8
:1033F000F3609E6000F09EF9CAE603F15C0003F101
:103400005B0EC10020E69A0902F13901C900383289
:10341000A4E7BC4254D0BC68626822F003025EE7B5
:1034200059F80839994540F0868010F0030F00F1F3
:10343000FF30F5D17B6823EA04037B6064009C4283
:103440003FF6C8AE002C3FF4C5AE1C4240467FF4A8
:103450004CAE64001C4200F10400FAD045E68C46F4
:103460008CE7B3F5AA7F15D8F30B03F1780003F1CD
:10347000770EC100E8E54FF48051EEE601217B684C
:10348000921001FA02F21A437A60634679E7012347
:1034900053602AE740F25452934222D8B30C03F10E
:1034A0007D0003F17C0EC100CEE503F1100BAFE609
:1034B000542A29D81A0B02F16F01C9006E324DE768
:1034C000204B196859441960B3E6CAF30B00002871
:1034D0007FF4AFAE08EB0B03BA6843F0010353600F
:1034E000EFE67F204FF47E714FF07E0EACE504F1E5
:1034F00008012846009303F0FBFD009B1968E0E6F5
:1035000001204FF00009BDE6B2F5AA7F05D8DA0B1D
:1035100002F17801C900773220E740F254518A4223
:1035200005D89A0C02F17D01C9007C3216E74FF4F0
:103530007E717E2212E77B6880E7F00806F10803BF
:103540000EE600BFDC0E0020032A70B422D940EA48
:1035500001039B0711D003780C78A3421DD10A44C4
:10356000013105E010F8013F11F8014BA34214D1DD
:103570009142F7D1002070BC70470D6806680C4678
:10358000AE42034601F1040100F1040008D1043AFF
:10359000032AF2D8002ADED1ECE7181B70BC704772
:1035A00021461846D7E700BF844641EA000313F0DE
:1035B000030349D1403A23D30B6803604B6843604F
:1035C0008B688360CB68C3600B6903614B6943619F
:1035D0008B698361CB69C3610B6A03624B6A436287
:1035E0008B6A8362CB6AC3620B6B03634B6B43636F
:1035F0008B6B8363CB6BC36340304031403ADBD28B
:1036000030320BD30B6803604B6843608B68836078
:10361000CB68C36010301031103AF3D20C3205D3AE
:1036200051F8043B40F8043B043AF9D2043208D084
:10363000D2071CBF11F8013B00F8013B01D30B88F6
:1036400003806046704700BF082A13D38B07B1D0B0
:1036500010F00303AED0C3F10403D21ADB071CBF82
:1036600011F8013B00F8013BA4D331F8023B20F8EC
:10367000023B9FE7043AD9D3013A11F8013B00F825
:10368000013BF9D20B7803704B7843708B788370D1
:103690006046704770B4860746D0541E002A41D059
:1036A000CAB2034602E014F1FF343BD303F8012B06
:1036B0009D07F8D1032C2ED9CDB245EA05250F2C54
:1036C00045EA054519D9264603F11002103E0F2E92
:1036D00042F8105C42F80C5C42F8085C42F8045C6A
:1036E00002F11002F2D8A4F1100222F00F0204F04D
:1036F0000F041032032C13440DD91E462246043AFF
:10370000032A46F8045BFAD8221F22F0030204328F
:10371000134404F003042CB1C9B21C4403F8011B88
:103720009C42FBD170BC704714460346C2E700BF01
:10373000704700BF704700BF38B50023064C0546F0
:1037400008462360FDF720FE431C00D038BD2368E7
:10375000002BFBD02B6038BD400F002000290CBF90
:10376000022200224FF4806300F000B82DE9F043FC
:10377000504D83B02D6804460F4690461E4615B145
:10378000AB6B002B77D0B8F1020F04D0B8F1010F6A
:103790007DD8002E7BDB2146284603F043FB216BBE
:1037A00041B104F14003994202D0284603F0A0FC45
:1037B000002323630022B4F90C30A26162601A0670
:1037C00052D423F44A6323F00303B8F1020FA38118
:1037D00037D001AB6A462146284603F02DFFA38966
:1037E0001843A08116B317B3AB6B002B4BD0009BD3
:1037F00027609E42B4F90C3027611CBF43F400637C
:10380000A381B8F1010F04BF43F00103A3819BB270
:1038100013F00800666123D013F001002FD00020C0
:103820007642A661A06003B0BDE8F083009E3046FA
:10383000FFF7D8FB074668B3A38943F08003A38151
:10384000D2E700200025012104F1430243F00203E6
:10385000A381A56061612260226103B0BDE8F083AD
:10386000A06003B0BDE8F0832169284603F040FC66
:10387000B4F90C30A5E7284603F068FB83E7A6609F
:1038800003B0BDE8F083284603F060FBAFE74FF0DC
:10389000FF30E2E7DDF80090B14506D04846FFF77B
:1038A000A1FB074608B14E46C6E7B4F90C304FF00D
:1038B000FF30C7E7000100200EB40146F0B56FF0FD
:1038C00000454FF402774FF6FF769CB021AC54F8D8
:1038D000042B0B4B02910691186802A92346019410
:1038E000ADF8147004950795ADF8166000F0E8F88F
:1038F0000022029B1A701CB0BDE8F04003B0704774
:1039000000010020830710B5044610D10268A2F11F
:10391000013323EA020313F0803F08D150F8042F4B
:10392000A2F1013323EA020313F0803FF6D00378BB
:103930001BB110F8013F002BFBD100F003F820462B
:1039400010BD00BF80EA0102844612F0030F4FD180
:1039500011F0030F32D14DF8044D11F0040F51F85E
:10396000043B0BD0A3F101329A4312F0803F04BF15
:103970004CF8043B51F8043B16D100BF51F8044BFE
:10398000A3F101329A4312F0803FA4F101320BD12E
:103990004CF8043BA24312F0803F04BF51F8043BB3
:1039A0004CF8044BEAD023460CF8013B13F0FF0F10
:1039B0004FEA3323F8D15DF8044B704711F0010F43
:1039C00006D011F8012B0CF8012B002A08BF704714
:1039D00011F0020FBFD031F8022B12F0FF0F16BF0B
:1039E0002CF8022B8CF8002012F47F4FB3D17047D3
:1039F00011F8012B0CF8012B002AF9D1704700BFF8
:103A000020F0030110F00300C0F1000051F8043B66
:103A100000F1040C4FEACC0C6FF000021CBF22FA3C
:103A20000CF213434FF0010C4CEA0C2C4CEA0C4CFA
:103A3000A3EB0C0222EA030212EACC1204BF51F8F3
:103A4000043B0430F4D0C2F1000102EA0102B2FAF0
:103A500082F2C2F11F0200EBD200704740EA01037C
:103A600013F0030F70B4034624D0A2B10C78013ACE
:103A70001C70013101333CB16AB111F8014B013ABC
:103A800003F8014B002CF7D12AB100211A4403F8A6
:103A9000011B9A42FBD170BC70470E4651F8045B83
:103AA000A5F1013424EA050414F0803F05D1043A5D
:103AB00043F8045B032AF0D8D7E73146D6E700BFC6
:103AC0002DE9F04FC3B00C460B9192460F930C902A
:103AD00003F0A4FD036818461A93FFF791FFA3892A
:103AE0001990190603D52369002B01F031800023BA
:103AF0000DF1C809C84614931393159318931B939B
:103B000009931693179327932693CDF894909AF8D8
:103B100000305446EBB1252B02D11AE0252B03D0FF
:103B200014F8013F002BF9D1A4EB0A058DB1269BB7
:103B3000279A01332A44072BC8F800A0C8F804507C
:103B40002792269300F38A8008F10808099B2B44EA
:103B500009932378002B00F0898000234FF0FF3079
:103B60001A468DF8773019460D939B46637804F119
:103B7000010A0A900AF1010AA3F12000582800F274
:103B8000B683DFE810F04B03B403B4035303B4036C
:103B9000B403B403B403B403B40359005803B40327
:103BA00066001402B4032F02A403A403A403A40315
:103BB000A403A403A403A403A403B403B403B4039D
:103BC000B403B403B403B403B403B403B4038B0267
:103BD000D302B403D302B403B403B403B4031A038B
:103BE000B403B4031F03B403B403B403B403B403B2
:103BF0003402B403B4034B02B403B403B403B403F8
:103C0000B403B403B403B403B403B40376029D0352
:103C1000D302D302D30262039D03B403B403670348
:103C2000B4037403DD018B035D03B403F201B40339
:103C30008700B403B40331030F9C236818460D9327
:103C40002346002803F104030F9304DA0D9B5B4223
:103C50000D934BF0040B9AF800308BE725AA0B99D3
:103C60000C9804F011FB40B9C8466FE7279B23B1BD
:103C70000C9825AA0B9904F007FB0B9B9B8913F06A
:103C8000400F099B18BF4FF0FF330993099843B0C9
:103C9000BDE8F08F1BF0200F119340F0AF810F9A19
:103CA0001BF0100F134640F096851BF0400F00F0FC
:103CB000928500250123148804320F9200221746B2
:103CC0008DF877200A994A1C00F010822BF08002B0
:103CD000079254EA050240F00F82002940F02D843B
:103CE000002B40F035851BF001030E9300F05E863B
:103CF000302342AE06F8413D0A9B0E9A9342B8BF6C
:103D0000134608930023129317B1089B01330893BD
:103D1000079B13F00203109302D0089B0233089311
:103D2000079B13F0840540F00E830D9B089AA3EBCC
:103D3000020BBBF1000F40F30683BBF1100F40F301
:103D4000AE87279C43462146A8461027269A0C9CFE
:103D50000B9D06E0ABF1100BBBF1100F03F1080354
:103D600018DD0132AB481031072A2791269283E8EB
:103D70008100EFDD25AA2946204604F085FA0028B7
:103D80007FF47BAFABF1100BBBF1100F4B462799C3
:103D9000269AE6DC45460C46984601329D4B5C442B
:103DA000072A2794269288E8080800F3C1829DF824
:103DB000777008F1080887B10121269B0C440B4459
:103DC0000DF17702072B27942693C8F80410C8F842
:103DD000002000F3C98308F10808109B7BB1022181
:103DE000269B0C4401331EAA072B27942693C8F860
:103DF0000410C8F8002000F30D8408F10808802D95
:103E000000F001830A9B0E9A9F1A002F37DD102FB6
:103E100040F37586804D42462146B0464FF0100B68
:103E20002E46269B0C9C0B9D04E0103F102F02F1A8
:103E3000080215DD01331031072B2791269382E804
:103E40004008F2DD25AA2946204604F01DFA002884
:103E50007FF413AF103F102F4A462799269BE9DCC9
:103E600035460C464646904601333C44072B279482
:103E7000269388E8A00000F36C8308F10808079BEC
:103E8000DF0500F16282269B0E9901330C44072B5B
:103E90002794C8F80060C8F80410269300F3AF8395
:103EA00008F10808079B5B073BD50D9B089A9D1AF4
:103EB000002D36DD102D40F31D871026269B0C9F0C
:103EC000DDF82CB004E0103D102D08F1080816DDD7
:103ED0000133504A1034072B2794269388E8440076
:103EE000F1DD25AA5946384604F0CEF900287FF4C2
:103EF000C4AE103D102DC846279C269BE8DC01333C
:103F0000444A2C44072B2794269388E8240008DD94
:103F100025AA0B990C9804F0B7F900287FF4ADAEF0
:103F2000279C099B0D9A08998A42ACBF9B185B1885
:103F30000993002C40F0F7820023C8462693E6E55B
:103F400011931BF0200340F044811BF0100240F05D
:103F500062841BF0400300F05E840F9913460A460A
:103F600004320C8800250F92A8E600250F9A1193C1
:103F700016688DF87750141D002E00F0C9860A9A35
:103F8000531C00F017862946304603F0DDFB00285D
:103F900000F00987831B0A950E930F94CDF81CB08F
:103FA00023EAE373089312959DF87770ACE69AF8CC
:103FB00000300AF101042A2B00F0BD87A3F1300084
:103FC0000928A24600F2148700231C461AF8013B78
:103FD00004EB840400EB4404A3F130000928F5D974
:103FE0000A94C9E54BF0800B9AF80030C2E54BF01B
:103FF000100B1BF0200F11933FF451AE0F9C0734B0
:1040000024F0070303F10802D3E900450F920123CE
:1040100054E600BFF89A4000089B40001193002A24
:1040200040F0A887BD4B1BF0200F189340F0E680AE
:104030000F9A1BF0100F134640F0D4831BF0400F73
:1040400000F0D0830025043314880F931BF0010F78
:1040500000F0E28054EA050300F0DE8030239DF892
:1040600044208DF878308DF879204BF0020B022334
:1040700024E601221193002311460F98089202684A
:104080001F468DF877300A931293031DCDF81CB0AC
:104090000E918DF8A0200F9328AE39E61193002AD7
:1040A00040F07F874BF0100B1BF0200F40F0718425
:1040B0000F9A1BF0100F134640F099831BF0400F2E
:1040C00000F09583B2F900400433E5170F932246C0
:1040D0002B46002A73F10003C0F294830A999DF8DD
:1040E00077704A1C4FF001037FF4F0AD54EA0502EB
:1040F00000F02582CDF81CB0012B00F00A83022BC2
:1041000040F098824E461898230943EA057329091E
:1041100004F00F020D461C46835C06F8013D54EA8C
:104120000503F1D1A9EB06030E93E5E51193002AEF
:1041300040F033870F9C1BF0080F04F1070400F0D8
:10414000CB8424F0070303F108020F921A685B681E
:1041500014921593159B149D23F000442846214684
:104160004FF0FF326E4B04F075FD002840F03084B4
:10417000284621464FF0FF32694B04F04DFD0028E0
:1041800040F0268414A80FC804F03CFD002840F03D
:10419000D1859DF8777003231A46089300231946AA
:1041A0000A93604E604B0E92119A2BF0800007909C
:1041B0001291472AD8BF1E46A6E54BF0080B9AF885
:1041C0000030D7E44BF0100B11931BF020033FF4A9
:1041D000BCAE0F9C073424F0070303F10802D3E9B7
:1041E00000450F92002369E51193002A40F0BE8636
:1041F0004E4B1BF0200F18933FF41AAF0F9C1BF08F
:10420000010F04F1070424F0070303F108020F92E1
:10421000D3E900457FF41EAF02234FE59AF8003042
:1042200000297FF4A7AC01222021A3E44BF0010B6D
:104230009AF800309EE49AF8003001222B2199E48C
:104240004BF0200B9AF8003094E44BF0400B9AF8B6
:1042500000308FE49AF800306C2B03BF9AF80130DD
:104260004BF0200B0AF1010A4BF0100B82E4002AFC
:1042700040F078861BF0200F40F04F841BF0100FA9
:1042800040F035841BF0400F00F031840F9A136822
:1042900004320F92BDF824201A8038E478233022AB
:1042A0000F988DF879301193031D0F931F4B0468FD
:1042B00018934BF0020B8DF8782000250223FDE4C3
:1042C0001193002A3FF4F0AE8DF87710ECE6002051
:1042D0000446A3F130001AF8013B04EB840400EB20
:1042E0004404A3F130000928F5D90D9444E4119356
:1042F000002A40F04686119A002A3FF4B7AC00230A
:1043000001211F4608918DF8A020CDF81CB08DF832
:1043100077300A9312930E9128AEF9E4C49A4000C4
:10432000FFFFEF7FB89A4000B49A4000D89A40004F
:1043300025AA0B990C9803F0A7FF00287FF49DACE9
:10434000C8469DF87770279C35E5119B652B40F397
:10435000998014A80FC804F04BFC002800F092814B
:104360000121269BB44A0B440C44072B2794269327
:10437000C8F80410C8F8002000F3C58308F1080845
:104380001F9B139A279C934203DB079BDD077FF556
:1043900089AD269B199901331A9A0C44072BC8F84A
:1043A0000020C8F804102794269300F3C38308F173
:1043B0000808139B5E1E002E7FF774AD102E40F38D
:1043C000748522461027269B9C4DDDF830B00B9C4F
:1043D00005E008F10808103E102E40F32482013356
:1043E0001032072B2792269388E8A000F1DD25AA3A
:1043F0002146584603F048FF00287FF43EACC846EB
:10440000279A269BE7E70D9B089A9F1A002F7FF7B4
:10441000F9AC102F40F3A784884D42462146B046A0
:104420004FF0100B2E46269B0C9C0B9D04E0103F7A
:10443000102F02F1080215DD01331031072B2791EF
:10444000269382E84008F2DD25AA2946204603F09B
:104450001BFF00287FF411AC103F102F4A4627990C
:10446000269BE9DC35460C464646904601333C44E3
:10447000072B2794269388E8A00000F39D8208F17B
:104480000808BFE4139B012B40F34E820123269FB3
:104490001C441F44072F2794C8F800602697C8F8CB
:1044A000043000F35E8208F10808199A01371A9B5C
:1044B0001444072F27942697C8F80030C8F8042022
:1044C00000F35B8208F1080814A80FC804F090FB01
:1044D000139B002840F04181013B013701361C4409
:1044E000072FC8F8006026972794C8F8043000F317
:1044F000668108F108081B9A0137144421AB072F85
:1045000027942697C8F80420C8F800307FF7C8AC75
:1045100025AA0B990C9803F0B7FE00287FF4ADABE9
:10452000C846279CBEE425AA0B990C9803F0ACFE64
:1045300000283FF401ADFFF7A0BBDDF81CB0012B54
:1045400000F07E81022B71D1CDF81CB00024002533
:10455000D8E525AA0B990C9803F096FE00287FF465
:104560008CABC846279C8AE425AA0B990C9803F0CB
:104570008BFE00287FF481ABC846279C2DE40120E8
:10458000269B2D4A03440444072B27942693C8F8FE
:104590000400C8F8002040F3D88225AA0B990C9893
:1045A00003F072FE00287FF468ABC8461F99279C71
:1045B00029B9139B1BB9079BD8077FF573AC1998D2
:1045C000269B0246013322441A9C072B2792C8F8E7
:1045D0000040C8F80400269300F3318408F108086D
:1045E0000029C0F20984139901338C18072B2794F2
:1045F0002693C8F80060C8F804107FF751AC25AACC
:104600000B990C9803F040FE00287FF436AB279CF2
:10461000C84647E425AA0B990C9803F035FE0028FC
:104620007FF42BABC846279CFFF7E9BB002400258D
:10463000CDF81CB0494604E0F49A4000089B4000C5
:104640003146E20842EA4572E80804F007030546ED
:104650001446303354EA050201F8013C01F1FF36FB
:10466000EED1079AD2077FF55DAD302B3FF45AADFE
:104670003023023906F8013CA9EB01030E930E46E4
:10468000FFF73ABB1F9900297FF779AF129B139A66
:104690009342A8BF1346002B1F460BDD269B3C44CC
:1046A0000133072B279488E8C000269300F3FB8290
:1046B00008F10808129B002FA8BFDB1B002B1F4628
:1046C00040F3D780102B40F33384BA4D4246214645
:1046D000B0464FF0100B2E46269B0C9C0B9D04E021
:1046E0000832103F102F40F3B58001331031072BF3
:1046F0002791269382E84008F2DD25AA2946204624
:1047000003F0C2FD00287FF4B8AA4A462799269BE9
:10471000E7E7002D08BF0A2CC0F090804E462046E7
:1047200029460A22002304F0D3FA303206F8012D7C
:104730002046294600230A2204F0CAFA04460D4600
:1047400054EA0503EBD1A9EB06030E93FFF7D4BAA5
:104750000A9B4E460E93FFF7CFBA5E1E002E7FF7E0
:10476000CAAE102E40F3E28322464FF0100B914D5B
:104770000C9C04E0103E102E08F1080815DD0137EE
:104780001032072F2792269788E82008F2DD25AA05
:104790000B99204603F078FD00287FF46EAA103EA6
:1047A000102EC846279A269FE9DC14460137344468
:1047B000072F2794269788E860007FF79AAE25AAEE
:1047C0000B990C9803F060FD00287FF456AA279CF3
:1047D000269FC8468FE604321C68002501230F92ED
:1047E000FFF76CBA1C6804330F9300252EE41C6895
:1047F0000433E51722460F932B46002A73F100037A
:10480000BFF66CAC2D27644265EB45058DF87770DB
:104810000123FFF757BA0F9900250A4604320C68A6
:104820000F92FFF74BBA144601333444072B2794F9
:10483000269388E860007FF733ABE0E6DDF81CB034
:10484000012342AE3034CDF81CB006F8414D0E9332
:10485000FFF752BA35460C464646904601333C4473
:10486000072B2794269388E8A00000F3468208F1DE
:1048700008081F9A139B9A4245DB079BD90742D42D
:10488000139B12989A1A1D1A9542A8BF1546002D1F
:104890000EDD2699064401312C440729C8F8006032
:1048A0002794C8F80450269100F3168208F10808EE
:1048B000002DB4BF1646561B002E7FF7F3AA102E0C
:1048C00040F3F38222461027269B3A4DDDF830B0A4
:1048D0000B9C04E008F10808103E102EA3DD013304
:1048E0001032072B2792269388E8A000F2DD25AA34
:1048F0002146584603F0C8FC00287FF4BEA9C846EC
:10490000279A269BE8E7269B199801331A990444B5
:10491000072B2794C8F80010C8F80400269300F36A
:10492000CF8108F10808ABE7079BDA073FF5AEAD8A
:104930000123269F1C441F44072F2794C8F80060BA
:104940002697C8F804307FF7D4AD25AA0B990C98A8
:1049500003F09AFC00287FF490A9C846279C269F64
:10496000C9E525AA0B990C9803F08EFC00287FF46A
:1049700084A9C846279C269F97E525AA0B990C98E1
:1049800003F082FC00287FF478A9C846279C269F64
:104990009AE50F9C073424F0070404F10801D4E9D8
:1049A00000230F9114461D46FFF793BB4E46FFF7B9
:1049B000A3B900BF089B400025AA0B990C9803F0EF
:1049C00063FC00287FF459A9C846279CFFF71ABA50
:1049D000149C22462046159C2346214604F03AF9B1
:1049E000002840F073820A9B0133119B23F02003BF
:1049F0000E9300F09C81472B00F0D6804BF480731F
:104A00000793159B1F1E149B0893B7BF3B460023BB
:104A100003F100472D231093119B662B00F090812A
:104A2000462B00F0A48002200E9B23A9452B0ABF31
:104A30000A9B0A9D5D1C8DE82100049120A81FA9F6
:104A40003B460390089A02910C9801F02DFA119BB5
:104A50000646672B40F0BA811BF0010F00F023825D
:104A60007419169A0898179B394604F0C1F8002863
:104A700040F02481239BA34206D230215A1C23926A
:104A80001970239B9C42F9D89B1B13930E9B472BB9
:104A900000F0A280119B652B40F3A781119B662B30
:104AA0001F9B129300F07181139B129A1946914239
:104AB00000F35D811BF0010F40F0F08122EAE27308
:104AC000089367230E921193109B002B7DD10A93BC
:104AD0009DF87770FFF718B924F007042368149342
:104AE0006368159304F108030F93FFF733BB0F9A24
:104AF000136804320F92099A1A60FFF708B8269BD0
:104B0000AF4DFFF7B1B925AA0B990C9803F0BCFB88
:104B100000287FF4B2A8C84632E40F9A1346043343
:104B20000F93099B1168DD171A462B46C1E9002334
:104B3000FEF7EDBF25AA0B990C9803F0A5FB002802
:104B40007FF49BA8C846279C33E408F108082FE5AA
:104B500040210C98FEF756FA0B9A1060106100285D
:104B600000F0138240230B9A5361FEF7C0BF03206D
:104B70000A9C23A98DE81100049120A81FA9039085
:104B8000089A3B4602910C9801F08EF9254606469C
:104B9000119B7419462B7FF464AF3378302B00F0EF
:104BA00087811F9D2C445CE70A9B002B08BF0123D3
:104BB0000A9323E730460A95FEF722FF0F940E90E2
:104BC000CDF81CB00346FFF7EBB92D2700238DF875
:104BD00077700A93FFF799B81F9B1A461293033315
:104BE00004DB0A9B19469142BFF65EAF119B023B64
:104BF0001193129B9DF84420013B002B8DF88420DB
:104C0000B4BF2D222B221F93B8BF129B8DF8852095
:104C1000B8BFC3F10103092B40F31F810DF19300CD
:104C20000146684C00E0114684FB0352DD17C5EBDA
:104C3000A20505EB8502A3EB42023032092D01F8F3
:104C4000012C2B4601F1FF32EDDC30330239DCB2AE
:104C5000884202F8014C40F291810DF18601134621
:104C600001E013F8014B834201F8014BF9D1013304
:104C70009B1A0DF18602134421AA9B1A139A1B93C7
:104C8000012A13440E9340F347810E9B199A134453
:104C90000E9323EAE37308930023129314E7279CEF
:104CA000269AFFF77AB825AA0B990C9803F0ECFA2C
:104CB00000287EF4E2AFC846279CFBE42346E3E6E7
:104CC00025AA0B990C9803F0DFFA00287EF4D5AFE3
:104CD000C8461F9A279CD3E525AA0B990C9803F088
:104CE000D3FA00287EF4C9AF1F9A139BC846279CAD
:104CF0009A1ADDE5269BFFF702B925AA0B990C98B5
:104D000003F0C2FA00287EF4B8AFC846279CB0E58D
:104D10000A9B3746062B28BF06230A96129608934D
:104D20000F94CDF81CB00E93274EFEF7EDBF06236F
:104D30000A9363E62D231F468DF87730FFF72BBAD1
:104D400003200A9C23A98DE81100049120A81FA923
:104D50000390089A3B4602910C9801F0A5F825466D
:104D60000646041919E7269B154DFFF77FBB199AD4
:104D7000139B1344129A0E93002A40F3C68023EA31
:104D8000E3730893672311939EE6002B40F3E080C2
:104D90000A9A002A40F0AF801BF0010F40F0AB8070
:104DA00008930E9390E60A9B0F9408930E930A9033
:104DB000CDF81CB012909DF87770FEF7A5BF00BF2C
:104DC000089B400067666666EC9A4000119B472B83
:104DD0007FF446AE1BF0010F7FF4DAAE239B9B1BE2
:104DE00013930E9B472B3FF4F7AE1F9B129300E7E4
:104DF00000200A90FEF7C0BE4F42103135DA102471
:104E00006A4DDDF830B004E008F10808103F102FBB
:104E10002CDD01331032072B27922693C8F800505F
:104E2000C8F80440F0DD25AA0B99584603F02CFA87
:104E300000287EF422AFC846279A269BE6E725AADB
:104E40000B990C9803F020FA00287EF416AFC846A0
:104E50001F99279A269BFFF7C3BB302213448DF876
:104E600087308DF8862022AB06E7504D01333A4457
:104E7000072B88E8A0002792269308F108087FF7FF
:104E8000B2AB25AA0B990C9803F0FEF900287EF42A
:104E9000F4AEC846279A269BFFF7A5BB129B199A2A
:104EA00013440E936BE7239BEEE5269B3F4DBBE43B
:104EB000169A0898179B394603F09AFE00287FF44B
:104EC00070AEC5F101051F952C44CAE503231A46AF
:104ED0000893002319460A93354E364B0E92119AC9
:104EE0002BF0800007901291472AD8BF1E469DF8EC
:104EF0007770FEF709BF129B199A13440A9A1A4455
:104F000022EAE2730E920893DEE5129B0E9AC3F139
:104F100001031A441346C4E71BF0010312937FF404
:104F2000B4AE0E9B23EAE3730893CDE51F4D3DE439
:104F3000269B1E4D92E40F9D9AF801302868A246E8
:104F400040EAE0700A90284604300F90FEF712BE47
:104F50000A9B13B91BF0010F02D0199B0133CDE757
:104F600001231DE78DF87710FFF784B98DF87710CE
:104F7000FFF73EB98DF87710FFF754B80DF18603AF
:104F80007AE68DF87710FFF7B6B94FF0FF320C23B1
:104F900009920C9A1360FEF779BE8DF87710FFF72F
:104FA000C9B88DF87710FFF77DB800BF089B4000A7
:104FB000C09A4000BC9A40002DE9F84F4B6E9346D2
:104FC0009C042FD59368126853B30E46074602F12E
:104FD000080919E920045FEA9A0817D00024043D63
:104FE00001E0A04510D0324655F8041F384602F0C3
:104FF0001DF8431C04F10104F3D10023CBF8083061
:10500000CBF80430BDE8F88FDBF808302AF0030A4B
:10501000A3EB0A03CBF8083009F10809002BD8D11B
:105020000020EAE702F04AF90023CBF80830CBF879
:105030000430BDE8F88F00BF2DE9F04FADB01D463C
:10504000019191460893069018B1836B002B00F0F4
:10505000E080019CB4F90C0081B28B0407D4636E2C
:1050600040F4005123F40053A181636689B20F0715
:1050700040F1B180019B1B69002B00F0AC8001F076
:105080001A010A2900F0B58000230DF1700AD346F9
:105090000B93049311931093CDF83CA099F8003032
:1050A0004C46FBB1252B02D11CE0252B03D014F874
:1050B000013F002BF9D1A4EB09059DB1109B119A7A
:1050C00001332A44072BCBF80090CBF804501192FF
:1050D00010937ADD002A40F09384D346049B10920B
:1050E0002B4404932378002B00F0B68300204FF06C
:1050F000000304F101098DF8373062780646054651
:1051000003464FF0FF3409F10109A2F120015829AB
:1051100000F20A83DFE811F03F0208030803E70208
:105120000803080308030803080308038000EC02CF
:10513000080388007F020803D601DB01DB01DB01E5
:10514000DB01DB01DB01DB01DB01DB010803080321
:1051500008030803080308030803080308030803F7
:1051600047020803080308030803080308030803A9
:105170000803080308034E02080308030803080392
:1051800008035202080308035A020803080308032D
:105190000803080308030803080308030803E901D8
:1051A000FE010803080308030303FE0108030803C4
:1051B00099020803F1028D00AD02BF020803C40288
:1051C0000803C40108030803A6020BF1080B049BA3
:1051D0002B44049386E7019C0698214600F05CFD71
:1051E000002840F04583A18901F01A010A297FF4C3
:1051F0004BAF0199B1F90E30002BFFF645AF2B46AE
:105200004A46069800F012FD049004982DB0BDE8BF
:10521000F08F01F09BFE1CE708990A460D680432E6
:10522000002D089202DA6D4243F0040399F8002041
:1052300069E7079513F0200240F03D8413F0100158
:1052400040F0E98313F0400200F0E58308980A4635
:10525000014600270431068808914FF0000100251F
:105260008DF83710611C00F0778123F080010391E5
:1052700056EA070140F07581002C40F05483002A63
:1052800040F0938313F00103059300F04284302330
:105290000DF1B00808F8413D059BA342B8BF234675
:1052A00002930DB101330293039B13F002030993A0
:1052B00002D0029B02330293039B13F084030A93F0
:1052C00040F06182079B029A9D1A002D40F35B8299
:1052D000102D40F36884109BDE461027A346119AD8
:1052E000B84E1946069C07E001F1020C01460EF18A
:1052F000080E103D102D11DD481C103207281192A8
:105300008EE8C0001090EFDD002A40F02782103DAB
:10531000102D11464FF0010CD646EDDC5C4661467F
:10532000F3462A4407291192CBF80060CBF80450C9
:10533000109100F3E4829DF837500BF1080B481CE4
:10534000002D40F02882099B002B00F042820221B0
:105350000EAB0A44072811921090CBF80410CBF83A
:10536000003040F33282002A40F078830A9B01200B
:10537000802B1146D34640F03082079B029D5E1B76
:10538000002E40F32A82102E40F32884DC4610279A
:10539000A3468D4D069C07E001F1020E01460CF17B
:1053A000080C103E102E11DD481C103207281192F7
:1053B0008CE8A0001090EFDD002A40F09382103EB0
:1053C000102E4FF0010E1146D446EDDC5C46E3464C
:1053D0003244BEF1070F11928BE86000CDF840E037
:1053E00000F35683059B0BF1080BE41A002C0EF119
:1053F0000100714600F3F681059907280A441192CD
:10540000CBF80080CBF80410109040F35282002AB1
:1054100040F0EB82039B1092580738D5079B029906
:105420005C1A002C40F3B782D346102C40F3CA8399
:1054300010251099634E069FDDF8048006E0881C55
:1054400019460BF1080B103C102C13DD4B1C1032CD
:10545000072B1192CBF80060CBF804501093EEDDCF
:10546000002A40F00982103C102C4FF00100114638
:10547000D346EBDC224407281192CBF80060CBF82E
:105480000440109040F32082002A40F05483049B93
:10549000079A02998A42ACBF9B185B1804931CE2DE
:1054A00007959E0600F113830899DD060A4600F170
:1054B000C582580640F1C2820E88043100270122BD
:1054C0000891CAE643F0800399F800201BE6002506
:1054D000A2F1300119F8012B05EB850501EB45051B
:1054E000A2F130010929F5D90FE6012208981146E9
:1054F000029202684FF000048DF848200246043200
:1055000007958DF83740059108920DF148080393EF
:105510000024C9E60795002840F07E839E0600F12E
:10552000EC820899DD060A4600F18182580640F1B6
:105530007E82B1F900600432F7173046394608928E
:10554000002871F10002C0F2E782611C9DF837501B
:105550004FF001027FF489AE56EA070100F0E481C2
:105560000393012A00F02482022A40F0F181D04600
:105570000B98330943EA0773390906F00F020F4607
:105580001E46835C08F8013D56EA0703F1D1AAEBF9
:105590000803059380E699F80020002E7FF4B3AD50
:1055A00001202026AFE50795002840F0328343F024
:1055B0001003B3E7079543F010033BE6079543F06C
:1055C00010036EE7189B4000289B400007950028B9
:1055D00040F01683AE490B919F0600F18482089833
:1055E000DE06014600F11E825D0640F11B820027A7
:1055F000043106880891D80740F1D58156EA0701A1
:1056000000F0D18130218DF8392043F002038DF86C
:105610003810022221E699F8002009F101072A2A10
:1056200000F0E082A2F130010929B9464FF00004F0
:105630003FF66BAD19F8012B04EB840401EB440435
:10564000A2F130010929F5D95FE599F800206C2A0B
:1056500003BF99F8012043F0200309F1010943F049
:10566000100350E50795002840F0D08289490B913E
:10567000B2E7782230210795089D8DF839202A1D40
:105680000892844A2E680B9243F002038DF838107A
:1056900000270222E1E543F0200399F8002032E5DB
:1056A0004FF0000208990795D1F800808DF8372057
:1056B0000D1DB8F1000F00F07C82671C00F05B82CA
:1056C000224600214046029302F03EF8029B002849
:1056D00000F07C82A0EB08020895059203939DF8E8
:1056E00037500024D8E543F0010399F800200AE57B
:1056F00099F8002001202B2605E5002840F0838240
:10570000990600F12B82DA0621D45B061FD5089A90
:10571000136804320892BDF810201A80BEE443F0EA
:10572000400399F80020EEE40795002840F06582D8
:10573000002A00F0918001218DF848204FF00002EE
:1057400002918DF8372005910DF14808DFE6089A9F
:10575000136804320892049A1A609FE40FAA019910
:105760002046FFF729FC00287DD11099D646119AD2
:1057700001F1010CBDE50FAA01990698FFF71CFC89
:10578000002870D1D34610999DF83750119A481CC3
:10579000002D3FF4D8AD01210DF137050A4407284B
:1057A00011921090CBF80410CBF8005040F3B68063
:1057B000002A40F06081099B002B3FF4D7AD022204
:1057C0000846D3460EAB1D921C9301460BF1080B05
:1057D00001300A9B802B3FF4D0AD059BE41A002CCE
:1057E0007FF70AAE102C40F3B781DE4610262A4D13
:1057F000069FDDF804B006E0881C19460EF1080E7D
:10580000103C102C0FDD4B1C1032072B11928EE830
:1058100060001093F0DDA2B9103C102C4FF0010095
:105820001146D646EFDCF346224407281192CBF806
:105830000050CBF80440109030DC0BF1080B013025
:10584000DAE50FAA59463846FFF7B6FB58B9109962
:10585000D646119A481CD3E7119B23B106980FAA8C
:105860000199FFF7A9FB019B9B895B067FF5CDACF6
:105870004FF0FF330493C8E40FAA41463846FFF7C0
:105880009BFB0028EFD11099D346119A481CDAE50A
:10589000C49A4000D89A4000289B4000002A40F05B
:1058A000FD800123D346059ACDF870801D92119298
:1058B00010930BF1080B039B590705D5079B029921
:1058C0005C1A002C3FF7B1AD049B07990298814206
:1058D000ACBF5B181B1804937ABB0023D34610930C
:1058E000FFF7DCBB0FAA01992046FFF765FB0028F4
:1058F000B9D11099D446119A01F1010E51E5002A4F
:105900007FF439AF9DF83710002900F00E81012295
:10591000D34610460DF137011D921C9101460BF143
:10592000080B01300FE5039B012A00F08E80022A4C
:105930000BD103930026002719E60FAA01990698B8
:10594000FFF73AFB0028C8D08DE700260027039315
:10595000514600E04146F20842EA4772F80806F074
:10596000070307461646303356EA070201F8013CA2
:1059700001F1FF38EED1039AD6077FF508AE302B40
:105980003FF405AE3023023908F8013CAAEB0103CD
:105990000593884680E4049B079A8A42ACBF9B1813
:1059A0005B18049399E7022257E40594D04673E408
:1059B000002F08BF0A2E47D3D046304639460A2268
:1059C000002303F085F9303208F8012D30463946BE
:1059D00000230A2203F07CF906460F4656EA070325
:1059E000EBD1AAEB0803059356E40FAA0199069898
:1059F000FFF7E2FA00287FF436AFD346119A5AE750
:105A00000FAA01990698FFF7D7FA00287FF42BAF69
:105A1000D346FFF7DCBB089800270146043106682F
:105A200008911AE40E68043108910027E3E516682E
:105A30000432F71708923046394681E5043116687A
:105A400000270122089108E4039B039301230DF131
:105A5000B008303608F8416D05931DE40FAA01998E
:105A60000698FFF7A9FA00287FF4FDAE1099D346F7
:105A7000119A481CADE60FAA01990698FFF79CFA07
:105A800000287FF4F0AE1099D346119A481C5AE4CE
:105A9000002A7BD101201146D3469EE60FAA019928
:105AA0000698FFF789FA00287FF4DDAE1098D346F8
:105AB000119A0130A0E4089D073525F0070202F194
:105AC0000801D2E9006708910022FFF7C6BB089DD4
:105AD000073525F0070202F10801D2E900670891B5
