:020000040040BA
:1000000070390020F50B4000F30B4000F30B40006B
:10001000F30B4000F30B4000F30B40000000000026
:10002000000000000000000000000000F30B400092
:10003000F30B400000000000F30B4000F30B400006
:10004000F30B4000F30B4000F30B4000F30B4000B8
:10005000F30B4000F30B4000F30B4000F30B4000A8
:10006000F30B4000F30B400000000000A10740002C
:10007000B5074000C9074000F30B4000F30B4000F8
:100080000000000000000000F30B4000F30B4000F4
:10009000F30B4000F30B4000F30B4000FD10400059
:1000A00029114000F30B4000F30B4000F30B40001C
:1000B000F30B4000F30B4000F30B4000F30B400048
:1000C000F30B4000F30B4000F30B400010B5054C60
:1000D000237833B9044B13B10448AFF300800123F4
:1000E000237010BD6008002000000000983540001B
:1000F0000C4B43B10C480D4910B5AFF300800C48D0
:10010000036823B910BD0A48036833B97047094B27
:10011000002BF7D0BDE810401847064B002BF5D058
:10012000184700BF00000000983540006408002018
:10013000983540000000000010B50E480E4B98475F
:100140003E2100200D4B98470D4CA0470028FCD0C5
:100150000C4B98470C4A0D4B9A620D4CA047002857
:10016000FCD010200B4B98470B4B98470148024B93
:10017000984710BD000E2707B10D40004108400010
:1001800095084000A5084000013F132000040E40E0
:10019000B5084000DD074000A10C40002DE9F0410A
:1001A00080B90C469046002A0FDD8F18084E094D85
:1001B000306821462B6898470134BC42F8D140464C
:1001C000BDE8F0814FF0FF38F9E78046F7E700BF60
:1001D00038090020300900200138022815D82DE9FF
:1001E000F0410E4614469AB10D46DFF838800C4FA8
:1001F000D8F8000015F8011B3B68984700280ADB77
:10020000A81B013CF4D1BDE8F0814FF0FF307047EE
:100210001046BDE8F0814FF0FF30BDE8F08100BF2F
:10022000340900203809002038B54FF40042464B0D
:100230005A600B20454CA0470C20A0470D20A0473A
:100240004FF060511320424CA0474FF060511420F2
:10025000A04740492320A0473F494C20A0474FF0EA
:1002600000624FF4C0613D483D4B98474FF08051CC
:100270000020A0474FF080510820A0474FF0805148
:100280005220A0474FF000610C20A0474FF00061C2
:100290000D20A0474FF000610E20A0474FF00061F5
:1002A0000B20A0474FF000611520A0474FF00061E0
:1002B0001620A0474FF040511720A0471720294B88
:1002C0009847294D29464020A04729464120A0476C
:1002D00029464220A04729464320A04729464420DA
:1002E000A04729464520A04729464620A047294641
:1002F0004720A04729464B20A04729464820A04731
:1003000029464F20A04729465320A0474FF040518F
:100310004D20A04705F1005529461020A047294649
:100320001120A0474FF000610C20A0474FF0006162
:100330000D20A0474FF000610E20A0474FF0006154
:100340000B20A04738BD00BF50140E40C508400028
:10035000D10440007900002859000028000E0E400A
:10036000F1054000B7044000010000084264B1F10B
:10037000C05F39D013D8B1F1006F25D0B1F1805FE3
:100380000AD1036F13430367436F416F0B4023EAA6
:1003900002034367426070470029FBD17047B1F107
:1003A000205F20D009D8B1F1005FF3D1036F134370
:1003B0000367436F13434367ECE7B1F1405F12D02B
:1003C000B1F1605F0FD0E5E710B4016F046FD34364
:1003D00021401C4619400167436F416F0B40234089
:1003E0004367426010BC7047036F016F0B4023EA04
:1003F00002030367436F13434367CBE7416412F083
:10040000010F14BF4166016612F00A0F14BF0162AA
:10041000416212F0020F07D112F0080F18BFC0F8A6
:100420008410416101607047C0F88010F9E710B492
:10043000019C416444B9016643B1016542B941631D
:100440000161016010BC70474166F5E74165F5E761
:100450000163F5E712B9C0F890107047C0F8941026
:10046000704712F0100F10D0C0F8B01012F0200F2B
:1004700014BFC0F8D410C0F8D01012F0400F14BF51
:10048000C0F8C010C0F8C4107047C0F8B41070476E
:1004900001647047C06C7047806C7047430903F576
:1004A000001303F207735B0200F01F00012202FA3F
:1004B00000F018637047430903F5001303F2077354
:1004C0005B0200F01F00012202FA00F0586370473F
:1004D00070B582B00D46430903F5001303F20773AC
:1004E0005C0201F0F043B3F1005F53D00AD8B3F1DE
:1004F000805F2DD0B3F1C05F3BD0B3F1006F15D05A
:10050000002023E0B3F1405F55D0B3F1605F52D0DB
:10051000B3F1205FF4D100F01F0101262A4606FA4C
:1005200001F120462F4B984730460FE000F01F00A6
:100530000126864032464FF0006120462A4B9847FC
:1005400015F0010F14BF66662666012002B070BD6B
:1005500000F01F000126864032464FF080512046B1
:10056000214B984715F0010F14BF666626660120DF
:10057000ECE700F01F000126864032464FF0C051E4
:100580002046194B984715F0010F14BF6666266682
:100590000120DBE700F01F000126864032464FF0C5
:1005A00000512046104B984715F0010F14BF6666A6
:1005B00026660120CAE705F0605200F01F010126FF
:1005C00005EA06030093C5F38003B2F1605F14BF30
:1005D0000022012206FA01F12046044CA0473046D1
:1005E000B4E700BFFD0340006D0340002F0440004E
:1005F00070B582B005460E46144602F0F043B3F1E2
:10060000005F3DD00AD8B3F1805F21D0B3F1C05F65
:100610002AD0B3F1006F0ED0002017E0B3F1405F95
:100620003AD0B3F1605F37D0B3F1205FF4D1234B00
:10063000984701200AE00A464FF00061204B984796
:1006400014F0010F14BF6E662E66012002B070BD5B
:100650000A464FF080511A4B984714F0010F14BF0F
:100660006E662E660120F1E70A464FF0C051144B2A
:10067000984714F0010F14BF6E662E660120E5E75F
:100680000A464FF000510E4B984714F0010F14BF6B
:100690006E662E660120D9E704F0605204F0010373
:1006A0000093C4F38003B2F1605F14BF0022012203
:1006B00031462846034CA0470120C7E7FD03400010
:1006C0006D0340002F0440002DE9F84381460F469A
:1006D000124B984705464846114B9847054013D0A2
:1006E000104C04F1600603E0B4420DD010345DB14B
:1006F0002068B842F8D161682942F5D0E36898478C
:10070000636825EA0305EFE7074B1B6823B1074B36
:100710001B680BB148469847BDE8F8839504400034
:10072000990440007C0800203C090020F0080020CB
:10073000F8B5184C2668062E29D84FF0000C6446F0
:10074000154F04E00134E4B2A446A64209D3A646FC
:1007500025017D598D42F5D107EB04156D68954251
:10076000F0D10D4D4FEA0E1E05EB0E0445F80E10AC
:100770006260A3600699E1600136664504BF0549E1
:100780000E6011461A46054B98470020F8BD01201F
:10079000F8BD00BFEC0800207C0800206304400086
:1007A00008B50B210148024B984708BD000E0E40CA
:1007B000C906400008B50C210148024B984708BD06
:1007C00000100E40C906400008B50D210148024B3B
:1007D000984708BD00120E40C9064000174A136B27
:1007E00023F0700318431063936E13F0080F0AD1BF
:1007F0004FF4006311498A6E12F0080F03D1013BD8
:10080000F9D1012070470D4A136B23F0030343F025
:1008100002031363936E13F0080F0AD14FF40063C1
:1008200006498A6E12F0080F05D1013BF9D101206B
:100830007047002070470020704700BF00040E4042
:10084000C8B9114A136A090289B223F45C1323F070
:10085000030343F45C1343F001030B431362936EF1
:1008600013F0010FFBD0084A136A43F09B7343F463
:1008700080331362704704490B6A044A1A40044BE0
:1008800013430B62704700BF00040E40FCFFC8FE1C
:1008900002003701024B986E00F48030704700BFB1
:1008A00000040E404FF00052014B9A62704700BFA7
:1008B00000040E40024B986E00F00200704700BF2B
:1008C00000040E4022281ED81F280CD8114B9A690C
:1008D00001238340934318D0012303FA00F00D4B0A
:1008E00018610020704720380A4BD3F808210123F3
:1008F000834093430BD0012303FA00F0054BC3F868
:100900000001002070470120704700207047002040
:10091000704700BF00040E40F0B48CB007460E468E
:1009200001AC114D0FCD0FC40FCD0FC495E80700DA
:1009300084E8070001AA002352F8040BB6FBF0F08C
:10094000B0FBF7F0B0F5807F07D901330B2BF3D163
:100950004FF6FF700CB0F0BC70470A2B94BF40EA12
:1009600003204FF6FF70F5E72C34400070B50646C3
:100970000D460C6844B1896820460C4B98470446E4
:100980004FF6FF7398420CD0686840B1A968074BD6
:1009900098474FF6FF73984205D044EA004434600C
:1009A0000024204670BD0446FBE700BF1909400043
:1009B00070B40A684B6803F00F038C8A23430C89D8
:1009C00023438C7A43EA44238C7D43EA0443CC7D61
:1009D00043EA44430C7E43EA844300EB4214C4F8E8
:1009E0000032CB68C4F804320B69C4F80C328B7D3A
:1009F0003BB18C8B4B8B43EA044300EB4214C4F8AD
:100A00001832856C4FF001139340DB431D40CC7FBF
:100A100004FA02F68C7F944044EA06442C43846432
:100A2000446C234091F8214004FA02F591F82040EB
:100A3000944044EA0544234343640123934091F8DE
:100A400022401CB3046A1C43046291F82440012C28
:100A5000846E0CBF1C439C43846691F82540012C96
:100A6000846E0CBF44EA034324EA03438366D20046
:100A7000C46EFF23934024EA030491F8233003FA61
:100A800002F22243C266002070BC7047046A24EA66
:100A900003040462D9E70B69934202D24FF6FF7058
:100AA00070470B68CA6000EB4310C0F808220020B2
:100AB0007047012303FA01F141607047012303FAF3
:100AC00001F18160704710B4890143180224445039
:100AD0004FF0FF319962196A5A6010BC7047890162
:100AE00005234350704700EB8111CA61704700EB4A
:100AF00081114A62704700EB8111086A7047F0B4B7
:100B000086B00224019408240294202403948024B3
:100B100004940A9CE40B0594B0EB510F14D84C0CD0
:100B2000A04217D2012501AF57F82540B1FBF4F4DC
:100B3000260C84420AD386420DD90135052DF3D106
:100B4000002006B0F0BC70470020FAE70020F8E76C
:100B50000120F6E700252AB106A901EB850151F82D
:100B6000141C1160002BF3D01D600120E9E710B4C4
:100B7000AC2303600B684A68B3FBF2F31B095C1EED
:100B80004FF6FE7294420BD803628B68436040F2CA
:100B90000223C0F8203150230360002010BC7047AE
:100BA0000120FBE7436913F0020F1ABFC161002067
:100BB00001207047436913F0010F1DBF83690B705B
:100BC000002001207047436913F0020F1DBFC1F3DD
:100BD0000801C161002001207047436913F0010F33
:100BE00005D08369C3F308030B6000207047012020
:100BF0007047FEE708B5214B214A9A4228D9214B7C
:100C00001E4A9A420CD2013B9B1A23F00303043381
:100C100013441B4951F8040B42F8040B9A42F9D1D2
:100C200000BF194B194A9A420AD2013B9B1A23F082
:100C3000030304331344002142F8041B9A42FBD1FE
:100C4000134B144A9A60144B9847144B9847FEE78D
:100C50000A4B0B4A9A42E3D20A4B0848181A11462B
:100C6000043A02440028DBD0C1F1040152F804091F
:100C700043F8040DCA42F9D1D2E700BF00000020BA
:100C800098354000600800206C09002060080020B2
:100C900000ED00E000004000311840003D1440002D
:100CA0003C4B1B6B03F00303032B0ED8DFE803F070
:100CB000021C3838384B5B6913F0800F14BF4FF4B7
:100CC00000424FF4FA42354B1A60324B1B6B03F073
:100CD0007003702B55D02F4B1A6B3049C2F30212A0
:100CE0000B68D3400B6070472A4B1B6A13F0807F60
:100CF00003D02B4A294B1A60E7E72A4A274B1A6090
:100D0000244B1B6A03F07003102B05D0202BDCD181
:100D1000234A224B1A60D8E7234A204B1A60D4E7B3
:100D20001C4B1B6A13F0807F18D01D4A1B4B1A60A6
:100D3000184B1B6B03F00303022B164A07BF916A83
:100D4000926AD16AD26A1548C1F30A41036801FB6D
:100D50000333D2B2B3FBF2F30360B6E7114A0F4B91
:100D60001A600C4B1B6A03F07003102B05D0202B6C
:100D7000DED10B4A094B1A60DAE70B4A074B1A60BF
:100D8000D6E7064A13680949A1FB03135B08136001
:100D9000704700BF00040E4010140E400C000020ED
:100DA000001BB70000093D0000127A00ABAAAAAAF6
:100DB0001A4B984214D91A4B984219D9194B984298
:100DC0001DD9194B984221D9184B984294BF4FF026
:100DD0000423174B174A136002F500721360704723
:100DE0004FF08063134A136002F50072136070477E
:100DF000114B104A136002F50072136070470F4BDD
:100E00000C4A136002F50072136070470C4B094ADC
:100E1000136002F500721360704700BFFF2C3101B0
:100E2000FF596202FF869303FFB3C404FFE0F50598
:100E300000050004000A0E40000100040002000446
:100E4000000300040A4B1B6853B1094B1B681A18B6
:100E50000849914208DB1046054A10601846704761
:100E6000054A034B1A60F0E74FF0FF30704700BFB0
:100E7000F4080020FC7F0220703900204FF0FF3082
:100E800070474FF400534B600020704701207047BB
:100E90000020704708B50A480A4B984701210A48C4
:100EA0000A4B98470A4B98474FF40020094B984744
:100EB0005620094B98474FF40020084B984708BD2F
:100EC000783440008519400000000140F70A4000D6
:100ED000491040009D04400001000020B70440007C
:100EE00038B504460D460448044B98472046294629
:100EF000034B984738BD00BF583440008519400067
:100F0000A5134000F0B583B005460C4600230193BD
:100F1000184B98420AD0184B98420FD0174B984262
:100F200014D0174B9D421BD003B0F0BD1F46154E89
:100F300021463846B0470028FAD1F2E71E46114D47
:100F400021463046A8470028FAD1EDE71E460E4D4F
:100F500001A93046A8470028FAD1019B2370E3E796
:100F60001E46094D01A93046A8470028FAD1019B29
:100F70002370D9E700060E4000080E4000400240F2
:100F800000800240B50B4000DB0B400070B50C4602
:100F9000184B98420AD0184B984210D0174B9842E1
:100FA00016D0174B98421CD0002070BD1E46154D20
:100FB00021463046A8470028FAD1012070BD1E46C0
:100FC000104D21463046A8470028FAD1012070BDB7
:100FD0001E460D4D21463046A8470028FAD1012073
:100FE00070BD1E46084D21463046A8470028FAD15C
:100FF000012070BD00060E4000080E400040024077
:1010000000800240A50B4000C70B400008B5084B0C
:101010001B68084880FB03201844DB17C3EB6010F3
:10102000054B9847054B98470548064B984708BD20
:10103000F808002009CB3D8D25174000E10E400047
:1010400044354000851940000022014B1A6070476A
:10105000F8080020024A136801331360704700BF8C
:10106000F80800202DE9F04184B0DFF88C80CDF83D
:101070000480164C23680293A36803930820144F3E
:10108000B847144D01A92846134EB047134B1D60B5
:10109000134A144B1A60144A144B1A60CDF804809A
:1010A00023680293A36803930820B84701A9284640
:1010B000B0470F4D2B68002198680E4CA0472B6855
:1010C00000215868A04704B0BDE8F081140000205A
:1010D000C508400000060E406F0B40003809002094
:1010E0008D0F400034090020050F4000300900201A
:1010F0002400002095194000000E270708B5054878
:10110000054B984700210548054B9847054B9847E4
:1011100008BD00BF98344000851940000000014020
:10112000F70A4000950E400008B50548054B984762
:1011300001210548054B9847054B984708BD00BF5E
:10114000A83440008519400000000140F70A400023
:10115000551040002DE9F04F85B01720DFF8ECB0B6
:10116000D8472E4C009403AB02AA21464FF47A7064
:101170002B4DA847039A42F4804200212948DFF80A
:10118000D090C847029AB4FBF2F2274BA3FB02327D
:10119000920900212348DFF8BC80C04710220021BB
:1011A0002048224FB847224E302386F817334FF499
:1011B000000AC6F800A01F481F4B98471720D847C1
:1011C000009403AB02AA21461C48A847039A42F4A4
:1011D000804201211348C847029AB4FBF2F2520937
:1011E000174CA4FB0232D20901210E48C04710223D
:1011F00001210C48B847402386F81733C6F800A0F1
:1012000010480D4B9847002106480F4CA04701217C
:101210000448A04705B0BDE8F08F00BF000E2707C7
:10122000FF0A400000000140D34D6210EF0A400069
:1012300000E100E00035400085194000A086010073
:10124000C55A7C0A24354000DF0A4000C50840002A
:10125000C70A4000E70A40002DE9F04782B028485D
:10126000284B9847284C082211462046DFF8BC90AE
:10127000C847012208212046244B9847244B00935D
:10128000702308220B212046DFF8A480C0470821E4
:101290002046204EB047204C102384F80B334FF4E7
:1012A000006323601D4D092208212846C8471C4BB6
:1012B0000093702308220C212846C04708212846A5
:1012C000B0474FF0200A84F80CA34FF480552560F6
:1012D000144F092229463846C847134B0093702300
:1012E0002A460D213846C04729463846B04784F87B
:1012F0000DA34FF40053236002B0BDE8F08700BF98
:10130000E434400085194000000E0E4055044000B2
:101310000D1040009104400000E100E000100E407C
:10132000CD13400000120E4005144000FD034000A4
:101330003107400030B585B01F20124B9847124D41
:1013400000212846114B984741F28833019300242D
:1013500002940F4B039301A928460E4B98470E4960
:101360000C818C720B234B6064230B610123CB60D7
:101370000C602846094B984721462846084B984759
:1013800005B030BDC508400000000240BD0A400065
:10139000000E27076D09400040090020B1094000F8
:1013A000B30A400010B5054C00232360044B984756
:1013B000024621460348044B984710BD40090020CF
:1013C000F117400000000240970A400008B5084BA2
:1013D0001B68082B02D80133054A1360044B1868B8
:1013E000044B9847044B98470448054B984708BD61
:1013F0001000002005174000A5134000BC34400039
:101400008519400008B5084B1B68012B02D9013B28
:10141000054A1360044B1868044B9847044B9847DF
:101420000448054B984708BD1000002005174000F0
:10143000A5134000D03440008519400008B5084B82
:101440009847084B9847084B98470848084B9847D7
:10145000084B9847084B9847084B9847FEE700BF52
:101460003901400029024000651040005435400019
:1014700085194000351340005912400055114000B5
:1014800081F0004102E000BF83F0004330B54FEA35
:1014900041044FEA430594EA050F08BF90EA020FA2
:1014A0001FBF54EA000C55EA020C7FEA645C7FEA35
:1014B000655C00F0E2804FEA5454D4EB5555B8BF58
:1014C0006D420CDD2C4480EA020281EA030382EAC9
:1014D000000083EA010180EA020281EA0303362D5B
:1014E00088BF30BD11F0004F4FEA01314FF4801C2E
:1014F0004CEA113102D0404261EB410113F0004F40
:101500004FEA03334CEA133302D0524263EB4303F6
:1015100094EA050F00F0A780A4F10104D5F1200E94
:101520000DDB02FA0EFC22FA05F2801841F10001EF
:1015300003FA0EF2801843FA05F359410EE0A5F1C3
:1015400020050EF1200E012A03FA0EFC28BF4CF0F4
:10155000020C43FA05F3C01851EBE37101F00045AA
:1015600007D54FF0000EDCF1000C7EEB00006EEBB7
:101570000101B1F5801F1BD3B1F5001F0CD3490841
:101580005FEA30004FEA3C0C04F101044FEA445298
:1015900012F5800F80F09A80BCF1004F08BF5FEA1F
:1015A000500C50F1000041EB045141EA050130BDFF
:1015B0005FEA4C0C404141EB010111F4801FA4F1A2
:1015C0000104E9D191F0000F04BF01460020B1FAF7
:1015D00081F308BF2033A3F10B03B3F120020CDA2F
:1015E0000C3208DD02F1140CC2F10C0201FA0CF00D
:1015F00021FA02F10CE002F11402D8BFC2F1200C72
:1016000001FA02F120FA0CFCDCBF41EA0C01904027
:10161000E41AA2BF01EB0451294330BD6FEA040470
:101620001F3C1CDA0C340EDC04F11404C4F120025B
:1016300020FA04F001FA02F340EA030021FA04F36D
:1016400045EA030130BDC4F10C04C4F1200220FAC4
:1016500002F001FA04F340EA0300294630BD21FA02
:1016600004F0294630BD94F0000F83F4801306BFC8
:1016700081F480110134013D4EE77FEA645C18BFBC
:101680007FEA655C29D094EA050F08BF90EA020F53
:1016900005D054EA000C04BF1946104630BD91EA4B
:1016A000030F1EBF0021002030BD5FEA545C05D14E
:1016B0004000494128BF41F0004130BD14F580048D
:1016C0003CBF01F5801130BD01F0004545F0FE4101
:1016D00041F470014FF0000030BD7FEA645C1ABF36
:1016E000194610467FEA655C1CBF0B46024650EA6D
:1016F000013406BF52EA033591EA030F41F4002199
:1017000030BD00BF90F0000F04BF0021704730B51E
:101710004FF4806404F132044FF000054FF00001F3
:1017200050E700BF90F0000F04BF0021704730B5B4
:101730004FF4806404F1320410F0004548BF404289
:101740004FF000013EE700BF42004FEAE2014FEADE
:1017500031014FEA02701FBF12F07F4393F07F4FB9
:1017600081F06051704792F0000F14BF93F07F4FEB
:10177000704730B54FF4607401F0004521F000412E
:1017800020E700BF50EA010208BF704730B54FF0B4
:1017900000050AE050EA010208BF704730B511F0B9
:1017A000004502D5404261EB41014FF4806404F1F1
:1017B00032045FEA915C3FF4DCAE4FF003025FEA73
:1017C000DC0C18BF03325FEADC0C18BF033202EBFB
:1017D000DC02C2F1200300FA03FC20FA02F001FA55
:1017E00003FE40EA0E0021FA02F11444C1E600BFF4
:1017F0004A0011D212F5001211D20DD56FF4787390
:10180000B3EB62520ED44FEAC12343F0004343EAE4
:10181000505323FA02F070474FF00000704750EA2F
:10182000013002D14FF0FF3070474FF00000704799
:1018300070B50F4E0F4D761BB61018BF002405D0A3
:10184000013455F8043B9847A642F9D10A4E0B4D96
:10185000761B01F08FFEB61018BF002406D00134AD
:1018600055F8043B9847A642F9D170BD70BD00BF42
:10187000803540008035400088354000803540008C
:1018800070B4860746D0541E002A41D0CAB203461F
:1018900002E014F1FF343BD303F8012B9D07F8D18C
:1018A000032C2ED9CDB245EA05250F2C45EA054576
:1018B00019D903F110022646103E0F2E42F8105C93
:1018C00042F80C5C42F8085C42F8045C02F1100239
:1018D000F2D8A4F1100222F00F0204F00F0410322B
:1018E000032C13440DD91E462246043A032A46F817
:1018F000045BFAD8221F22F003020432134404F0DE
:1019000003042CB1C9B21C4403F8011B9C42FBD157
:1019100070BC704714460346C2E700BFF0B50546E9
:1019200089B008460C4600F0EBF8AB6B144F0494FA
:101930000126441C04A9022203940590AC68069772
:10194000079601910292B3B1B4F90C309A0406D40F
:10195000626E43F4005322F40052A3816266214672
:10196000284601AA00F0D8FB002814BF4FF0FF3032
:101970000A2009B0F0BD284600F074FAE4E700BF81
:1019800050354000024B01461868FFF7C7BF00BF43
:101990002400002000290CBF022200224FF48063A3
:1019A00000F000B82DE9F043504C256883B00446A0
:1019B0000F4690461E4615B1AB6B002B77D0B8F1A1
:1019C000020F04D0B8F1010F7DD8002E7BDB214639
:1019D000284600F0B3F9216B41B104F1400399426C
:1019E00002D0284600F0B2FA00232363B4F90C3089
:1019F0000022A26162601A0652D423F44A6323F0E3
:101A00000303B8F1020FA38137D001AB6A46214628
:101A1000284600F023FDA3891843A08116B317B30D
:101A2000AB6B002B4BD0009B27609E42B4F90C306F
:101A300027611CBF43F40063A381B8F1010F04BF09
:101A400043F00103A3819BB213F00800666123D029
:101A500013F001002FD000207642A661A06003B0F1
:101A6000BDE8F083009E304600F06AFD074668B38B
:101A7000A38943F08003A381D2E7002004F143024D
:101A800043F0020300250121A381A56022602261A9
:101A9000616103B0BDE8F083A06003B0BDE8F083EE
:101AA0002169284600F052FAB4F90C30A5E728461F
:101AB00000F0D8F983E7A66003B0BDE8F0832846BC
:101AC00000F0D0F9AFE74FF0FF30E2E7DDF800902B
:101AD000B14506D0484600F033FD074608B14E46F2
:101AE000C6E7B4F90C304FF0FF30C7E72400002000
:101AF00000000000000000000000000000000000E6
:101B000090F800F06DE9024520F007016FF0000C3D
:101B100010F0070491F820F040F049804FF00004E5
:101B20006FF00700D1E9002391F840F000F10800C0
:101B300082FA4CF2A4FA8CF283FA4CF3A2FA8CF3F8
:101B40004BBBD1E9022382FA4CF200F10800A4FA5F
:101B50008CF283FA4CF3A2FA8CF3E3B9D1E90423B3
:101B600082FA4CF200F10800A4FA8CF283FA4CF3EA
:101B7000A2FA8CF37BB9D1E9062301F1200182FAA4
:101B80004CF200F10800A4FA8CF283FA4CF3A2FAAA
:101B90008CF3002BC6D0002A04BF04301A4612BAB8
:101BA000B2FA82F2FDE8024500EBD2007047D1E9BB
:101BB000002304F00305C4F100004FEAC50514F04A
:101BC000040F91F840F00CFA05F562EA05021CBF1B
:101BD00063EA050362464FF00004A9E7024B13B124
:101BE000024800F005B8704700000000791E400070
:101BF000002301461A46184601F022BBB1F90C3009
:101C00009AB22DE9F0410D46110780463AD46A6830
:101C100043F40063002AAB816FDDAC6A002C49D02D
:101C200000229BB2D8F80060C8F8002013F480525C
:101C300067D02A6D5F0705D569682B6B521A0BB107
:101C4000EB6BD21A0023E9694046A047441C3CD004
:101C5000B5F90C302A692A6023F400630022AB81B5
:101C6000DB046A6047D4296BC8F8006011B305F142
:101C70004003994202D0404600F068F900202863F2
:101C8000BDE8F0812E69AEB12C682E6091070CBFC3
:101C90006B690023A41BAB600AE0234632466F6ADF
:101CA000E9694046B8470028A4EB0004064404DD77
:101CB000002CF2DC0020BDE8F081AB8943F040034A
:101CC000AB814FF0FF30BDE8F081D8F800401D2C0B
:101CD000F3D8194BE340DB4313F00103EDD1B5F921
:101CE0000C206B6022F400632969AB81DA0429605F
:101CF000B9D5002CB7D12865B5E7EA6B002A8CDC92
:101D0000D8E70123E9694046A047431C024602D0B8
:101D1000AB89AC6A8EE7D8F80030002BF8D01D2BC9
:101D200001D0162B02D1C8F80060C3E7AB8943F09D
:101D30004003AB81BDE8F0810100402010B50446AE
:101D400082B008B1836B53B1B1F90C0008B902B08D
:101D500010BD204602B0BDE81040FFF74FBF019113
:101D600000F080F80199EFE7014900F04DBB00BF9A
:101D7000093340002DE9F04F354B4568C36300241B
:101D8000074600F53B7204230321C0F8E412C0F8B3
:101D9000E822C0F8E04283B02C606C60AC606C66F6
:101DA000EC812C616C61AC61AB81214605F15C007A
:101DB0000822FFF765FDBE68DFF898B0DFF898A04D
:101DC000DFF89890DFF89880C5F820B00123092249
:101DD000C5F824A0C5F82890C5F82C80ED612146EF
:101DE000F381B28106F15C0034607460B4607466A3
:101DF00034617461B46108220193FFF741FDFD680D
:101E0000F66112200222C6F820B0C6F824A0C6F857
:101E10002890C6F82C802146A881EA812C606C604D
:101E2000AC606C662C616C61AC6105F15C000822F1
:101E3000FFF726FD019BED61C5F820B0C5F824A091
:101E4000C5F82890C5F82C80BB6303B0BDE8F08FBF
:101E5000691D4000C5304000E93040002531400098
:101E600045314000836B03B17047FFF783BF00BF6C
:101E7000704700BF704700BF38B50A4C0A4D641B5D
:101E8000A4100AD004F18043013B05EB8305013C1B
:101E900055F804399847002CF9D1BDE8384001F0D5
:101EA00073BB00BF9835400094354000F8B5244F0F
:101EB0000C46064600F04AFFBB685D68C4F57E61CB
:101EC0000F3125F00305294421F47F6121F00F0132
:101ED000A1F58054B4F5805F07DB0021304601F0A6
:101EE000DFF8BB682B44984204D0304600F030FF46
:101EF0000020F8BD6142304601F0D2F801300DD02B
:101F0000104BBA6819682D1B45F001053046091BB6
:101F10005560196000F01CFF0120F8BD002130461B
:101F200001F0BEF8BA68831A0F2BDEDD064C0549B6
:101F3000246843F00103001B53600860D5E700BF2D
:101F400050040020FC08002058080020002944D03C
:101F50002DE9F0410D46804600F0F8FE55F8047C6E
:101F6000694927F00103A5F10804E2188E6850685A
:101F7000B24220F003005ED0FE0750600BD455F84B
:101F8000087CE41B01F1080EA56875453B446DD043
:101F9000E768EF60BD6015186D68ED073ED543F04A
:101FA00001026260E350B3F5007F17D2DB08581CD2
:101FB0009A104D6851F83070A7600123934001EBEF
:101FC000C0022B43083AE2604B6041F83040FC60AD
:101FD0004046BDE8F04100F0BBBE70475A0A042AF3
:101FE00052D89A0902F13907FF0002F13805C819E1
:101FF000CA59083890424FD0516821F003018B42F2
:1020000032D292689042F7D1C368A060E3609C60CE
:10201000C4604046BDE8F04100F09ABE95683B4F71
:10202000BD42034440D0D068E86043F001028560BF
:102030006260E350B7E7FF07034407D455F8082C64
:10204000A41A1344A068E268C2609060304A126823
:1020500043F00100934260608C60B9D32D4B404641
:102060001968FFF723FFB3E71046CDE71118496859
:10207000C90744D49168D268CA60034443F00100A0
:1020800091606060E350A3E7142A16D802F15C0760
:10209000FF0002F15B05AAE7AA1001234D689340F7
:1020A0002B434B600346B0E743F001024C610C61E7
:1020B000E560A5606260E3508AE7542A06D81A0BEF
:1020C00002F16F07FF0002F16E0590E7B2F5AA7FFB
:1020D00006D8DA0B02F17807FF0002F1770586E7F0
:1020E00040F25450824206D89A0C02F17D07FF005C
:1020F00002F17C057BE74FF47E777E2577E743F09E
:1021000001016160136063E750040020580400205F
:102110005C0800202C0900209368002B73D02DE967
:10212000F04F8B8983B00C4619070090164626D5D0
:10213000226922B313F0020035682CD04FF0000959
:10214000B04FC846B246B84543464A4628BF3B460C
:102150000098B8F1000F50D0E169666AB0470028D6
:1021600058DDDAF808301B1A8144A8EB0008CAF8D9
:102170000830002BE7D1002003B0BDE8F08F2146E6
:10218000009800F0F9FF002840F03381A3893568FA
:1021900013F00200D2D113F0010945D14F46019648
:1021A00037B39A05D4F8088040F183804745C34689
:1021B000C0F0AB8013F4906F40F0AC802068BA465A
:1021C0005A46494600F05EFDA2682368A2EB080269
:1021D0005B44A2602360019A9368A3EB0A03D14495
:1021E000A7EB0A079360002BC5D0A389002FD8D195
:1021F000D5F800906F680835D2E7D5F80090D5F88B
:10220000048008359FE70020704721460098FFF7BB
:1022100095FD70B3B4F90C3043F040034FF0FF303C
:10222000A38103B0BDE8F08F814633464E46A846F1
:102230009A464D464EB380B3206823696269B14522
:10224000CB4628BFB34698425F4604D9A3681344DF
:102250009B4500F3A68093454BDB1346676AE16913
:1022600000982A46B847071ED4DDB9EB0709CCD041
:102270000120DAF80830DB1B3D44F61BCAF80830B1
:10228000002B3FF478AF002ED5D108F1080313E9F5
:10229000600098460833002EF9D032460A212846BD
:1022A00000F006FC002800F0A1800130A0EB050939
:1022B000C2E720682369984202D863699F425DD2D1
:1022C000B84528BFB8464246494600F0DBFCA36843
:1022D0002268A3EB08034244A36022600BB1C2460C
:1022E00079E721460098FFF729FD002892D1C246E0
:1022F00071E75A46294600F0C5FCA2682368A2EBA4
:102300000B025B44A2602360AFE72068B846BA4680
:10231000BB4655E762692068216902EB4208A0EBE1
:10232000010A08EBD8780AF101004FEA680838443E
:102330004045424684BF804642465B0544D511462F
:10234000009800F005F98346002855D052462169CF
:1023500000F0FEFBA38923F4906343F08003A38184
:102360000BEB0A00A8EB0A03C4F810B0C4F8148001
:102370002060A360B846BA46BB4621E76FF0004133
:10238000B94228BF39464A4691FBF3F10098666A84
:1023900003FB01F3E169B047B0F1000A3FF71BAF5F
:1023A00038E71A462946019300F06CFC2268019B2D
:1023B00000981A4422602146FFF7C0FC019B0028C8
:1023C0007FF428AF1F4650E7009800F0C3FC834617
:1023D0000028C5D1009D21692846FFF7B7FDB4F953
:1023E0000C300C2223F080032A6015E706F1010966
:1023F00022E74FF0FF30BFE6009A0C231360B4F9D8
:102400000C3009E700FCFF7F2DE9F84310F5387721
:102410001FD0884606464FF000097D68BC68013D24
:1024200011D4A389012B05F1FF3508D9B4F90E3079
:1024300001332146304602D0C04749EA00096B1CEF
:1024400004F16804EDD13F68002FE6D14846BDE8AD
:10245000F883B9464846BDE8F88300BF70B50C461E
:10246000B1F90E10002990B015461E4614DB01AAE2
:1024700000F08AFF00280FDB029A02F47042A2F5F6
:102480000052B2FA82F252094FF480634FF40060B6
:1024900032602B6010B070BDA289002312F0800062
:1024A000336004D0402218462A6010B070BD4FF44B
:1024B00080632B6010B070BD8A8992070B4606D5E9
:1024C00001F1430201211A601A6159617047F0B5A8
:1024D00083B001AB6A460C460546FFF7BFFF009983
:1024E0000646284600F034F8B4F90C30D0B1019A11
:1024F000124F0099EF6343F08003A38120602061B5
:1025000061611AB93343A38103B0F0BD2846B4F921
:102510000E1000F04DFFB4F90C300028F2D043F05B
:102520000103EFE79A05EFD404F1430243F00203FD
:102530000121A381226022616161E5E7691D4000FC
:10254000024B0146186800F003B800BF24000020C9
:102550002DE9F04F01F10B06162E83B0054640F22F
:102560009E8036F0070600F1BD80B14200F2BA80CD
:1025700000F0ECFBB6F5FC7FC0F09382730A00F02C
:10258000B880042B00F27981B30903F1390003F11B
:10259000380EC300BF4F3B44A3F108015C68A14261
:1025A00006D10CE0002A80F2AA80E468A14206D09D
:1025B000636823F003039A1B0F2AF3DD70463C691E
:1025C000DFF8E4E2744500F0AB81636823F00303B5
:1025D0009A1B0F2A00F39081002AC7F814E0C7F86D
:1025E00010E080F29D80B3F5007F80F06181DB0810
:1025F00003F1010C99107A6857F83C80C4F8088000
:1026000001238B4007EBCC0113430839E1607B6069
:1026100047F83C40C8F80C408210012494409C428A
:1026200000F28B801C4206D120F0030064001C42A3
:1026300000F10400FAD007EBC009CC468046DCF874
:102640000C309C4507D16DE1002A80F27B81DB686C
:102650009C4500F06781596821F003018A1B0F2A0D
:10266000F2DDD3F80CC0D3F8088000939C192846FB
:1026700046F0010642F001055E60C8F80CC0CCF8D7
:1026800008807C613C61C4F80CE0C4F808E0656037
:102690005A5000F05DFB009B03F108041EE0102976
:1026A00020D800F053FB102618230220794F3B441A
:1026B000A3F108025C68944200F03D816368E16820
:1026C000A66823F00303234428465A68F16042F0C9
:1026D00001028E605A6000F03BFB0834204603B0D4
:1026E000BDE8F08F00240C2320462B6003B0BDE82A
:1026F000F08F40204FF400734FF03F0E4AE7234421
:10270000E1685A68A66842F00102F16028468E60CE
:102710005A6000F01DFB0834204603B0BDE8F08F7E
:10272000234428465A6842F001025A6000F010FB28
:102730000834204603B0BDE8F08FBC68636823F01E
:102740000308B04504D3A8EB06030F2B00F38580E4
:10275000DFF85891504BD9F800201B680132334400
:1027600004EB080A00F0558103F580530F3323F47E
:102770007F6B2BF00F0B5946284600F091FC411C53
:10278000024600F0FC80824500F2F780434B196856
:102790005944196000F04D81D9F8000001301BBF89
:1027A000A2EB0A0A5144C9F80020196012F007018F
:1027B00000F01581C1F10800C1F5805102440831D3
:1027C00002EB0B09C9F30B09A1EB0909494628469D
:1027D0000193009200F064FC431C9DE80C0000F0A3
:1027E0004381801A484440F001001968BA604944A6
:1027F000BC425060196017D0B8F10F0F40F2FB8057
:102800006068A8F10C0222F0070204EB020E00F04F
:1028100001004FF0050C10430F2A6060CEF804C091
:10282000CEF808C000F217811D4BBC681A689142AF
:1028300088BF19601B4B1A689142626888BF196093
:1028400022F003029642A2EB060301D80F2B04DC10
:10285000284600F07DFA002440E7A21943F0010366
:1028600046F0010666602846BA60536000F070FAD0
:102870000834204603B0BDE8F08F142B71D9542BD7
:1028800000F2A380330B03F16F0003F16E0EC3005F
:1028900080E600BF500400202C090020FC08002026
:1028A000240900202809002058040020580800208E
:1028B0005A0A042A5BD9142A00F2AE8002F15C01A4
:1028C000C9005B3207EB010C7958ACF1080C8C4560
:1028D00000F088804A6822F00302934273D289682C
:1028E0008C45F7D1DCF80C207B68E260C4F808C0A6
:1028F0009460CCF80C408FE6A11946F0010C42F030
:102900000106C4F804C0284679613961C1F80CE0B9
:10291000C1F808E04E60E25000F01AFA0834DDE633
:102920007B6879E608F1010818F0030F0CF1080C38
:102930007FF485AE2DE0DC68A34208BF02303FF48F
:102940003EAEBBE619441C464A68DB6854F8086F83
:1029500042F001024A602846F3609E6000F0F8F9F8
:10296000BCE603F15C0003F15B0EC30012E69A09BA
:1029700002F13901C9003832A4E7BC4254D0BC6826
:10298000626822F003025DE759F80839994540F082
:10299000868010F0030F00F1FF30F5D17B6823EA49
:1029A00004037B6064009C423FF6C7AE002C3FF4FA
:1029B000C4AE1C4240467FF43EAE64001C4200F1AF
:1029C0000400FAD037E68C468CE7B3F5AA7F15D819
:1029D000F30B03F1780003F1770EC300DAE54FF44F
:1029E0008051EDE67B689210012101FA02F2134357
:1029F0007B60624679E70123536029E740F2545235
:102A0000934222D8B30C03F17D0003F17C0EC30086
:102A1000C0E503F1100BAEE6542A29D81A0B02F1D7
:102A20006F01C9006E324DE7204B19685944196097
:102A3000B2E6CAF30B0000287FF4AEAE08EB0B033E
:102A4000BA6843F001035360EEE67F204FF47E73D3
:102A50004FF07E0E9EE504F1080128460093FFF733
:102A600075FA009B1968DFE601204FF00009BCE60B
:102A7000B2F5AA7F05D8DA0B02F17801C9007732E6
:102A800020E740F254518A4205D89A0C02F17D01A8
:102A9000C9007C3216E74FF47E717E2212E77B6814
:102AA00080E7F00806F1080300E600BFFC080020FC
:102AB00001F0FF01102A2BDB10F0070F08D010F8EF
:102AC000013B013A8B422DD010F0070F42B3F6D1F3
:102AD000F0B441EA012141EA014122F007047FF00C
:102AE00000070023F0E80256083C85EA010586EA63
:102AF000010685FA47F5A3FA87F586FA47F6A5FA9F
:102B000087F68EB9EED1F0BC01F0FF0102F00702AA
:102B100032B110F8013B013A83EA010313B1F8D155
:102B20000020704701387047002D06BF3546033836
:102B3000073815F0010F07D1013015F4807F02BF6F
:102B4000013015F4C03F0130F0BC0138704700BFC0
:102B5000844641EA000313F003036DD1403A41D3A8
:102B600051F8043B40F8043B51F8043B40F8043B67
:102B700051F8043B40F8043B51F8043B40F8043B57
:102B800051F8043B40F8043B51F8043B40F8043B47
:102B900051F8043B40F8043B51F8043B40F8043B37
:102BA00051F8043B40F8043B51F8043B40F8043B27
:102BB00051F8043B40F8043B51F8043B40F8043B17
:102BC00051F8043B40F8043B51F8043B40F8043B07
:102BD00051F8043B40F8043B51F8043B40F8043BF7
:102BE000403ABDD2303211D351F8043B40F8043B97
:102BF00051F8043B40F8043B51F8043B40F8043BD7
:102C000051F8043B40F8043B103AEDD20C3205D3A6
:102C100051F8043B40F8043B043AF9D2043208D09E
:102C2000D2071CBF11F8013B00F8013B01D30B8810
:102C300003806046704700BF082A13D38B078DD0EE
:102C400010F003038AD0C3F10403D21ADB071CBFC0
:102C500011F8013B00F8013B80D331F8023B20F82A
:102C6000023B7BE7043AD9D3013A11F8013B00F863
:102C7000013BF9D20B7803704B7843708B788370EB
:102C8000604670478842F0B50DD98B1898420AD239
:102C90008418002A51D0224613F8014D02F8014D44
:102CA0009942F9D1F0BD0F2A48D941EA00039B07A8
:102CB00046D100F1100401F11003154653F8106CD1
:102CC00044F8106C53F80C6C44F80C6C53F8086C16
:102CD00044F8086C103D53F8046C44F8046C0F2D54
:102CE00003F1100304F11004E8D8A2F1100323F05B
:102CF0000F0302F00F0E1033BEF1030F194403440B
:102D000021D91E1F0D467446043C55F8047B46F835
:102D1000047F032CF8D8AEF1040424F00304043437
:102D20002144234402F0030262B1013B0A4411F83A
:102D3000014B03F8014F8A42F9D1F0BD0346F3E796
:102D40000346F2E7F0BD7246EEE700BF704700BFF2
:102D5000704700BF002900F095802DE9F04F0D4627
:102D6000164683B0804606F10B07FFF7EFFF55F8D4
:102D700004EC162F2EF00304A5F108093CD810220C
:102D80001746BE423DD8944243DAC44B996809EBDA
:102D90000400884200F0B480436823F0010101443C
:102DA0004968C9074CD51EF0010F00F09B803146E1
:102DB0004046FFF7CDFB064600283AD055F8043CC4
:102DC00023F001034B44A0F108029A4200F0218154
:102DD000221F242A00F20781132A00F2DB80034617
:102DE0002A46116819605168596092689A602946AC
:102DF0004046FFF7ABF81CE027F00707002F3A46E4
:102E0000BFDA00260C233046C8F8003003B0BDE816
:102E1000F08F2E46E31B0F2B1ED8D9F8043003F099
:102E2000010323434C44C9F80430636843F00103B1
:102E300063604046FFF78CFF304603B0BDE8F08F7B
:102E400023F00303E11891421FDBC36882682E461A
:102E5000D3600C469A60DDE7D9F8042009EB07013E
:102E600002F001024C4443F001031743C9F8047017
:102E70004B60636843F00103083163604046FFF72D
:102E800065F8D6E71146FFF763BB1EF0010F8ED140
:102E900055F8081CA9EB010ADAF8041021F0030127
:102EA0000B442344934225DBC26881685646CA60BE
:102EB0009160DAF80C1056F8080F221F242AC1601E
:102EC000886000F29480132A6FD92968CAF8081024
:102ED0006968CAF80C101B2A00F2A28008350AF1B2
:102EE000100263E055F8083CA9EB030ADAF8041075
:102EF00021F0030163189342FFF659AF5646D8E715
:102F0000416821F0030BA34407F11000834556DA12
:102F10001EF0010F7FF44BAF55F8081CA9EB010A16
:102F2000DAF8041021F003018B445845E2DC5646E0
:102F3000DAF80C1056F8080F221F242AC1608860A6
:102F400000F28F80132A40F28A802968CAF808109C
:102F50006968CAF80C101B2A00F28A8008350AF149
:102F600010022968116069685160A96891600AEBD4
:102F70000701ABEB070242F0010299604A60DAF800
:102F8000043003F001031F434046CAF80470FFF702
:102F9000DFFE51E72B6803606B6843601B2A2DD866
:102FA00000F1080305F108021BE7324629681160A9
:102FB00069685160A96891601C46D1462AE709EB0F
:102FC0000701ABEB070B4BF0010299604A6055F823
:102FD000043C03F001031F43404645F8047CFFF71F
:102FE000B7FE2E4628E72946FFF74CFEFFE62946A6
:102FF00030461C46D146FFF745FE0BE7AB688360C1
:10300000EB68C360242A17D000F1100305F1100209
:10301000E7E650F8043C23F003031C442E46F9E68F
:10302000A968CAF81010E968CAF81410242A0CD04C
:1030300010350AF11802B9E72B6903616B69436126
:1030400005F1180200F11803CBE62A69CAF8182026
:103050006A69CAF81C2018350AF12002A6E7324630
:103060007FE7294630460193FFF70CFE019B7EE780
:10307000A968CAF81010E968CAF81410242A03D005
:1030800010350AF118026CE72A69CAF818206A6933
:10309000CAF81C2018350AF1200262E7500400200B
:1030A00038B5074C0023054608462360FDF7CAFEE5
:1030B000431C00D038BD2368002BFBD02B6038BDEB
:1030C0006809002010B50C46B1F90E1000F098F90F
:1030D000002803DB236D0344236510BDA38923F47B
:1030E0008053A38110BD00BF2DE9F0411646B1F910
:1030F0000C201F46D3050C46054607D500220223A7
:10310000B1F90E1000F066F9B4F90C20B4F90E1004
:1031100022F48052A2813B4632462846BDE8F04167
:1031200000F014B810B50C46B1F90E1000F052F9C9
:10313000A389421C0EBF23F4805343F480532065BF
:10314000A38110BDB1F90E1000F0CCB870B50D46DA
:10315000084C114606461A46284600232360FDF710
:103160003BF8431C00D070BD2368002BFBD03360BC
:1031700070BD00BF6809002038B5304B1B6805469C
:103180000C4613B19A6B002A38D0B4F90C2093B2D4
:1031900018070CD52069A8B113F001021ED063698D
:1031A00000225B42A361A260F0B1002038BDD906C5
:1031B0003CD5580726D4206942F00803A3819BB26E
:1031C0000028E9D103F42072B2F5007FE4D028464C
:1031D0002146FFF771F9A3892069DDE7990758BFF8
:1031E0006269A2600028E0D1B4F90C301A06DDD57E
:1031F00043F04003A3814FF0FF3038BD1846FEF77F
:1032000031FEC2E7216B51B104F14003994204D071
:103210002846FEF79BFEB4F90C200023236300230D
:103220002069636022F024022060C5E742F040027A
:1032300009232B604FF0FF30A28138BD240000200D
:103240002DE9F047254C2568D5F8484106468846C3
:1032500092469946C4B360681F2817DC431C76B1B8
:1032600004EB80050122C5F888A0D4F888118240BB
:103270001143022EC4F88811C5F808911ED00230FF
:10328000636044F820800020BDE8F087144B03B34E
:103290004FF4C870FFF754F90446D0B1D5F848315F
:1032A000002780E88800C5F8484138460123C4F863
:1032B0008871C4F88C71002EE1D0D1E7D4F88C115C
:1032C0000A43C4F88C21DAE705F5A674C5F848412D
:1032D000C1E74FF0FF30BDE8F08700BF7035400018
:1032E0004125400038B5074C0023054608462360B9
:1032F000FDF7C4FD431C00D038BD2368002BFBD074
:103300002B6038BD6809002070B539B105460C4600
:1033100008B1836B83B3B4F90C3013B9002630467F
:1033200070BD21462846FEF769FCE36A064633B1C4
:10333000E169284698470028B8BF4FF0FF36A389B7
:103340001B061CD4216B41B104F14003994202D009
:103350002846FEF7FBFD00232363616C21B128465C
:10336000FEF7F4FD00236364FEF782FD0023A381D2
:10337000FEF780FD304670BDFEF774FDCBE7216996
:103380002846FEF7E3FDDDE738B50B46074C05465A
:103390001146184600232360FDF773FD431C00D03F
:1033A00038BD2368002BFBD02B6038BD6809002096
:1033B00038B5074C0023054608462360FDF766FD37
:1033C000431C00D038BD2368002BFBD02B6038BDD8
:1033D0006809002070B50D46084C114606461A468D
:1033E000284600232360FDF753FD431C00D070BD29
:1033F0002368002BFBD0336070BD00BF680900203C
:1034000070B50D46084C114606461A46284600235C
:103410002360FCF7C3FE431C00D070BD2368002B63
:10342000FBD0336070BD00BF6809002001000000C0
:10343000020000000400000008000000100000006E
:10344000200000004000000080000000000100009B
:103450000002000000040000457865637574616E29
:10346000646F204D616C686120646520436F6E74E9
:10347000726F6C650D0A0000496E696369616E6464
:103480006F204C65697475726120646F2053656E9E
:10349000736F720D0A00000054696D6572205365E8
:1034A0006E736F720D0A000054696D657220436F70
:1034B0006E7461646F720D0A0000000042757474CE
:1034C0006F6E204C65667420495352200D0A00002F
:1034D000427574746F6E2052696768742049535244
:1034E000200D0A00436F6E66696775726163616FD4
:1034F0002053656E736F7220495352200D0A0000ED
:1035000054696D6572203020436F6E66696775720D
:1035100061646F2070617261203130306D730D0A0B
:103520000000000054696D6572203120436F6E66A3
:103530006967757261646F207061726120313075E6
:10354000730D0A0053656E736F7220495352200D3C
:103550000A000000496E696369616C697A696E6787
:10356000204265616D2042616C6C0D0A0000000014
:1035700028000020F8B500BFF8BC08BC9E46704784
:10358000DD1B4000F1004000F8B500BFF8BC08BCEE
:083590009E467047CD0040008B
:10359800BFF35F8F0138FBD17047000000093D0081
:1035A8000100000000C20100C00000000008000087
:1035B8000000000028000020000000001403002084
:1035C8007C030020E403002000000000000000004D
:1035D80000000000000000000000000000000000E3
:1035E80000000000000000000000000000000000D3
:1035F80000000000000000000000000000000000C3
:1036080000000000000000000000000000000000B2
:1036180000000000000000000000000000000000A2
:103628000000000000000000000000000000000092
:103638000000000000000000000000000000000082
:103648000000000000000000000000000000000072
:103658000000000000000000000000000000000062
:1036680001000000000000000E33CDAB34126DE6FF
:10367800ECDE05000B000000000000000000000068
:103688000000000000000000000000000000000032
:103698000000000000000000000000000000000022
:1036A8000000000000000000000000000000000012
:1036B8000000000000000000000000000000000002
:1039E80000000000000000005004002050040020E7
:1039F80058040020580400206004002060040020BF
:103A0800680400206804002070040020700400206E
:103A1800780400207804002080040020800400201E
:103A280088040020880400209004002090040020CE
:103A38009804002098040020A0040020A00400207E
:103A4800A8040020A8040020B0040020B00400202E
:103A5800B8040020B8040020C0040020C0040020DE
:103A6800C8040020C8040020D0040020D00400208E
:103A7800D8040020D8040020E0040020E00400203E
:103A8800E8040020E8040020F0040020F0040020EE
:103A9800F8040020F804002000050020000500209C
:103AA800080500200805002010050020100500204A
:103AB80018050020180500202005002020050020FA
:103AC80028050020280500203005002030050020AA
:103AD800380500203805002040050020400500205A
:103AE800480500204805002050050020500500200A
:103AF80058050020580500206005002060050020BA
:103B08006805002068050020700500207005002069
:103B18007805002078050020800500208005002019
:103B280088050020880500209005002090050020C9
:103B38009805002098050020A0050020A005002079
:103B4800A8050020A8050020B0050020B005002029
:103B5800B8050020B8050020C0050020C0050020D9
:103B6800C8050020C8050020D0050020D005002089
:103B7800D8050020D8050020E0050020E005002039
:103B8800E8050020E8050020F0050020F0050020E9
:103B9800F8050020F8050020000600200006002097
:103BA8000806002008060020100600201006002045
:103BB80018060020180600202006002020060020F5
:103BC80028060020280600203006002030060020A5
:103BD8003806002038060020400600204006002055
:103BE8004806002048060020500600205006002005
:103BF80058060020580600206006002060060020B5
:103C08006806002068060020700600207006002064
:103C18007806002078060020800600208006002014
:103C280088060020880600209006002090060020C4
:103C38009806002098060020A0060020A006002074
:103C4800A8060020A8060020B0060020B006002024
:103C5800B8060020B8060020C0060020C0060020D4
:103C6800C8060020C8060020D0060020D006002084
:103C7800D8060020D8060020E0060020E006002034
:103C8800E8060020E8060020F0060020F0060020E4
:103C9800F8060020F8060020000700200007002092
:103CA8000807002008070020100700201007002040
:103CB80018070020180700202007002020070020F0
:103CC80028070020280700203007002030070020A0
:103CD8003807002038070020400700204007002050
:103CE8004807002048070020500700205007002000
:103CF80058070020580700206007002060070020B0
:103D0800680700206807002070070020700700205F
:103D1800780700207807002080070020800700200F
:103D280088070020880700209007002090070020BF
:103D38009807002098070020A0070020A00700206F
:103D4800A8070020A8070020B0070020B00700201F
:103D5800B8070020B8070020C0070020C0070020CF
:103D6800C8070020C8070020D0070020D00700207F
:103D7800D8070020D8070020E0070020E00700202F
:103D8800E8070020E8070020F0070020F0070020DF
:103D9800F8070020F807002000080020000800208D
:103DA800080800200808002010080020100800203B
:103DB80018080020180800202008002020080020EB
:103DC800280800202808002030080020300800209B
:103DD800380800203808002040080020400800204B
:103DE8004808002048080020FFFFFFFF00000200ED
:0400000500400BF5B7
:00000001FF
