:020000040040BA
:10000000D83A0020390B4000350B4000350B40003A
:10001000350B4000350B4000350B40000000000060
:10002000000000000000000000000000350B400050
:10003000350B400000000000350B4000350B400040
:10004000350B4000350B4000350B4000350B4000B0
:10005000350B4000350B4000350B4000350B4000A0
:10006000350B4000350B400000000000D106400079
:10007000E5064000F9064000350B4000350B400016
:100080000000000000000000350B4000350B400070
:10009000350B4000350B4000350B40006910400027
:1000A00085104000350B4000350B4000350B4000FB
:1000B000350B4000350B4000350B4000350B400040
:1000C000350B4000350B4000350B400010B5054C9A
:1000D000237833B9044B13B10448AFF300800123F4
:1000E000237010BDCC09002000000000DC4C400053
:1000F0000C4B43B10C480D4910B5AFF300800C48D0
:10010000036823B910BD0A48036833B97047094B27
:10011000002BF7D0BDE810401847064B002BF5D058
:10012000184700BF00000000DC4C4000D009002050
:10013000DC4C40000000000010B50E480E4B984704
:100140003E2100200D4B98470D4CA0470028FCD0C5
:100150000C4B98470C4A0D4B9A620D4CA047002857
:10016000FCD010200B4B98470B4B98470148024B93
:10017000984710BD000E2707F50C4000710740009E
:10018000C5074000D5074000013F132000040E4082
:10019000E50740000D074000E50B40002DE9F04168
:1001A00080B90C469046002A0FDD8F18084E094D85
:1001B000306821462B6898470134BC42F8D140464C
:1001C000BDE8F0814FF0FF38F9E78046F7E700BF60
:1001D000A40A00209C0A00200138022815D82DE925
:1001E000F0410E4614469AB10D46DFF838800C4FA8
:1001F000D8F8000015F8011B3B68984700280ADB77
:10020000A81B013CF4D1BDE8F0814FF0FF307047EE
:100210001046BDE8F0814FF0FF30BDE8F08100BF2F
:10022000A00A0020A40A002010B54FF40042144B8D
:100230005A600B20134CA0470C20A0470D20A0476C
:100240004FF060511320104CA0474FF06051142024
:10025000A0470E492320A0470D494C20A0474FF04E
:1002600000624FF4C0610B480B4B98474FF0805130
:100270001320A0474FF080511420A04710BD00BFAD
:1002800050140E40F507400001044000790000289A
:1002900059000028000E0E40210540004264B1F1D3
:1002A000C05F39D013D8B1F1006F25D0B1F1805FB4
:1002B0000AD1036F13430367436F416F0B4023EA77
:1002C00002034367426070470029FBD17047B1F1D8
:1002D000205F20D009D8B1F1005FF3D1036F134341
:1002E0000367436F13434367ECE7B1F1405F12D0FC
:1002F000B1F1605F0FD0E5E710B4016F046FD34335
:1003000021401C4619400167436F416F0B40234059
:100310004367426010BC7047036F016F0B4023EAD4
:1003200002030367436F13434367CBE7416412F053
:10033000010F14BF4166016612F00A0F14BF01627B
:10034000416212F0020F07D112F0080F18BFC0F877
:100350008410416101607047C0F88010F9E710B463
:10036000019C416444B9016643B1016542B94163EE
:100370000161016010BC70474166F5E74165F5E732
:100380000163F5E712B9C0F890107047C0F89410F7
:10039000704712F0100F10D0C0F8B01012F0200FFC
:1003A00014BFC0F8D410C0F8D01012F0400F14BF22
:1003B000C0F8C010C0F8C4107047C0F8B41070473F
:1003C00001647047C06C7047806C7047430903F547
:1003D000001303F207735B0200F01F00012202FA10
:1003E00000F018637047430903F5001303F2077325
:1003F0005B0200F01F00012202FA00F05863704710
:1004000070B582B00D46430903F5001303F207737C
:100410005C0201F0F043B3F1005F53D00AD8B3F1AE
:10042000805F2DD0B3F1C05F3BD0B3F1006F15D02A
:10043000002023E0B3F1405F55D0B3F1605F52D0AC
:10044000B3F1205FF4D100F01F0101262A4606FA1D
:1004500001F120462F4B984730460FE000F01F0077
:100460000126864032464FF0006120462A4B9847CD
:1004700015F0010F14BF66662666012002B070BD3C
:1004800000F01F000126864032464FF08051204682
:10049000214B984715F0010F14BF666626660120B0
:1004A000ECE700F01F000126864032464FF0C051B5
:1004B0002046194B984715F0010F14BF6666266653
:1004C0000120DBE700F01F000126864032464FF096
:1004D00000512046104B984715F0010F14BF666677
:1004E00026660120CAE705F0605200F01F010126D0
:1004F00005EA06030093C5F38003B2F1605F14BF01
:100500000022012206FA01F12046044CA0473046A1
:10051000B4E700BF2D0340009D0240005F03400090
:1005200070B582B005460E46144602F0F043B3F1B2
:10053000005F3DD00AD8B3F1805F21D0B3F1C05F36
:100540002AD0B3F1006F0ED0002017E0B3F1405F66
:100550003AD0B3F1605F37D0B3F1205FF4D1234BD1
:10056000984701200AE00A464FF00061204B984767
:1005700014F0010F14BF6E662E66012002B070BD2C
:100580000A464FF080511A4B984714F0010F14BFE0
:100590006E662E660120F1E70A464FF0C051144BFB
:1005A000984714F0010F14BF6E662E660120E5E730
:1005B0000A464FF000510E4B984714F0010F14BF3C
:1005C0006E662E660120D9E704F0605204F0010344
:1005D0000093C4F38003B2F1605F14BF00220122D4
:1005E00031462846034CA0470120C7E72D034000B1
:1005F0009D0240005F0340002DE9F84381460F460D
:10060000124B984705464846114B9847054013D072
:10061000104C04F1600603E0B4420DD010345DB11B
:100620002068B842F8D161682942F5D0E36898475C
:10063000636825EA0305EFE7074B1B6823B1074B07
:100640001B680BB148469847BDE8F883C5034000D6
:10065000C9034000E8090020A80A00205C0A002025
:10066000F8B5184C2668062E29D84FF0000C6446C1
:10067000154F04E00134E4B2A446A64209D3A646CD
:1006800025017D598D42F5D107EB04156D68954222
:10069000F0D10D4D4FEA0E1E05EB0E0445F80E107D
:1006A0006260A3600699E1600136664504BF0549B2
:1006B0000E6011461A46054B98470020F8BD0120F0
:1006C000F8BD00BF580A0020E8090020930340004D
:1006D00008B50B210148024B984708BD000E0E409B
:1006E000F905400008B50C210148024B984708BDA8
:1006F00000100E40F905400008B50D210148024BDD
:10070000984708BD00120E40F9054000174A136BC8
:1007100023F0700318431063936E13F0080F0AD18F
:100720004FF4006311498A6E12F0080F03D1013BA8
:10073000F9D1012070470D4A136B23F0030343F0F6
:1007400002031363936E13F0080F0AD14FF4006392
:1007500006498A6E12F0080F05D1013BF9D101203C
:100760007047002070470020704700BF00040E4013
:10077000C8B9114A136A090289B223F45C1323F041
:10078000030343F45C1343F001030B431362936EC2
:1007900013F0010FFBD0084A136A43F09B7343F434
:1007A00080331362704704490B6A044A1A40044BB1
:1007B00013430B62704700BF00040E40FCFFC8FEED
:1007C00002003701024B986E00F48030704700BF82
:1007D00000040E404FF00052014B9A62704700BF78
:1007E00000040E40024B986E00F00200704700BFFC
:1007F00000040E4022281ED81F280CD8114B9A69DD
:1008000001238340934318D0012303FA00F00D4BDA
:1008100018610020704720380A4BD3F808210123C3
:10082000834093430BD0012303FA00F0054BC3F838
:100830000001002070470120704700207047002011
:10084000704700BF00040E40F0B48CB007460E465F
:1008500001AC114D0FCD0FC40FCD0FC495E80700AB
:1008600084E8070001AA002352F8040BB6FBF0F05D
:10087000B0FBF7F0B0F5807F07D901330B2BF3D134
:100880004FF6FF700CB0F0BC70470A2B94BF40EAE3
:1008900003204FF6FF70F5E7144A400070B5064696
:1008A0000D460C6844B1896820460C4B98470446B5
:1008B0004FF6FF7398420CD0686840B1A968074BA7
:1008C00098474FF6FF73984205D044EA00443460DD
:1008D0000024204670BD0446FBE700BF49084000E5
:1008E00070B40A684B6803F00F038C8A23430C89A9
:1008F00023438C7A43EA44238C7D43EA0443CC7D32
:1009000043EA44430C7E43EA844300EB4214C4F8B8
:100910000032CB68C4F804320B69C4F80C328B7D0A
:100920003BB18C8B4B8B43EA044300EB4214C4F87D
:100930001832856C4FF001139340DB431D40CC7F90
:1009400004FA02F68C7F944044EA06442C43846403
:10095000446C234091F8214004FA02F591F82040BC
:10096000944044EA0544234343640123934091F8AF
:1009700022401CB3046A1C43046291F82440012CF9
:10098000846E0CBF1C439C43846691F82540012C67
:10099000846E0CBF44EA034324EA03438366D20017
:1009A000C46EFF23934024EA030491F8233003FA32
:1009B00002F22243C266002070BC7047046A24EA37
:1009C00003040462D9E70B69934202D24FF6FF7029
:1009D00070470B68CA6000EB4310C0F80822002083
:1009E0007047012303FA01F141607047012303FAC4
:1009F00001F1816070471032012303FA02F203FA19
:100A000001F10A434261704710B48901431802247E
:100A100044504FF0FF319962196A5A6010BC704718
:100A2000890105234350704700EB8111CA6170476B
:100A300000EB81114A62704700EB8111086A704730
:100A4000F0B486B002240194082402942024039474
:100A5000802404940A9CE40B0594B0EB510F14D845
:100A60004C0CA04217D2012501AF57F82540B1FB2D
:100A7000F4F4260C84420AD386420DD90135052DA3
:100A8000F3D1002006B0F0BC70470020FAE7002048
:100A9000F8E70120F6E700252AB106A901EB850158
:100AA00051F8141C1160002BF3D01D600120E9E700
:100AB00010B4AC2303600B684A68B3FBF2F31B0964
:100AC0005C1E4FF6FE7294420BD803628B68436043
:100AD00040F20223C0F8203150230360002010BCF4
:100AE00070470120FBE7436913F0020F1ABFC16191
:100AF000002001207047436913F0010F1DBF836977
:100B00000B70002001207047436913F0020F1DBFD6
:100B1000C1F30801C161002001207047436913F04F
:100B2000010F05D08369C3F308030B6000207047F1
:100B300001207047FEE7000008B5214B214A9A4288
:100B400028D9214B1E4A9A420CD2013B9B1A23F012
:100B50000303043313441B4951F8040B42F8040BFC
:100B60009A42F9D100BF194B194A9A420AD2013B65
:100B70009B1A23F0030304331344002142F8041B9F
:100B80009A42FBD1134B144A9A60144B9847144B6A
:100B90009847FEE70A4B0B4A9A42E3D20A4B0848B1
:100BA000181A1146043A02440028DBD0C1F10401AE
:100BB00052F8040943F8040DCA42F9D1D2E700BF44
:100BC00000000020DC4C4000CC090020D80A0020A6
:100BD000CC09002000ED00E000004000C11B4000F7
:100BE000991340003C4B1B6B03F00303032B0ED8FF
:100BF000DFE803F0021C3838384B5B6913F0800FD4
:100C000014BF4FF400424FF4FA42354B1A60324B96
:100C10001B6B03F07003702B55D02F4B1A6B3049B0
:100C2000C2F302120B68D3400B6070472A4B1B6A59
:100C300013F0807F03D02B4A294B1A60E7E72A4A3A
:100C4000274B1A60244B1B6A03F07003102B05D04E
:100C5000202BDCD1234A224B1A60D8E7234A204BB1
:100C60001A60D4E71C4B1B6A13F0807F18D01D4A12
:100C70001B4B1A60184B1B6B03F00303022B164A25
:100C800007BF916A926AD16AD26A1548C1F30A41D4
:100C9000036801FB0333D2B2B3FBF2F30360B6E7A0
:100CA000114A0F4B1A600C4B1B6A03F07003102B98
:100CB00005D0202BDED10B4A094B1A60DAE70B4A2C
:100CC000074B1A60D6E7064A13680949A1FB0313CC
:100CD0005B081360704700BF00040E4010140E4004
:100CE0000C000020001BB70000093D0000127A0034
:100CF000ABAAAAAA1A4B984214D91A4B984219D9EE
:100D0000194B98421DD9194B984221D9184B98423A
:100D100094BF4FF00423174B174A136002F500727B
:100D2000136070474FF08063134A136002F500723E
:100D300013607047114B104A136002F50072136084
:100D400070470F4B0C4A136002F500721360704736
:100D50000C4B094A136002F500721360704700BF24
:100D6000FF2C3101FF596202FF869303FFB3C404D5
:100D7000FFE0F50500050004000A0E400001000434
:100D800000020004000300040A4B1B6853B1094B26
:100D90001B681A180849914208DB1046054A106082
:100DA00018467047054A034B1A60F0E74FF0FF30D2
:100DB000704700BF600A0020FC7F0220D83A002064
:100DC0004FF0FF3070474FF400534B6000207047E6
:100DD000012070470020704708B501210748084BE3
:100DE0009847084B98471320074B98475620074BC6
:100DF00098471320064B984708BD00BF00000140EC
:100E0000390A4000F90F4000CD03400001000020E6
:100E1000E703400038B504460D460848084B98479C
:100E20000022084B20462946074CA047074B98470D
:100E300001460748074B984738BD00BF404A40006D
:100E40003D1D400000408F404D174000711B400089
:100E5000604A4000111C4000F0B583B005460C46C6
:100E600000230193184B98420AD0184B98420FD098
:100E7000174B984214D0174B9D421BD003B0F0BDC6
:100E80001F46154E21463846B0470028FAD1F2E7F2
:100E90001E46114D21463046A8470028FAD1EDE7FD
:100EA0001E460E4D01A93046A8470028FAD1019BE5
:100EB0002370E3E71E46094D01A93046A8470028E4
:100EC000FAD1019B2370D9E700060E4000080E40BE
:100ED0000040024000800240F70A40001D0B400025
:100EE00070B50C46184B98420AD0184B984210D057
:100EF000174B984216D0174B98421CD0002070BD5B
:100F00001E46154D21463046A8470028FAD101203B
:100F100070BD1E46104D21463046A8470028FAD124
:100F2000012070BD1E460D4D21463046A8470028C1
:100F3000FAD1012070BD1E46084D21463046A84713
:100F40000028FAD1012070BD00060E4000080E40B6
:100F50000040024000800240E70A4000090B4000C8
:100F60002DE9F04184B0DFF88C80CDF80480164C78
:100F700023680293A36803930820144FB847144DC5
:100F800001A92846134EB047134B1D60134A144B5A
:100F90001A60144A144B1A60CDF804802368029337
:100FA000A36803930820B84701A92846B0470F4D0E
:100FB0002B68002198680E4CA0472B6800215868C8
:100FC000A04704B0BDE8F08114000020F507400000
:100FD00000060E40B10A4000A40A0020E10E4000C5
:100FE000A00A0020590E40009C0A00202400002086
:100FF0004D1D4000000E27070022014B1A6070476C
:10100000640A0020024A136801331360704700BF6E
:10101000640A002010B5064C21680648064B984724
:101020002068064BA3FB00304009054B984710BDD4
:10103000640A0020744A4000111C400009CB3D8D19
:101040006116400008B50448044B9847044B984784
:10105000044B984708BD00BF1C4B40003D1D40009D
:1010600015104000150E400008B500210248034B42
:101070009847034B984708BD00000140390A4000DB
:10108000D90D400008B501210248034B9847034B96
:10109000984708BD00000140390A40000510400093
:1010A0002DE9F04F85B01720DFF8E8B0D8472E4C77
:1010B000009403AB02AA21464FF47A70DFF8D8A05F
:1010C000D047039A42F4804200212848DFF8CC90B0
:1010D000C847029AB4FBF2F2254BA3FB02329209F5
:1010E00000212248DFF8B880C047102200211F48A5
:1010F000204FB847204E302386F817334FF40003B3
:1011000033601E481E4DA8471820D847009403ABF3
:1011100002AA21461B48D047039A42F4804201218B
:101120001248C847029AB4FBF2F25209164CA4FBCB
:101130000232D20901210D48C047102201210B487B
:10114000B847402386F818334FF0807333600F4858
:10115000A847002105480E4CA04701210348A0479D
:1011600005B0BDE8F08F00BF000E2707000001406A
:10117000D34D6210310A400000E100E0C84A40004F
:101180003D1D4000A0860100C55A7C0AEC4A400083
:10119000210A4000F5074000410A4000090A4000CA
:1011A000290A40002DE9F04782B02A482A4B984787
:1011B0002A4C08224FF400412046DFF8C490C8476B
:1011C00001224FF400412046254B9847254B0093C0
:1011D00070234FF400420B212046DFF8A880C0475F
:1011E0004FF400412046204EB047204C102384F895
:1011F0000B334FF4006323601D4D0922082128465C
:10120000C8471C4B0093702308220C212846C04776
:1012100008212846B0474FF0200A84F80CA34FF469
:1012200080552560144F092229463846C847134B7C
:10123000009370232A460D213846C0472946384678
:10124000B04784F80DA34FF40053236002B0BDE80B
:10125000F08700BFAC4A40003D1D4000000E0E402C
:101260008503400045104000C103400000E100E05C
:1012700000100E403913400000120E406913400068
:101280002D0340006106400070B584B01F20154B4F
:101290009847154C01212046144B984742F2107391
:1012A000019300250295124B039301A92046114B8F
:1012B000984711490D818D720B234B60C8230B6138
:1012C0000523CB6001260E6020460C4B98472A462A
:1012D000314620460A4B984731462046094B9847ED
:1012E00004B070BDF507400000000240ED09400069
:1012F000000E27079D084000AC0A0020E1084000CE
:10130000F7094000E309400010B504460548064BC4
:101310009847064901230B6022460548054B98472C
:1013200010BD00BF0C4B40003D1D4000AC0A00202A
:1013300000000240C709400008B5074B1B68132B8B
:1013400002D80133044A1360034B1868034B9847D3
:101350000348044B984708BD1000002009134000C3
:10136000844A40003D1D400008B5074B1B680A2B0E
:1013700002D9013B044A1360034B1868034B98479A
:101380000348044B984708BD100000200913400093
:10139000984A40003D1D400008B5084B9847084B4F
:1013A0009847084B98470848084B9847084B984778
:1013B000084B9847084B9847FEE700BF39014000AB
:1013C00029024000610F40002C4B40003D1D4000B1
:1013D00089124000A5114000A110400081F0004199
:1013E00002E000BF83F0004330B54FEA41044FEA0A
:1013F000430594EA050F08BF90EA020F1FBF54EAA5
:10140000000C55EA020C7FEA645C7FEA655C00F040
:10141000E2804FEA5454D4EB5555B8BF6D420CDD11
:101420002C4480EA020281EA030382EA000083EA94
:10143000010180EA020281EA0303362D88BF30BD34
:1014400011F0004F4FEA01314FF4801C4CEA11318A
:1014500002D0404261EB410113F0004F4FEA0333E9
:101460004CEA133302D0524263EB430394EA050F74
:1014700000F0A780A4F10104D5F1200E0DDB02FAE3
:101480000EFC22FA05F2801841F1000103FA0EF277
:10149000801843FA05F359410EE0A5F120050EF13D
:1014A000200E012A03FA0EFC28BF4CF0020C43FA6E
:1014B00005F3C01851EBE37101F0004507D54FF07B
:1014C000000EDCF1000C7EEB00006EEB0101B1F5CB
:1014D000801F1BD3B1F5001F0CD349085FEA300011
:1014E0004FEA3C0C04F101044FEA445212F5800F1C
:1014F00080F09A80BCF1004F08BF5FEA500C50F1B9
:10150000000041EB045141EA050130BD5FEA4C0C9B
:10151000404141EB010111F4801FA4F10104E9D124
:1015200091F0000F04BF01460020B1FA81F308BF1B
:101530002033A3F10B03B3F120020CDA0C3208DDE7
:1015400002F1140CC2F10C0201FA0CF021FA02F1C2
:101550000CE002F11402D8BFC2F1200C01FA02F132
:1015600020FA0CFCDCBF41EA0C019040E41AA2BF57
:1015700001EB0451294330BD6FEA04041F3C1CDA1F
:101580000C340EDC04F11404C4F1200220FA04F03F
:1015900001FA02F340EA030021FA04F345EA0301E9
:1015A00030BDC4F10C04C4F1200220FA02F001FAAB
:1015B00004F340EA0300294630BD21FA04F029462D
:1015C00030BD94F0000F83F4801306BF81F48011C6
:1015D0000134013D4EE77FEA645C18BF7FEA655C39
:1015E00029D094EA050F08BF90EA020F05D054EA0B
:1015F000000C04BF1946104630BD91EA030F1EBF10
:101600000021002030BD5FEA545C05D14000494113
:1016100028BF41F0004130BD14F580043CBF01F506
:10162000801130BD01F0004545F0FE4141F47001EC
:101630004FF0000030BD7FEA645C1ABF19461046C7
:101640007FEA655C1CBF0B46024650EA013406BFC8
:1016500052EA033591EA030F41F4002130BD00BF87
:1016600090F0000F04BF0021704730B54FF4806444
:1016700004F132044FF000054FF0000150E700BFC5
:1016800090F0000F04BF0021704730B54FF4806424
:1016900004F1320410F0004548BF40424FF0000111
:1016A0003EE700BF42004FEAE2014FEA31014FEA54
:1016B00002701FBF12F07F4393F07F4F81F06051A3
:1016C000704792F0000F14BF93F07F4F704730B512
:1016D0004FF4607401F0004521F0004120E700BFA5
:1016E00050EA010208BF704730B54FF000050AE02C
:1016F00050EA010208BF704730B511F0004502D52D
:10170000404261EB41014FF4806404F132045FEA2E
:10171000915C3FF4DCAE4FF003025FEADC0C18BFD3
:1017200003325FEADC0C18BF033202EBDC02C2F1C9
:10173000200300FA03FC20FA02F001FA03FE40EA5B
:101740000E0021FA02F11444C1E600BF70B54FF05B
:10175000FF0C4CF4E06C1CEA11541DBF1CEA13553D
:1017600094EA0C0F95EA0C0F00F0DEF82C4481EAA5
:10177000030621EA4C5123EA4C5350EA013518BFC5
:1017800052EA033541F4801143F4801338D0A0FBB2
:1017900002CE4FF00005E1FB02E506F00042E0FB5F
:1017A00003E54FF00006E1FB03569CF0000F18BF65
:1017B0004EF0010EA4F1FF04B6F5007F64F540740D
:1017C00004D25FEA4E0E6D4146EB060642EAC621A0
:1017D00041EA55514FEAC52040EA5E504FEACE2E0D
:1017E000B4F1FD0C88BFBCF5E06F1ED8BEF1004F10
:1017F00008BF5FEA500E50F1000041EB045170BD8C
:1018000006F0004646EA010140EA020081EA0301CF
:10181000B4EB5C04C2BFD4EB0C0541EA045170BDCB
:1018200041F480114FF0000E013C00F3AB8014F145
:10183000360FDEBF002001F0004170BDC4F100048E
:10184000203C35DA0C341BDC04F11404C4F120050F
:1018500000FA05F320FA04F001FA05F240EA02006A
:1018600001F0004221F0004110EBD37021FA04F6A0
:1018700042EB06015EEA430E08BF20EAD37070BD5A
:10188000C4F10C04C4F1200500FA04F320FA05F0B9
:1018900001FA04F240EA020001F0004110EBD370BB
:1018A00041F100015EEA430E08BF20EAD37070BD2B
:1018B000C4F1200500FA05F24EEA020E20FA04F304
:1018C00001FA05F243EA020321FA04F001F00041B3
:1018D00021FA04F220EA020000EBD3705EEA430E24
:1018E00008BF20EAD37070BD94F0000F0FD101F053
:1018F0000046400041EB010111F4801F08BF013C8C
:10190000F7D041EA060195F0000F18BF704703F0C9
:101910000046520043EB030313F4801F08BF013D50
:10192000F7D043EA0603704794EA0C0F0CEA13550C
:1019300018BF95EA0C0F0CD050EA410618BF52EAC6
:101940004306D1D181EA030101F000414FF00000CC
:1019500070BD50EA410606BF1046194652EA4306DA
:1019600019D094EA0C0F02D150EA013613D195EA4E
:101970000C0F05D152EA03361CBF104619460AD196
:1019800081EA030101F0004141F0FE4141F47001A0
:101990004FF0000070BD41F0FE4141F4780170BD90
:1019A00070B54FF0FF0C4CF4E06C1CEA11541DBFF5
:1019B0001CEA135594EA0C0F95EA0C0F00F0A7F8F7
:1019C000A4EB050481EA030E52EA03354FEA013124
:1019D00000F088804FEA03334FF0805545EA131337
:1019E00043EA12634FEA022245EA111545EA1065FF
:1019F0004FEA00260EF000419D4208BF964244F196
:101A0000FD0404F5407402D25B084FEA3202B61AB4
:101A100065EB03055B084FEA32024FF480104FF488
:101A2000002CB6EB020E75EB030E22BFB61A7546FC
:101A300040EA0C005B084FEA3202B6EB020E75EB8F
:101A4000030E22BFB61A754640EA5C005B084FEAF7
:101A50003202B6EB020E75EB030E22BFB61A7546C4
:101A600040EA9C005B084FEA3202B6EB020E75EBCF
:101A7000030E22BFB61A754640EADC0055EA060E90
:101A800018D04FEA051545EA16754FEA06164FEAD3
:101A9000C30343EA52734FEAC2025FEA1C1CC0D17F
:101AA00011F4801F0BD141EA00014FF000004FF00C
:101AB000004CB6E711F4801F04BF01430020B4F1CD
:101AC000FD0C88BFBCF5E06F3FF6AFAEB5EB030C85
:101AD00004BFB6EB020C5FEA500C50F1000041EB82
:101AE000045170BD0EF0004E4EEA113114EB5C044F
:101AF000C2BFD4EB0C0541EA045170BD41F4801122
:101B00004FF0000E013C90E645EA060E8DE60CEA29
:101B1000135594EA0C0F08BF95EA0C0F3FF43BAF46
:101B200094EA0C0F0AD150EA01347FF434AF95EAFD
:101B30000C0F7FF425AF104619462CE795EA0C0FE1
:101B400006D152EA03353FF4FDAE1046194622E7AE
:101B500050EA410618BF52EA43067FF4C5AE50EA88
:101B600041047FF40DAF52EA43057FF4EBAE12E778
:101B70004FEA410212F5001215D211D56FF47873B5
:101B8000B3EB625212D94FEAC12343F0004343EA58
:101B9000505311F0004F23FA02F018BF4042704733
:101BA0004FF00000704750EA013005D111F00040BD
:101BB00008BF6FF0004070474FF00000704700BF53
:101BC00070B50F4E0F4D761BB61018BF002405D010
:101BD000013455F8043B9847A642F9D10A4E0B4D03
:101BE000761B03F065F8B61018BF002406D0013448
:101BF00055F8043B9847A642F9D170BD70BD00BFAF
:101C0000BC4C4000BC4C4000C44C4000BC4C4000AC
:101C10000FB400B5074983B004AB086853F8042B30
:101C20008168019300F0FAF903B05DF804EB04B0A9
:101C3000704700BF2400002070B4860746D0541EB1
:101C4000002A41D0CAB2034602E014F1FF343BD36C
:101C500003F8012B9D07F8D1032C2ED9CDB245EA0C
:101C600005250F2C45EA054519D903F11002264632
:101C7000103E0F2E42F8105C42F80C5C42F8085CF3
:101C800042F8045C02F11002F2D8A4F1100222F032
:101C90000F0204F00F041032032C13440DD91E461A
:101CA0002246043A032A46F8045BFAD8221F22F09F
:101CB00003020432134404F003042CB1C9B21C44DF
:101CC00003F8011B9C42FBD170BC704714460346CD
:101CD000C2E700BFF0B5054689B008460C4600F0E3
:101CE000EFF8AB6B144F04940126441C04A90222A4
:101CF00003940590AC680697079601910292B3B1E0
:101D0000B4F90C309A0406D4626E43F4005322F402
:101D10000052A38162662146284601AA01F018FB01
:101D2000002814BF4FF0FF300A2009B0F0BD28464C
:101D300001F052F9E4E700BF284B4000024B014696
:101D40001868FFF7C7BF00BF2400002000290CBFA0
:101D5000022200224FF4806300F000B82DE9F04326
:101D6000504C256883B004460F4690461E4615B178
:101D7000AB6B002B77D0B8F1020F04D0B8F1010F94
:101D80007DD8002E7BDB2146284601F091F8216B9F
:101D900041B104F14003994202D0284601F0F2F922
:101DA00000232363B4F90C300022A26162601A069A
:101DB00052D423F44A6323F00303B8F1020FA38142
:101DC00037D001AB6A462146284601F071FCA38951
:101DD0001843A08116B317B3AB6B002B4BD0009BFD
:101DE00027609E42B4F90C3027611CBF43F40063A6
:101DF000A381B8F1010F04BF43F00103A3819BB29B
:101E000013F00800666123D013F001002FD00020EA
:101E10007642A661A06003B0BDE8F083009E304624
:101E200001F0B8FC074668B3A38943F08003A3819F
:101E3000D2E7002004F1430243F002030025012110
:101E4000A381A56022602261616103B0BDE8F083D7
:101E5000A06003B0BDE8F0832169284601F092F943
:101E6000B4F90C30A5E7284601F0B6F883E7A66080
:101E700003B0BDE8F083284601F0AEF8AFE74FF0BD
:101E8000FF30E2E7DDF80090B14506D0484601F0AA
:101E900081FC074608B14E46C6E7B4F90C304FF056
:101EA000FF30C7E724000020000000000000000011
:101EB0000000000000000000000000000000000022
:101EC00090F800F06DE9024520F007016FF0000C7A
:101ED00010F0070491F820F040F049804FF0000422
:101EE0006FF00700D1E9002391F840F000F10800FD
:101EF00082FA4CF2A4FA8CF283FA4CF3A2FA8CF335
:101F00004BBBD1E9022382FA4CF200F10800A4FA9B
:101F10008CF283FA4CF3A2FA8CF3E3B9D1E90423EF
:101F200082FA4CF200F10800A4FA8CF283FA4CF326
:101F3000A2FA8CF37BB9D1E9062301F1200182FAE0
:101F40004CF200F10800A4FA8CF283FA4CF3A2FAE6
:101F50008CF3002BC6D0002A04BF04301A4612BAF4
:101F6000B2FA82F2FDE8024500EBD2007047D1E9F7
:101F7000002304F00305C4F100004FEAC50514F086
:101F8000040F91F840F00CFA05F562EA05021CBF57
:101F900063EA050362464FF00004A9E72DE9F84F14
:101FA0004B6E9C0493462FD59368126853B30E462C
:101FB000074602F1080919E920045FEA9A0817D0D8
:101FC000043D002401E0A04510D0324655F8041F1E
:101FD000384601F075F8431C04F10104F3D10023E5
:101FE000CBF80830CBF80430BDE8F88FDBF80830C8
:101FF0002AF0030AA3EB0A03CBF8083009F1080919
:10200000002BD8D10020EAE701F0A2F90023CBF899
:102010000830CBF80430BDE8F88F00BF2DE9F04F51
:10202000ADB01D46019191460893069018B1836B9F
:10203000002B00F0E080019CB4F90C0081B28B040D
:1020400007D4636E40F4005123F40053A18163660A
:1020500089B20F0740F1B180019B1B69002B00F092
:10206000AC8001F01A010A2900F0B58000230DF1BF
:10207000700B0B93119310930493CDF83CB0DA4698
:1020800099F800304C46FBB1252B02D11CE0252BE2
:1020900003D014F8013F002BF9D1A4EB09059DB141
:1020A000109B119ACAF8009001332A44072BCAF8F2
:1020B0000450119210937ADD002A40F08F84049B23
:1020C00010922B44DA4604932378002B00F0B1835E
:1020D00000204FF000038DF8373004F101096278D9
:1020E0000546064603464FF0FF3409F10109A2F107
:1020F0002001582900F20E83DFE811F037020C03AB
:102100000C03EB020C030C030C030C030C030C0379
:102110009E02F0020C03820077020C03CF01D4016F
:10212000D401D401D401D401D401D401D401D40107
:102130000C030C030C030C030C030C030C030C0327
:102140000C030C033F020C030C030C030C030C03E5
:102150000C030C030C030C030C0346020C030C03CE
:102160000C030C030C034A020C030C0352020C0375
:102170000C030C030C030C030C030C030C030C03E7
:102180000C03E201F6010C030C030C030703F60138
:102190000C030C0391020C03F5028700B102C30289
:1021A0000C03C8020C03BD010C030C03AA020AF1C4
:1021B000080A049B2B44049386E7019C0698214659
:1021C00000F062FD002840F04083A18901F01A016F
:1021D0000A297FF44BAF0199B1F90E30002BFFF6BD
:1021E00045AF2B464A46069800F018FD0490049827
:1021F0002DB0BDE8F08F00F0EFFE1CE776420892AC
:1022000043F0040399F800206FE7079613F02002CB
:1022100040F05A8413F0100140F0F18313F04002B3
:1022200000F0ED8308980A460146043106880891BB
:1022300000274FF000018DF837100025611C00F0D9
:10224000758123F08001039156EA070140F0738104
:10225000002C40F05683002A40F0B28313F00103B3
:10226000059300F047840DF1B008302308F8413D94
:10227000059BA342B8BF234602930DB101330293DD
:10228000039B13F00203099302D0029B02330293D3
:10229000039B13F084030A9340F06382079B029A26
:1022A0009D1A002D40F35D82102D40F37784109B22
:1022B000119AB94ED6461027A2461946069C07E049
:1022C00001F1020C0EF1080E0146103D102D11DD3A
:1022D000481C1032072811928EE8C0001090EFDDE4
:1022E000002A40F03182103D102D11464FF0010CB4
:1022F000DE46EDDC54466146F2462A440729119237
:10230000CAF80060CAF80450109100F3E6829DF804
:1023100037500AF1080A481C002D40F02A82099B18
:10232000002B00F0448202320EA9022307281192EA
:1023300010908AE80A0040F33682002A40F08B832E
:102340000A9B802B4FF001001146DA4640F03382A1
:10235000079B029D5E1B002E40F32D82102E8F4D99
:1023600040F32F84D4461027A246069C07E001F1D3
:10237000020E0CF1080C0146103E102E11DD481C17
:102380001032072811928CE8A0001090EFDD002A8F
:1023900040F09682103E102E4FF0010E1146DC46A2
:1023A000EDDC5446E2463244BEF1070F11928AE852
:1023B0006000CDF840E000F35B83059BE41A002C3D
:1023C0000AF1080A0EF10100714600F3F98105993E
:1023D000CAF800800A4407281192CAF80410109025
:1023E00040F35582002A40F0EE82039B109258077A
:1023F00038D5079B02995C1A002C40F3BA82DA4662
:10240000102C40F3DA831099634E069FDDF80480A8
:10241000102506E0881C0AF1080A1946103C102C09
:1024200013DD4B1C1032072B1192CAF80060CAF85A
:1024300004501093EEDD002A40F00B82103C102C6B
:102440004FF001001146DA46EBDC224407281192D6
:10245000CAF80060CAF80440109040F32382002AB2
:1024600040F06783049B079A02998A42ACBF9B188D
:102470005B1804931FE207969E0600F119830899E2
:10248000DD060A4600F1B582580640F1B2820E8898
:102490000431002701220891CBE643F0800399F82C
:1024A000002022E6A2F13001002619F8012B06EBEC
:1024B000860601EB4606A2F130010929F5D916E698
:1024C000089907960A688DF848204FF000000A46E0
:1024D0008DF83700043201200290089205900DF12A
:1024E000480803930024CBE60796002840F0828337
:1024F0009E0600F1D182DD0600F18D82580640F182
:102500008A82089DB5F900602A46F71704323046E2
:1025100039460892002871F10002C0F2EE82611C77
:102520009DF837504FF001027FF48BAE56EA070159
:1025300000F0E8810393012A00F02582022A40F08E
:10254000F5810B98D846330906F00F0143EA07736B
:102550003A091E461746435C08F8013D56EA070350
:10256000F1D1ABEB0803059382E699F80020002D2A
:102570007FF4BBAD01202025B7E50796002840F089
:10258000368343F01003B3E7079643F010033DE6AC
:10259000079643F010036FE77C4B40008C4B4000E4
:1025A0000796002840F02C83B0490B919F0600F15C
:1025B00097820898DE06014600F128825D0640F108
:1025C00025820431068808910027D80740F1D98177
:1025D00056EA070100F0D58130218DF8392043F00B
:1025E00002038DF83810022223E699F800202A2AE7
:1025F00009F1010700F0F082A2F130010929B94682
:102600004FF000043FF673AD19F8012B04EB84047E
:1026100001EB4404A2F130010929F5D967E599F8E5
:1026200000206C2A03BF99F8012043F0200309F130
:10263000010943F0100358E508990E680A46002E78
:1026400002F10402FFF6DAAD089299F800204CE599
:102650000796002840F0DA8285490B91A6E7089892
:10266000834A07960B9206687822302104308DF851
:10267000392043F00203089000278DF83810022219
:10268000D7E543F0200399F800202EE50899079636
:10269000D1F800804FF000028DF837200E1DB8F100
:1026A000000F00F08182671C00F06082224600214A
:1026B0004046029301F03CFB029B002800F084821C
:1026C000A0EB08020592089603939DF8375000246A
:1026D000CEE543F0010399F8002006E599F80020C3
:1026E00001202B2501E5002840F08782990600F1A2
:1026F0003182DA0621D45B061FD5089A13680432AA
:102700000892BDF810201A80BAE443F0400399F80B
:102710000020EAE40796002840F07582002A00F0C5
:10272000888001218DF848204FF0000202918DF839
:10273000372005910DF14808D3E6089A1368043252
:102740000892049A1A609BE40FAA01992046FFF7A9
:1027500025FC002874D11099119A01F1010CDE4674
:10276000B3E51099119A481C9DF83750002D3FF49D
:10277000D6AD01320DF137050121072811921090D5
:10278000CAF80050CAF8041040F3B680002A40F09E
:102790005581099B002B3FF4D3AD0EAB02220846B6
:1027A0001C931D92DA4601460AF1080A01300A9B81
:1027B000802B3FF4CDAD059BE41A002C7FF707AECC
:1027C000102C2C4D1DDDD6461026069FDDF804A0EA
:1027D00006E0881C0EF1080E1946103C102C0FDD87
:1027E0004B1C1032072B11928EE860001093F0DD25
:1027F000A2B9103C102C4FF001001146DE46EFDC70
:10280000F246224407281192CAF80050CAF8044040
:10281000109031DC0AF1080A0130D8E50FAA5146C0
:102820003846FFF7BBFB58B91099119A481CDE4691
:10283000D3E7119B23B1069801990FAAFFF7AEFBCE
:10284000019B9B895B067FF5D2AC4FF0FF3304936D
:10285000CDE40FAA41463846FFF7A0FB0028EFD190
:102860001099119A481CDA46D8E500BF4C4B40003D
:10287000604B40008C4B4000002A40F00081059ADC
:102880001D9201231192CDF870801093DA460AF15F
:10289000080A039B590705D5079B02995C1A002C6F
:1028A0003FF7AEAD049B079902988142ACBF5B181D
:1028B0001B1804937ABB00231093DA46FFF7E0BBA2
:1028C0000FAA01992046FFF769FB0028B8D110999B
:1028D000119A01F1010EDC464EE5002A40F01C8100
:1028E0009DF83710002900F0118101220DF1370108
:1028F00010461D921C91DA4601460AF1080A013081
:102900000DE5039B012A00F09080022A0BD103936E
:102910000026002715E60FAA01990698FFF73EFB4F
:102920000028C8D08CE7039300260027594600E012
:102930004146F20842EA4772F80806F007030746E4
:102940001646303356EA070201F8013C01F1FF3820
:10295000EED1039AD6077FF504AE302B3FF401AEDB
:102960000239302308F8013CABEB0103059388469C
:102970007EE4049B079A8A42ACBF9B185B180493C1
:1029800099E7022255E4002F08BF0A2E4CD3D846FF
:10299000304639460A22002301F0B4FE303208F8EE
:1029A000012D3046394600230A2201F0ABFE0646CF
:1029B0000F4656EA0703EBD1ABEB0803059357E448
:1029C0000594D84654E40FAA01990698FFF7E6FA51
:1029D00000287FF435AF119ADA465AE70FAA019919
:1029E0000698FFF7DBFA00287FF42AAFDA46FFF7F4
:1029F000E0BB0431166808910122002719E4089809
:102A00000146043106680891002712E40E6804317B
:102A100008910027D9E508990E680A46F71704328D
:102A200008923046394675E5039B03930DF1B008D3
:102A30003036012308F8416D059319E40FAA019976
:102A40000698FFF7ABFA00287FF4FAAE1099119AB6
:102A5000481CDA4663E40FAA01990698FFF79EFA2C
:102A600000287FF4EDAE1099119A481CDA469EE6D4
:102A7000002A40F0868001201146DA469BE60FAA24
:102A800001990698FFF78AFA00287FF4D9AE1098CA
:102A9000119A0130DA469AE4089E073626F00706B6
:102AA000D6E9000106F10802089206460F4631E514
:102AB000089E073626F0070202F10801D2E90067F6
:102AC00008910122FFF7B5BB089E073626F00702E2
:102AD00002F10801D2E9006708910022FFF7A9BBC3
:102AE000089E073626F0070101F108000890D1E999
:102AF00000676AE5D846FFF7BBBB2D25764267EB3A
:102B000047078DF837500122FFF798BB099BD3B9CF
:102B100011460120DA464EE60FAA01990698FFF702
:102B20003DFA00287FF48CAE1099119A481CDA46C1
:102B30001AE60FAA01990698FFF730FA00287FF4E9
:102B40007FAE119AAEE60EAB02221C931D920120BD
:102B5000DA4628E6089A04991368CD170846043225
:102B600029460892C3E90001FFF78ABA4046089651
:102B70000393FFF7A5F9002405909DF83750FFF760
:102B800077BB0FAA01990698FFF708FA00287FF48F
:102B900057AE1099119A481CDA460CE61099119A12
:102BA0001C4E0131FFF7A9BB062C28BF0624059453
:102BB00008960294DFF8608093E41098154E013077
:102BC00043E48646FFF7EFBB05949DF8375008961F
:102BD00003930446FFF74CBB089999F801200C6851
:102BE000043144EAE474B9460891FFF77EBA8DF8DF
:102BF0003750C6E48DF837507AE48DF8375075E5D4
:102C00008DF83750D0E48DF8375087E58DF8375080
:102C100022E500BF7C4B4000744B4000F0B50C46F1
:102C2000ADF26C4D8989666EE589199621F0020135
:102C3000666AADF80E500025E769ADF80C100996EC
:102C400006951AAE4FF48065694600960496029583
:102C5000059507970646FFF7E1F9051E07DB3046A5
:102C6000694600F025F9002818BF4FF0FF35BDF880
:102C70000C305B0603D5A38943F04003A3812846AB
:102C80000DF26C4DF0BD00BF38B5304B1B680546EA
:102C90000C4613B19A6B002A38D0B4F90C2093B2C9
:102CA00018070CD52069A8B113F001021ED0636982
:102CB00000225B42A361A260F0B1002038BDD906BA
:102CC0003CD5580726D4206942F00803A3819BB263
:102CD0000028E9D103F42072B2F5007FE4D0284641
:102CE000214600F013FDA3892069DDE7990758BF4D
:102CF0006269A2600028E0D1B4F90C301A06DDD573
:102D000043F04003A3814FF0FF3038BD184600F078
:102D100063F9C2E7216B51B104F14003994204D039
:102D2000284600F02FFAB4F90C2000232363002377
:102D30002069636022F024022060C5E742F040026F
:102D400009232B604FF0FF30A28138BD2400002002
:102D5000024B13B1024800F005B8704700000000B4
:102D6000ED2F4000002301461A46184601F0D4BB5F
:102D7000B1F90C309AB22DE9F0410D4611078046A9
:102D80003AD46A6843F40063002AAB816FDDAC6A11
:102D9000002C49D000229BB2D8F80060C8F800206F
:102DA00013F4805267D02A6D5F0705D569682B6BD5
:102DB000521A0BB1EB6BD21A0023E9694046A047C7
:102DC000441C3CD0B5F90C302A692A6023F4006316
:102DD0000022AB81DB046A6047D4296BC8F800602D
:102DE00011B305F14003994202D0404600F0CAF900
:102DF00000202863BDE8F0812E69AEB12C682E60FA
:102E000091070CBF6B690023A41BAB600AE023464B
:102E100032466F6AE9694046B8470028A4EB0004CF
:102E2000064404DD002CF2DC0020BDE8F081AB8913
:102E300043F04003AB814FF0FF30BDE8F081D8F89C
:102E400000401D2CF3D8194BE340DB4313F0010382
:102E5000EDD1B5F90C206B6022F400632969AB81D8
:102E6000DA042960B9D5002CB7D12865B5E7EA6B3B
:102E7000002A8CDCD8E70123E9694046A047431CBF
:102E8000024602D0AB89AC6A8EE7D8F80030002B3E
:102E9000F8D01D2B01D0162B02D1C8F80060C3E773
:102EA000AB8943F04003AB81BDE8F08101004020D5
:102EB00010B5044682B008B1836B53B1B1F90C0070
:102EC00008B902B010BD204602B0BDE81040FFF7BF
:102ED0004FBF019100F080F80199EFE7014900F040
:102EE000AFBB00BFE14540002DE9F04F354B4568D1
:102EF000C3630024074600F53B7204230321C0F896
:102F0000E412C0F8E822C0F8E04283B02C606C60A4
:102F1000AC606C66EC812C616C61AC61AB8121466C
:102F200005F15C000822FEF787FEBE68DFF898B066
:102F3000DFF898A0DFF89890DFF89880C5F820B007
:102F400001230922C5F824A0C5F82890C5F82C80D3
:102F5000ED612146F381B28106F15C00346074605A
:102F6000B460746634617461B46108220193FEF741
:102F700063FEFD68F66112200222C6F820B0C6F892
:102F800024A0C6F82890C6F82C802146A881EA81A2
:102F90002C606C60AC606C662C616C61AC6105F19E
:102FA0005C000822FEF748FE019BED61C5F820B0E9
:102FB000C5F824A0C5F82890C5F82C80BB6303B0E1
:102FC000BDE8F08FDD2E40004543400069434000DE
:102FD000A5434000C5434000836B03B17047FFF732
:102FE00083BF00BF704700BF704700BF38B50A4CB1
:102FF0000A4D641BA4100AD004F18043013B05EB89
:103000008305013C55F804399847002CF9D1BDE8F7
:10301000384001F057BE00BFD44C4000D04C4000B7
:103020002DE9F04782B080468946144600F032FB15
:10303000012836D04A4604F15C0301A9404601F05C
:103040001DFA421C064625D0A8B39DF804E00025D1
:103050000DF1040A09E023685A1C226083F800E09D
:103060000135B54227D215F80AE0A368013B002BD1
:10307000A360F0DAA769BB4271462246404602DBF4
:10308000BEF10A0FE7D101F0A1F9431CE8D102B06B
:10309000BDE8F087A38943F04003A38102B0BDE8F7
:1030A000F08709F1FF33FE2BC4D85FFA89FE06468C
:1030B0008DF804E0CBE7484602B0BDE8F08700BFDA
:1030C000B2F90C3013F4005F0AD110B4546E43F41B
:1030D000005344F400545466938110BCFFF7A0BF22
:1030E000FFF79EBFF8B5244F0C46064600F06EFF72
:1030F000BB685D68C4F57E610F3125F00305294486
:1031000021F47F6121F00F01A1F58054B4F5805FB7
:1031100007DB0021304601F003F9BB682B449842DD
:1031200004D0304600F054FF0020F8BD6142304624
:1031300001F0F6F801300DD0104BBA6819682D1B5C
:1031400045F001053046091B5560196000F040FF4D
:103150000120F8BD0021304601F0E2F8BA68831A78
:103160000F2BDEDD064C0549246843F00103001BEC
:1031700053600860D5E700BFBC050020680A002046
:10318000C4090020002944D02DE9F0410D468046B5
:1031900000F01CFF55F8047C694927F00103A5F1F4
:1031A0000804E2188E685068B24220F003005ED036
:1031B000FE0750600BD455F8087CE41B01F1080EA3
:1031C000A56875453B446DD0E768EF60BD60151894
:1031D0006D68ED073ED543F001026260E350B3F540
:1031E000007F17D2DB08581C9A104D6851F83070D8
:1031F000A7600123934001EBC0022B43083AE26031
:103200004B6041F83040FC604046BDE8F04100F0C2
:10321000DFBE70475A0A042A52D89A0902F13907C8
:10322000FF0002F13805C819CA59083890424FD03A
:10323000516821F003018B4232D292689042F7D15B
:10324000C368A060E3609C60C4604046BDE8F04194
:1032500000F0BEBE95683B4FBD42034440D0D068ED
:10326000E86043F0010285606260E350B7E7FF0762
:10327000034407D455F8082CA41A1344A068E26844
:10328000C2609060304A126843F00100934260606F
:103290008C60B9D32D4B40461968FFF723FFB3E785
:1032A0001046CDE711184968C90744D49168D2681F
:1032B000CA60034443F0010091606060E350A3E7FB
:1032C000142A16D802F15C07FF0002F15B05AAE799
:1032D000AA1001234D6893402B434B600346B0E78F
:1032E00043F001024C610C61E560A5606260E3504F
:1032F0008AE7542A06D81A0B02F16F07FF0002F181
:103300006E0590E7B2F5AA7F06D8DA0B02F17807CE
:10331000FF0002F1770586E740F25450824206D85A
:103320009A0C02F17D07FF0002F17C057BE74FF468
:103330007E777E2577E743F001016160136063E7E4
:10334000BC050020C4050020C8090020980A002000
:103350009368002B73D02DE9F04F8B8983B00C4616
:1033600019070090164626D5226922B313F00200F1
:1033700035682CD04FF00009B04FC846B246B8456A
:1033800043464A4628BF3B460098B8F1000F50D04C
:10339000E169666AB047002858DDDAF808301B1A80
:1033A0008144A8EB0008CAF80830002BE7D10020C0
:1033B00003B0BDE8F08F21460098FFF765FC0028B8
:1033C00040F03381A389356813F00200D2D113F0A5
:1033D000010945D14F46019637B39A05D4F80880C4
:1033E00040F183804745C346C0F0AB8013F4906F33
:1033F00040F0AC802068BA465A46494600F082FD4B
:10340000A2682368A2EB08025B44A2602360019AD1
:103410009368A3EB0A03D144A7EB0A079360002B40
:10342000C5D0A389002FD8D1D5F800906F68083592
:10343000D2E7D5F80090D5F8048008359FE7002042
:10344000704721460098FFF733FD70B3B4F90C3094
:1034500043F040034FF0FF30A38103B0BDE8F08F8D
:10346000814633464E46A8469A464D464EB380B3F3
:10347000206823696269B145CB4628BFB3469842AC
:103480005F4604D9A36813449B4500F3A680934587
:103490004BDB1346676AE16900982A46B847071E66
:1034A000D4DDB9EB0709CCD00120DAF80830DB1BFA
:1034B0003D44F61BCAF80830002B3FF478AF002ECD
:1034C000D5D108F1080313E9600098460833002EAF
:1034D000F9D032460A21284600F02AFC002800F0E4
:1034E000A1800130A0EB0509C2E72068236998425A
:1034F00002D863699F425DD2B84528BFB8464246AC
:10350000494600F0FFFCA3682268A3EB080342448D
:10351000A36022600BB1C24679E721460098FFF70D
:10352000C7FC002892D1C24671E75A46294600F0EE
:10353000E9FCA2682368A2EB0B025B44A260236053
:10354000AFE72068B846BA46BB4655E762692068CF
:10355000216902EB4208A0EB010A08EBD8780AF1D6
:1035600001004FEA680838444045424684BF80461F
:1035700042465B0544D51146009800F013F9834696
:10358000002855D05246216900F022FCA38923F47B
:10359000906343F08003A3810BEB0A00A8EB0A03BE
:1035A000C4F810B0C4F814802060A360B846BA46CE
:1035B000BB4621E76FF00041B94228BF39464A4671
:1035C00091FBF3F10098666A03FB01F3E169B047F0
:1035D000B0F1000A3FF71BAF38E71A4629460193BE
:1035E00000F090FC2268019B00981A44226021465A
:1035F000FFF75EFC019B00287FF428AF1F4650E7D1
:10360000009800F0E7FC83460028C5D1009D2169A1
:103610002846FFF7B7FDB4F90C300C2223F08003E5
:103620002A6015E706F1010922E74FF0FF30BFE6F7
:10363000009A0C231360B4F90C3009E700FCFF7FFB
:103640002DE9F84310F538771FD0884606464FF02D
:1036500000097D68BC68013D11D4A389012B05F1E7
:10366000FF3508D9B4F90E3001332146304602D077
:10367000C04749EA00096B1C04F16804EDD13F68BA
:10368000002FE6D14846BDE8F883B9464846BDE874
:10369000F88300BF044B054A1B685B6B002B08BF17
:1036A000134693F82801704724000020500400209E
:1036B00070B50C46B1F90E10002990B015461E46A3
:1036C00014DB01AA00F0CCFF00280FDB029A02F401
:1036D0007042A2F50052B2FA82F252094FF48063AE
:1036E0004FF4006032602B6010B070BDA2890023DF
:1036F00012F08000336004D0402218462A6010B0D7
:1037000070BD4FF480632B6010B070BD8A89920742
:103710000B4606D501F1430201211A601A61596175
:103720007047F0B583B001AB6A460C460546FFF71B
:10373000BFFF00990646284600F034F8B4F90C3073
:10374000D0B1019A124F0099EF6343F08003A38137
:103750002060206161611AB93343A38103B0F0BDD9
:103760002846B4F90E1000F08FFFB4F90C30002891
:10377000F2D043F00103EFE79A05EFD404F14302DE
:1037800043F002030121A381226022616161E5E728
:10379000DD2E4000024B0146186800F003B800BF60
:1037A000240000202DE9F04F01F10B06162E83B006
:1037B000054640F29E8036F0070600F1BD80B1421A
:1037C00000F2BA8000F002FCB6F5FC7FC0F09382F4
:1037D000730A00F0B880042B00F27981B30903F179
:1037E000390003F1380EC300BF4F3B44A3F1080179
:1037F0005C68A14206D10CE0002A80F2AA80E4684D
:10380000A14206D0636823F003039A1B0F2AF3DD5D
:1038100070463C69DFF8E4E2744500F0AB81636810
:1038200023F003039A1B0F2A00F39081002AC7F8A4
:1038300014E0C7F810E080F29D80B3F5007F80F0BF
:103840006181DB0803F1010C99107A6857F83C801C
:10385000C4F8088001238B4007EBCC0113430839DF
:10386000E1607B6047F83C40C8F80C4082100124BE
:1038700094409C4200F28B801C4206D120F0030051
:1038800064001C4200F10400FAD007EBC009CC46EA
:103890008046DCF80C309C4507D16DE1002A80F2AF
:1038A0007B81DB689C4500F06781596821F003014A
:1038B0008A1B0F2AF2DDD3F80CC0D3F808800093DE
:1038C0009C19284646F0010642F001055E60C8F8E2
:1038D0000CC0CCF808807C613C61C4F80CE0C4F8F2
:1038E00008E065605A5000F073FB009B03F1080488
:1038F0001EE0102920D800F069FB102618230220B2
:10390000794F3B44A3F108025C68944200F03D818A
:103910006368E168A66823F00303234428465A68D5
:10392000F16042F001028E605A6000F051FB0834F1
:10393000204603B0BDE8F08F00240C2320462B6006
:1039400003B0BDE8F08F40204FF400734FF03F0EFE
:103950004AE72344E1685A68A66842F00102F16030
:1039600028468E605A6000F033FB0834204603B0CE
:10397000BDE8F08F234428465A6842F001025A609D
:1039800000F026FB0834204603B0BDE8F08FBC6889
:10399000636823F00308B04504D3A8EB06030F2B9C
:1039A00000F38580DFF85891504BD9F800201B6850
:1039B0000132334404EB080A00F0558103F58053CB
:1039C0000F3323F47F6B2BF00F0B5946284600F082
:1039D000A7FC411C024600F0FC80824500F2F78003
:1039E000434B19685944196000F04D81D9F8000023
:1039F00001301BBFA2EB0A0A5144C9F8002019602C
:103A000012F0070100F01581C1F10800C1F58051E5
:103A10000244083102EB0B09C9F30B09A1EB0909B8
:103A2000494628460193009200F07AFC431C9DE829
:103A30000C0000F04381801A484440F001001968EE
:103A4000BA604944BC425060196017D0B8F10F0FFA
:103A500040F2FB806068A8F10C0222F0070204EB40
:103A6000020E00F001004FF0050C10430F2A6060B9
:103A7000CEF804C0CEF808C000F217811D4BBC6818
:103A80001A68914288BF19601B4B1A68914262689C
:103A900088BF196022F003029642A2EB060301D808
:103AA0000F2B04DC284600F093FA002440E7A2190B
:103AB00043F0010346F0010666602846BA60536091
:103AC00000F086FA0834204603B0BDE8F08F142BCE
:103AD00071D9542B00F2A380330B03F16F0003F173
:103AE0006E0EC30080E600BFBC050020980A0020CF
:103AF000680A0020900A0020940A0020C4050020D3
:103B0000C40900205A0A042A5BD9142A00F2AE80A4
:103B100002F15C01C9005B3207EB010C7958ACF192
:103B2000080C8C4500F088804A6822F0030293421A
:103B300073D289688C45F7D1DCF80C207B68E26091
:103B4000C4F808C09460CCF80C408FE6A11946F088
:103B5000010C42F00106C4F804C0284679613961BD
:103B6000C1F80CE0C1F808E04E60E25000F030FA15
:103B70000834DDE67B6879E608F1010818F0030FE8
:103B80000CF1080C7FF485AE2DE0DC68A34208BF81
:103B900002303FF43EAEBBE619441C464A68DB687F
:103BA00054F8086F42F001024A602846F3609E60B4
:103BB00000F00EFABCE603F15C0003F15B0EC300FB
:103BC00012E69A0902F13901C9003832A4E7BC4271
:103BD00054D0BC68626822F003025DE759F80839E6
:103BE000994540F0868010F0030F00F1FF30F5D1C9
:103BF0007B6823EA04037B6064009C423FF6C7AE07
:103C0000002C3FF4C4AE1C4240467FF43EAE64003C
:103C10001C4200F10400FAD037E68C468CE7B3F57D
:103C2000AA7F15D8F30B03F1780003F1770EC300D8
:103C3000DAE54FF48051EDE67B689210012101FA3C
:103C400002F213437B60624679E70123536029E760
:103C500040F25452934222D8B30C03F17D0003F199
:103C60007C0EC300C0E503F1100BAEE6542A29D840
:103C70001A0B02F16F01C9006E324DE7204B196833
:103C800059441960B2E6CAF30B0000287FF4AEAEC7
:103C900008EB0B03BA6843F001035360EEE67F20A4
:103CA0004FF47E734FF07E0E9EE504F10801284626
:103CB0000093FFF767FA009B1968DFE601204FF0D9
:103CC0000009BCE6B2F5AA7F05D8DA0B02F178014B
:103CD000C900773220E740F254518A4205D89A0C45
:103CE00002F17D01C9007C3216E74FF47E717E221D
:103CF00012E77B6880E7F00806F1080300E600BFE2
:103D0000680A002082B049B15AB16BB113780B60D8
:103D10001278101C18BF012002B0704701A9002AB8
:103D2000F3D1104602B070476FF00100F4E700BF16
:103D300001F0FF01102A2BDB10F0070F08D010F85C
:103D4000013B013A8B422DD010F0070F42B3F6D160
:103D5000F0B441EA012141EA014122F007047FF079
:103D600000070023F0E80256083C85EA010586EAD0
:103D7000010685FA47F5A3FA87F586FA47F6A5FA0C
:103D800087F68EB9EED1F0BC01F0FF0102F0070218
:103D900032B110F8013B013A83EA010313B1F8D1C3
:103DA0000020704701387047002D06BF35460338A4
:103DB000073815F0010F07D1013015F4807F02BFDD
:103DC000013015F4C03F0130F0BC0138704700BF2E
:103DD000844641EA000313F003036DD1403A41D316
:103DE00051F8043B40F8043B51F8043B40F8043BD5
:103DF00051F8043B40F8043B51F8043B40F8043BC5
:103E000051F8043B40F8043B51F8043B40F8043BB4
:103E100051F8043B40F8043B51F8043B40F8043BA4
:103E200051F8043B40F8043B51F8043B40F8043B94
:103E300051F8043B40F8043B51F8043B40F8043B84
:103E400051F8043B40F8043B51F8043B40F8043B74
:103E500051F8043B40F8043B51F8043B40F8043B64
:103E6000403ABDD2303211D351F8043B40F8043B04
:103E700051F8043B40F8043B51F8043B40F8043B44
:103E800051F8043B40F8043B103AEDD20C3205D314
:103E900051F8043B40F8043B043AF9D2043208D00C
:103EA000D2071CBF11F8013B00F8013B01D30B887E
:103EB00003806046704700BF082A13D38B078DD05C
:103EC00010F003038AD0C3F10403D21ADB071CBF2E
:103ED00011F8013B00F8013B80D331F8023B20F898
:103EE000023B7BE7043AD9D3013A11F8013B00F8D1
:103EF000013BF9D20B7803704B7843708B78837059
:103F0000604670478842F0B50DD98B1898420AD2A6
:103F10008418002A51D0224613F8014D02F8014DB1
:103F20009942F9D1F0BD0F2A48D941EA00039B0715
:103F300046D100F1100401F11003154653F8106C3E
:103F400044F8106C53F80C6C44F80C6C53F8086C83
:103F500044F8086C103D53F8046C44F8046C0F2DC1
:103F600003F1100304F11004E8D8A2F1100323F0C8
:103F70000F0302F00F0E1033BEF1030F1944034478
:103F800021D91E1F0D467446043C55F8047B46F8A3
:103F9000047F032CF8D8AEF1040424F003040434A5
:103FA0002144234402F0030262B1013B0A4411F8A8
:103FB000014B03F8014F8A42F9D1F0BD0346F3E704
:103FC0000346F2E7F0BD7246EEE700BF704700BF60
:103FD000704700BF002900F095802DE9F04F0D4695
:103FE000164683B0804606F10B07FFF7EFFF55F842
:103FF00004EC162F2EF00304A5F108093CD810227A
:104000001746BE423DD8944243DAC44B996809EB47
:104010000400884200F0B480436823F001010144A9
:104020004968C9074CD51EF0010F00F09B8031464E
:104030004046FFF7B7FB064600283AD055F8043C47
:1040400023F001034B44A0F108029A4200F02181C1
:10405000221F242A00F20781132A00F2DB80034684
:104060002A46116819605168596092689A60294619
:104070004046FFF787F81CE027F00707002F3A4675
:10408000BFDA00260C233046C8F8003003B0BDE884
:10409000F08F2E46E31B0F2B1ED8D9F8043003F007
:1040A000010323434C44C9F80430636843F001031F
:1040B00063604046FFF78CFF304603B0BDE8F08FE9
:1040C00023F00303E11891421FDBC36882682E4688
:1040D000D3600C469A60DDE7D9F8042009EB0701AC
:1040E00002F001024C4443F001031743C9F8047085
:1040F0004B60636843F00103083163604046FFF79B
:1041000041F8D6E71146FFF74DBB1EF0010F8ED1E7
:1041100055F8081CA9EB010ADAF8041021F0030194
:104120000B442344934225DBC26881685646CA602B
:104130009160DAF80C1056F8080F221F242AC1608B
:10414000886000F29480132A6FD92968CAF8081091
:104150006968CAF80C101B2A00F2A28008350AF11F
:10416000100263E055F8083CA9EB030ADAF80410E2
:1041700021F0030163189342FFF659AF5646D8E782
:10418000416821F0030BA34407F11000834556DA80
:104190001EF0010F7FF44BAF55F8081CA9EB010A84
:1041A000DAF8041021F003018B445845E2DC56464E
:1041B000DAF80C1056F8080F221F242AC160886014
:1041C00000F28F80132A40F28A802968CAF808100A
:1041D0006968CAF80C101B2A00F28A8008350AF1B7
:1041E00010022968116069685160A96891600AEB42
:1041F0000701ABEB070242F0010299604A60DAF86E
:10420000043003F001031F434046CAF80470FFF76F
:10421000DFFE51E72B6803606B6843601B2A2DD8D3
:1042200000F1080305F108021BE732462968116016
:1042300069685160A96891601C46D1462AE709EB7C
:104240000701ABEB070B4BF0010299604A6055F890
:10425000043C03F001031F43404645F8047CFFF78C
:10426000B7FE2E4628E72946FFF74CFEFFE6294613
:1042700030461C46D146FFF745FE0BE7AB6883602E
:10428000EB68C360242A17D000F1100305F1100277
:10429000E7E650F8043C23F003031C442E46F9E6FD
:1042A000A968CAF81010E968CAF81410242A0CD0BA
:1042B00010350AF11802B9E72B6903616B69436194
:1042C00005F1180200F11803CBE62A69CAF8182094
:1042D0006A69CAF81C2018350AF12002A6E732469E
:1042E0007FE7294630460193FFF70CFE019B7EE7EE
:1042F000A968CAF81010E968CAF81410242A03D073
:1043000010350AF118026CE72A69CAF818206A69A0
:10431000CAF81C2018350AF1200262E7BC0500200B
:1043200038B5074C0023054608462360FCF72CFDF2
:10433000431C00D038BD2368002BFBD02B6038BD58
:10434000D40A002010B50C46B1F90E1000F0C4F9E3
:10435000002803DB236D0344236510BDA38923F4E8
:104360008053A38110BD00BF2DE9F0411646B1F97D
:104370000C201F46D3050C46054607D50022022314
:10438000B1F90E1000F092F9B4F90C20B4F90E1046
:1043900022F48052A2813B4632462846BDE8F041D5
:1043A00000F0A4B810B50C46B1F90E1000F07EF97B
:1043B000A389421C0EBF23F4805343F4805320652D
:1043C000A38110BDB1F90E1000F0F8B8F8B50D4694
:1043D0001446064610B1836B002B4BD0B4F90C2069
:1043E000A369A36091B2080739D52369002B36D0A1
:1043F000EDB289042F4615D522686169D31A8B4224
:104400001CDA0133A168501C0139A16020601570CD
:1044100062699A421AD0A389DB0701D50A2D15D00B
:104420003846F8BD616E42F4005221F40051A28179
:10443000226861666169D31A8B42E2DB214630460D
:10444000FEF736FD40B922680123DBE721463046FE
:10445000FEF72EFD0028E3D04FF0FF37E0E72146BE
:104460003046FEF711FC0028F6D1B4F90C20236980
:1044700091B2BDE7FEF7B0FDB0E700BFF0B506466C
:1044800085B01F4689B1104C104D2468646B002C18
:1044900008BF2C46D4F8E040A047431C03D10022BB
:1044A0008A233A60336005B0F0BD0C460649074ADE
:1044B0000968496B002908BF11462246D1F8E0403F
:1044C00001A9A047E9E700BF240000205004002014
:1044D00021B1FF2A04D80A700120704708467047AE
:1044E0008A2303604FF0FF30704700BF70B50D4660
:1044F000084C114606461A46284600232360FBF75F
:104500006BFE431C00D070BD2368002BFBD03360D2
:1045100070BD00BFD40A00202DE9F047254C256866
:10452000D5F848410646884692469946C4B3606825
:104530001F2817DC431C76B104EB80050122C5F867
:1045400088A0D4F8881182401143022EC4F8881143
:10455000C5F808911ED00230636044F82080002026
:10456000BDE8F087144B03B34FF4C870FFF712F99E
:104570000446D0B1D5F84831002780E88800C5F856
:10458000484138460123C4F88871C4F88C71002E64
:10459000E1D0D1E7D4F88C110A43C4F88C21DAE7D2
:1045A00005F5A674C5F84841C1E74FF0FF30BDE8F6
:1045B000F08700BF484B40009537400038B5074CA6
:1045C0000023054608462360FCF7FAFB431C00D095
:1045D00038BD2368002BFBD02B6038BDD40A0020E7
:1045E00070B539B105460C4608B1836B83B3B4F995
:1045F0000C3013B90026304670BD21462846FEF720
:10460000B7FBE36A064633B1E169284698470028BC
:10461000B8BF4FF0FF36A3891B061CD4216B41B1F4
:1046200004F14003994202D02846FEF7ABFD002377
:104630002363616C21B12846FEF7A4FD0023636467
:10464000FEF7D0FC0023A381FEF7CEFC304670BD00
:10465000FEF7C2FCCBE721692846FEF793FDDDE7B4
:1046600038B50B46074C0546114618460023236013
:10467000FCF7A9FB431C00D038BD2368002BFBD0FE
:104680002B6038BDD40A002038B5074C00230546FE
:1046900008462360FCF79CFB431C00D038BD236810
:1046A000002BFBD02B6038BDD40A002070B50D461E
:1046B000084C114606461A46284600232360FCF79C
:1046C00089FB431C00D070BD2368002BFBD03360F6
:1046D00070BD00BFD40A002070B50D46084C1146CD
:1046E00006461A46284600232360FBF757FD431C65
:1046F00000D070BD2368002BFBD0336070BD00BFBD
:10470000D40A002053B94AB9002908BF00281CBFA9
:104710004FF0FF314FF0FF3000F07AB9ADF1080CE7
:104720006DE904CE00F006F8DDF804E0DDE90223CF
:1047300004B070472DE9F0478C460D460446089EAC
:10474000002B51D18A4217466DD9B2FA82FEBEF1D2
:10475000000F0BD0CEF1200C01FA0EF520FA0CFC64
:1047600002FA0EF74CEA050C00FA0EF44FEA174A6B
:10477000250CBCFBFAF81FFA87F90AFB18CC45EAAE
:104780000C4508FB09F3AB420AD9ED1908F1FF32D9
:1047900080F02381AB4240F22081A8F102083D4421
:1047A000ED1AA4B2B5FBFAF00AFB105544EA054431
:1047B00000FB09F9A14509D9E41900F1FF3380F0A4
:1047C0000A81A14540F2078102383C44A4EB090468
:1047D00040EA08400021002E61D024FA0EF40023A4
:1047E00034607360BDE8F0878B4207D9002E54D047
:1047F000002186E821000846BDE8F087B3FA83F17E
:10480000002940F08E80AB4202D3824200F2FA804F
:10481000841A65EB03050120AC46002E3FD086E8E4
:104820001010BDE8F08712B90127B7FBF2F7B7FA0D
:1048300087FEBEF1000F34D1EB1B3A0C1FFA87FC48
:104840000121B3FBF2F8250C02FB183345EA0345BE
:104850000CFB08F3AB4207D9ED1908F1FF3002D287
:10486000AB4200F2D1808046ED1AA3B2B5FBF2F064
:1048700002FB105543EA05440CFB00FCA44507D994
:10488000E41900F1FF3302D2A44500F2B8801846C3
:10489000A4EB0C0440EA08409DE731463046BDE8F1
:1048A000F087CEF1200405FA0EF307FA0EF720FA8E
:1048B00004F83A0C25FA04F448EA0308B4FBF2F1D0
:1048C0004FEA184502FB11441FFA87FC45EA0445EC
:1048D00001FB0CF3AB4200FA0EF409D9ED1901F11A
:1048E000FF3080F08A80AB4240F2878002393D443D
:1048F000EB1A1FFA88F5B3FBF2F002FB103345EA1E
:10490000034500FB0CF3AB4207D9ED1900F1FF386A
:104910006FD2AB426DD902383D44EB1A40EA0141F7
:104920008FE7C1F1200722FA07F88B4005FA01F45E
:1049300048EA030320FA07FE4FEA134CFD404EEA13
:10494000040EB5FBFCF94FEA1E440CFB19551FFA87
:1049500083F844EA054509FB08F4AC4202FA01F287
:1049600000FA01FA08D9ED1809F1FF3043D2AC4240
:1049700041D9A9F102091D442D1B1FFA8EFEB5FB7A
:10498000FCF00CFB10554EEA054400FB08F8A0456E
:1049900007D9E41800F1FF3529D2A04527D90238FC
:1049A0001C4440EA0940A4EB0804A0FB02894C45E2
:1049B000C6464D4615D312D056B1BAEB0E0364EB82
:1049C000050404FA07F7CB401F43CC4037607460FE
:1049D0000021BDE8F0871846F8E69046E0E6C245BB
:1049E000EAD2B8EB020E69EB03050138E4E728468A
:1049F000D7E7404691E78146BEE7014678E70238AF
:104A00003C4445E7084608E7A8F102083D442BE787
:104A1000704700BF01000000020000000400000019
:104A2000080000001000000020000000400000000E
:104A300080000000000100000002000000040000EF
:104A4000457865637574616E646F204D616C686153
:104A500020646520436F6E74726F6C650D0A0000F0
:104A600064697374616E63653A202569202F20257F
:104A7000660D0A0073656E736F723A2025750D0A14
:104A800000000000427574746F6E204C65667420DF
:104A9000495352200D0A0000427574746F6E205203
:104AA0006967687420495352200D0A00436F6E668F
:104AB000696775726163616F2053656E736F7220F1
:104AC000495352200D0A000054696D657220302050
:104AD000436F6E666967757261646F2070617261A1
:104AE000203130306D730D0A0000000054696D658F
:104AF00072203120436F6E666967757261646F2042
:104B00007061726120313075730D0A0055706461F7
:104B100074652044757479210D0A000053656E7325
:104B20006F7220495352200D0A000000496E6963DC
:104B300069616C697A696E67204265616D204261C6
:104B40006C6C0D0A00000000280000203031323368
:104B50003435363738394142434445460000000079
:104B600030313233343536373839616263646566E3
:104B700000000000286E756C6C29000020202020A9
:104B800020202020202020202020202030303030E5
:104B90003030303030303030303030304300000092
:104BA000504F5349580000002E00000000202020E4
:104BB00020202020202028282828282020202020CD
:104BC000202020202020202020202020208810109D
:104BD00010101010101010101010101010040404F9
:104BE00004040404040404101010101010104141B7
:104BF00041414141010101010101010101010101A5
:104C000001010101010101011010101010104242B8
:104C10004242424202020202020202020202020274
:104C20000202020202020202101010102000000014
:104C30000000000000000000000000000000000074
:104C40000000000000000000000000000000000064
:104C50000000000000000000000000000000000054
:104C60000000000000000000000000000000000044
:104C70000000000000000000000000000000000034
:104C80000000000000000000000000000000000024
:104C90000000000000000000000000000000000014
:104CA0000000000000000000000000000000000004
:104CB000F8B500BFF8BC08BC9E467047512D4000B7
:104CC000F1004000F8B500BFF8BC08BC9E46704734
:044CD000CD004000D3
:084CD40060FAFF7F01000000FF
:104CDC00BFF35F8F0138FBD17047000000093D0026
:104CEC000A00000000C20100C00000000008000023
:104CFC000000000028000020000000001403002029
:104D0C007C030020E40300200000000000000000F1
:104D1C000000000000000000000000000000000087
:104D2C000000000000000000000000000000000077
:104D3C000000000000000000000000000000000067
:104D4C000000000000000000000000000000000057
:104D5C000000000000000000000000000000000047
:104D6C000000000000000000000000000000000037
:104D7C000000000000000000000000000000000027
:104D8C000000000000000000000000000000000017
:104D9C000000000000000000000000000000000007
:104DAC0001000000000000000E33CDAB34126DE6A4
:104DBC00ECDE05000B00000000000000000000000D
:104DCC0000000000000000000000000000000000D7
:104DDC0000000000000000000000000000000000C7
:104DEC0000000000000000000000000000000000B7
:104DFC0000000000000000000000000000000000A7
:10512C004300000000000000000000000000000030
:10513C000000000000000000000000000000000063
:10514C004300000000000000000000000000000010
:10515C000000000000000000000000000000000043
:10516C0043000000000000000000000000000000F0
:10517C000000000000000000000000000000000023
:10518C0043000000000000000000000000000000D0
:10519C000000000000000000000000000000000003
:1051AC0043000000000000000000000000000000B0
:1051BC0000000000000000000000000000000000E3
:1051CC004300000000000000000000000000000090
:1051DC0000000000000000000000000000000000C3
:1051EC004300000000000000000000000000000070
:1051FC0000000000000000000000000000000000A3
:10520C00D1444000053D400000000000AC4B400084
:10521C00A84B4000444B4000444B4000444B4000E2
:10522C00444B4000444B4000444B4000444B400036
:10523C00444B4000444B4000FFFFFFFFFFFFFFFFCC
:10524C00FFFFFFFFFFFF00000100415343494900EE
:10525C000000000000000000000000000000000042
:10526C0000000000000000000000415343494900C9
:10527C000000000000000000000000000000000022
:10528C000000000000000000000000000000000012
:10529C0000000000BC050020BC050020C405002057
:1052AC00C4050020CC050020CC050020D40500202E
:1052BC00D4050020DC050020DC050020E4050020DE
:1052CC00E4050020EC050020EC050020F40500208E
:1052DC00F4050020FC050020FC050020040600203D
:1052EC00040600200C0600200C06002014060020EA
:1052FC00140600201C0600201C060020240600209A
:10530C00240600202C0600202C0600203406002049
:10531C00340600203C0600203C06002044060020F9
:10532C00440600204C0600204C06002054060020A9
:10533C00540600205C0600205C0600206406002059
:10534C00640600206C0600206C0600207406002009
:10535C00740600207C0600207C06002084060020B9
:10536C00840600208C0600208C0600209406002069
:10537C00940600209C0600209C060020A406002019
:10538C00A4060020AC060020AC060020B4060020C9
:10539C00B4060020BC060020BC060020C406002079
:1053AC00C4060020CC060020CC060020D406002029
:1053BC00D4060020DC060020DC060020E4060020D9
:1053CC00E4060020EC060020EC060020F406002089
:1053DC00F4060020FC060020FC0600200407002038
:1053EC00040700200C0700200C07002014070020E5
:1053FC00140700201C0700201C0700202407002095
:10540C00240700202C0700202C0700203407002044
:10541C00340700203C0700203C07002044070020F4
:10542C00440700204C0700204C07002054070020A4
:10543C00540700205C0700205C0700206407002054
:10544C00640700206C0700206C0700207407002004
:10545C00740700207C0700207C07002084070020B4
:10546C00840700208C0700208C0700209407002064
:10547C00940700209C0700209C070020A407002014
:10548C00A4070020AC070020AC070020B4070020C4
:10549C00B4070020BC070020BC070020C407002074
:1054AC00C4070020CC070020CC070020D407002024
:1054BC00D4070020DC070020DC070020E4070020D4
:1054CC00E4070020EC070020EC070020F407002084
:1054DC00F4070020FC070020FC0700200408002033
:1054EC00040800200C0800200C08002014080020E0
:1054FC00140800201C0800201C0800202408002090
:10550C00240800202C0800202C080020340800203F
:10551C00340800203C0800203C08002044080020EF
:10552C00440800204C0800204C080020540800209F
:10553C00540800205C0800205C080020640800204F
:10554C00640800206C0800206C08002074080020FF
:10555C00740800207C0800207C08002084080020AF
:10556C00840800208C0800208C080020940800205F
:10557C00940800209C0800209C080020A40800200F
:10558C00A4080020AC080020AC080020B4080020BF
:10559C00B4080020BC080020BC080020C40800206F
:1055AC00C4080020CC080020CC080020D40800201F
:1055BC00D4080020DC080020DC080020E4080020CF
:1055CC00E4080020EC080020EC080020F40800207F
:1055DC00F4080020FC080020FC080020040900202E
:1055EC00040900200C0900200C09002014090020DB
:1055FC00140900201C0900201C090020240900208B
:10560C00240900202C0900202C090020340900203A
:10561C00340900203C0900203C09002044090020EA
:10562C00440900204C0900204C090020540900209A
:10563C00540900205C0900205C090020640900204A
:10564C00640900206C0900206C09002074090020FA
:10565C00740900207C0900207C09002084090020AA
:10566C00840900208C0900208C090020940900205A
:10567C00940900209C0900209C090020A40900200A
:10568C00A4090020AC090020AC090020B4090020BA
:0C569C00B4090020FFFFFFFF0000020027
:0400000500400B3973
:00000001FF
