:020000040040BA
:10000000B80C0020A9054000A5054000A50540004A
:10001000A5054000A5054000A50540000000000022
:10002000000000000000000000000000A5054000E6
:10003000A505400000000000A5054000A505400002
:10004000A5054000A5054000A5054000A505400008
:10005000A5054000A5054000A5054000A5054000F8
:10006000A5054000A5054000A50540003D05400050
:100070005105400065054000A5054000A50540006C
:10008000A5054000A5054000A5054000A5054000C8
:10009000A5054000A5054000A5054000A5054000B8
:1000A000A5054000A5054000A5054000A5054000A8
:1000B000A5054000A5054000A5054000A505400098
:1000C000A505400010B5054C237833B9044B13B196
:1000D0000448AFF300800123237010BD28040020E2
:1000E00000000000680840000C4B43B10C4810B5FC
:1000F0000C49AFF300800C48036823B910BD0A48CF
:10010000036833B97047094B002BF7D0BDE81040A6
:100110001847064B002BF5D0184700BF0000000021
:10012000680840002C04002068084000000000001F
:1001300010B54FF400422C4B5A600B202B4CA047BB
:100140000C20A0470D20A0474FF060511720284CED
:10015000A0474FF060512E20A04726490F20A0470E
:1001600025491020A0474FF000624FF4C06123489A
:10017000234B98474FF080510020A0474FF080510B
:100180000820A0474FF000610C20A0474FF000610D
:100190000D20A0474FF000610E20A0474FF00061F6
:1001A0001F20A0474FF080511E20A0474FF0006154
:1001B0000C20A0474FF000610D20A0474FF00061D8
:1001C0000E20A0474FF080511E20A0474FF06051F5
:1001D0001C20A0474FF060511D20A0474FF06051F8
:1001E0004D20A04710BD00BF50140E4079054000BF
:1001F000F50240007900002859000028000E0E404A
:10020000150440004264B1F1C05F39D013D8B1F198
:10021000006F25D0B1F1805F0AD1036F13430367EC
:10022000436F416F0B4023EA02034367426070470C
:100230000029FBD17047B1F1205F20D009D8B1F17E
:10024000005FF3D1036F13430367436F13434367A7
:10025000ECE7B1F1405F12D0B1F1605F0FD0E5E79C
:1002600010B4016F046FD34321401C46194001674D
:10027000436F416F0B4023404367426010BC70479F
:10028000036F016F0B4023EA02030367436F1343BD
:100290004367CBE7416412F0010F14BF416601666A
:1002A00012F00A0F14BF0162416212F0020F07D16F
:1002B00012F0080F18BFC0F8841041610160704748
:1002C000C0F88010F9E710B4019C416444B901669C
:1002D00043B1016542B941630161016010BC7047DF
:1002E0004166F5E74165F5E70163F5E7C06C7047E6
:1002F000806C704770B582B00D46430903F500135A
:1003000003F207735C0201F0F043B3F1005F53D0D6
:100310000AD8B3F1805F2DD0B3F1C05F3BD0B3F109
:10032000006F15D0002023E0B3F1405F55D0B3F14A
:10033000605F52D0B3F1205FF4D100F01F010126BD
:100340002A4606FA01F120462F4B984730460FE027
:1003500000F01F000126864032464FF00061204623
:100360002A4B984715F0010F14BF666626660120D8
:1003700002B070BD00F01F000126864032464FF0EB
:1003800080512046214B984715F0010F14BF666637
:1003900026660120ECE700F01F0001268640324669
:1003A0004FF0C0512046194B984715F0010F14BF6C
:1003B000666626660120DBE700F01F000126864006
:1003C00032464FF000512046104B984715F0010F70
:1003D00014BF666626660120CAE705F0605200F089
:1003E0001F01012605EA06030093C5F38003B2F15D
:1003F000605F14BF0022012206FA01F12046044C7E
:10040000A0473046B4E700BF950240000502400017
:10041000C702400070B582B005460E46144602F091
:10042000F043B3F1005F3DD00AD8B3F1805F21D033
:10043000B3F1C05F2AD0B3F1006F0ED0002017E0F7
:10044000B3F1405F3AD0B3F1605F37D0B3F1205FD2
:10045000F4D1234B984701200AE00A464FF000618F
:10046000204B984714F0010F14BF6E662E660120D2
:1004700002B070BD0A464FF080511A4B984714F0F5
:10048000010F14BF6E662E660120F1E70A464FF099
:10049000C051144B984714F0010F14BF6E662E66BE
:1004A0000120E5E70A464FF000510E4B984714F043
:1004B000010F14BF6E662E660120D9E704F060526A
:1004C00004F001030093C4F38003B2F1605F14BF32
:1004D0000022012231462846034CA0470120C7E7ED
:1004E0009502400005024000C70240002DE9F0419E
:1004F000044688460E4B9847054620460D4B9847C4
:10050000054013D00C4C04F1600603E0B4420DD05A
:1005100010345DB120684045F8D161682942F5D0BA
:10052000E3689847636825EA0305EFE7BDE8F081D3
:10053000ED024000F10240004404002008B50B2108
:100540000148024B984708BD000E0E40ED044000E4
:1005500008B50C210148024B984708BD00100E4019
:10056000ED04400008B50D210148024B984708BD35
:1005700000120E40ED0440001F280CD8084B9A6969
:1005800001238340934308D0012303FA00F0044B76
:10059000186100207047012070470020704700BF9D
:1005A00000040E40FEE7000008B51C4B1C4A9A42AE
:1005B00010D01C4B194A9A420CD2013B9B1A23F0D3
:1005C000030304331344164951F8040B42F8040B97
:1005D0009A42F9D1144B154A9A420AD2013B9B1A0E
:1005E00023F0030304331344002142F8041B934215
:1005F000FBD10F4B23F0604222F07F020D498A604D
:1006000003F16043B3F5C04F03D28B6843F000534E
:100610008B60094B9847094B9847FEE70000002084
:100620006808400028040020B804002028040020A6
:100630000000400000ED00E0F106400041064000EF
:1006400080B54FF40042234B5A60234B9847234B0D
:100650004FF400025A601A6F42F400021A675A6F90
:1006600022F400025A674FF00042A3F520631A619A
:100670001B4B0022C3F8002249F64042C3F808226F
:1006800044F62062C3F8042201225A60154A164833
:1006900049F64041154F47F230551C4642F210765C
:1006A00009E0D2F800E0A7FB0EC35B0B05FB13E3E8
:1006B0000BB9C4F80452136801331360D2F800E098
:1006C000A0FB0EC3DB0B01FB13E3002BE9D1C4F845
:1006D0000462F0E750140E4031014000000E0E405D
:1006E00000000240B40400205917B7D173B2E745A7
:1006F00070B50F4E0F4D761BB61018BF002405D0F5
:10070000013455F8043B9847A642F9D10A4E0B4DE7
:1007100000F098F8761BB61018BF002406D00134FC
:1007200055F8043B9847A642F9D170BD70BD00BF93
:100730005008400050084000580840005008400051
:10074000024B13B1024800F005B8704700000000EA
:1007500061074000002301461A46184600F01AB807
:1007600038B50A4C0A4D641BA4100AD004F180432A
:10077000013B05EB8305013C55F804399847002CF3
:10078000F9D1BDE8384000F067B800BF6808400004
:10079000640840002DE9F047274C07462668884644
:1007A000D6F8484192469946002C3CD065681F2DEA
:1007B0001ADC05F1010E7FB1012004EB8503C3F8BB
:1007C00088A0D4F8881100FA05F21143022FC4F86A
:1007D0008811C3F8089120D00235C4F804E0002045
:1007E00044F82580BDE8F087144B0BB34FF4C87074
:1007F000AFF300800446D8B10020D6F848314FF05E
:10080000010E606023600546C6F84841C4F88801BF
:10081000C4F88C01002FDFD0CEE7D4F88C311A4316
:10082000C4F88C21D8E706F5A674C6F84841BDE7A0
:100830004FF0FF30BDE8F0874008400000000000A6
:1008400000000020F8B500BFF8BC08BC9E46704709
:1008500041074000E9004000F8B500BFF8BC08BC03
:080860009E467047C5004000F0
:1008680000000000EC02002054030020BC0300201C
:100878000000000000000000000000000000000070
:100888000000000000000000000000000000000060
:100898000000000000000000000000000000000050
:1008A8000000000000000000000000000000000040
:1008B8000000000000000000000000000000000030
:1008C8000000000000000000000000000000000020
:1008D8000000000000000000000000000000000010
:1008E8000000000000000000000000000000000000
:1008F80000000000000000000000000000000000F0
:1009080000000000000000000100000000000000DE
:100918000E33CDAB34126DE6ECDE05000B000000A3
:1009280000000000000000000000000000000000BF
:1009380000000000000000000000000000000000AF
:10094800000000000000000000000000000000009F
:10095800000000000000000000000000000000008F
:04000005004005A909
:00000001FF
